:020000040802F0
:10000000E8870120013E0208BD3C0208BF3C02080F
:10001000C33C0208C73C0208CB3C020800000000B9
:10002000000000000000000000000000133E020875
:10003000D33C020800000000173E0208D53C02082D
:100040001B3E02081B3E02081B3E02081B3E020824
:100050001B3E02081B3E02081B3E02081B3E020814
:100060001B3E02081B3E02081B3E02081B3E020804
:100070001B3E0208DD3C02081B3E0208E53C02086C
:100080001B3E02081B3E02081B3E02081B3E0208E4
:100090001B3E02081B3E02081B3E02081B3E0208D4
:1000A0001B3E02081B3E02081B3E02081B3E0208C4
:1000B0001B3E02081B3E02081B3E02081B3E0208B4
:1000C0001B3E02081B3E02081B3E02081B3E0208A4
:1000D0001B3E02081B3E02081B3E02081B3E020894
:1000E0001B3E02081B3E02081B3E02081B3E020884
:1000F0001B3E02081B3E02081B3E02081B3E020874
:100100001B3E02081B3E02081B3E02081B3E020863
:100110001B3E02081B3E02081B3E02081B3E020853
:100120001B3E02081B3E02081B3E02081B3E020843
:100130001B3E02081B3E02081B3E02081B3E020833
:100140001B3E02081B3E02081B3E02081B3E020823
:100150001B3E02081B3E02081B3E02081B3E020813
:100160001B3E02081B3E02081B3E02081B3E020803
:100170001B3E02081B3E02081B3E02081B3E0208F3
:100180001B3E020800F002F800F06BF80AA090E8AD
:10019000000C82448344AAF10107DA4501D100F042
:1001A00060F8AFF2090EBAE80F0013F0010F18BFA4
:1001B000FB1A43F001031847C40F0100E40F0100CC
:1001C0000A444FF0000C10F8013B13F0070408BF7D
:1001D00010F8014B1D1108BF10F8015B641E05D01B
:1001E00010F8016B641E01F8016BF9D113F0080FD0
:1001F0001EBF10F8014BAD1C0C1B09D16D1E58BF62
:1002000001F801CBFAD505E014F8016B01F8016B98
:100210006D1EF9D59142D6D370470000002300240B
:1002200000250026103A28BF78C1FBD8520728BF06
:1002300030C148BF0B60704764290EF02D847829C7
:100240000EF0668473290EF0BA87002070471FB540
:100250000FF069F89DE803000EF0F0FE1FBD10B529
:1002600010BD0EF0D7FF1146FFF7F1FF00F018F8B0
:100270000EF0F5FF03B4FFF7F2FF03BC0FF022F816
:10028000EFF30980704780F309887047EFF3088027
:10029000704780F30888704740BA7047C0BA70470B
:1002A0004FF00000564908605649086056490860FA
:1002B0000EF06AF84FF47A7002F00AFE00F03AFC91
:1002C0004FF47A7002F004FE00F046FC03F05EFC8E
:1002D00000F0EBF800F0E9F800F0CAFD00F0E2FDF4
:1002E00000F0E3F800F0E1F800F09AFA03F032FBD6
:1002F00002F0B4FF4FF47A7002F0EAFD00F0D5F896
:1003000000F0D3F803F0CCFB4FF47A7002F0E0FD7C
:1003100000F0CBF800F0C9F80DF0E9FA6EE000F05B
:1003200092FA02F0B4FC4FF47A71364800F0F9F812
:1003300008B100F0BAF841F28831334800F0F1F822
:1003400020B101200CF03BFA00F07EFD4CF2503160
:100350002B4800F0E6F808B100F080FE0DF03DFDFE
:1003600001F0A5FD29480068642805DB4FF0000076
:100370002649086003F073FC25480068C82805DB9F
:100380004FF002002249086003F06AFC214800682F
:10039000B0F5FA7F05DB4FF000001E49086003F05E
:1003A00060FC1D480068B0F57A7F05DB4FF0000067
:1003B0001949086003F05BFC1848006841F2883175
:1003C000884203DB4FF000001449086014480068BD
:1003D00042F21071884205DB4FF0000010490860BE
:1003E00003F053FC0F48006844F62061884205DBA7
:1003F0004FF000000B49086003F04BFC8FE7000052
:100400000C000020080000200400002058020020FA
:100410005C020020600200206402002068020020CC
:100420006C0200207002002006E04FF0000200F88D
:10043000012BA1F1010291B20029F6DC704704E022
:1004400000F8011BA2F101039AB2002AF8DC704700
:1004500006E011F8013B00F8013BA2F101039AB25A
:10046000002AF6DC704700001CB54FF001008DF843
:1004700004004FF000008DF806004FF003008DF8E7
:1004800005004FF000008DF807004FF004000090C9
:10049000694636480BF034F8042134480BF0C9F8AB
:1004A000042132480BF0C7F81CBD10B504212F48B9
:1004B0000BF0AFF8C0F10100C4B2224604212B4872
:1004C0000BF0BBF810BD2A48007860B14FF0000077
:1004D000284908604FF00100274908804FF00000CC
:1004E0002349087006E02348006823490988084426
:1004F000204908602148007800F101001F49087078
:10050000084600781E490978884209DB4FF0000050
:100510001A4908701B48007800F101001949087059
:1005200070470246E1B1134B10681B6898420CD922
:100530001068C0F1FF300F4B1B68184488420FD37E
:100540000C4800681060012070470A4B10681B6857
:10055000181A884204D30748006810600120F3E7A6
:100560000020F1E7034908687047000000100240CE
:10057000200000201C000020180000202100002086
:10058000620300200200002010B50446012C01DBAC
:10059000112C00DD10BD601E994901EB4000407830
:1005A000C0F3001020B1802196480BF042F803E020
:1005B000802194480BF03FF8601E914901EB400008
:1005C0004078C0F3C00028B14FF480718D480BF023
:1005D00030F804E04FF480718A480BF02CF8601E6C
:1005E000874901EB40004078C0F3800028B14FF408
:1005F000007184480BF01DF804E04FF4007181484D
:100600000BF019F8601E7E4901EB40004078C0F302
:10061000000028B14FF480617A480BF00AF804E03A
:100620004FF4806177480BF006F8601E744901EBC7
:1006300040004078C0F3400028B14FF40061724898
:100640000AF0F9FF04E04FF400616F480AF0F1FF8F
:1006500000BF9FE710B54FF480616B480AF0EBFFD5
:100660004FF4004167480AF0E6FF10BD1CB54FF09B
:1006700001008DF804004FF000008DF806004FF0E7
:1006800003008DF805004FF000008DF807004FF6CD
:100690008070009069465B480AF032FF4FF440607A
:1006A0000090694658480AF02BFFFFF7D3FF0DF082
:1006B000DEF84FF4006154480AF0BDFF1CBD2DE97F
:1006C000F0414FF00006374650490978A1F101008A
:1006D0004FEAE07100EB51714FEAE101A0EBC1017B
:1006E000C1F107024FF0010101FA02F1CEB2474910
:1006F0000978A1F101004FEAE07100EB5171C1F3FB
:10070000C7074FF0000445E020464FEAE47204EBCF
:1007100052724FEAE2024FEAC20202F10702214698
:100720004FEAE47304EB53734FEAE303A4EBC30310
:10073000A2EB0302D5B2364800EB4500C05D304263
:1007400005D04FF480412F480AF073FF04E04FF4C6
:1007500080412C480AF06FFF2E4800EB4500C05D39
:10076000304205D04FF4805126480AF062FF04E081
:100770004FF4805123480AF05EFF4FF48061224815
:100780000AF057FF4FF480611F480AF054FF04F14C
:100790000100C4B2902CB7DB4FF400611A480AF094
:1007A0004AFF1D48008802F093FB4FF400411548B2
:1007B0000AF03FFF4FF4004112480AF03CFF134893
:1007C0000078FFF7E1FE1148007800F101000F49C1
:1007D000087008460078102802DD4FF0010008700C
:1007E0000A490878C11700EB11710911A0EB01113A
:1007F000012902D1084609490870BDE8F0810000CE
:1008000034F30208001002400004024028000020D7
:100810008005002060040020640300200100002007
:1008200010B54FF00100284908604FF00A00274931
:10083000087003F0A6FA264908704FF00100254918
:10084000088010BD7047704700B51F48006800F170
:1008500001001D49086008460068142809D14FF0BE
:10086000000008604FF001001B490860FFF7EAFF35
:1008700008E015480068B0F57A7F03DD4FF47A7020
:100880001149086000BD704710B50446402C02DDD8
:100890004FF0FF3010BD0E490C7003F05FF800F010
:1008A0005AFB0020F6E710B50446B4F5803F02DDA0
:1008B0004FF0FF3010BD07490C8003F04FF800F0F7
:1008C0003AFB0020F6E70000300000202C0000205A
:1008D0002D0000202E0000203400002010B504461A
:1008E0007E4804600068002804DA4FF000007B496D
:1008F000086007E079480068282803DD4FF02800E9
:100900007649086075480068C0B201F0B6FF03F090
:1009100025F8002010BD10B54FF0000407E04FF09F
:1009200000006F4908556F49085504F10104012C76
:10093000F5DB6B486C4908606A486C4908604FF009
:1009400000006B4908606B4908606B4908606B499F
:1009500008606B486B4908604FF000006A49086006
:100960004FF002006949086069486A4908604FF021
:100970000000694908604FF00200684908604FF0C4
:100980000000674908604FF00100664908604FF0B9
:100990000000654908604FF00A005049086001F006
:1009A00066FF4FF47A7002F093FA01F0C9FC01F08F
:1009B000EBFC4FF47A7002F08BFA01F0CBFD01F002
:1009C000EDFD4FF47A7002F083FA42F2107002F0FB
:1009D0007FFA42F2107002F07BFA03F061F842F203
:1009E000107002F075FA42F2107002F071FA3B4892
:1009F0000068FFF773FF10BD4C480068002809DD50
:100A00004FF00000494908604948006800F10100C2
:100A10004749086046480068032809DD44480068E3
:100A2000092805DA304800684FF00001017007E03E
:100A30003F480068802803DD4FF080003C49086093
:100A4000704739480068A0F101003749086008463E
:100A50000068002802DA4FF000000860704710B507
:100A60000446244800682049096808442178017038
:100A70004FF001011F48006802F08EFA1D4908601E
:100A80004FF000002A49086010BD10B504461B480D
:100A90000068164909680844217801704FF0010187
:100AA0001648006802F078FA14490860002010BD6A
:100AB00010B51C48006801280FD1194800680128AA
:100AC0000BD14FF00000164908604FF480610F48C9
:100AD000006802F061FA0C49086010BD880000202F
:100AE000380000204C0000203C0000205000002076
:100AF0004400002040000020580000205400002046
:100B0000C007002060000020680000206400002072
:100B1000C01700206C00002074000020700000202E
:100B2000780000207C00002080000020D8010020F8
:100B30004800002010B501217F200BF09FF9012112
:100B400088030BF0D7F9012108460BF0D3F90121F6
:100B500088050BF0C0F910BD1CB54FF004000090E3
:100B60004FF001008DF804004FF000008DF80600F2
:100B70004FF003008DF805004FF000008DF80700DE
:100B80006946E2480AF0BCFC4FF0080000904FF0C4
:100B900001008DF804004FF000008DF806004FF0C2
:100BA00003008DF805004FF000008DF8070069463E
:100BB000D6480AF0A5FC04220121D4480AF049FDD8
:100BC00004220021D1480AF044FD4FF002000090B9
:100BD0008DF804008DF805004FF001008DF8060037
:100BE0004FF000008DF807006946C8480AF088FCFD
:100BF0004FF0010000906946C4480AF081FC4FF4B0
:100C0000007000904FF002008DF804008DF8050090
:100C10004FF000008DF806008DF807006946BC48CB
:100C20000AF06EFC05220921B9480AF012FD4FF0C6
:100C3000400000904FF002008DF804008DF8050090
:100C40004FF000008DF806008DF807006946B048A7
:100C50000AF056FC05220621AD480AF0FAFC4FF4D2
:100C6000805000904FF002008DF804008DF80500D0
:100C70004FF000008DF806008DF807006946A54882
:100C80000AF03EFC05220C21A2480AF0E2FC4FF4D7
:100C9000005000904FF002008DF804008DF8050020
:100CA0004FF000008DF806008DF80700694699485E
:100CB0000AF026FC05220D2196480AF0CAFC4FF4E2
:100CC000004000904FF002008DF804008DF8050000
:100CD0004FF000008DF806008DF8070069468D483A
:100CE0000AF00EFC05220F218A480AF0B2FC4FF0F0
:100CF000800000904FF002008DF804008DF8050090
:100D00004FF000008DF806008DF807006946804816
:100D10000AF0F6FB062207217D480AF09AFC4FF004
:100D2000100000904FF002008DF804008DF80500CF
:100D30004FF000008DF806008DF8070069467648F0
:100D40000AF0DEFB0622042173480AF082FC4FF40D
:100D5000806000904FF002008DF804008DF80500CF
:100D60004FF000008DF806008DF8070069466848CE
:100D70000AF0C6FB06220A2165480AF06AFC4FF415
:100D8000805000904FF002008DF804008DF80500AF
:100D90004FF000008DF806008DF8070069465C48AA
:100DA0000AF0AEFB06220C2159480AF052FC4FF41F
:100DB000005000904FF001008DF804004FF000004B
:100DC0008DF806004FF003008DF805004FF000008D
:100DD0008DF80700694651480AF092FB4FF48040B5
:100DE00000904FF001008DF804004FF000008DF8E6
:100DF00006004FF003008DF805004FF000008DF85D
:100E00000700694645480AF07BFB4FF01000009050
:100E10004FF001008DF804004FF000008DF806003F
:100E20004FF003008DF805004FF000008DF807002B
:100E300069463A480AF064FBFFF716FB02F056FFDA
:100E4000FFF714FC1CBD704710B504212F480AF0B1
:100E5000E0FBC0F10100C4B2224604212B480AF095
:100E6000ECFB10BD10B5042128480AF0E4FB10BDCE
:100E700010B5042125480AF0DCFB10BD10B508218F
:100E800022480AF0C6FBC0F10100C4B22246082184
:100E90001E480AF0D2FB10BD10B508211B480AF00D
:100EA000CAFB10BD10B5082118480AF0C2FB10BDDE
:100EB00010B50446002C05DD4FF4005117480AF028
:100EC000B8FB04E04FF4005114480AF0B4FB10BD25
:100ED00010B50446002C05DD4FF480410F480AF0A0
:100EE000A8FB04E04FF480410C480AF0A4FB10BDBD
:100EF00010B50446002C04DD102108480AF099FBC7
:100F000003E0102105480AF096FB10BD00140240D2
:100F100000080240000402400000024000100240AD
:100F200070B5044620460DF0EBFE054629462046E6
:100F300001F0ECFE70BD10B54FF48071EC480DF07F
:100F4000D4FFEC480288ECA1E9480DF03FFDE848E9
:100F5000FFF7E6FF10BD10B54FF48071E4480DF0C7
:100F6000C4FFE9480278E9A1E1480DF02FFDE0480F
:100F7000FFF7D6FF10BD10B54FF48071DC480DF0BF
:100F8000B4FFE7480278E7A1D9480DF01FFDD84823
:100F9000FFF7C6FF10BD1CB54FF48071D4480DF0AB
:100FA000A4FFE548C078E4498978CDE90010E2481B
:100FB00043780278E1A1CE480DF008FDCC48FFF758
:100FC000AFFF1CBD00B59BB04FF06C02E249684614
:100FD0000DF051FF6846FFF7A3FFFFF7DCFFFFF7B7
:100FE000CAFFFFF7B8FFFFF7A6FF1BB000BD00B5B3
:100FF0008DB04FF48071BE480DF077FFD74840792F
:10100000D6490979D54AD278D44B9B78CDE90832B4
:10101000CDE90A10D14841780078D14AD278D04B36
:101020009B78CDE90432CDE90601CD484078CC4922
:101030000A78CC49C978CB4B9B78CDE90031CDE912
:101040000220C84843780278C3496C31A8480DF0A3
:10105000BDFCA748FFF764FF0DB000BD30B5B7B0C9
:101060004FF0C802C04905A80DF005FF4FF0040578
:101070004FF0140168460DF05AFF4FF000041AE0DB
:10108000681EA0420AD1B948025DB9A168460DF0B8
:101090009DFC694605A80DF09DFE09E0B348025D80
:1010A000B4A168460DF092FC694605A80DF092FEC9
:1010B00004F10100C4B2AC42E2DB05A8FFF730FF47
:1010C000FFF769FFFFF793FFFFF755FFFFF743FFB8
:1010D000FFF731FF37B030BD30B5C3B04FF0C802B5
:1010E0009D49A1F1C80111A80DF0C5FE4FF02C02D9
:1010F000A1A106A80DF0BFFE4FF004054FF01401AA
:1011000001A80DF014FF4FF000041AE0681EA04281
:101110000AD19648025D96A101A80DF057FC01A9DD
:1011200011A80DF057FE09E09048025D91A101A8B9
:101130000DF04CFC01A911A80DF04CFE04F10100CA
:10114000C4B2AC42E2DB11A8FFF7EAFEFFF723FFCF
:10115000FFF74DFFFFF70FFFFFF7FDFEFFF7EBFE79
:1011600006A8FFF7DDFE43B030BDF0B5C3B00446BE
:101170000D464FF4807103A80DF0D9FE10200346F0
:1011800003AA29460090204601F00DFF85A103A87F
:101190000DF0F4FE002833D183A107A80DF0EEFE78
:1011A00070BB0BA801F084FFC0B28DF808000FA837
:1011B00001F07EFFC0B28DF8090013A801F078FF9E
:1011C000C0B28DF80A0017A801F072FFC0B28DF806
:1011D0000B004FF4807146480DF087FE74A144481F
:1011E0000DF0F4FB4248FFF79BFE9DF80B309DF895
:1011F0000A209DF809109DF8080002F0D5F875E066
:1012000070A103A80DF0BAFE38B967A107A80DF0C8
:10121000B5FE10B9FFF7BFFE68E06AA103A80DF0A4
:10122000ADFE38B969A107A80DF0A8FE10B9FFF707
:10123000A2FE5BE05BA103A80DF0A0FE60B965A172
:1012400007A80DF09BFE38B90BA801F031FF064648
:101250003046FFF719FB49E05AA103A80DF08EFEB6
:1012600038B95CA107A80DF089FE10B9FFF773FE2D
:101270003CE04CA103A80DF081FE60B957A107A87E
:101280000DF07CFE38B90BA801F012FF064630467F
:10129000FFF709FB2AE04BA103A80DF06FFE38B958
:1012A0004EA107A80DF06AFE10B9FFF744FE1DE03D
:1012B0003CA103A80DF062FE60B94AA107A80DF099
:1012C0005DFE38B90BA801F0F3FE06463046FFF785
:1012D00005FB0BE04FF4807105480DF006FE43A1BD
:1012E00003480DF073FB0248FFF71AFE43B0F0BD50
:1012F000C02700202E000020547261696E204964CE
:101300003A20256420200A002D00002044657669DB
:1013100063652049643A20256420200A000000000B
:101320002C00002044657669636520547970653A25
:1013300020256420200A0000160200200A4C6F635A
:10134000616C2049503A2025642E25642E25642E98
:10135000256420200A000000E8F4020810020020A2
:101360001E0200201A02002058F30208A4050308F8
:101370002564000025642E00706C6561736520642F
:101380006F776E6C6F6164206170706C69636174FB
:10139000696F6E2070726F6772616D65206E6F7716
:1013A00021210A00736574006C6F63616C697000C1
:1013B0004F6B2C20706C6561736520776169742EAA
:1013C0002E2E0A0072656164000000006465767468
:1013D0007970650064657669640000007472616903
:1013E0006E696400766F6C756D650000496E76619C
:1013F0006C696420436F6D6D616E6420210A00008A
:1014000000B5AFB001214FF060600AF037FD02F087
:101410000CFE03F03BFB00BF03F03FFB0128FBD0B9
:10142000684602F00DFE4FF0010000904FF0000002
:1014300007904FF400700A904FF000000B900E9050
:10144000119013901490159020904FF000702190FF
:101450004FF4001023904FF00000259026904FF09D
:10146000040028904FF0007029904FF480302A90AB
:101470004FF480002B904FF400502C904FF480409C
:101480002E904FF00101684602F043FE3649086095
:101490002FB000BD1CB5012167200AF0EFFC01212F
:1014A00088030AF027FD4FF4807000904FF003008E
:1014B0008DF805004FF002008DF804004FF0000099
:1014C0008DF806008DF80700694628480AF018F8DC
:1014D00001200BF053F84FF0860000906946234836
:1014E0000AF00EF80B22012120480AF0B2F80B2274
:1014F00002211E480AF0ADF80B2207211B480AF012
:10150000A8F84FF0320000906946194809F0F8FF3A
:101510000B22012116480AF09CF80B2204211448E2
:101520000AF097F80B22052111480AF092F84FF4BF
:10153000D040009069460F4809F0E2FF0B221146A7
:101540000C480AF086F80B220D210A480AF081F8AF
:101550000B220E2107480AF07CF81CBD10B5FFF7DE
:1015600099FFFFF74DFF10BDA400002000000240CE
:10157000000802400018024010B50C2003F0C1FD25
:10158000044624B14FF0000020606060A060204657
:1015900010BD10B50446204603F0F9FC10BD70B52F
:1015A00004460E46254615B1284603F0F0FC70BDF2
:1015B00070B505460C464FF00001284605F06CF961
:1015C0000021284605F06DF90021284605F066F94E
:1015D0000021284605F068F9204603F0D8FC28468B
:1015E00004F05AFD70BD2DE9F04106460C46B6F8F0
:1015F0006E006168884202D2B6F86E5001E0606801
:1016000085B200232A463046216806F061FD074670
:1016100037B92068284420606068A0EB050060604E
:10162000BDE8F0812DE9F04104460E4617462546F7
:1016300015B90020BDE8F0814FF00000287229465E
:101640003046FFF7D0FF0020F4E770B504460D46A2
:101650001CB9284604F020FD03E021462846FFF788
:10166000C2FF002070BD2DE9F04107460C4615462B
:101670001E466660256021463846FFF7B4FFBDE888
:10168000F08110B5034604E05C5401F1010102F160
:1016900001021478002CF7D1084610BD2DE9F05F47
:1016A00081460C4616469A46DDF828B04FF00005F4
:1016B000A84648460DF024FB074636E0207899F806
:1016C000001088422DD13A46214648460DF0ECFAEA
:1016D00038BB3C443D4420783D2822D104F101042C
:1016E00005F101050EE02078307006F1010604F1E5
:1016F000010405F1010508F1010808F10100584550
:1017000000D305E02078262802D020780028EAD1EE
:1017100000BF4FF000003070CAF800802846BDE8D6
:10172000F09F05F1010504F1010420780028C5D1DE
:1017300000BFF4E710B504463CB90CF098F80BF084
:10174000B0FA05200CF02EFB1EE0012C07D10CF0A6
:101750008EF80BF0A6FA02200CF024FB14E0022C09
:1017600007D10CF084F80BF09CFA04200CF01AFB63
:101770000AE0032C07D10CF07AF80BF092FA032060
:101780000CF010FB00E010BD00BFFCE7F0B599B015
:1017900007464FF028010FA80DF0C9FB4FF02801B4
:1017A00005A80DF0C4FBFEA2FEA10FA80DF00EF9D6
:1017B0004FF004064FF0140168460DF0B8FB4FF0EF
:1017C00000051AE0701EA8420AD1F748425DF7A151
:1017D00068460DF0FBF869460FA80DF0FBFA09E02A
:1017E000F148425DF2A168460DF0F0F869460FA895
:1017F0000DF0F0FA05F10100C5B2B542E2DBED4BA8
:10180000ED4AEEA105A80DF0E1F8EE4800780128B8
:1018100004D0022805D0032809D105E04FF00104C7
:1018200008E04FF0020405E04FF0030402E04FF03F
:10183000000400BF00BFE44850F82400E3490968F1
:1018400005AACDE90214019204900FA80090E04887
:101850000378E0480278E04938460DF0B7F819B04F
:10186000F0BD2DE9FF4FADF6DC0D81461546CDF8F4
:10187000D898DDF8E80800B99DB93DB12989DDF8AF
:10188000E00804F0C2FC284603F034FEDDF8D81866
:10189000DDF8E008FFF78CFE00200DF6EC0DBDE84A
:1018A000F08F2989DDF8E00804F0AFFC2F8900BF34
:1018B0006889B0F5806F02DB40F2FF3801E0B5F8CF
:1018C0000A804FF480610DF59B600DF030FB4246BD
:1018D0000DF59B6069680DF089FA4FF000000DF579
:1018E0009B6101F80800284603F004FEBB4800682D
:1018F000BA49086006220DF59B61B9A00DF01FFAE8
:10190000A0B9B94A002136A8FFF7BBFE0446B74A82
:10191000214636A8FFF7B5FE0446A3B236AADDF885
:10192000D818DDF8E008FFF79EFE72E20E220DF5F2
:101930009B61AFA00DF003FAA0B9AB4A002136A815
:10194000FFF79FFE0446AE4A214636A8FFF799FEF0
:101950000446A3B236AADDF8D818DDF8E008FFF790
:1019600082FE56E211220DF59B61A6A00DF0E7F96B
:10197000B8B99D4A002136A8FFF783FE0446A64861
:10198000FFF704FFA44A214636A8FFF77AFE044673
:10199000A3B236AADDF8D818DDF8E008FFF763FE39
:1019A00037E20D220DF59B619CA00DF0C8F9A0B99E
:1019B0008D4A002136A8FFF764FE04469B4A214663
:1019C00036A8FFF75EFE0446A3B236AADDF8D818A3
:1019D000DDF8E008FFF747FE1BE211220DF59B61E1
:1019E00093A00DF0ACF9A0B97F4A002136A8FFF70B
:1019F00048FE0446934A214636A8FFF742FE0446B5
:101A0000A3B236AADDF8D818DDF8E008FFF72BFE00
:101A1000FFE112220DF59B618BA00DF090F9A0B9AA
:101A2000714A002136A8FFF72CFE04468B4A214656
:101A300036A8FFF726FE0446A3B236AADDF8D8186A
:101A4000DDF8E008FFF70FFEE3E10B220DF59B61E7
:101A500083A00DF074F9002868D14FF00B0A4FF005
:101A6000640000900DF59B6000EB0A0103AB1DAA1A
:101A70007EA0FFF713FE070043D00AEB07064FF0E6
:101A8000640000900DF59B6000EB060102AB04AA18
:101A900079A0FFF703FE0746039805281CD179A11A
:101AA0001DA8039A0DF000F9B0B90298A0B94E4AEA
:101AB000002136A8FFF7E5FD0446744A214636A802
:101AC000FFF7DFFD0446A3B236AADDF8D818DDF82B
:101AD000E008FFF7C8FD28E0434A002136A8FFF7D9
:101AE000D0FD04466A4A214636A8FFF7CAFD0446DF
:101AF000A3B236AADDF8D818DDF8E008FFF7B3FD89
:101B000013E0394A002136A8FFF7BBFD0446604ABE
:101B1000214636A8FFF7B5FD0446A3B236AADDF884
:101B2000D818DDF8E008FFF79EFD72E10D220DF5F3
:101B30009B6158A00DF003F9A0B92B4A002136A8EB
:101B4000FFF79FFD04462E4A214636A8FFF799FD70
:101B50000446A3B236AADDF8D818DDF8E008FFF78E
:101B600082FD56E10E220DF59B614EA00DF0E7F8C7
:101B7000002813D14FF00E0A4FF0640000900DF5CD
:101B80009B6000EB0A011CAB1DAA4AA0FFF786FD73
:101B9000070004D09DF87400312891E0F0E0DAE00D
:101BA0005600000025730000A4050308256400000A
:101BB00025642E00B4050308A805030825732C200E
:101BC0002573000011040020B0010020C401002092
:101BD0002D0000202C00002024000308100000200D
:101BE000474554202F200000A8F50208D5F502082B
:101BF000474554202F6C6F67696E2E68746D000026
:101C000052F90208474554202F72756E5F696E665F
:101C10006F2E68746D000000C02C002047455420D2
:101C20002F6C6566742E68746D0000002BF7020837
:101C3000474554202F6D6F64655F73656C2E687423
:101C40006D000000D4FA0208474554202F757064D7
:101C50006174655F73772E68746D000073FD020810
:101C6000474554202F6C6F67696E3F00757365722E
:101C70006E616D650000000070617373776F726450
:101C80000000000061646D696E0000006BF60208E0
:101C90001EF80208474554202F6C6F675F6572720B
:101CA0003F000000474554202F6D6F64655F7365EA
:101CB0006C3F00006D6F64655F726164696F000066
:101CC00004D0322806D033280CD107E04FF00100B1
:101CD0001B900BE04FF002001B9007E04FF0030059
:101CE0001B9003E04FF000001B9000BF00BF0AEB09
:101CF00007064FF0080000900DF59B6000EB060111
:101D00001CAB1DAA82A0FFF7C9FC07464FF0000BD1
:101D100057B11C98022807D17FA11DA81C9A0CF06E
:101D2000C3FF08B94FF0010B9DF86C007B4909789F
:101D3000884207D09DF86C00784908709DF86C00C7
:101D4000FFF7F8FCBBF1000F05D001221BA940F6FC
:101D500002200BF0FDF9724A002136A8FFF791FC32
:101D60000446704A214636A8FFF78BFC0446A3B20E
:101D700036AADDF8D818DDF8E008FFF774FC48E073
:101D80000F220DF59B6168A00CF0D9FFF0BB4FF05E
:101D90000F0A56464FF0080000900DF59B6000EBCF
:101DA00006011CAB1DAA5AA0FFF778FC07464FF0AE
:101DB000000B57B11C98022807D157A11DA81C9AE7
:101DC0000CF072FF08B94FF0010B554A002136A8FC
:101DD000FFF757FC0446584A214636A8FFF751FC46
:101DE0000446A3B236AADDF8D818DDF8E008FFF7FC
:101DF0003AFCBBF1000F05D00022114640F601204D
:101E00000BF0A6F94FF001004C4900E001E008702A
:101E100000BFDDF8D818DDF8E008FFF7C9FB0020A7
:101E20003BE52DE9F04106460D461746FFF7A4FBBA
:101E300004461CB94FF0FF30BDE8F0814FF00000C0
:101E4000206060602146284604F026FD3C49284673
:101E500004F024FD3B49284604F026FD0A223A49B5
:101E6000284604F026FD3949284604F01AFD0020D2
:101E7000E2E770B504F00BFD05464FF0500234491F
:101E8000284604F0C4FA044600BF4FF0FF0128467C
:101E900004F033FB05462946284604F0FDFC2D4995
:101EA000284604F004FD70BD24490870704710B541
:101EB0002948007858B14FF0000027490870FEF714
:101EC00051FB264908601D480078254908702448C0
:101ED00000781A490978884207D0184800782049C4
:101EE0000870FEF73FFB1D4908601D48007868B187
:101EF0004CF250311948FEF714FB38B14FF0000096
:101F0000174908700D4908700CF000FA10BD000068
:101F1000616C6C5F646576006F6E000011040020D8
:101F2000A8F50208D4FA0208474554202F757064BA
:101F30006174655F73773F002CFF0208AC000020DE
:101F4000631802089F1502084B160208251602089E
:101F5000AE040308231E0208D5010020D001002092
:101F6000D40100201FB54FF00000ADF804004BF67F
:101F7000FF70ADF806004FF0A000ADF808004FF478
:101F80008060ADF80A004FF48040ADF80C00E648E0
:101F900000904FF00101E54809F051FC6946E34823
:101FA00009F0C1FB1FBD2DE9F04104460D464FEA83
:101FB0001427E6B200BF4FF40031DC4809F08EFD73
:101FC0000028F8D10121D94809F046FC00BFD849C2
:101FD000D64809F04EFD0028F9D00022A021D348B0
:101FE00009F054FC00BFD349D04809F042FD002855
:101FF000F9D03946CD4809F0D8FC00BFCE49CB48CE
:1020000009F06CFD0028F9D03146C84809F0CDFC34
:1020100000BFC949C54809F061FD0028F9D029462B
:10202000C24809F0C2FC00BFC349C04809F056FDD0
:102030000028F9D000BFBF49891EBC4809F019FD2E
:102040000028F8D00121B94809F013FCBDE8F0815F
:102050002DE9F04104464FEA1426E5B200BF4FF4E3
:102060000031B24809F03AFD0028F8D10121AF480B
:1020700009F0F2FB00BFAE49AC4809F0FAFC0028B9
:10208000F9D00022A021A94809F000FC00BFA9490D
:10209000A64809F0EEFC0028F9D03146A34809F023
:1020A00084FC00BFA449A14809F018FD0028F9D01C
:1020B00029469E4809F079FC00BF9F499B4809F0DA
:1020C0000DFD0028F9D00121984809F0C5FB00BF9B
:1020D0009749964809F0CDFC0028F9D00122A021AB
:1020E000924809F0D3FB00BF9349891E8F4809F03D
:1020F000F5FC0028F8D000218C4809F0CFFB8F4870
:1021000000884FF00101894809F0B3FB00BF8A49FC
:102110003C31864809F0E2FC0028F8D0834809F0F9
:1021200046FC074600BF8148008810F4007FFAD1C2
:1021300001217E4809F0B2FB3846BDE8F0812DE967
:10214000F04705460F4616464FEA45504FEA1048FD
:102150004FEA182A08F0FF09202E01DD4FF0200673
:1021600000BF4FF40031714809F0B8FC0028F8D1E5
:1021700001216E4809F070FB00BF6D496B4809F002
:1021800078FC0028F9D00022A021684809F07EFBE5
:1021900000BF6849654809F06CFC0028F9D0514639
:1021A000624809F002FC00BF6349604809F096FCF0
:1021B0000028F9D049465D4809F0F7FB00BF5E49A9
:1021C0005A4809F08BFC0028F9D04FF000040CE0CD
:1021D000395D564809F0E9FB00BF5749534809F0FB
:1021E0007DFC0028F9D004F10104B442F0DB00BF0B
:1021F0005049891E4D4809F03CFC0028F8D00121C7
:102200004A4809F036FBBDE8F0872DE9F04705465E
:102210000F4616464FEA45504FEA10484FEA182A33
:1022200008F0FF09202E01DD4FF0200600BF4FF41B
:1022300000313E4809F052FC0028F8D101213B480A
:1022400009F00AFB00BF3A49384809F012FC00289F
:10225000F9D00022A021354809F018FB00BF35490C
:10226000324809F006FC0028F9D051462F4809F001
:102270009CFB00BF30492D4809F030FC0028F9D004
:1022800049462A4809F091FB00BF2B49274809F02D
:1022900025FC0028F9D04FF000043AE00121234842
:1022A00009F0DAFA00BF2249204809F0E2FB0028D1
:1022B000F9D00122A0211D4809F0E8FA00BF1E490B
:1022C000891E1A4809F00AFC0028F8D00021174896
:1022D00009F0E4FA194800884FF00101134809F0A9
:1022E000C8FA00BF14493C31104809F0F7FB002838
:1022F000F8D00E4809F05BFB385500BF0B4800884A
:1023000010F4007FFAD10121084809F0C7FA04F15E
:102310000104B442C2DBBDE8F087704701464FF0CC
:102320000000704770470000A08601000058004080
:10233000010003008200070004000010185800404C
:102340001FB50121880309F0C6FDF64809F0F0FE2B
:102350004AF6444002904FF00000ADF80200ADF89C
:102360000400ADF80C004FF40070ADF800004FF021
:102370000000ADF806006946EA4809F027FF012190
:10238000E84809F0DDFF1FBD00B591B00121480507
:1023900009F074FD0021E44808F0D1FCE24808F09F
:1023A000EFFB0022E149E04808F0F0FC0121DE48A3
:1023B00008F0F8FC4FF000000290DD480390DD4883
:1023C00004904FF0400005904FF4806006904FF06D
:1023D000000007904FF4806008904FF4006009906F
:1023E0004FF400500A904FF480700B904FF400307F
:1023F0000C904FF004000D904FF003000E904FF042
:1024000000000F90109002A9C74808F04FFC01226D
:102410001021C54808F028FD01220821C24808F013
:1024200023FD4FF00F008DF804004FF000008DF8F1
:1024300005008DF806004FF001008DF8070001A897
:1024400008F020FB0121B84808F079FC01220221A4
:10245000B44809F0E9FF11B000BD70B5B24808F00A
:10246000B1FC08B9B14D00E0B24DB3480068B349C2
:10247000096800EB01064FF00101AF48006800F069
:102480008BFDAD4908604FF0000406E036F81400FB
:1024900005EB8401488004F10104B4F5007FF5DB0D
:1024A00070BD70B5A04808F08DFC08B99F4D00E0E4
:1024B000A04DA3480068A349096800EB01064FF04E
:1024C00001019F48006800F067FD9D4908604FF0DA
:1024D000000407E036F814004FEA440125F8110023
:1024E00004F10104B4F5007FF4DB70BD10B596482B
:1024F00000689549086095498B4808F0D4FC01288C
:1025000019D19249884808F0FAFC8F4800688E4932
:102510000860FFF7C6FFFFF7A0FF4FF001008C49EE
:1025200008608C48006800F101008A4908604FF09B
:1025300001008949086089497B4808F0B4FC0128FA
:1025400007D18649784808F0DAFC7F4800687E4960
:10255000086010BD1FB50121C80309F0BCFC80480C
:1025600009F0E6FD4AF6444002904FF00000ADF855
:102570000200ADF80400ADF80C004FF48070ADF827
:1025800000004FF00000ADF806006946744809F0FD
:102590001DFE0121724809F0D3FE1FBD00B591B0A8
:1025A0000121480509F06AFC00215F48303808F035
:1025B000C6FB5D48303808F0E3FA002269495A4802
:1025C000303808F0E3FB01215748303808F0EAFBC7
:1025D0004FF00000029064480390644804904FF06C
:1025E000000005904FF4806006904FF000000790C7
:1025F0004FF4806008904FF4006009904FF4005051
:102600000A904FF480700B904FF400300C904FF014
:1026100004000D904FF003000E904FF000000F905B
:10262000109002A9524808F041FB012210215048A5
:1026300008F01AFC012208214D4808F015FC4FF063
:102640000D008DF804004FF001008DF805004FF0EB
:1026500000008DF806004FF001008DF8070001A87A
:1026600008F010FA0121424808F069FB01221146E6
:102670003B4809F0D9FE11B000BD70B53C4808F0E8
:10268000A1FB08B9374D00E0384D3A4800683A4997
:10269000096801EB80264FF004013648006800F01D
:1026A0007BFC344908604FF0000407E04FEA440027
:1026B00035F8100026F8140004F10104B4F5007F89
:1026C000F4DB70BD10B5204800681F4908602B4935
:1026D000274808F0E8FB01280DD12849244808F0D4
:1026E0000EFCFFF7CAFF4FF00100254908601648AD
:1026F00000681549086023491D4808F0D4FB0128EB
:1027000007D120491A4808F0FAFB0F4800680E4923
:10271000086010BD4FF0000001E000F10100052845
:10272000FBDB70470038004070600240C03800207A
:102730000C380040C030002058000020500000201D
:10274000440000203C0000201000002020800020D9
:10275000D80100209C000020A00000201040002094
:10276000003C0040C04800200C3C0040C04000201D
:1027700040600240680000206000002000802010BF
:10278000780000200040101070B506460D4628461F
:10279000FEF7AEFB0120FEF79BFB0020FEF788FB57
:1027A000FFF7B8FF4FF000041EE046FA04F010F007
:1027B000010F06D10020FEF77BFB0020FEF778FB1F
:1027C00005E00020FEF774FB0120FEF771FB0020FE
:1027D000FEF77EFBFFF79EFF0120FEF779FBFFF778
:1027E00099FF04F10100C4B2082CDEDBFFF792FF71
:1027F0000120FEF77DFBFFF78DFF70BD10B50021B6
:102800001620FFF7C1FF01216020FFF7BDFF012166
:102810002020FFF7B9FF01218320FFF7B5FF10BD8E
:1028200010B500211420FFF7AFFF01210F20FFF7A3
:10283000ABFF01218120FFF7A7FF0121C220FFF795
:10284000A3FF0121E320FFF79FFF0121C120FFF734
:102850009BFF0121FF20FFF797FF0121C020FFF719
:1028600093FF0121F020FFF78FFF10BD704710B5D7
:10287000FFF7C4FFFFF7D4FF10BD10B504464CB9F5
:1028800000211420FFF780FF01210020FFF77CFFCB
:10289000002010BD3D2C0ADA00211420FFF774FF40
:1028A0000121601CC0B2FFF76FFF0020F1E7642C2C
:1028B00009DC00211420FFF767FF01216F20FFF7DB
:1028C00063FF0020E5E74FF0FF30E2E770B5044614
:1028D0000D46102C01DD4FF01004062D01DD4FF0E8
:1028E0000605204604EBD0714FEA6104284605EB4B
:1028F000D0714FEA610504F00F004FF0400141EA4A
:10290000800005F0030140EA01064FF000014FF09E
:102910001400FFF739FF01213046FFF735FF002093
:1029200070BD10B504464FF000014FF01400FFF7E2
:102930002BFF2D2C01DD4FF02D044FEA44004FF00A
:10294000030190FBF1F0C4B24FF001014FF0C00061
:10295000FFF71AFF44F0E0000121FFF715FF002008
:1029600010BD000010B506F0C8F8FA4908604CF632
:102970009F72F949F748006805F09CFF10BD2DE9EA
:10298000F04106460F4614469846069D61896068E8
:1029900000F022FE204602F0ADFDBDE8F08110B54A
:1029A00006F0ABF8ED4908604CF6A072EA49EB4836
:1029B000006805F07FFF0022AFF23D01E7480068A4
:1029C00006F07AF810BD10B506F097F8E4490860F3
:1029D0004CF6B732E049E248006805F06BFF10BDE5
:1029E0002DE9F04106460F4614469846069D61893A
:1029F000606800F0E9FD204602F07CFDBDE8F08152
:102A000010B506F07AF8D74908604CF6B832D249CA
:102A1000D448006805F04EFF0022AFF23B01D148D8
:102A2000006806F049F810BD10B506F066F8CE490A
:102A300008604CF2CF72C849CB48006805F03AFFF5
:102A400010BD2DE9F04106460F4614469846069DF6
:102A50006189606800F04BFD204602F04BFDBDE847
:102A6000F08110B506F049F8C04908604CF2D07208
:102A7000B949BE48006805F01DFF0022AFF23D01D4
:102A8000BA48006806F018F810BD10B506F035F821
:102A9000B74908604CF2E732AF49B548006805F025
:102AA00009FF10BD2DE9F04106460F461446984631
:102AB000069D6189606800F0F2FC204602F01AFD74
:102AC000BDE8F08110B506F018F8AA4908604CF28C
:102AD000E832A149A748006805F0ECFE0022AFF2F9
:102AE0003B01A448006805F0E7FF10BD2DE9F04167
:102AF00006460F4614469846069D61896068FEF7B3
:102B000034FB204602F0F6FCBDE8F08110B505F07C
:102B1000F4FF9949086043F660328F49964800688F
:102B200005F0C8FE0022AFF23B019348006805F0B3
:102B3000C3FF10BD10B505F0E0FF9049086043F6F3
:102B4000633285498D48006805F0B4FE10BD2DE95B
:102B5000F04106460F4614469846069D6189606816
:102B60000AF08EFA204602F0C5FCBDE8F08110B5EF
:102B700005F0C3FF8249086043F662327649804817
:102B8000006805F097FE0022AFF23D017C48006826
:102B900005F092FF10BD00B587B002F0CDF902F04C
:102BA00045FB784909780A067649497842EA0142A4
:102BB0007449897842EA0121724AD27841EA0200D6
:102BC00006F0CEFA0690704909780A066E494978EF
:102BD00042EA01426C49897842EA01216A4AD27884
:102BE00041EA020006F0BCFA0590684909780A0635
:102BF0006649497842EA01426449897842EA0121FA
:102C0000624AD27841EA020006F0AAFA04905D49CD
:102C100009780A065B49497842EA014259498978AC
:102C200042EA012141F0FF0006F09AFA5849086093
:102C300058485949002204ABCDE90021029005AA69
:102C400006A9564802F0A7FB544802F0D7FB5348A8
:102C500002F01DFCFFF78BFFFFF76CFFFFF756FF3D
:102C6000FFF730FFFFF711FFFFF7FBFEFFF7DCFE7A
:102C7000FFF7C6FEFFF7A7FEFFF791FEFFF772FE14
:102C800007B000BD10B5454807F0B5FE10BD10B542
:102C900001F0B4FD08B1FFF7F5FF10BD10B54048D5
:102CA000006800F101003E49086008460068642899
:102CB00004DD4FF00000086007F00DF910BD10B5FD
:102CC000FFF7ECFF10BD70B506460C4643F66232C6
:102CD0002F492A48006805F0AFFE0322A1B2002068
:102CE00002F043FC054685B1A2B23146284602F007
:102CF0009EFE29462148006805F093FE1F480068A3
:102D000005F0CAFE284602F0F5FB70BD70B5064618
:102D10000C4643F661321E491748006805F08CFEE8
:102D20000322A1B2002002F020FC054685B1A2B228
:102D30003146284602F07BFE29460F48006805F020
:102D400070FE0D48006805F0A7FE284602F0D2FB91
:102D500070BD00000C020020AE0403080802002031
:102D60000402002000020020FC010020F8010020E5
:102D7000F4010020F0010020EC010020E801002017
:102D8000E4010020160200201E0200201A0200208A
:102D9000E0010020FDA7020825AA0208C05000207B
:102DA000DC01002070B506460C464CF2E83243497F
:102DB0004348006805F040FE0322A1B2002002F063
:102DC000D4FB054685B1A2B23146284602F02FFE5B
:102DD00029463B48006805F024FE3948006805F0A4
:102DE0005BFE284602F086FB70BD70B506460C46B9
:102DF0004CF2D07231493348006805F01DFE0322C1
:102E0000A1B2002002F0B1FB054685B1A2B2314665
:102E1000284602F00CFE29462A48006805F001FE0B
:102E20002848006805F038FE284602F063FB70BDB4
:102E300070B506460C464CF6B83220492248006868
:102E400005F0FAFD0322A1B2002002F08EFB054638
:102E500085B1A2B23146284602F0E9FD29461A485A
:102E6000006805F0DEFD1848006805F015FE2846EC
:102E700002F040FB70BD70B506460C464CF6A072E1
:102E80000E491248006805F0D7FD0322A1B20020C8
:102E900002F06BFB054685B1A2B23146284602F02E
:102EA000C6FD29460948006805F0BBFD07480068D3
:102EB00005F0F2FD284602F01DFB70BDE001002088
:102EC000F4010020FC010020040200200C0200207C
:102ED00001464FF0000209E04FF0000002E000BFA1
:102EE00000F101001428FADB02F101028A42F3D357
:102EF000704710B5014601F0F00201F00F034FEAF0
:102F0000221202EB820403EB4404E0B210BD30B5A0
:102F100001464FF00A0491FBF4F4E2B24FF00A04C8
:102F200091FBF4F504FB1514E3B203EB0214E0B2D9
:102F300030BD01464FF00A0011B94FF001000AE020
:102F40004FF0010205E000EB80034FEA430002F17D
:102F500001028A42F7DB704701464FF0100011B9B9
:102F60004FF0010008E04FF0010203E04FEA0010CB
:102F700002F101028A42F9DB704710B54FF00003FD
:102F800007E000F10100884201DB4FF0000003F18F
:102F900001039342F5DB10BD00F10100884201DB23
:102FA0004FF0000070472DE9F04104460F461646E9
:102FB000069D4FF0000108462AE014F801C0BCF15C
:102FC000000F06D14FF0000800FB05FC06F80C804E
:102FD00022E04FF0000209E014F801C000FB056890
:102FE00008F802C001F1010102F1010214F801C068
:102FF000BCF1200F01DDAA42EEDB3AB14FF0000C2C
:1030000000FB056808F802C000F1010001F10101B0
:10301000984201DAB942D0DB00BFBDE8F08170B55B
:1030200003460C464FF000010D46084612E05E5C78
:10303000A64205D025B95E5C165400F1010007E0F8
:103040005E5CA64204D14FF00006165405F101055E
:1030500001F101015E5C16B1B1F5806FE7DB4FF065
:103060000006165470BD70B503460C464FF00001C3
:103070000D46084613E05E5CA64206D0012D04D141
:103080005E5C165400F1010007E05E5CA64204D1CC
:103090004FF00006165405F1010501F101015E5CD7
:1030A00016B1B1F5806FE6DB4FF00006165470BD27
:1030B0002DE9F04107464FF0000838460BF020FE9E
:1030C0000646022E40DD387830283DD178787828C1
:1030D00002D07878582837D14FF0000530E007F15A
:1030E0000200445D302C0CDB392C0ADCA4F13004E6
:1030F000A6F10301A1EB0500FFF72EFF04FB0088FA
:103100001CE0412C0CDB462C0ADCA4F13704A6F1B0
:103110000301A1EB0500FFF71FFF04FB00880DE092
:10312000612C0BDB662C09DCA4F15704A6F103012A
:10313000A1EB0500FFF710FF04FB008805F1010576
:10314000B01EA842CBDC1AE04FF0000515E07C5D14
:10315000302C0CDB392C0ADCA4F13004A6F101017F
:10316000A1EB0500FFF7E5FE04FB008803E03A4809
:1031700000683949086005F10105B542E7DB4046C2
:10318000BDE8F0812DE9F0470646894615469A4686
:10319000BAF1000F26D12846FFF7CBFE99FBF0F1DC
:1031A00000FB11974FF0000416E0691E081BFFF7A3
:1031B000C0FE97FBF0F000F0FF08A5F10101A1EBC4
:1031C0000400FFF7B6FE97FBF0F100FB117708F162
:1031D0003000305504F10104AC42E6DB4FF0000052
:1031E000705527E086F800A0681EFFF7A2FE99FB45
:1031F000F0F100FB11974FF0010416E0691E081B67
:10320000FFF797FE97FBF0F000F0FF08A5F1010132
:10321000A1EB0400FFF78DFE97FBF0F100FB1177A7
:1032200008F13000305504F10104AC42E6DB4FF008
:10323000000070550020BDE8F08701460A784FEA8B
:1032400002624B7842EA03428B7842EA0322CB784F
:1032500042EA0300704700001000002010B542F25F
:103260001070FFF735FE4FF0C000EB4908704FF0CB
:10327000A80048704FF065008870E848007800F1B9
:103280008D00C87008460078E5490870E24840782B
:103290004870E148807888704FF00100C8704FF0A6
:1032A0005E00E04908704FF0450048704FF0A20002
:1032B0008870D9484078C870D74880780871D64857
:1032C000C07848714FF0FF00D74908704870887087
:1032D0004FF00000C87000F0E3FBD448D449086008
:1032E0004FF00100D349086042F21070FFF7F0FD83
:1032F000FEF734F942F21070FFF7EAFD00BFFFF766
:103300004AFC42F21070FFF7E3FD00F0A9F9FEF766
:10331000B0FD002010BD10B5C7480068012810D1CD
:10332000C648C7490268C248006800F09CFAC44811
:103330000168BF480068FFF79EFD4FF00000BE49DE
:103340000860002010BD10B5FFF7E5FF10BD704705
:1033500010B5BC480068002803DDBA48C088C4B274
:1033600001E04FF0FF0400232246B549B048006851
:1033700000F025FAB2480168AD480068FFF712FD79
:10338000002010BD10B5FFF7E3FF10BD01460A781D
:103390004FEA02624B7842EA03428B7842EA032208
:1033A000CB7842EA030070472DE9F04104460D4610
:1033B00016461F46802C03DA4FF0FF30BDE8F0813F
:1033C000F72C02DD4FF0FF30F8E7FF2D02DD4FF064
:1033D000FF30F3E7FF2E02DD4FF0FF30EEE7FF2F67
:1033E00002DD4FF0FF30E9E70AF071FA8A48047015
:1033F00045708670C7704FF47A70FFF769FD00F072
:10340000ADFA4FF47A70FFF763FD00F0ACFA4FF4B9
:103410007A70FFF75DFD4FF47A70FFF759FD8A4827
:10342000FFF756FD8848FFF753FD00BF8748006847
:1034300000F4E060864940EA010000F1040083499D
:103440000860BFF3408F00BF00BFFEE730B5014604
:103450004FEA1162C1F30743C1F30724CDB2802ABA
:1034600002DA4FF0FF3030BDF72A02DD4FF0FF30B7
:10347000F9E7FF2B02DD4FF0FF30F4E7FF2C02DD10
:103480004FF0FF30EFE7FF2D02DD4FF0FF30EAE7AE
:103490006148027043708470C5700020E3E770B526
:1034A00005460C466B4805606B4804606948006837
:1034B00000F0F6F810B14FF0FF3070BD65480068BD
:1034C00009F059FD0020F8E710B554480378634827
:1034D0000278614801685F48006800F030F90446EE
:1034E000642C02DA2046FDF7F9F9002010BD2DE921
:1034F000F04780460F465748C0F80080564807609E
:10350000B7F5806F03DA4FF0FF30BDE8F087514820
:10351000006800F0C5F810B14FF0FF30F5E74D48F6
:10352000006800F0FDF881464A48006800F0F0F8B5
:1035300006464848006800F0EFF80546B9F1040F68
:103540003ED14448006800F0F5F804463D48006864
:1035500001280DDA4FF00A003A4908600846067162
:1035600045712078C88004F10100FDF778FA27E062
:1035700020783449C98888420DDA4FF00A00314971
:1035800008600846067145712078C88004F1010082
:10359000FDF765FA14E020782A49C98888420FD1DE
:1035A00028480079B0420BD126484079A84207D17B
:1035B0004FF00A002349086004F10100FDF74FFABB
:1035C0000020A2E70020704702464FF0000070473D
:1035D00002464FF0000070472DE9F04105460E46C7
:1035E0001C4805601C4806601A48006800F058F83E
:1035F00018B14FF0FF30BDE8F0811648006800F0C8
:103600008FF80446032C05D11248006800F084F8B6
:10361000074600BF0020EEE7160200202D00002024
:103620001A020020100200201E020020F450002088
:103630003002002038020020A00000209C00002062
:103640003402002080000020A08601000CED00E084
:103650000000FA05280200202C0200202C00002087
:1036600010B5B5480078B5498870B5480078C8707D
:10367000B44800880880B448FFF788FEAF49486026
:103680004FF0FF00B1498870C8704FF6FF70088096
:10369000AA48406840F0FF0048604FF0000010BDAD
:1036A00070B505462C4620787E2802D04FF0FF30BA
:1036B00070BDE078A0490978884205D0E078FF28FD
:1036C00002D04FF0FF30F3E720799D490978884216
:1036D00005D02079FF2802D04FF0FF30E8E79A4864
:1036E000FFF754FED4F8051088420FD0D4F8050037
:1036F000401C0BD09448FFF749FE40F0FF01D4F87E
:103700000500814202D04FF0FF30D1E70020CFE723
:1037100001460A46D07A704701460A46107B704738
:1037200001460A46B2F81100704701460A46B2F84F
:103730001300704701460A4602F1150070472DE953
:10374000F04104468C46274607F115052E460B2A04
:1037500008D1A3F1010006F1050818F80010084689
:10376000BDE8F081FF20FBE717B585B0044672483D
:1037700000787249887072480078C8707148008873
:1037800008807148FFF702FE6C4948604FF07E00E8
:103790008DF800000698CDF801000798CDF80500D7
:1037A00008460168CDF809104068CDF80D004FF0CB
:1037B0001102694620460BF019FB08B010BD2DE937
:1037C000F04387B004460E461746984625465F49A3
:1037D00003C90A46CDE90001014602A8FFF7C4FF6C
:1037E000112202A928460BF001FB4FF00100A5F8B9
:1037F00011004FF00200A5F8130005F1150989F832
:10380000007089F80180B5F8130000F115003060F0
:103810004FF0000007B0BDE8F08330B503460C461A
:1038200019464FF00400A1F8130001F115052A60B4
:10383000B1F8130000F1150020604FF0000030BD1A
:1038400030B503460C4619464FF00100A1F81300AD
:1038500001F115052A70B1F8130000F11500206080
:103860004FF0000030BD2DE9F04188B004460E460F
:1038700017462546354903C90A46CDE901010146E7
:1038800003A8FFF771FF112203A928460BF0AEFA37
:103890004FF00300A5F811004FF00400A5F8130045
:1038A00005F11508C8F80070B5F8130000F115000F
:1038B00030604FF0000008B0BDE8F08130B503463D
:1038C0000C4619464FF00200A1F8130001F115054E
:1038D0006A70B1F8130000F1150020604FF000008D
:1038E00030BD2DE9F04704460F4690461D4626465A
:1038F00040F20340A6F8130006F115092A46414696
:1039000009F103000BF072FA09F1030000EB050A5C
:103910000F480068CAF800000D48006800F1010077
:103920000B490860B6F8130000F1190038604FF039
:103930000000BDE8F08700002C00002044020020B9
:103940002D0000202E000020160200204C02002036
:103950004002002010B5FEF705FB10BD4FF001003E
:1039600082490860704770B58048006801287CD1A2
:103970004FF000007D4908607D4800787D4908705F
:103980007B48407848707A48807888704FF0010012
:10399000C8704FF05E00784908704FF045004870DD
:1039A0004FF0A200887072484078C87070488078E4
:1039B00008716F48C07848714FF0A5006F490870D2
:1039C0006B48007848706A4841786C488170684854
:1039D00081786A48C1706648C17868480171654855
:1039E000007866494871634841786448817161484C
:1039F00081786248C1715F48C1786048017260484F
:103A000000785E4948725E4841785C4881725C4843
:103A100081785A48C1725A48C1785848017356484B
:103A20000078564948735448417854488173524845
:103A300081785248C1735048C178504801744E484B
:103A400001794E4841744C4841794C4881744D4845
:103A500000684A49C8744C48008888824FF05A0070
:103A600088754FF000050E4600E018E04FF00004A6
:103A700005E0305D2844C5B204F1010084B2172C82
:103A8000F7D3C5F155003D49C8754FF018024FF006
:103A90000800FEF754FB4FF47A70FFF719FA70BD77
:103AA00070B5182235490820FEF7AFFB4FF47A7045
:103AB000FFF70EFA4FF00005304E2C4605E0305D62
:103AC0002844C5B204F1010084B2182CF7D3552D57
:103AD00000D070BD29480078A52845D12748807DB1
:103AE0005A2841D1254840782149087023488078D8
:103AF00048702248C078887020480079C8701F48F4
:103B000040791C4908701D48807948701B48C0796D
:103B100088701A48007AC8701848407A18490870A6
:103B20001648807A48701548C07A88701348007B20
:103B3000C8701248407B104908701048807B48705C
:103B40000E48C07B88700D48007CC8700B48407CD4
:103B500008710A48807C48710848C07C094908609F
:103B60000648808A0849088000BFB2E75402002056
:103B7000160200201A02002010020020F455002036
:103B80001E020020880000202E0000207FB50420A7
:103B900006F0D3FF684608F0DEF842F21072019892
:103BA000B0FBF2F1B1F1807F00D327E021F07F403C
:103BB000A0F101004FF0E02250614FF0FF304FF0D4
:103BC0000F0200280ADA4FEA02734FEA1365314BFD
:103BD00000F00F04A4F104041D5505E04FEA027340
:103BE0004FEA13642C4B1C5400BF4FF000004FF001
:103BF000E02290614FF00700106100BF7FBD10B55B
:103C00002648006800F10100244908602448006843
:103C100000F10100224908602248006800F101001B
:103C2000204908602048006800F101001E49086032
:103C30001E48006800F101001C4908601C4800682B
:103C400000F101001A4908601A48006800F10100FB
:103C500018490860FCF737FC10BD70477047704783
:103C6000704710B5FFF773FBFFF729F810BD10B5CB
:103C7000FFF779FE10BD10B50F480068012801DA82
:103C8000FDF7E2F8FFF77EFB10BD10B5FCF7FBFD7A
:103C900010BD704718ED00E000E400E0580200207D
:103CA0005C02002060020020640200206802002004
:103CB0006C0200207002002080000020704700BFCE
:103CC000FEE700BFFEE700BFFEE709F000FE00BF11
:103CD000FEE7704710B5FFF792FF10BD10B5FEF775
:103CE000F1FC10BD10B5FEF701FC10BD1CB54FF086
:103CF00000008DF804004FF001008DF806004FF031
:103D000003008DF805004FF000008DF807004FF01C
:103D1000FF0000906946384807F0F2FB1CBD70B503
:103D20000646F6B2344606F0C000C02804D104F0BE
:103D30003F0000F1010521E004F00F00092803DC39
:103D40000920B0EB241F06DA4FF0FF054FF02E00DC
:103D500008F032FC11E004F00F004FEA241101EBEF
:103D6000810100EB4100C5B2012D01DB022D04DD14
:103D70002F2008F021FC4FF0FF0500BF00BF2846B0
:103D800070BDF8B54FF0000000904FF6FF75044687
:103D9000064618E001E0FCF788FB4FF47A716846AC
:103DA000FCF7BFFB0028F6D0134807F02EFC0546B1
:103DB000AC4205D106F10100C6B2052E03DB03E0DB
:103DC0004FF000062C46E5E700BFE4B22046FFF7BF
:103DD000A6FF07463846F8BD10B508480078012808
:103DE00003DB06480078022804DD2F2008F0E4FBFE
:103DF000012010BD0020FCE7001802402D0000202B
:103E00000948804709480047FEE7FEE7FEE7FEE76E
:103E1000FEE7FEE7FEE7FEE7FEE7FEE704480549AA
:103E2000054A064B70470000EB3E02088501020878
:103E3000E86F0120E8870120E8770120E87701207A
:103E40004FF000010846674A126842F48032654B21
:103E50001A6000BF634A126802F4003001F10101E8
:103E600010B9B1F5A06FF5D15E4A126812F4003FA7
:103E700002D04FF0010001E04FF00000012833D1E3
:103E8000594A1268584B1A601A46126842F40042A6
:103E90001A601A46126842F4A0521A60534AA3F1FB
:103EA00004031A604F4A126842F080724D4B1A6048
:103EB00000BF4C4A126812F0007FFAD040F2037241
:103EC0004B4B1A60484A126822F00302464B1A60B4
:103ED0001A46126842F002021A6000BF424A126893
:103EE00002F00C02082AF9D1704710B53D4800686D
:103EF00040F001003B4908604FF000003A4908607B
:103F0000384800683B4900EA0100364908603A48F1
:103F100001F1040108603348006820F48020314931
:103F200008604FF0000035490860FFF789FF4FF047
:103F300000603349086010BD70B54FF000000246C4
:103F40004FF0020304464FF00201274D2D6805F0A3
:103F50000C0020B1042806D0082831D107E0294DF3
:103F6000294E356030E0294D274E35602CE0284D34
:103F70002D68C5F38054264D2D6805F03F014CB1E6
:103F8000224DB5FBF1F5224E3668C6F3881605FBC7
:103F900006F208E01B4DB5FBF1F51D4E3668C6F381
:103FA000881605FB06F21A4D2D68C5F3014505F18B
:103FB00001054FEA4503B2FBF3F5134E356003E00C
:103FC000104D114E356000BF00BF074D2D68C5F381
:103FD0000315104E705D0C4D2D6825FA00F50A4E44
:103FE000356070BD0038024008380240193C400579
:103FF000003C0240FFFFF6FE103000240C38024067
:1040000008ED00E00024F4007402002040787D01F7
:1040100004380240780200204FF00001014601E020
:10402000A1F101010029FBD1704710B5012148061B
:1040300007F06FFF00214FF0007007F06AFF10BD1E
:104040004FF0010101604FF0000141608160C160EB
:1040500001614FF4804141614FF000018161C16114
:104060004FF4006101624FF0000141628162C16260
:10407000016341638163C1634FF0400101644FF00C
:10408000200141644FF000018164C1640165416514
:104090008165C16501664FF0800141664FF0000106
:1040A0008166C166016741678167C1674FF08061C2
:1040B000C0F880104FF00071C0F884104FF000017C
:1040C000C0F888104FF40011C0F88C104FF00001B8
:1040D000C0F89010C0F89410C0F89810C0F89C1068
:1040E000C0F8A0104FF00071C0F8A4104FF4803158
:1040F000C0F8A8104FF48001C0F8AC104FF4005184
:10410000C0F8B0104FF00001C0F8B410C0F8B810FB
:1041100070472DE9FF4704468A464FF000084546A0
:10412000A946F74E2F46F748056925F01C05684655
:1041300007F011FE019EF448864205D3F3488642FB
:1041400002D245F0080511E0F048864205D3EC485C
:10415000864202D245F00C0508E0E948864203D3C6
:10416000EB48864200D201E045F00405E5480561D0
:10417000E848FFF751FF2068B0B1E748874203D114
:10418000002004B0BDE8F0874FF00007E248874206
:1041900001D10020F5E74FF000074FF400602062E6
:1041A0004FF48040606103E06FF07F40FFF734FF21
:1041B000D4480568D94805EA0005D4E9010140EA78
:1041C0000100E16840EA0100216940EA01006169FB
:1041D00040EA0100A16940EA0100E16940EA01000A
:1041E000216A40EA0100616A40EA0100A16A40EAEE
:1041F0000100E16A40EA0100216B40EA0100616BC5
:1042000040EA010040EA0505BE480560D4E90E0118
:1042100040EA0100216C40EA0100616C40EA0100C3
:10422000A16C40EA0100E16C40EA0100216D40EA26
:104230000100616D40EA0100B2494860A06D8860EC
:10424000E06DC860084685694FF6417005EA0005D3
:10425000D4E9181040EA0140A16E40EA0100E16E85
:1042600040EA0100216F40EA0100616F40EA01006D
:1042700040EA0505A3488561D4E91E0140EA010032
:10428000A049C861A6488569A64805EA0005D4E9A1
:10429000200140EA0100D4F8881040EA0100D4F877
:1042A0008C1040EA0100D4F8901040EA0100D4F8E4
:1042B000941040EA0100D4F8981040EA0100D4F8C4
:1042C0009C1040EA0100D4F8A01040EA010040EA46
:1042D000050593488561D4E9290140EA0100D4F835
:1042E000AC1040EA0100D4F8B01040EA0100D4F864
:1042F000B41040EA8100D4F8B81040EA010040F45C
:104300000000874908600846006840F080000860A7
:104310004FF0010035E730B18149896941F0020170
:104320007F4A916105E07E49896921F002017C4A5A
:104330009161704730B17A49896941F40051784AF6
:10434000916105E07649896921F40051744A9161CF
:10435000704730B16B49096841F00401694A116046
:1043600005E06849096821F00401664A1160704758
:104370006B48806940F4801069498861704730B1AA
:104380006049096841F008015E4A116005E05D4935
:10439000096821F008015B4A1160704700B50120EF
:1043A000FFF7EDFFFFF7E4FF0120FFF7D2FF012049
:1043B000FFF7C0FF0120FFF7AEFF00BD4FF0000088
:1043C0005049896911F0010F02D04FF0010001E05E
:1043D0004FF0000070474B48806940F001004949A8
:1043E0008861704730B14749896941F00101454A08
:1043F000916105E04349896921F00101414A9161D8
:10440000704701464FF000003E4A926B0A4202D0CC
:104410004FF0010001E04FF00000704701464FF0FF
:104420000000384A926B0A4202D04FF0010001E0CE
:104430004FF00000704731B1324AD26B22EA0002DD
:10444000304BDA6305E02F4AD26B42EA00022D4B73
:10445000DA63704710B50B794C7943EA0422294B93
:1044600003441A64CB784FEA03638C7843EA04432D
:104470004C7843EA04230C7843EA0402214B0344BA
:104480005A6410BD02461F4B1344186C4FEA1023A8
:104490004B7108711B4B1344586C4FEA1063CB707F
:1044A0004FEA10438B704FEA10234B70087070472F
:1044B00041B1144A0244126C42F00042114B0344D1
:1044C0001A6407E00F4A0244126C22F000420D4BBE
:1044D00003441A647047082908D00A4A0244126C3F
:1044E00042F08042074B03441A6407E0054A024445
:1044F000126C22F08042034B03441A6470470000A0
:104500000087930300800240002D3101C00E160287
:1045100000E1F505FFFF0F00FFFF04000F8120FF02
:1045200000900240233FDEF8FA4A0244126C22F067
:104530007C52F84B03441A64F64A0244126C42EA75
:104540000102F44B03441A6470471EB54FF000019A
:104550000A46009201920292EF4A12681268C2F370
:104560000D42A2F104010091EC4A12689268012AFE
:1045700005D9EA4A126812689268019203E0E64A95
:10458000126892680192E44A12680292E24A126842
:10459000D268E14B1A609DE81C0080E81C001EBD3B
:1045A0001EB54FF00002009201920292114672E095
:1045B00001F10101D84A1268126812F4007F15D087
:1045C000D54A1268126812F4807F0FD1D24A12685D
:1045D000D24B1B681A604FF00102D04B1B689A60E7
:1045E000CD4A1268D268CC4B1A6054E0CA4A1268AD
:1045F000126812F4807F13D1C74A1268126812F44D
:10460000007F0DD1C54A1268926802F10102C34BC6
:104610001B689A60C04A1268D268BF4B1A603AE0C1
:10462000BD4A1268BD4B1B685A60BC4A126892684A
:1046300002F10102B94B1B689A60B84A126892688D
:10464000012A04D1B44A1268B44B1B681A60B24AFA
:1046500012681268C2F30D42A2F104020092AF4A3E
:1046600012689268012A05D9AC4A126812689268E9
:10467000019203E0A84A126892680192A64A126861
:104680000292A54A1268D268A34B1A609DE81C00EA
:1046900080E81C001EBDA04A1268126812F0004F8C
:1046A00001D1052984D39DE81C0080E81C0000BFCF
:1046B000F0E770B502464FF000031D461C469848CF
:1046C0000068006810F0004F01D0002070BD9448D1
:1046D000016840F2F450824209DD92FBF0F392FB54
:1046E000F0F600FB162020B103F1010301E04FF0CA
:1046F0000103012B1AD18A480068006840F040503D
:10470000874E36683060C2F30C00854E36687060A4
:1047100083480068006840F00040814E3668306091
:104720007F480068C0687E4E30602CE04FF0000487
:1047300025E03CB97A480068006840F08050784E27
:104740003668306040F2F4504860A3F10100A042A6
:104750000ED1086840F000500860A3F10100C0EBE2
:10476000C01000EB4000A2EB8005C5F30C004860D0
:10477000086840F000400860C96804F101049C42E8
:10478000D7D3674801606748406910F0040F06D02E
:104790004FF00400634E70614FF000007060012024
:1047A00094E770B50C4613464FF000015A4D28604F
:1047B00000BF1BE000EB41124FF00045156044F2D2
:1047C000F4555560C1EBC11505EB450504EB8505B6
:1047D0009560A3F101058D4205D900EB411505F166
:1047E0002005D56000E0D06001F101019942E1D3DC
:1047F0004C4DE8604C4D494E356070BD46480068F0
:10480000006810F0004F15D143480068006810F4AC
:10481000807F0FD0404800684049096848603F48A1
:104820000068806800F101003C49096888604FF029
:104830000100704738480068006810F0004F20D130
:1048400035480068006810F4007F1AD032480068CC
:10485000006810F4807F14D12F4800682F49096840
:1048600008604FF000002D49096848604FF00100D2
:104870002A490968886028480068C0682649086095
:104880001EE025480068006810F0004F18D122484B
:104890000068006810F4007F12D11F4800680068AB
:1048A00010F4807F0CD11D480068806800F1010081
:1048B0001A490968886018480068C0681649086085
:1048C0000020B6E730B50C4613464FF00001144DFA
:1048D000286000BF18E000EB41124FF4801515600E
:1048E000C1EBC11505EB450504EB85059560A3F10A
:1048F00001058D4205D900EB411505F12005D56074
:1049000000E0D06001F101019942E4D3054D286136
:1049100030BD0000008002408C0200209002002088
:104920008802002000900240D492002002464FF0FE
:10493000000013680B4202D04FF0010001E04FF07D
:104940000000704701460868C0F3C3007047016863
:1049500041F000410160704721B1026842F080429D
:10496000026003E0026822F0804202607047026841
:1049700042EA010202607047026842EA01020260F4
:10498000704721B1026822F00062026003E0026811
:1049900042F000620260704721B1026842F4801266
:1049A000026003E0026822F480120260704721B1C5
:1049B000026822F08062026003E0026842F08062D6
:1049C0000260704710B541EA0244436843EA0403B9
:1049D000436010BD02464FF0000013680B4202D046
:1049E0004FF0010001E04FF00000704702464FF029
:1049F000000013690B4202D04FF0010001E04FF0BC
:104A000000007047016841F00041016070470146B5
:104A10000868C0F30D40704721B1426822F000429F
:104A2000426003E0426842F0004242607047024642
:104A300019B15068C0F30C4070475068C0F30C00C7
:104A4000FAE700B502464FF00003106810F0004F7F
:104A50000BD1106810F4004F07D1106810F4807F5C
:104A600003D01046FFF7D3FF0346184600BD30B110
:104A7000FD49096841F08001FB4A116005E0FA49EF
:104A8000096821F08001F84A11607047F648006813
:104A900040F00100F449086070474FF00000F2490F
:104AA000096811F0010F02D04FF0010001E04FF052
:104AB0000000704701464FF00000EB4A52690A427D
:104AC00002D04FF0010001E04FF000007047E649CE
:104AD0004861704731B1E44AD26942EA0002E24BD0
:104AE000DA6105E0E04AD26922EA0002DE4BDA61CF
:104AF000704701464FF00000DB4A52690A4202D07B
:104B00004FF0010001E04FF000007047D6494861C6
:104B10007047D548406900F001007047D2484069AD
:104B200000F0400070474FF00000CF49896911F450
:104B3000801F02D04FF0010001E04FF000007047ED
:104B400001464FF00000C84A126A0A4202D04FF0F4
:104B5000010001E04FF000007047C348006AC0F355
:104B60004A407047C048006A80B27047BE48806CB7
:104B70007047BD48C06C7047BB48006D7047BA486D
:104B8000406D70474FF00000B749486070474FF0E4
:104B90000000B54988607047B3494862704710B556
:104BA00003460C464FF000010A46B048016901F087
:104BB0001C014FF4784000EAC32040EA01014FF4A1
:104BC000F86000EA841040EA010121F0020141F09E
:104BD0000101A648016100BF02F10102A348016979
:104BE00011F0010F02D0A2488242F5D3A0488242C0
:104BF00001D1002010BD9D48406980B2FAE730B570
:104C000003460C4615464FF000010A4697480169D5
:104C100001F01C014FF4784000EAC32040EA010192
:104C20004FF4F86000EA841040EA010141F002010B
:104C300041F001018D484561016100BF02F10102AF
:104C40008A48016911F0010F02D089488242F5D3E8
:104C50008748824201D1002030BD0120FCE770B5B9
:104C600006460D464FF0000421463046FFF797FFF9
:104C7000044615B144F4804403E04BF6FF7004EAA7
:104C80000004224600213046FFF7B9FF08B1012099
:104C900070BD0020FCE77548C06A40F000407349D1
:104CA000C862704701464FF0000000BF05E051F8B0
:104CB00020206E4B9A6200F101000828F7D370475C
:104CC00030B16A49C96A41F40071684AD16205E0AD
:104CD0006649C96A21F40071644AD162704701468D
:104CE0004FF00000614AD26A0A4202D04FF0010040
:104CF00001E04FF00000704730B15C49C96A41F0F3
:104D000004015A4AD16205E05849C96A21F00401F8
:104D1000564AD162704730B15449C96A41F0020124
:104D2000524AD16205E05149C96A21F002014F4A55
:104D3000D162704730B14D49C96A41F001014B4A17
:104D4000D16205E04949C96A21F00101474AD162AF
:104D500070474848006840F030004449C1F80001FD
:104D600070474448006820F020004049C1F8000125
:104D70000846D0F8000140F01000C1F8000170476B
:104D800038B13C49096841F00801384AC2F80011BD
:104D900006E03849096821F00801344AC2F80011D8
:104DA000704738B13349096841F004012F4AC2F80D
:104DB000001106E02F49096821F004012B4AC2F8CE
:104DC0000011704738B12B49096821F00201274AC8
:104DD000C2F8001106E02749096841F00201234AA0
:104DE000C2F8001170472348006840F001001F49D5
:104DF000C1F80001704710F0805F12D020F08050A1
:104E000039B11D4A126822EA0002184BC3F80C217E
:104E100017E0194A126842EA0002144BC3F80C2149
:104E20000FE039B1154A126822EA00020F4BC3F8AD
:104E3000102106E0114A126842EA00020B4BC3F847
:104E40001021704701464FF0000011F0805F1AD02A
:104E5000084A121D12680A4212D0074A12680A4212
:104E60000ED14FF001001CE0009002400080024093
:104E7000FFFF0400008102400C81024010810240CB
:104E80004FF000000DE0094A12680A4207D0074AB5
:104E9000121D12680A4202D14FF0010001E04FF0EA
:104EA00000007047014602480858704708810240D8
:104EB0000080024030B500BF00BF00BF00BF00BF90
:104EC00000BF00BF00BF0388D34C246803EB04017C
:104ED000884216D00B79A3B9D04B1B68994210D0E9
:104EE000CF4B1B688B4201D1CD4B18600B880380E0
:104EF000C94B1B68A0EB03030C88C74D2D682C44DD
:104F000063804388C44C246803EB0402824212D0BD
:104F1000137983B9C24B1B68834201D1C04B1A601D
:104F200003881380BC4B1B68A2EB03030488BA4DB3
:104F30002D682C44638030BD00BF00BFB94921F00B
:104F40000301B54A1160114608684FF420510180F1
:104F50004FF00001418001711146096801F52051AF
:104F6000AE4A11604FF00101126811714FF42051E7
:104F7000AA4A12681180A94A126851804FF00101B3
:104F8000A94A1170A4490968A54A1160704770B513
:104F9000054605B970BD00BF00BF00BF00BF9E48F9
:104FA0000068854203D39D480068854200D3F1E73D
:104FB000A5F1080400BF00BF4FF000002071984821
:104FC0000068844201D2964804602046FFF772FFD1
:104FD00000BFDFE72DE9F04106460A4602F1030073
:104FE00020F0030082B20C2A01DA4FF00C02B2F575
:104FF000205F02DD0020BDE8F08100BF00BF8648D1
:105000000068864203D385480068864201D3304653
:10501000F1E7A6F1080480480068A4EB000085B21F
:105020002088A0EB0500A0F1080087B200BF00BFF8
:10503000BA4201DD0020DEE7BA4201D13046DAE7AC
:105040002088DFF8D4C1DCF800C000EB0C0108793F
:1050500080BB088805F1080C94441FFA8CF3DFF834
:10506000C0C1DCF800C08C4508D1DFF8ACC1DCF869
:1050700000C09C44DFF8A881C8F800C0DFF898C1E0
:10508000DCF800C00CEB03014FF0000C81F804C009
:1050900008804D802380B1F800C0BCF5205F08D0A7
:1050A000B1F800C0DFF87081D8F80080C444ACF8D3
:1050B000023024E0FFE702F11400B8421FD805F1E6
:1050C0000800104483B25448006800EB03015448C0
:1050D0000068814201D2524801604FF0000008711F
:1050E000208808804D8023800888B0F5205F06D096
:1050F0000888DFF824C1DCF800C0604443803046F3
:1051000079E770B502460AB9002070BD02F10300CC
:1051100020F0030082B20C2A01DA4FF00C02B2F543
:10512000205F01DD0020F0E73D4800683A4E366818
:10513000A0EB060083B258E03748006800EB03019B
:10514000087900284ED10E8803F10800301A9042E9
:1051500048D30E8803F10800361A02F11400864283
:105160001BD303F10800104485B22B48006800EB04
:1051700005044FF0000020710888208063800D80B6
:105180004FF0010008712088B0F5205F08D020881A
:10519000214E36683044458002E04FF0010008712E
:1051A0001F480068814214D107E01D48006800884C
:1051B000194E366830441A4E30601948006800793C
:1051C00028B117480068154E3668B042EDD100BFCF
:1051D00000BF00BF00BF00BF00BF00BF00BF01F1A4
:1051E000080092E70C480068C35AC2F52050984264
:1051F000A2DC002089E770B504460D4604FB05F1EA
:1052000088B2FFF77EFF064626B104FB05F1304663
:1052100009F06BFE304670BD980200209C02002011
:10522000A0020020E3920020A402002010B54FF05D
:10523000000002E000F1010398B20928FADB244BD8
:1052400023F003014FF000001CE04FF00003214C5D
:1052500044F820301A460DE01E4B53F820300B6006
:105260001C4B43F820101C4B33F81030194402F14A
:1052700001039AB2194B33F810309342ECDC00F181
:10528000010398B20928E0DB10BD024600BF092ADD
:1052900001DB0020704700BF0E4850F8221031B1EA
:1052A0000C4B086843F8220000BF00BF00BF08464F
:1052B000F0E701B9704700BF00BF0A46054B53F83D
:1052C00020301360034B43F8202000BFF2E70000BA
:1052D0001BBB0020F4BA00207604030888040308EE
:1052E00011B94FF0000200E00A68C260704711B9BE
:1052F0004FF0000200E00A68826070472DE9F0413B
:1053000007460D4628687968884201D1012000E0EF
:10531000002020BB724806680CE03068796888423B
:1053200007D1D6F80C800121304600F0F2FF464646
:1053300000E0F668002EF0D16A4804680DE05CB128
:10534000206848B120687968884205D115B94FF0C6
:10535000000000E028682060E468002CEFD115B957
:105360004FF0000000E028687860BDE8F0812DE98A
:10537000F04106460F4614461D4639463046FFF7B3
:10538000BDFF21463046FFF7B2FF29463046FFF702
:10539000A7FFBDE8F0812DE9F04704460D4616460B
:1053A0001F46DDE909A9DDF820804FF000006060AC
:1053B000A060E06084F82D002062C4F81C804A4898
:1053C000007884F830004848007800F10100464930
:1053D0000870C4F810903B46324629462046FFF735
:1053E000C6FF2046D04710B10020BDE8F0873F48F7
:1053F000006820603D4804602046F6E73C490860AC
:10540000704700B5024602B900BD384800689042B6
:1054100003D13649106808600FE03449086806E097
:105420000168914202D11168016002E00068002821
:10543000F6D100BF00B9E7E700BF2D4800689042F1
:1054400002D10020FFF7DAFF00BFDDE710B502460A
:105450000AB9002010BD9078A0F13000C3B22348F3
:10546000016810E091F8300098420BD1107891F863
:105470002E40A04206D154782F20405C844201D1B6
:105480000846E7E709680029ECD10020E2E710B5FB
:10549000044694F82D0010F0010F0DD114F82D0FD3
:1054A00040F00100207014F82D0910F0200F03D0F7
:1054B000211D204605F062F810BD90F82D1011F066
:1054C000010F05D090F82D1021F0010180F82D106A
:1054D0007047014691F82D0000F001007047000070
:1054E000F8020020F4020020A8020020AC020020F4
:1054F000B00200202DE9F041044624B900BF00BFEE
:105500000020BDE8F08100BF00BF4FF0000628E09A
:1055100000BF00BFE089A0F101001FFA80F8A4F8E5
:105520000E80B8F1000F19D12768257B032D04D117
:1055300021460820FFF7BDFE0BE0012D01D0022D12
:1055400004D121460720FFF7B4FE02E02046FFF712
:105550001EFD06F10100C6B23C4601E04FF000041A
:1055600000BF002CD4D13046CBE72DE9F05F834655
:105570000F4690464FF00006BBF1000F09D0BBF17B
:10558000010F0AD0BBF1020F0BD0BBF1030F0DD1FD
:105590000BE006F1140086B200BF06F1140086B2DB
:1055A00000BF06F10E0086B205E004E000BF00BFB8
:1055B0000020BDE8F09F00BFB8F1000F73D0B8F134
:1055C000010F6DD0B8F1020F6BD0B8F1030F69D1A4
:1055D0000820FFF75AFE04460CB90020E9E784F8DA
:1055E0000C804FF00000206006F11000204400F114
:1055F000030020F00300606000BF00BF278106F1B8
:10560000030020F00300C0F58C60B84201DD38468D
:1056100005E006F1030020F00300C0F58C60608116
:1056200000BF00BF00BF00BF4FF00100E081A246F5
:105630006089A7EB00092EE00820FFF726FE05464B
:1056400025B92046FFF756FF0020B2E785F80C8009
:105650004FF0000068732860CAF8005000BF00BF18
:10566000A5F808901FFA89F0B0F58C6F02DA1FFADE
:1056700089F001E04FF48C60688105F110006860EA
:1056800000BF00BF00BF00BF4FF00100E881688984
:10569000A9EB0009AA46B9F1000FCDDC39E002E020
:1056A00022E022E031E006F1130121F00302F91CAF
:1056B00021F00301114488B2FFF723FD04460CB921
:1056C000002076E704F11000304400F1030020F0E0
:1056D00003006060278167814FF00000206084F83C
:1056E0000C8000BF00BF14E000BF0720FFF7CDFD16
:1056F00004460CB900205CE74FF000006060278191
:105700006781206084F80C8003E000BF00BF0020A8
:105710004FE700BF4FF00100E0814FF000006073E1
:10572000204646E72DE9F04106460F4600BF00BF80
:1057300000BF00BF3089B84201DCBDE8F08130898C
:10574000A7EB00083D4634460BE06089A5EB00005E
:1057500085B200BF00BF208940442081246800BF7B
:1057600000BF6089A842F0DB207B60B96089A84255
:1057700009D06068001B284481B22046FFF72AFC4C
:10578000044600BF00BF658160892081206810B198
:105790002068FFF7AFFE4FF00000206000BFCCE7AD
:1057A00070B5024600BF00BF01B10AB9002070BD4C
:1057B000002909DAC1F1000084B200BF5089A0427B
:1057C00001DA0120F3E700E08CB2137B55680BB1DE
:1057D000032B0BD15068A0EB0100506002F11000C8
:1057E0005668864216D255600120E0E7022B01D0B0
:1057F000012B0BD1002907DA5089A04204DB506845
:10580000A0EB0100506005E00120D0E700BF00BF21
:105810000120CCE750890844508110890844108148
:105820004FF00000C3E701464FF0000003E000F135
:105830000102D0B209680029F9D1704718B1C189B5
:1058400001F10101C181704710B5024600BF02B1EC
:1058500001B910BD00BF104604E003890C89234440
:10586000038100680368002BF7D100BF00BF00BFB1
:1058700000BF03890C8923440381016000BFE8E76E
:1058800030B505460C4621462846FFF7DDFF204689
:10589000FFF7D4FF30BD70B504464FF00106256810
:1058A00085B100BF00BF20896189A0EB010028817C
:1058B0004FF000002060608920812846FFF71AFE23
:1058C000064600BF00BF00BF002E01DD002070BDF6
:1058D0002846FCE72DE9F04105460C464FF000064E
:1058E000374600BF25B11CB128892189884203DAD7
:1058F0006FF00900BDE8F08100BF00BF00BF00BF2E
:105900006889801B6189C91B884205DB6089A0EB1F
:1059100007001FFA80F804E06889A0EB06001FFA70
:1059200080F86268D1196A689019424609F05EFAF7
:1059300006EB080086B207EB080087B200BF00BF85
:105940006889B04202D14FF000062D6800BF00BF49
:105950006089B84202DC4FF00007246854B16089C6
:105960002189884206D100BF206810B16FF008007D
:10597000C0E700BF55B168892989884206D100BFB8
:10598000286810B16FF00800B4E700BF002CB5D153
:105990000020AFE72DE9F05F8046894616461D4698
:1059A0004FF0000B00BFB8F1000F02D10020BDE89E
:1059B000F09F00BF00BFB9F1000F01D10020F6E752
:1059C00000BF4FF0000AB8F1000F02D0B9F1000F8C
:1059D00001D10020EBE7444624E03DB16089A842B4
:1059E00004DC6089A5EB000085B21AE06089A0EBB9
:1059F000050087B2B74200DD37466268511909EBEE
:105A00000A003A4609F0F2F90BEB07001FFA80FB97
:105A10000AEB07001FFA80FAA6EB070086B24FF0E8
:105A2000000524680EB1002CD7D15846BFE72DE9F8
:105A3000F04704460E469146C8464FF0000A00BFA4
:105A400014B90020BDE8F08700BF00BF0EB90020E8
:105A5000F8E700BF1CB116B12089484502DA6FF0A3
:105A60000900EFE7254615E000BF00BF47466889FB
:105A7000B84200DA6F8906EB0A013A46686809F015
:105A8000B5F9A8EB07001FFA80F80AEB07001FFA28
:105A900080FA2D68B8F1000FE6D100BF00BF0020EA
:105AA000D0E72DE9F04104460E46206810B92046A3
:105AB000BDE8F081218900223046FFF756FD0546FA
:105AC0000DB92046F4E721462846FFF703FF0746B5
:105AD00000BF00BF2046FFF70DFD2846E8E70000A5
