:020000040800F2
:10000000586D01202D960008392200083B22000877
:100010003F22000843220008472200080000000099
:100020000000000000000000000000003F960008F3
:100030004B22000800000000439600084D220008F3
:10004000479600084796000847960008479600081C
:10005000479600084796000847960008479600080C
:1000600047960008479600084796000847960008FC
:100070004796000855220008479600085D220008B0
:1000800047960008479600084796000847960008DC
:1000900047960008479600084796000847960008CC
:1000A00047960008479600084796000847960008BC
:1000B00047960008479600084796000847960008AC
:1000C000479600084796000847960008479600089C
:1000D000479600084796000847960008479600088C
:1000E000479600084796000847960008479600087C
:1000F000479600084796000847960008479600086C
:10010000479600084796000847960008479600085B
:10011000479600084796000847960008479600084B
:10012000479600084796000847960008479600083B
:10013000479600084796000847960008479600082B
:10014000479600084796000847960008479600081B
:10015000479600084796000847960008479600080B
:1001600047960008479600084796000847960008FB
:1001700047960008479600084796000847960008EB
:1001800047960008DFF80CD010F026FB0048004727
:1001900099010008586D01204FF47A7001F0A8F918
:1001A0004FF47A7001F0A4F900F0E0FC4FF47A709B
:1001B00001F09EF900F0E8FC4FF47A7001F098F934
:1001C00001F004F801F01EF801F062F9584801F05E
:1001D0008FF9574801F08CF901F05AF9544801F0B1
:1001E00087F9534801F084F901F052F902F03AF826
:1001F000504801F07DF900F0EFFF01F00AF801F03E
:1002000047F94C4801F074F900F0E0FF00F0FAFF04
:1002100001F03EF942F2107001F06AF900F0A0F826
:1002200005F0FCFA01F02AFB4FF47A7001F060F956
:1002300006F0ADFE4FF47A7001F05AF903F0B5FD07
:100240004FF47A7001F054F901F022F942F2107083
:1002500001F04EF942F2107001F04AF942F21070CA
:1002600001F046F905F043FB01F012F942F210707B
:1002700001F03EF9304800783049087057E000F04E
:1002800005F902F057FA01F0ADFB03F009FF2C4825
:100290000068012805DB4FF000002949086002F0E2
:1002A00053F828480068022805DB4FF00200254972
:1002B000086002F053F824480068052805DB4FF079
:1002C00000002149086002F04AF8204800680A2826
:1002D00005DB4FF000001D49086002F046F81C489D
:1002E0000068142805DB4FF000001949086002F08F
:1002F00054F818480068322805DB4FF00000154913
:10030000086002F04EF814480068642805DB4FF0DE
:1003100000001149086002F056F810480068C8282B
:1003200005DB4FF000000D49086002F050F8A6E729
:1003300020A10700A0860100DC020020D1020020DD
:10034000380300203C030020400300204403002029
:10035000480300204C0300205003002054030020D9
:1003600010B54FF00300F84908704FF00100F7494D
:1003700008704FF00D00F64908704FF01100F54974
:1003800008704FF00100F44908604FF00B00F3498A
:1003900008704FF00100F2490870F249088000F03F
:1003A000AFFFF149087008460078ED49087006F083
:1003B000CDF806F0E3F906F0D3FA10F083FA10BD99
:1003C00010B542F2107001F093F803F08CFB01F0CD
:1003D00085F842F2107001F08BF802F09FF901F0FD
:1003E0007DF842F2107001F083F801F0A5FF42F2AF
:1003F000107001F07DF810BD10B505F039FB10BD8F
:1004000010B5DA480068DA490968884202DD00F070
:1004100037FF01E000F03BFFD4484068D449096849
:10042000884202DD00F03AFF01E000F03DFFCF48D6
:100430008068CF490968884202DD00F03BFF01E097
:1004400000F03EFFC948C068C9490968884202DD1A
:1004500000F03CFF01E000F03FFFC4480069C449E0
:100460000968884202DD00F03DFF01E000F041FF35
:10047000BF48006800F10100BD49086008460068F7
:100480000A2802DB4FF00000086010BD10B5B94823
:10049000006801280ED1B8480068A0F10100B649F3
:1004A00008600846006803F045FC4FF00000B149C1
:1004B000086011E0AF48006802280DD1AE4800681E
:1004C00000F10100AC4908600846006803F032FC06
:1004D0004FF00000A7490860FFF792FF10BD10B56C
:1004E00000F0FCFF10BDA548006830B9A4480078B2
:1004F00020F00300A249087029E0A0480068012804
:100500000BD19F48007820F003009D4908700846F1
:10051000007840F00100087019E09848006802284F
:100520000BD19748007820F00300954908700846E1
:10053000007840F00200087009E090480068032845
:1005400005D18F48007820F003008D4908708D4850
:10055000006830B98A48007820F00C00884908709B
:100560001EE08848006802280BD18548007820F0FA
:100570000C00834908700846007840F004000870B9
:100580000EE08048006801280AD17D48007820F0FC
:100590000C007B4908700846007840F0080008709D
:1005A0007948006830B97648007820F01000744926
:1005B000087005E07248007840F01000704908703B
:1005C0007248006830B96E48007820F020006C490D
:1005D000087005E06A48007840F02000684908701B
:1005E0006B48006830B96648007820F0C000644964
:1005F00008702EE06648006801280BD1604800783A
:1006000020F0C0005E4908700846007840F04000C5
:1006100008701EE05E48006802280BD15848007838
:1006200020F0C000564908700846007840F080006D
:1006300008700EE05648006803280AD15048007838
:1006400020F0C0004E4908700846007840F0C00015
:100650000870704710B500F0FFFE002808DD00F0BC
:1006600009FF002804DD4FF000004949086021E03F
:1006700000F0F2FE40B900F0FDFE002804DD4FF06E
:1006800001004349086015E000F0E6FE002807DDA0
:1006900000F0F0FE20B94FF002003D49086009E08B
:1006A00000F0DAFE30B900F0E5FE18B94FF00300B3
:1006B0003749086010BD10B500F0A3FE002804DD26
:1006C0004FF000003049086003E04FF001002E4970
:1006D000086000F0A4FE002804DD4FF000002B4964
:1006E000086003E04FF001002849086010BD2DE9C3
:1006F000F04100F04CFE074600F058FE054600F0C1
:1007000071FE064657B915B94FF0010410E016B94D
:100710004FF002040CE04FF0030409E015B94FF06C
:10072000040405E016B94FF0040401E04FF00004A2
:100730002046BDE8F0810D4A42F82010704701467E
:100740000A4850F821007047F1020020F202002010
:10075000F3020020F4020020D4020020D002002086
:10076000D1020020D2020020DC020020A8060020D6
:10077000CC02002088040020F4030020E0020020C6
:10078000F002002028040020E4020020E8020020FB
:10079000EC02002000B5EE480068A0B90A21002054
:1007A000FFF7C9FF00210120FFF7C5FF002102204C
:1007B000FFF7C1FF00210320FFF7BDFF0021042048
:1007C000FFF7B9FF87E0E2480068002818DDE0483D
:1007D0000068032814DC00210846FFF7ACFF0A215B
:1007E0000120FFF7A8FF00210220FFF7A4FF00214E
:1007F0000320FFF7A0FF00210420FFF79CFF6AE021
:10080000D3480068032818DDD1480068062814DCA6
:1008100000210846FFF78FFF00210120FFF78BFF23
:100820000A210220FFF787FF00210320FFF783FF43
:1008300000210420FFF77FFF4DE0C548006806282F
:1008400018DDC3480068092814DC00210846FFF7BA
:1008500072FF00210120FFF76EFF00210220FFF749
:100860006AFF0A210320FFF766FF00210420FFF73B
:1008700062FF30E0B6480068092818DDB448006817
:100880000C2814DC00210846FFF755FF0021012049
:10089000FFF751FF00210220FFF74DFF0021032049
:1008A000FFF749FF0A210420FFF745FF13E000216D
:1008B0000846FFF740FF00210120FFF73CFF002121
:1008C0000220FFF738FF00210320FFF734FF00214B
:1008D0000420FFF730FF9F48006848BB0020FFF767
:1008E0002EFF18B901210020FFF725FF0120FFF797
:1008F00026FF18B900210120FFF71DFF0220FFF796
:100900001EFF18B900210220FFF715FF0320FFF793
:1009100016FF18B900210320FFF70DFF0420FFF791
:100920000EFF002803D100210420FFF704FFC4E0DC
:100930008848006800282DDD86480068032829DCE7
:100940000020FFF7FCFE18B900210846FFF7F3FE70
:100950000120FFF7F4FE18B901210846FFF7EBFE6E
:100960000220FFF7ECFE18B900210220FFF7E3FE9A
:100970000320FFF7E4FE18B900210320FFF7DBFE98
:100980000420FFF7DCFE0028D1D100210420FFF76E
:10099000D2FE92E06F48006803282DDD6D480068A4
:1009A000062829DC0020FFF7CAFE18B900210846F6
:1009B000FFF7C1FE0120FFF7C2FE18B90021012098
:1009C000FFF7B9FE0220FFF7BAFE18B90121022095
:1009D000FFF7B1FE0320FFF7B2FE18B90021032094
:1009E000FFF7A9FE0420FFF7AAFE002865D1002129
:1009F0000420FFF7A0FE60E05648006806282CDDC2
:100A000054480068092828DC0020FFF798FE18B930
:100A100000210846FFF78FFE0120FFF790FE18B96E
:100A200000210120FFF787FE0220FFF788FE18B99A
:100A300000210220FFF77FFE0320FFF780FE18B998
:100A400001210320FFF777FE0420FFF778FEA0BB0B
:100A500000210420FFF76FFE2FE03E4800680928C0
:100A60002BDD3C4800680C2827DC0020FFF767FEE0
:100A700018B900210846FFF75EFE0120FFF75FFE70
:100A800018B900210120FFF756FE0220FFF757FE9C
:100A900018B900210220FFF74EFE0320FFF74FFE9A
:100AA00018B900210320FFF746FE0420FFF747FE98
:100AB00018B901210420FFF73EFE00BD10B500F07B
:100AC000E7FC2548006800F101002349086008465A
:100AD0000068142806D14FF0010020490860FFF794
:100AE0008BFC08E01C480068B0F57A7F03DD4FF40A
:100AF0007A7019490860FFF74DFEFFF7F8FD1849B5
:100B00000860FFF7D8FDFFF7A5FDFFF7ECFC10BD6F
:100B1000704710B50446402C02DD4FF0FF3010BD89
:100B200010490C7004F07EFE04F06BFF0020F6E725
:100B300010B50446B4F5803F02DD4FF0FF3010BD24
:100B400009490C8004F06EFE04F04BFF0020F6E72C
:100B5000F40300204C040020D4020020D80200201E
:100B6000E0020020D1020020D202002010B50121B5
:100B70007F2007F0F1FE0121880307F029FF012102
:100B8000880507F016FF10BD1CB54FF0040000905B
:100B90004FF001008DF804004FF000008DF80600C2
:100BA0004FF003008DF805004FF000008DF80700AE
:100BB0006946FE4807F012FA4FF4806000904FF04B
:100BC00001008DF804004FF000008DF806004FF092
:100BD00003008DF805004FF000008DF8070069460E
:100BE000F34807F0FBF904220121F04807F09FFACF
:100BF00004220021ED4807F09AFA4FF0020000901D
:100C00008DF804008DF805004FF001008DF8060006
:100C10004FF000008DF807006946E44807F0DEF960
:100C20004FF0010000906946E04807F0D7F94FF413
:100C3000007000904FF002008DF804008DF8050060
:100C40004FF000008DF806008DF807006946D9487E
:100C500007F0C4F905220921D64807F068FA4FF0D9
:100C6000400000904FF002008DF804008DF8050060
:100C70004FF000008DF806008DF807006946CD485A
:100C800007F0ACF905220621CA4807F050FA4FF4E4
:100C9000805000904FF002008DF804008DF80500A0
:100CA0004FF000008DF806008DF807006946C24835
:100CB00007F094F905220C21BF4807F038FA4FF4E9
:100CC000005000904FF002008DF804008DF80500F0
:100CD0004FF000008DF806008DF807006946B64811
:100CE00007F07CF905220D21B34807F020FA4FF4F4
:100CF000004000904FF002008DF804008DF80500D0
:100D00004FF000008DF806008DF807006946AA48EC
:100D100007F064F905220F21A74807F008FA4FF001
:100D2000800000904FF002008DF804008DF805005F
:100D30004FF000008DF806008DF8070069469D48C9
:100D400007F04CF9062207219A4807F0F0F94FF016
:100D5000100000904FF002008DF804008DF805009F
:100D60004FF000008DF806008DF8070069469348A3
:100D700007F034F906220421904807F0D8F94FF41F
:100D8000806000904FF002008DF804008DF805009F
:100D90004FF000008DF806008DF807006946854881
:100DA00007F01CF906220A21824807F0C0F94FF427
:100DB000805000904FF002008DF804008DF805007F
:100DC0004FF000008DF806008DF80700694679485D
:100DD00007F004F906220C21764807F0A8F94FF431
:100DE000005000904FF001008DF804004FF000001B
:100DF0008DF806004FF003008DF805004FF000005D
:100E00008DF8070069466A4807F0E8F84FF480401B
:100E100000904FF001008DF804004FF000008DF8B5
:100E200006004FF003008DF805004FF000008DF82C
:100E3000070069465E4807F0D1F84FF40040009083
:100E40004FF001008DF804004FF000008DF806000F
:100E50004FF003008DF805004FF000008DF80700FB
:100E60006946534807F0BAF84FF4004000904FF03D
:100E700001008DF804004FF000008DF806004FF0DF
:100E800003008DF805004FF000008DF8070069465B
:100E9000464807F0A3F84FF0010000908DF80400D9
:100EA0004FF000008DF806004FF003008DF80500AC
:100EB0004FF000008DF807006946414807F08EF8B2
:100EC0004FF0020000904FF001008DF804004FF049
:100ED00000008DF806004FF003008DF805004FF07C
:100EE00000008DF807006946354807F077F84FF0A5
:100EF000800000904FF001008DF804004FF00000DA
:100F00008DF806004FF003008DF805004FF000004B
:100F10008DF807006946264807F060F84FF48070A6
:100F200000904FF001008DF804004FF000008DF8A4
:100F300006004FF003008DF805004FF000008DF81B
:100F4000070069461A4807F049F84FF4006000901E
:100F50004FF000008DF804004FF003008DF80500FD
:100F60004FF001008DF807006946124807F036F887
:100F70004FF0020000904FF000008DF804004FF099
:100F800003008DF805004FF001008DF80700694659
:100F90000C4807F023F84FF0010000904FF00000DC
:100FA0008DF804004FF003000EE000000014024032
:100FB000001002400008024000040240000002400D
:100FC00000180240000C02408DF805004FF00100AF
:100FD0008DF807006946FB4807F000F84FF0040061
:100FE00000904FF000008DF804004FF003008DF8E2
:100FF00005004FF001008DF807006946F14806F042
:10100000EDFF4FF4006000904FF000008DF80400F9
:101010004FF003008DF805004FF001008DF8070038
:101020006946E94806F0DAFF4FF4007000904FF08F
:1010300000008DF804004FF003008DF805004FF01C
:1010400001008DF807006946DF4806F0C7FF4FF43E
:10105000006000904FF000008DF804004FF0030096
:101060008DF805004FF001008DF807006946D7485C
:1010700006F0B4FF4FF4805000904FF000008DF860
:1010800004004FF003008DF805004FF001008DF8CB
:1010900007006946CD4806F0A1FF4FF400500090CC
:1010A0004FF000008DF804004FF003008DF80500AC
:1010B0004FF001008DF807006946C44806F08EFF26
:1010C0004FF0100000904FF000008DF804004FF03A
:1010D00003008DF805004FF001008DF80700694608
:1010E000B84806F07BFF4FF0080000904FF000007A
:1010F0008DF804004FF003008DF805004FF001005B
:101100008DF807006946AF4806F068FF4FF480404D
:1011100000904FF000008DF804004FF003008DF8B0
:1011200005004FF001008DF807006946A74806F05A
:1011300055FF4FF0200000904FF000008DF80400A4
:101140004FF003008DF805004FF001008DF8070007
:1011500069469F4806F042FF4FF0080000904FF0AC
:1011600000008DF804004FF003008DF805004FF0EB
:1011700001008DF807006946954806F02FFF4FF0F3
:10118000040000904FF001008DF804004FF00000C3
:101190008DF806004FF003008DF805004FF00000B9
:1011A0008DF807006946884806F018FF1CBD704797
:1011B00010B50421854806F09AFFC0F10100C4B2C1
:1011C00022460421814806F0A6FF10BD10B5042177
:1011D0007E4806F09EFF10BD10B504217B4806F046
:1011E00096FF10BD10B54FF48061774806F07FFF81
:1011F000C0F10100C4B222464FF48061724806F08B
:101200008AFF10BD10B54FF480616F4806F081FF72
:1012100010BD10B54FF480616B4806F078FF10BD2B
:1012200010B50446002C05DD4FF40051664806F069
:101230006EFF04E04FF40051634806F06AFF10BDF2
:1012400010B50446002C05DD4FF480415E4806F0E1
:101250005EFF04E04FF480415B4806F05AFF10BD8A
:1012600010B50446002C05DD4FF40041564806F049
:101270004EFF04E04FF40041534806F04AFF10BD12
:1012800010B54FF40041514806F043FF10BD10B5B2
:101290004FF400414D4806F03AFF10BD10B5012152
:1012A0004C4806F036FF10BD10B50121494806F044
:1012B0002EFF10BD10B50221464806F02AFF10BDD2
:1012C00010B50221434806F022FF10BD10B5802161
:1012D0003D4806F01EFF10BD10B580213A4806F0CB
:1012E00016FF10BD10B54FF48071374806F011FF9E
:1012F00010BD10B54FF48071334806F008FF10BDE3
:1013000070B54FF000054FF40061334806F0DFFE82
:10131000044605EB0400C5B24FF00201294806F06F
:10132000D6FE044605EB4400C5B24FF00101254846
:1013300006F0CDFE044605EB8400C5B24FF0040173
:10134000204806F0C4FE044605EBC400C5B228469A
:1013500070BD70B54FF400611B4806F0B8FE05463D
:1013600015B94FF0000401E04FF00104204670BDB4
:1013700070B54FF40071144806F0A9FE054615B982
:101380004FF0000401E04FF00104204670BD70B53D
:101390004FF400610D4806F09AFE054615B94FF06E
:1013A000000401E04FF00104204670BD70B54FF419
:1013B0008051064806F08BFE05467DB94FF00004CB
:1013C0000EE00000000C0240001002400014024039
:1013D0000000024000180240000802404FF00104E3
:1013E000204670BD70B54FF400513D4806F06FFEC9
:1013F000054615B94FF0000401E04FF00104204606
:1014000070BD70B51021374806F061FE054615B96C
:101410004FF0000401E04FF00104204670BD70B5AC
:101420000821304806F053FE054615B94FF0000478
:1014300001E04FF00104204670BD70B54FF48041CB
:10144000274806F044FE054615B94FF0000401E0B8
:101450004FF00104204670BD70B52021224806F0EF
:1014600036FE054615B94FF0000401E04FF00104C7
:10147000204670BD70B508211B4806F028FE0546C1
:1014800015B94FF0000401E04FF00104204670BD93
:1014900010B50421154806F02AFEC0F10100C4B2BF
:1014A00022460421114806F036FE10BD10B57E20FC
:1014B00007F0EBF808B107F077FB08F06DF80121B1
:1014C000C80207F076FA4FF4C07008F070F85020A8
:1014D00008F078F87F2008F08CF810BD7047000005
:1014E00000140240000C02400000024000100240C4
:1014F00001464FF0000209E04FF0000002E000BF9B
:1015000000F101001428FADB02F101028A42F3D350
:10151000704710B5014601F0F00201F00F034FEAE9
:10152000221202EB820403EB4404E0B210BD30B59A
:1015300001464FF00A0491FBF4F4E2B24FF00A04C2
:1015400091FBF4F504FB1514E3B203EB0214E0B2D3
:1015500030BD01464FF00A0011B94FF001000AE01A
:101560004FF0010205E000EB80034FEA430002F177
:1015700001028A42F7DB704701464FF0100011B9B3
:101580004FF0010008E04FF0010203E04FEA0010C5
:1015900002F101028A42F9DB704710B54FF00003F7
:1015A00007E000F10100884201DB4FF0000003F189
:1015B00001039342F5DB10BD00F10100884201DB1D
:1015C0004FF0000070472DE9F04104460F461646E3
:1015D000069D4FF0000108462AE014F801C0BCF156
:1015E000000F06D14FF0000800FB05FC06F80C8048
:1015F00022E04FF0000209E014F801C000FB05688A
:1016000008F802C001F1010102F1010214F801C061
:10161000BCF1200F01DDAA42EEDB3AB14FF0000C25
:1016200000FB056808F802C000F1010001F10101AA
:10163000984201DAB942D0DB00BFBDE8F08170B555
:1016400003460C464FF000010D46084612E05E5C72
:10165000A64205D025B95E5C165400F1010007E0F2
:101660005E5CA64204D14FF00006165405F1010558
:1016700001F101015E5C16B1B1F5806FE7DB4FF05F
:101680000006165470BD70B503460C464FF00001BD
:101690000D46084613E05E5CA64206D0012D04D13B
:1016A0005E5C165400F1010007E05E5CA64204D1C6
:1016B0004FF00006165405F1010501F101015E5CD1
:1016C00016B1B1F5806FE6DB4FF00006165470BD21
:1016D0002DE9F04107464FF0000838460EF0F9FDBD
:1016E0000646022E40DD387830283DD178787828BB
:1016F00002D07878582837D14FF0000530E007F154
:101700000200445D302C0CDB392C0ADCA4F13004DF
:10171000A6F10301A1EB0500FFF72EFF04FB0088F3
:101720001CE0412C0CDB462C0ADCA4F13704A6F1AA
:101730000301A1EB0500FFF71FFF04FB00880DE08C
:10174000612C0BDB662C09DCA4F15704A6F1030124
:10175000A1EB0500FFF710FF04FB008805F1010570
:10176000B01EA842CBDC1AE04FF0000515E07C5D0E
:10177000302C0CDB392C0ADCA4F13004A6F1010179
:10178000A1EB0500FFF7E5FE04FB008803E03A4803
:1017900000683949086005F10105B542E7DB4046BC
:1017A000BDE8F0812DE9F0470646894615469A4680
:1017B000BAF1000F26D12846FFF7CBFE99FBF0F1D6
:1017C00000FB11974FF0000416E0691E081BFFF79D
:1017D000C0FE97FBF0F000F0FF08A5F10101A1EBBE
:1017E0000400FFF7B6FE97FBF0F100FB117708F15C
:1017F0003000305504F10104AC42E6DB4FF000004C
:10180000705527E086F800A0681EFFF7A2FE99FB3E
:10181000F0F100FB11974FF0010416E0691E081B60
:10182000FFF797FE97FBF0F000F0FF08A5F101012C
:10183000A1EB0400FFF78DFE97FBF0F100FB1177A1
:1018400008F13000305504F10104AC42E6DB4FF002
:10185000000070550020BDE8F08701460A784FEA85
:1018600002624B7842EA03428B7842EA0322CB7849
:1018700042EA030070470000C802002010B542F29F
:101880001070FFF735FE4FF05E00FD4908704FF015
:10189000450048704FF0A20088704FF0A800C87053
:1018A0004FF0650008714FF0640048714FF0C000C0
:1018B000F44908704FF0A80048704FF06500887038
:1018C0004FF06400C8704FF0C000EF4908704FF04F
:1018D000A80048704FF0650088704FF00100C87094
:1018E0004FF0FF00E9490870487088704FF0000021
:1018F000C8704FF0C000E64908704FF0A80048706B
:101900004FF0650088704FF08F00C870FFF7F8FC4B
:10191000E049087008460078DF490870DC48007824
:10192000D8490870DA4840784870D948807888707B
:10193000D748C078D84909780844D249C8700846C1
:10194000C07810B94FF0FF00C870CE484078CC493D
:10195000C870CC4880780871CA48C0784871C948B6
:101960000078CE490870C74840784870C5488078EC
:1019700088704FF0FF00C870C948CA4908604FF02E
:101980000100C949086042F21070FFF7B1FD00F094
:1019900040FC42F21070FFF7ABFD00BF00F043FEC9
:1019A00042F21070FFF7A4FD03F06AF803F044FE62
:1019B000002010BD10B5BD480068012810D1BC48FA
:1019C000BC490268B748006803F06BF9B948016880
:1019D000B448006800F0C0FF4FF00000B349086051
:1019E000002010BD10B5FFF7E5FF10BD70471CB516
:1019F000B1480068002803DDAF480089C4B201E0A7
:101A00004FF0FF04AD480178AD480068C0B2CDE9A1
:101A10000001AC4803782246A649A248006803F0BA
:101A2000DDF8A44801689F48006800F02CFF002002
:101A30001CBD10B5FFF7DBFF10BD02464FEA116079
:101A400010704FEA114050704FEA11209070D17021
:101A50004FF00000704701460A784FEA02624B7867
:101A600042EA03428B7842EA0322CB7842EA03003F
:101A700070472DE9F04104460D4616461F46802C5E
:101A800003DA4FF0FF30BDE8F081F72D02DD4FF0B3
:101A9000FF30F8E7FF2E02DD4FF0FF30F3E7FF2FB6
:101AA00002DD4FF0FF30EEE7764804704570867037
:101AB000C7707748047045708670C7704FF47A70AD
:101AC000FFF716FD03F0AEFE4FF47A70FFF710FD3E
:101AD00003F0ADFE4FF47A70FFF70AFD4FF47A7011
:101AE000FFF706FD7848FFF703FD7748FFF700FD95
:101AF0000020C8E730B501464FEA1162C1F3074341
:101B0000C1F30724CDB2802A02DA4FF0FF3030BD96
:101B1000F72A02DD4FF0FF30F9E7FF2B02DD4FF02F
:101B2000FF30F4E7FF2C02DD4FF0FF30EFE7FF2D31
:101B300002DD4FF0FF30EAE75248027043708470D4
:101B4000C5700020E3E72DE9F0418AB05F480768DF
:101B500007F1090898F802005D490978884204D025
:101B60004FF0FF300AB0BDE8F0815848006802F03D
:101B7000F0FF044655480068B0F81350E1784FEA8A
:101B80000162A17842EA0142617842EA01212278A9
:101B900041EA02000CF0ECFE0990A5F10406324681
:101BA00004F1040101A80EF06FFB01A9099805F0EA
:101BB00038FA0020D6E770B50546002D02DA4FF05E
:101BC000020401E04FF0010422463A49354800681A
:101BD00003F076F9374801683248006800F053FE98
:101BE000002070BD2DE9F0413848006802F0B1FFD7
:101BF00004462578667828480078854207D1012E6A
:101C000005D104F0BEFE07463846FFF7D4FF00209A
:101C1000BDE8F0812DE9F84F04464FEA1467C4F39C
:101C20000748C4F30729E5B2802F03DA4FF0FF30ED
:101C3000BDE8F88FB8F1F70F02DD4FF0FF30F7E79E
:101C4000B9F1FF0F02DD4FF0FF30F1E75A2D02DD51
:101C50004FF0FF30ECE70B4890F800A090F801B08F
:101C6000807800901A4800780B2833D10548C07856
:101C700009490978A0EB0100A0F18E00C6B244E04A
:101C8000F8020020FE0200200203002006030020CC
:101C900028030020DC020020D10200202C030020B9
:101CA000BC06002018030020200300200C040020A4
:101CB000080400201C030020307C0020F1020020DA
:101CC000F4030020F0020020A08601001003002091
:101CD000D0020020EB480078022809D1EA48C078F9
:101CE000EA490978A0EB0100A0F10200C6B20CE0BD
:101CF000E4480078082808D1E348C078E349097827
:101D0000A0EB0100A0F15C00C6B2574508D1D84550
:101D100006D10098814503D1B54201D1012087E762
:101D2000DB48077080F8018080F80290D548007881
:101D30000B2804D105F18E00D549C87010E0D148B8
:101D40000078022804D105F10200D149C87007E0EB
:101D5000CC480078082803D105F15C00CC49C87054
:101D600003F060FD002063E770B5CA48066806F11D
:101D70000904A078012807D1E078012805D1656819
:101D80002846FFF747FF00E000BF002070BD10B5F8
:101D9000BE480378BB480278BF480168BD48006868
:101DA00002F0DCFE0446642C02DA204601F0C2FF99
:101DB000002010BD70B505460E46B6480560B64811
:101DC0000660B448006802F07AFE10B14FF0FF30B0
:101DD00070BDB048006802F0B2FE0446012C0BD082
:101DE000022C06D0A4F50C50113808D010280CD1C4
:101DF00008E0FFF7CCFF09E0FFF7B6FF06E0FFF7CA
:101E0000F1FE03E0FFF79FFE00E000BF00BF0020EF
:101E1000DEE710B5A149A248006803F080F89F48AA
:101E200001689F48006800F02EFD002010BD2DE9DC
:101E3000F74392B00D46144642F221360DF148099F
:101E4000D9F80080414601A8FFF7F7FD9DF804008E
:101E50008DF808009DF805008DF809009DF8060032
:101E60008DF80A009DF807008DF80B00621C2946CA
:101E700003A80EF009FA04F1050702AB32468749C0
:101E800087480097006803F09DF8844801688448FB
:101E9000006800F0F8FC002015B0BDE8F0832DE9E3
:101EA000F04780460F467B48C0F800807A480760BC
:101EB000B7F5806F03DA4FF0FF30BDE8F087754863
:101EC000006802F0FCFD10B14FF0FF30F5E77148FB
:101ED000006802F034FE81466E48006802F027FE7A
:101EE00006466C48006802F026FE0546B9F1040F6C
:101EF00042D16848006802F02CFE04466948006838
:101F000001280FDA4FF00A0066490860084606719A
:101F10004571607808812078887104F1020001F031
:101F2000F9FF29E060785F49098988420FDA4FF0AC
:101F30000A005C49086008460671457160780881AE
:101F40002078887104F1020001F0E4FF14E0607869
:101F50005449098988420FD152480079B0420BD1C7
:101F600050484079A84207D14FF00A004D49086017
:101F700004F1020001F0CEFF00209EE70020704730
:101F800002464FF00000704702464FF000007047D5
:101F900070B504460D462B4622464049404800682D
:101FA00002F01BFF3D4801683D48006800F0B1FCAD
:101FB000002070BD70B504460D462B4622463749B9
:101FC0003748006802F038FF344801683448006838
:101FD00000F09FFC002070BD2DE9F04106460F4641
:101FE0002C4806602C4807602A48006802F067FD0C
:101FF00018B14FF0FF30BDE8F0812648006802F0CC
:102000009EFD0446032C15D12248006802F093FD82
:1020100005461E48007885420CDA2348006800F126
:1020200001002149086008460068802802DD4FF061
:10203000800008600020DEE710B503F058FC14486B
:102040000078802803DA4FF0C0001149087010486A
:102050004078F72803DD4FF0A8000D4908700C48C0
:102060008078FF2803DD4FF0650009498870084833
:10207000C078022803DA4FF064000549C8700020D8
:1020800010BD0000D0020020FE020020D10200207E
:102090002803002010030020140300201C0300204C
:1020A00018030020307C00201404002000B5AFB0DD
:1020B00001214FF0606006F04FFC07F0BEFB08F016
:1020C000EDF800BF08F0F1F80128FBD0684607F0F2
:1020D000BFFB4FF0010000904FF0000007904FF45D
:1020E00000700A904FF000000B900E90119013902A
:1020F000149015904FF4806009904FF000002090EC
:102100004FF0007021904FF4001023904FF000002A
:10211000259026904FF0040028904FF000702990F1
:102120004FF480302A904FF480002B904FF40050F1
:102130002C904FF480402E904FF00101684607F03C
:10214000F0FB394908602FB000BD1CB501216720A4
:1021500006F002FC0121880306F03AFC4FF480707F
:1021600000904FF003008DF805004FF002008DF84D
:1021700004004FF000008DF806008DF80700694656
:102180002A4805F02BFF012006F066FF4FF086007D
:1021900000906946254805F021FF0B2201212348C4
:1021A00005F0C5FF0B220221204805F0C0FF0B22DD
:1021B00007211E4805F0BBFF4FF032000090694632
:1021C0001B4805F00BFF0B220121194805F0AFFF5A
:1021D0000B220421164805F0AAFF0B220521144802
:1021E00005F0A5FF4FF4D04000906946114805F076
:1021F000F5FE0B2211460F4805F099FF0B220D2129
:102200000C4805F094FF0B220E210A4805F08FFFC1
:102210001CBD10B5FFF799FFFFF748FF10BD10B5C3
:1022200007F00BFB10BD000030030020000002404F
:102230000008024000180240704700BFFEE700BFE0
:10224000FEE700BFFEE700BFFEE7704710B500F0F5
:1022500042F810BD10B501F020FC10BD10B501F022
:10226000C4FA10BD7FB5042005F0D5F9684606F024
:10227000E0FA4FF064020198B0FBF2F1B1F1807F17
:1022800000D327E021F07F40A0F101004FF0E022D1
:1022900050614FF0FF304FF00F0200280ADA4FEA8A
:1022A00002734FEA13654A4B00F00F04A4F10404D3
:1022B0001D5505E04FEA02734FEA1364454B1C5469
:1022C00000BF4FF000004FF0E02290614FF0070098
:1022D000106100BF7FBD4048006800F101003E4929
:1022E00008603E48006800F101003C4908603C4835
:1022F000006800F101003A4908603A48006800F1BE
:102300000100384908603848006800F1010036498A
:1023100008603648006800F101003449086034481C
:10232000006800F10100324908603248006800F19D
:1023300001003049086070476FF007004FF0E0215E
:10234000086170477047704710B504F041FA04F017
:10235000E3FE01F0D5FFFEF7C2F810BD704710B5DF
:10236000FFF744FB00F0FEF910BD10B5FEF7A6FB29
:1023700002F0CBF820480068002803DDFEF718FFC4
:10238000FEF730FF03F053FA04F0BAFA04F017FB3B
:1023900004F057FF04F02CFE10BD10B502F0EAF86F
:1023A00010BD10B514480068012803DAFEF700FFDD
:1023B000FEF718FFFFF73DFB02F04CF903F0A9FB15
:1023C00004F0F7FC10BD10B5FEF7A2FB10BD70477E
:1023D00018ED00E000E400E0380300203C0300209A
:1023E0004003002044030020480300204C03002049
:1023F0005003002054030020307C002010B50BF067
:1024000084FFFB4908604CF69F72FA49F84800685F
:102410000BF058FE10BD2DE9F04106460F4614465C
:102420009846069D61896068FFF7D6FD204608F052
:1024300069FCBDE8F08110B50BF067FFEE4908605C
:102440004CF6A072EB49EC4800680BF03BFE002212
:10245000AFF23D01E84800680BF036FF10BD10B543
:102460000BF053FFE54908604CF6B732E149E34809
:1024700000680BF027FE10BD2DE9F04106460F461F
:1024800014469846069D61896068FFF779FD2046ED
:1024900008F038FCBDE8F08110B50BF036FFD849E4
:1024A00008604CF6B832D349D54800680BF00AFEF4
:1024B0000022AFF23B01D24800680BF005FF10BDCF
:1024C00010B50BF022FFCF4908604CF2CF72C9491A
:1024D000CC4800680BF0F6FD10BD2DE9F041064632
:1024E0000F4614469846069D61896068FFF7D7FC41
:1024F000204608F007FCBDE8F08110B50BF005FFA1
:10250000C14908604CF2D072BA49BF4800680BF06C
:10251000D9FD0022AFF23D01BB4800680BF0D4FEAC
:1025200010BD10B50BF0F1FEB84908604CF2E7326F
:10253000B049B64800680BF0C5FD10BD2DE9F0416B
:1025400006460F4614469846069D61896068FFF767
:1025500031FC204608F0D6FBBDE8F08110B50BF049
:10256000D4FEAB4908604CF2E832A249A8480068A2
:102570000BF0A8FD0022AFF23B01A54800680BF06C
:10258000A3FE10BD2DE9F04106460F4614469846BD
:10259000069D6189606803F04CFB204608F0B2FBA1
:1025A000BDE8F08110B50BF0B0FE9A49086043F623
:1025B00060329049974800680BF084FD0022AFF22A
:1025C0003B01944800680BF07FFE10BD2DE9F041FF
:1025D00080460D4614461E46069F43F6623231463B
:1025E00028460BF031FE214628460BF022FE2846F5
:1025F0000BF05AFE204608F085FBBDE8F08110B5CF
:102600000BF083FE8449086043F6623279498248C0
:1026100000680BF057FD0022AFF24F017E480068C2
:102620000BF052FE10BD00B587B008F08DF808F031
:1026300005FA7A4909780A067849497842EA014256
:102640007649897842EA0121744AD27841EA020047
:102650000CF08EF90690724909780A06704949789B
:1026600042EA01426E49897842EA01216C4AD278F5
:1026700041EA02000CF07CF905906A4909780A06E3
:102680006849497842EA01426649897842EA01216B
:10269000644AD27841EA02000CF06AF904904FF0E3
:1026A000FF300CF065F9604908605C4909780A065A
:1026B0005A49497842EA01425849897842EA012157
:1026C00041F0FF000CF054F9584908605848594946
:1026D000002204ABCDE90021029005AA06A95648C4
:1026E00008F061FA544808F091FA534808F0D7FA14
:1026F000FFF785FFFFF756FFFFF730FFFFF711FFEA
:10270000FFF7FBFEFFF7DCFEFFF7C6FEFFF7A7FEB5
:10271000FFF791FEFFF772FE07B000BD10B5464807
:1027200008F077FAFFF77BFD10BD10B542480DF0B9
:102730006AFD10BD10B507F069FC08B1FFF7F5FFA1
:1027400010BD10B53D48006800F101003B4908602C
:1027500008460068642804DD4FF0000008600CF0B3
:10276000C2FF10BD10B5FFF7ECFF10BD1CB54FF058
:1027700020008DF800004FF021008DF801004FF08F
:1027800022008DF802004FF023008DF803004FF077
:1027900024008DF804004FF025008DF805004FF05F
:1027A00026008DF806004FF027008DF8070043F64D
:1027B00062321E49184800680BF046FD03220821CA
:1027C000002008F0DAFA044684B10822694620465F
:1027D00008F035FD2146104800680BF02AFD0E4830
:1027E00000680BF061FD204608F08CFA1CBD00006B
:1027F000880300202A42010884030020800300206F
:102800007C03002078030020740300207003002064
:102810006C0300206803002064030020FE020020F7
:1028200006030020020300205C0300206003002058
:102830000D00010835020108BC0B002058030020E0
:1028400070B506460C4643F6613255495548006856
:102850000BF0FAFC0322A1B2002008F08EFA054624
:1028600085B1A2B23146284608F0E9FC29464D4818
:1028700000680BF0DEFC4B4800680BF015FD2846A5
:1028800008F040FA70BD70B506460C464CF2E832CE
:102890004349454800680BF0D7FC0322A1B2002051
:1028A00008F06BFA054685B1A2B23146284608F019
:1028B000C6FC29463C4800680BF0BBFC3A4800685F
:1028C0000BF0F2FC284608F01DFA70BD70B5064604
:1028D0000C464CF2D0723249344800680BF0B4FC1C
:1028E0000322A1B2002008F048FA054685B1A2B241
:1028F0003146284608F0A3FC29462C4800680BF016
:1029000098FC2A4800680BF0CFFC284608F0FAF93A
:1029100070BD70B506460C464CF6B83220492448C6
:1029200000680BF091FC0322A1B2002008F025FA08
:10293000054685B1A2B23146284608F080FC2946FA
:102940001B4800680BF075FC194800680BF0ACFCE4
:10295000284608F0D7F970BD70B506460C464CF60F
:10296000A0720F49134800680BF06EFC0322A1B25D
:10297000002008F002FA054685B1A2B23146284689
:1029800008F05DFC29460B4800680BF052FC094832
:1029900000680BF089FC284608F0B4F970BD00000F
:1029A00060030020680300207003002078030020EB
:1029B00080030020880300201FB54FF00000ADF811
:1029C00004004BF6FF70ADF806004FF0A000ADF824
:1029D00008004FF48060ADF80A004FF48040ADF875
:1029E0000C00F84800904FF00101F74805F095FC05
:1029F0006946F54805F005FC1FBD2DE9F041044688
:102A00000D464FEA1427E6B24FF00000EF49086088
:102A1000EF49086010E0ED48006800F10100EB4963
:102A2000086008460068B0F57A2F05DD4FF0010018
:102A3000E7490860BDE8F0814FF40031E24805F055
:102A4000BBFD0028E7D10121DF4805F073FC4FF002
:102A50000000DE490860DE4908600FE0DB480068DE
:102A600000F10100D949086008460068B0F57A2FE6
:102A700004DD4FF00200D6490860DBE7D549D248B3
:102A800005F065FD0028E9D00022A021CE4805F020
:102A90006BFC4FF00000CD490860CD4908600FE0A5
:102AA000CA48006800F10100C8490860084600688B
:102AB000B0F57A2F04DD4FF00300C5490860B9E78F
:102AC000C549C14805F043FD0028E9D03946BE4854
:102AD00005F0D9FC4FF00000BC490860BC49086013
:102AE0000FE0BA48006800F10100B84908600846E4
:102AF0000068B0F57A2F04DD4FF00400B449086097
:102B000098E7B649B04805F057FD0028E9D03146AE
:102B1000AD4805F0B8FC4FF00000AC490860AC4986
:102B200008600FE0A948006800F10100A7490860AB
:102B300008460068B0F57A2F04DD4FF00500A4497F
:102B4000086077E7A549A04805F036FD0028E9D0E0
:102B500029469D4805F097FC4FF000009B4908600E
:102B60009B4908600FE09948006800F1010097490F
:102B7000086008460068B0F57A2F04DD4FF00600C3
:102B80009349086056E795498F4805F015FD0028E0
:102B9000E9D04FF000008D4908608D4908600FE0D2
:102BA0008A48006800F1010088490860084600680A
:102BB000B0F57A2F04DD4FF007008549086039E74A
:102BC0008549891E804805F0C2FC0028E8D0012113
:102BD0007D4805F0BCFB00BF2CE72DE9F041044621
:102BE0004FEA1426E5B24FF00000784908607849B2
:102BF000086012E07548006800F101007349086040
:102C000008460068B0F57A2F07DD4FF008007049DC
:102C100008604FF0FF00BDE8F0814FF400316A48D2
:102C200005F0CAFC0028E5D10121674805F082FBC8
:102C30004FF00000654908606549086011E063488D
:102C4000006800F101006149086008460068B0F5BD
:102C50007A2F06DD4FF009005D4908604FF0FF0054
:102C6000D9E75C49584805F072FC0028E7D00022FB
:102C7000A021554805F078FB4FF00000534908604B
:102C80005349086011E05148006800F101004F49C4
:102C9000086008460068B0F57A2F06DD4FF00A009C
:102CA0004B4908604FF0FF00B5E74B49464805F037
:102CB0004EFC0028E7D03146434805F0E4FB4FF0D6
:102CC0000000424908604249086011E03F4800683E
:102CD00000F101003D49086008460068B0F57A2F10
:102CE00006DD4FF00B003A4908604FF0FF0092E715
:102CF0003A49354805F060FC0028E7D029463248BB
:102D000005F0C1FB4FF00000304908603049086011
:102D100011E02E48006800F101002C4908600846C7
:102D20000068B0F57A2F06DD4FF00B0028490860E7
:102D30004FF0FF006FE72949234805F03DFC0028CC
:102D4000E7D00121204805F0F5FA4FF000001F49B7
:102D500008601F49086011E01C48006800F101008C
:102D60001A49086008460068B0F57A2F06DD4FF072
:102D70000C00174908604FF0FF004CE71549124856
:102D800005F0E5FB0028E7D00122A0210E4805F060
:102D9000EBFA4FF000000D4908600D4908601FE094
:102DA0000A48006800F10100084908600846006808
:102DB000B0F57A2F14DD4FF00D00054908604FF093
:102DC000FF0028E7A0860100005800408C03002087
:102DD000900300200100030082000700040000109F
:102DE000FD49FE4805F0E8FB0028D9D00021FB484A
:102DF00005F0C2FAFA4800884FF00101F74805F0E3
:102E0000A6FA4FF00000F7490860F749086011E0A2
:102E1000F448006800F10100F249086008460068C3
:102E2000B0F57A2F06DD4FF00E00EF4908604FF045
:102E3000FF00F0E6E8493E31E84805F0BDFB002818
:102E4000E6D0E64805F021FB07464FF00000E549D3
:102E50000860E549086011E0E248006800F10100FF
:102E6000E049086008460068B0F57A2F06DD4FF0AB
:102E70000F00DD4908604FF0FF00CCE6D74800881E
:102E800010F4007FE8D10121D44805F075FA3846E6
:102E9000C1E62DE9F04705460F4616464FEA455074
:102EA0004FEA10484FEA182A08F0FF09202E01DDEA
:102EB0004FF020064FF00000CA490860CA49086078
:102EC00010E0C848006800F10100C64908600846E3
:102ED0000068B0F57A2F05DD4FF01000C249086098
:102EE000BDE8F0874FF40031BC4805F065FB0028D1
:102EF000E7D10121B94805F01DFA4FF00000B949AA
:102F00000860B94908600FE0B648006800F10100A8
:102F1000B449086008460068B0F57A2F04DD4FF028
:102F20001100B1490860DBE7B049AC4805F00FFB80
:102F30000028E9D00022A021A84805F015FA4FF09A
:102F40000000A8490860A84908600FE0A54800688B
:102F500000F10100A349086008460068B0F57A2F27
:102F600004DD4FF01200A0490860B9E7A0499B4872
:102F700005F0EDFA0028E9D05146984805F083FAAB
:102F80004FF0000097490860974908600FE09548A6
:102F9000006800F101009349086008460068B0F538
:102FA0007A2F04DD4FF013008F49086098E78A49B3
:102FB000891C8A4805F000FB0028E8D0494687486C
:102FC00005F061FA4FF00000864908608649086004
:102FD0000FE08448006800F101008249086008465B
:102FE0000068B0F57A2F04DD4FF014007E490860C8
:102FF00076E77949891C794805F0DEFA0028E8D09F
:103000004FF0000423E0395D744805F03CFA4FF0BE
:10301000000074490860744908600FE07148006856
:1030200000F101006F49086008460068B0F57A2F8A
:1030300004DD4FF015006C49086051E76649891CB2
:10304000664805F0B9FA0028E8D004F10104B4425A
:10305000D9DB4FF0000063490860634908600FE066
:103060006048006800F101005E4908600846006899
:10307000B0F57A2F04DD4FF016005B4908602FE7AA
:103080005B49891E554805F062FA0028E8D0012105
:10309000524805F05CF900BF22E72DE9F0470546EC
:1030A0000F4616464FEA45504FEA10484FEA182A95
:1030B00008F0FF09202E01DD4FF020064FF0000040
:1030C000484908604849086010E04648006800F137
:1030D00001004449086008460068B0F57A2F05DD14
:1030E0004FF0170040490860BDE8F0874FF4003109
:1030F0003A4805F061FA0028E7D10121374805F088
:1031000019F94FF0000037490860374908600FE0AF
:103110003448006800F10100324908600846006840
:10312000B0F57A2F04DD4FF018002F490860DBE777
:103130002E492A4805F00BFA0028E9D00022A021E8
:10314000264805F011F94FF000002649086026498D
:1031500008600FE02348006800F101002149086081
:1031600008460068B0F57A2F04DD4FF019001E49BB
:103170000860B9E71E49194805F0E9F90028E9D0C7
:103180005146164805F07FF94FF0000015490860D8
:10319000154908600FE01348006800F1010011496B
:1031A000086008460068B0F57A2F04DD4FF01A0079
:1031B0000D49086098E70849891C084805F0FCF9A2
:1031C0000028E8D04946054805F05DF94FF00000B9
:1031D0000449086004490DE0020000100058004056
:1031E000185800408C0300209003002001000300C9
:1031F0008200070008600FE0E648006800F1010067
:10320000E449086008460068B0F57A2F04DD4FF005
:103210001B00E149086067E7E049E14805F0CCF9A7
:103220000028E9D04FF0000492E00121DC4805F0CD
:1032300081F84FF00000D7490860D74908600FE0D7
:10324000D448006800F10100D249086008460068CF
:10325000B0F57A2F04DD4FF01C00CF49086043E73A
:10326000D049CF4805F073F90028E9D00122A02108
:10327000CB4805F079F84FF00000C6490860C64910
:1032800008600FE0C348006800F10100C149086010
:1032900008460068B0F57A2F04DD4FF01D00BE49E6
:1032A000086021E7BD49891EBD4805F085F9002861
:1032B000E8D00021BA4805F05FF8BB4800884FF01D
:1032C0000101B74805F043F84FF00000B14908602C
:1032D000B14908600FE0AF48006800F10100AD4956
:1032E000086008460068B0F57A2F04DD4FF01E0034
:1032F000A9490860F8E6A9493C31A94805F05CF9FC
:103300000028E8D0A64805F0C0F838554FF0000076
:10331000A0490860A04908600FE09E48006800F1DD
:1033200001009C49086008460068B0F57A2F04DD6A
:103330004FF01F0098490860D6E69948008810F4BD
:10334000007FEAD10121964805F016F804F1010446
:10335000B442FFF66AAF00BFC6E61FB54FF00000EB
:10336000ADF804004BF6FF70ADF806004FF0880092
:10337000ADF808004FF48060ADF80A004FF48040CB
:10338000ADF80C00894800904FF00101844804F02A
:10339000C4FF6946824804F034FF1FBD2DE9F047A1
:1033A00081460C464F2C02DD4FF04F0403E0002C09
:1033B00001DA4FF000044FF00A0094FBF0F0C7B2BE
:1033C0004FF00A0094FBF0F100FB114000F0FF0801
:1033D000B9F1010F04D147F0B00548F0A0060BE0A9
:1033E000B9F1020F04D147F0300548F0200603E0A0
:1033F00047F0E00548F0D0064FF00000654908604E
:103400006549086010E06348006800F10100614907
:10341000086008460068B0F57A2F05DD4FF06500BA
:103420005D490860BDE8F0874FF400315C4805F065
:10343000C3F80028E7D10121594804F07BFF4FF081
:10344000000054490860544908600FE05148006882
:1034500000F101004F49086008460068B0F57A2F76
:1034600004DD4FF066004C490860DBE74D494C48ED
:1034700005F06DF80028E9D000228821484804F0C2
:1034800073FF4FF0000043490860434908600FE0B4
:103490004048006800F101003E49086008460068A5
:1034A000B0F57A2F04DD4FF067003B490860B9E7BB
:1034B0003F493B4805F04BF80028E9D029463848F9
:1034C00004F0E1FF4FF00000324908603249086023
:1034D0000FE03048006800F101002E4908600846FE
:1034E0000068B0F57A2F04DD4FF068002A490860C3
:1034F00098E72A492A4805F05FF80028E9D03146C4
:10350000274804F0C0FF4FF000002249086022491C
:1035100008600FE01F48006800F101001D490860C5
:1035200008460068B0F57A2F04DD4FF069001A49AB
:10353000086077E719491A4805F03EF80028E9D0F5
:103540004FF0000013490860134908600FE011486C
:10355000006800F101000F49086008460068B0F5F6
:103560007A2F04DD4FF06A000B4908605AE71049D2
:10357000891E0B4804F0EBFF0028E8D00121084821
:1035800004F0E5FE00BF4DE7704701464FF0000034
:10359000704770478C030020900300200400001047
:1035A000005800400100030018580040A0860100A8
:1035B000820007001FB5012005F0CBF90121880327
:1035C00005F0F7F9F84805F021FB4AF6444002906F
:1035D0004FF00000ADF80200ADF80400ADF80C00AB
:1035E0004FF40070ADF800004FF00000ADF8060099
:1035F0006946ED4805F058FB0121EB4805F00EFC4B
:103600001FBD10B50021E84805F008FC0021E7487F
:1036100004F003F900220221E34805F073FC10BD19
:1036200010B50121E04805F0F9FB0121DF4804F065
:10363000F4F801220221DC4805F064FC10BD00B55D
:1036400091B00121480505F087F90021D74804F021
:10365000E4F8D64804F002F80022D549D34804F033
:1036600003F90121D14804F00BF94FF0000002905A
:10367000D0480390D04804904FF0400005904FF49C
:10368000806006904FF0000007904FF48060089033
:103690004FF4006009904FF400500A904FF480708E
:1036A0000B904FF400300C904FF004000D904FF051
:1036B00003000E904FF000000F90109002A9BB483D
:1036C00004F062F801221021B84804F03BF901220D
:1036D0000821B64804F036F94FF00F008DF80400C9
:1036E0004FF000008DF805008DF806004FF0010046
:1036F0008DF8070001A803F033FF0121AB4804F067
:103700008CF801220221A84805F0FCFB11B000BD95
:1037100070B5A64804F0C4F808B9A54D00E0A64D60
:10372000A6480068A649096801EB80264FF0080109
:10373000A2480068FDF740FFA04908604FF0000470
:1037400006E036F8140005EB8401488004F101041A
:10375000B4F5007FF5DB70BD70B5944804F0A0F8B7
:1037600008B9934D00E0944D964800689649096861
:1037700001EB80264FF0000407E036F814004FEA12
:10378000440125F8110004F10104B4F5007FF4DBD5
:103790008E480068A0F580608C4908600846006883
:1037A000002802DA4FF0000008608948006800F540
:1037B00080608749086008460068B0F5005F02DD58
:1037C0004FF4005008607F4909687F4A126802EB95
:1037D00081204FF480610CF070FD08217948006869
:1037E000FDF7EAFE7749086070BD10B579480068BA
:1037F0007849086078496D4804F0C3F8012811D170
:1038000075496A4804F0E9F872480068714908602F
:10381000FFF7A2FFFFF77CFF4FF001006F49086040
:1038200001F0BFF86E49614804F0ABF8012807D1F8
:103830006B495E4804F0D1F8664800686549086045
:1038400010BD1FB50121C80305F0B3F8654805F0A8
:10385000DDF94AF6444002904FF00000ADF8020056
:10386000ADF80400ADF80C004FF48070ADF8000026
:103870004FF00000ADF8060069465A4805F014FA0A
:103880000121584805F0CAFA1FBD10B5002155485E
:1038900005F0C4FA00214548303803F0BEFF00228D
:1038A0000121504805F02EFB10BD10B501214D48F7
:1038B00005F0B4FA01213D48303803F0AEFF012293
:1038C0001146484805F01EFB10BD00B591B001211E
:1038D000480505F041F800213448303803F09DFFD9
:1038E0003248303803F0BAFE00223F492F483038C2
:1038F00003F0BAFF01212D48303803F0C1FF4FF02B
:103900000000029039480390394804904FF00000BD
:1039100005904FF4806006904FF0000007904FF440
:10392000806008904FF4006009904FF400500A90B6
:103930004FF480700B904FF400300C904FF0040067
:103940000D904FF003000E904FF000000F9010907C
:1039500002A9284803F018FF01221021254803F08E
:10396000F1FF01220821234803F0ECFF4FF00D0086
:103970008DF804004FF001008DF805004FF00000B5
:103980008DF806004FF001008DF8070001A803F044
:10399000E7FD0121174803F040FF012211461148BD
:1039A00005F0B0FA11B000BD003800407060024070
:1039B000F01300200C380040F00B0020C40300205E
:1039C000BC030020A40300209C030020B8030020B7
:1039D000B4030020C80200202080002094030020AF
:1039E00010400020003C0040F02300200C3C004030
:1039F000F01B00204060024070B5C24803F050FF49
:103A000008B9C14D00E0C14DC1480068C14909680D
:103A100001EB80264FF00201BD480068FDF7CCFDA8
:103A2000BB4908604FF0000406E005EB84004088C5
:103A300026F8140004F10104B4F5007FF5DB4FF023
:103A40000100B549086070BD70B5AE4803F028FFAD
:103A500008B9AD4D00E0AD4DB0480068B049096807
:103A600001EB80264FF00201AC480068FDF7A4FD91
:103A7000AA4908604FF0000407E04FEA440035F817
:103A8000100026F8140004F10104B4F5007FF4DB03
:103A90004FF00100A349086070BD10B5A24800684E
:103AA000A1490860A149974803F06BFF01280BD199
:103AB0009E49944803F091FFFFF7C6FFFFF79CFF74
:103AC000994800689849086099498E4803F059FF61
:103AD000012807D196498B4803F07FFF9248006880
:103AE0009149086010BD10B5FFF78BFDFFF7CDFEC3
:103AF00010BD4FF0000001E000F101000528FBDBE4
:103B0000704770B506460D462846FDF7A9FB012013
:103B1000FDF796FB0020FDF783FBFFF7EAFF4FF070
:103B200000041EE046FA04F010F0010F06D1002058
:103B3000FDF776FB0020FDF773FB05E00020FDF7A5
:103B40006FFB0120FDF76CFB0020FDF779FBFFF711
:103B5000D0FF0120FDF774FBFFF7CBFF04F101005C
:103B6000C4B2082CDEDBFFF7C4FF0120FDF778FBB1
:103B7000FFF7BFFF70BD10B500211620FFF7C1FF92
:103B800001216020FFF7BDFF01212020FFF7B9FFD1
:103B900001218320FFF7B5FF10BD10B500211620CD
:103BA000FFF7AFFF01218020FFF7ABFF10BD10B57D
:103BB00000211620FFF7A5FF01218320FFF7A1FFB9
:103BC00010BD10B500211420FFF79BFF01210F202D
:103BD000FFF797FF01218120FFF793FF0121C2200A
:103BE000FFF78FFF0121E320FFF78BFF0121C120A9
:103BF000FFF787FF0121FF20FFF783FF0121C0208E
:103C0000FFF77FFF0121F020FFF77BFF10BD70471A
:103C100010B5FFF7B0FFFFF7D4FF10BD10B5044695
:103C20004CB900211420FFF76CFF01210020FFF7A1
:103C300068FF002010BD3D2C0ADA00211420FFF798
:103C400060FF0121601CC0B2FFF75BFF0020F1E7BD
:103C5000642C09DC00211420FFF753FF01216F20A1
:103C6000FFF74FFF0020E5E74FF0FF30E2E770B5C8
:103C700004460D46102C01DD4FF01004062D01DD29
:103C80004FF00605204604EBD0714FEA6104284648
:103C900005EBD0714FEA610504F00F004FF04001D1
:103CA00041EA800005F0030140EA01064FF00001FF
:103CB0004FF01400FFF725FF01213046FFF721FFE9
:103CC000002070BD10B504464FF000014FF0140005
:103CD000FFF717FF2D2C01DD4FF02D044FEA4400B4
:103CE0004FF0030190FBF1F0C4B24FF001014FF02F
:103CF000C000FFF706FF44F0E0000121FFF701FFDD
:103D0000002010BD40600240F0230020F01B002086
:103D1000DC030020D8030020EC030020D0030020A7
:103D2000CC030020E4030020C80200200080201003
:103D30000040101010B50446F848046000680028E0
:103D400004DA4FF00000F549086007E0F348006826
:103D5000282803DD4FF02800F0490860EF4800688C
:103D6000EF490968C1F100010844EE4908600846BE
:103D70000068002803DA4FF00000086007E0E94817
:103D80000068282803DD4FF02800E6490860E54870
:103D90000068C0B2FFF742FF01F044FD002010BDF3
:103DA0004FF00000E0490860704710B54FF0000484
:103DB00007E04FF00000DD490855DD49085504F1E2
:103DC0000104B4F5005FF4DBD848DA490860D8484C
:103DD000D94908604FF00000D84908604FF004004E
:103DE000D74908604FF48050D64908604FF0000072
:103DF000D54908604FF48050D4490860D449086020
:103E00004FF00000D34908604FF00400D249086029
:103E1000D248D34908604FF00000D24908604FF003
:103E20000100D14908604FF00000D04908604FF010
:103E30000100CF490860CF48CF4908604FF000002B
:103E4000CE4908604FF00100CD4908604FF00000F6
:103E5000CC4908604FF00100CB4908604FF00000EA
:103E6000CA4908604FF00A00AC490860084600687B
:103E7000AC4908604FF00000C5490860C5490860BA
:103E8000A8490860FFF7C4FE4FF47A70FDF730FBD5
:103E90001A20FFF717FF4FF47A70FDF729FBFFF7A1
:103EA00089FBFFF7CCFB4FF47A70FDF721FBFFF79E
:103EB000C8FCFFF70AFD4FF47A70FDF719FBFFF716
:103EC0006FFF42F21070FDF713FB42F21070FDF726
:103ED0000FFB01F00CFD42F21070FDF709FB42F2FE
:103EE0001070FDF705FB8D480068FFF723FF4FF0CA
:103EF0000000A9490860A9490860A949086010BDE7
:103F000010B5FFF78DFBFFF7D0FC4FF0010086499D
:103F1000086010BD10B504468948006887490968E3
:103F2000884208D0082185480068FDF745FB844990
:103F30000968884207D10522082180480068FDF7FA
:103F40002CFB7F4908607E4909687A4A126802EBB7
:103F500081204FF4806221460CF096F908217848C0
:103F60000068FDF729FB764908604FF000008D4995
:103F7000086010BD70B505464FF0000414E0884895
:103F80000068285C884908558548006800F10100F0
:103F90008349086008460068B0F55C7F02DB4FF09B
:103FA0000000086004F10104B4F5806FE7DB7E488F
:103FB000FFF7B0FF002070BD10B5744800680028FE
:103FC00000DD10BD79480068002867D07748006898
:103FD000012863D176480068642803D17548FFF74B
:103FE000C9FF5BE072480068C82803D17248FFF738
:103FF000C1FF53E06E480068B0F5FA7F03D16F4807
:10400000FFF7B8FF4AE06A480068B0F5487F03D17F
:104010006B48FFF7AFFF41E065480068B0F57A7F75
:1040200003D16848FFF7A6FF38E061480068B0F5A3
:10403000FA6F03D16448FFF79DFF2FE05C480068EA
:10404000A0F59851883903D16048FFF793FF25E028
:1040500057480068B0F5FA5F03D15D48FFF78AFF63
:104060001CE053480068A0F51C51103903D1594891
:10407000FFF780FF12E04E480068A0F568519839BC
:1040800003D15548FFF776FF08E049480068A0F5DE
:104090009C41203902D15148FFF76CFF00BF90E7E7
:1040A00010B54F480068002811DD4FF000004C4962
:1040B00008603C48006800F101003A49086049483E
:1040C000006800F1010047490860FFF775FF3548B7
:1040D000006808280ADD33480068102806DA4FF423
:1040E0000051144800680CF0E8F807E02D4800681B
:1040F000802803DD4FF080002A49086039480068B5
:10410000082871DD3748006810286DDA4FF4005137
:10411000094800680CF0D1F86EE065E0F403002077
:10412000400400204C0400203C040020302C0020DF
:10413000304C00209C030020BC030020A40300207E
:10414000A0030020AC030020B0030020B403002033
:10415000B8030020C4030020C0030020306C0020FE
:10416000CC030020D4030020D0030020E40300206F
:10417000E803002030740020D8030020E003002072
:10418000DC030020EC030020F0030020307C002042
:1041900044040020480400202004002034040020AF
:1041A00058040020A80300207C7C0020500400203C
:1041B00054040020F40F010866130108D816010802
:1041C0004A1A0108BC1D01082E210108A02401087B
:1041D00012280108842B0108F62E01086832010814
:1041E00094030020C8030020FC480068802803DDF9
:1041F0004FF08000F949086010BD2DE9F047022119
:10420000F7480068FDF7D8F90746F648006800EB64
:10421000872A4FF00008C14644460AE03AF9145094
:10422000454501DDA84602E04D4500DAA94604F106
:104230000104B4F5007FF1DBA8EB0900EA49EB4A81
:10424000126841F822004FF00201E9480068FDF7CA
:10425000B3F90746E748006800EB872A4FF00008EB
:10426000C14644460AE03AF91450454501DDA846E6
:1042700002E04D4500DAA94604F10104B4F5007FDF
:10428000F1DBA8EB0900DC49D84A126841F82200AA
:10429000D648006800F10100D4490860084600686B
:1042A00008282BDB4FF0000008600646044605E0B6
:1042B000CD4850F82400064404F10104082CF7DB33
:1042C00030464FEAE67106EB51714FEAE101CB4A05
:1042D00011604FF00006344605E0C74850F824004E
:1042E000064404F10104082CF7DB30464FEAE6717E
:1042F00006EB51714FEAE101C14A1160BDE8F08758
:1043000010B5FFF77AFF10BD2DE9F04703461F46B1
:10431000884601EBD8794FEA690C4FF00004254636
:104320004FF0080620460BE037F9102012F13C0F41
:1043300005DB04EB020808F13C0405F101053044FB
:104340006045F1DB94FBF5F8DFF8B892DFF8B8A22E
:10435000DAF800A049F82A80BDE8F0872DE9F04797
:1043600003461F46884601EBD8794FEA690C4FF0A7
:10437000000425464FF0080620460BE037F91020D0
:1043800012F1140F05DB04EB020808F1140405F127
:10439000010530446045F1DB94FBF5F8DFF86C92E1
:1043A000DFF864A2DAF800A049F82A80BDE8F087B7
:1043B00070B597480068012833D1964800680128F5
:1043C0002FD14FF00000924908604FF0020184485D
:1043D0000068FDF7F1F8904908600968814A1268A1
:1043E00002EB81204FF48061FFF7B8FF4FF000002F
:1043F000884908604FF002017D480068FDF7DCF84D
:104400008649086009687B4A126802EB81204FF4F4
:104410008061FFF779FF7C48006800F101007A496C
:1044200008607948006808286EDB4FF00000764984
:1044300008600546044605E0744850F82400054429
:1044400004F10104082CF7DB4FEAE57105EB51712B
:104450004FEAE10101EB81014FEA4101704A11602D
:104460004FF000052C4605E0664850F8240005444E
:1044700004F10104082CF7DB28464FEAE57105EB4F
:1044800051714FEAE101674A11606548006864288C
:104490000ADA104600680A2806DA4FF0000062497E
:1044A0000860624908602FE05D480068142804DA5B
:1044B0004FF001005D49086026E05A480068022874
:1044C00004DA4FF00200594908601DE054480068C2
:1044D0005449096890FBF1F05349086008460068A8
:1044E000C82804DD4FF00200504908600CE04E4837
:1044F00000680A2804DA4FF001004C49086003E024
:104500004FF000004949086070BD10B54848006888
:10451000A0F101004649086008460068002804DA56
:104520004FF000000860FFF73BFC4248006800289D
:1045300001DDFFF73DFF40480068A0F102003E4961
:10454000086008460068002802DA4FF000000860A2
:104550003A480078C0F1400037490968884204DAD7
:104560004FF000003649086003E04FF00100344985
:10457000086010BD704710B532480068002806DD9D
:1045800030480068A0F101002E49086003E04FF0B8
:1045900000002D4908602D4800682B4909688842B1
:1045A0000ADD2A480068A0F101002849086028486F
:1045B0000068FFF7BFFB0FE0244800682249096844
:1045C000884209DA2148006800F101001F490860AB
:1045D0001F480068FFF7AEFB002010BDC803002095
:1045E000D0030020CC030020F02B002098030020F3
:1045F000DC030020D8030020102C00205C040020E5
:10460000600400205C7C0020200400203C7C002012
:10461000E4030020EC030020D4030020E00300208A
:10462000180400201C04002024040020280400207A
:10463000307C0020D802002014040020D102002089
:1046400010040020440400204804002040040020FE
:10465000F403002010B5FFF78EFF10BD10B504461F
:10466000E7490968E74A126802EB81204FF480624B
:1046700021460BF009FE0821E1480068FCF79CFF89
:10468000DF4908604FF00000DF49086010BD30B519
:104690000346DE48046801F58060844232DB4FF057
:1046A000000214E09C5CDA48DA4D2D684455D94884
:1046B000006800F10100D74C206020460068B0F58A
:1046C000005F02DB4FF00000206002F101028A422D
:1046D000E8DBCE480068A0EB0100CC4C2060CE485F
:1046E00000680844CC4C206020460068B0F5005FAC
:1046F00002DD4FF4005020604FF00000C74C2060F6
:10470000084630BD4FF0FF30FBE702464FF0FF3068
:1047100070470246C2480068002802DD4FF0FF30B3
:10472000704732B94FF00000BE4B1860BE4B1860A6
:10473000F6E7012A4BD11046BA4B1860642902D122
:10474000BA48016041E0C82902D1B84801603CE0A4
:10475000B1F5FA7F02D1B548016036E0B1F5487F86
:1047600002D1B248016030E0B1F57A7F02D1AF48A2
:1047700001602AE0B1F5FA6F02D1AC48016024E093
:10478000A1F59850883802D1A84801601DE0B1F524
:10479000FA5F02D1A548016017E0A1F51C5010385E
:1047A00002D1A248016010E0A1F56850983802D10A
:1047B0009E48016009E0A1F59C40203802D19B4849
:1047C000016002E06FF00100AAE70020A8E74FF0C7
:1047D000FF30A5E710B596480068012818D1954824
:1047E0000068012814D14FF00000924908604FF092
:1047F000020191480068FCF7DFFE904908600968F3
:104800008F4A126802EB81204FF48061FDF7C0FBF4
:104810008C480068012818D18B480068012814D101
:104820004FF00000884908604FF002018748006897
:10483000FCF7C2FE864908600968864A126802EBE6
:1048400081204FF48061FDF7B5FB10BD4FF00100F2
:10485000814908608148006881490860704710B547
:1048600080480068012815D17B480068002810DDC9
:104870004FF47A70FCF73CFE794801680020FEF79F
:104880008DFD4FF47A70FCF733FE4FF00000724953
:10489000086010BD7448006840B94FF04F0070497F
:1048A00008604FF00A00704908606CE06E480068CC
:1048B000012808D169480068694908604FF00B0079
:1048C000694908605FE0684800680A2815D14FF41C
:1048D0007A70FCF70DFE624801680020FEF75EFD6D
:1048E0004FF47A70FCF704FE4FF000005A4908605C
:1048F0004FF014005C49086045E05B4800680B28F5
:1049000011D14FF47A70FCF7F3FD5548016800208F
:10491000FEF744FD4FF47A70FCF7EAFD4FF0150006
:10492000514908602FE05048006814280BD14FF01F
:10493000000049490860FCF780FD20BB4FF00100F2
:10494000494908601FE04848006815281BD14248C3
:104950000068002810DD4FF47A70FCF7C9FD40486C
:1049600001680020FEF71AFD4FF47A70FCF7C0FDD5
:104970004FF0000038490860FCF75FFD18B14FF0B8
:1049800000003949086000BF83E7002804DD4FF0CC
:104990000101344A116003E04FF00001314A116017
:1049A00070473248006800F1010030490860304823
:1049B0000068012801D12F49086000207047014696
:1049C000642901DC3C2902DA4FF0FF307047552999
:1049D00002DD4FF0550103E0492901DA4FF04901AA
:1049E0000F480068012803DAA1F14F00224A106045
:1049F0004FF01000214A10604FF00000E6E7000081
:104A0000C0030020BC030020C8030020B403002022
:104A1000302C0020AC030020B8030020A8030020A5
:104A2000307C002050040020580400205404002052
:104A3000E8030020E4030020D0030020D40300207A
:104A4000CC030020F0030020EC030020DC03002056
:104A5000E0030020D803002030040020F4030020ED
:104A60002C04002038040020340400200804002016
:104A7000100400200C0400204804002044040020FE
:104A800010B5FE480078FE498870FE480078C8706E
:104A9000FD4800880880FD48FCF7DDFFF8494860C4
:104AA0004FF0FF00FA498870C8704FF6FF70088019
:104AB000F848FCF7D0FFF6494860002010BD70B5FB
:104AC00005462C4620787E2802D04FF0FF3070BD7E
:104AD000E078EA490978884205D0E078FF2802D0DA
:104AE0004FF0FF30F3E72079E6490978884205D096
:104AF0002079FF2802D04FF0FF30E8E7E348FCF7C9
:104B0000AAFFD4F8051088420FD0D4F80500401C45
:104B10000BD0DE48FCF79FFF40F0FF01D4F8050002
:104B2000814202D04FF0FF30D1E70020CFE70146AD
:104B30000A46D07A704701460A46107B7047014604
:104B40000A46B2F81100704701460A46B2F813004F
:104B5000704701460A4602F1150070472DE9F04101
:104B600004468C46274607F115052E460B2A08D128
:104B7000A3F1010006F1050818F800100846BDE889
:104B8000F081FF20FBE717B585B00446BB480078ED
:104B9000BB498870BB480078C870BB480088088053
:104BA000BA48FCF758FFB64948604FF07E008DF8D0
:104BB00000000698CDF801000798CDF805000846DA
:104BC0000168CDF809104068CDF80D004FF01102D2
:104BD000694620460BF058FB08B010BD2DE9F04F98
:104BE00087B005460F4690469946DDE910AB2E4644
:104BF000A7480168009140680246019002A8FFF7AB
:104C0000C2FF112202A930460BF03EFB4FF001001B
:104C1000A6F811004FF00700A6F8130006F11504DE
:104C200084F8008084F8019084F802A084F803B02E
:104C30009948007820719948007860719848007808
:104C4000A071B6F8130000F1150038604FF00000B5
:104C500007B0BDE8F08F30B503460C4619464FF05B
:104C60000400A1F8130001F115052A60B1F8130042
:104C700000F1150020604FF0000030BD30B5034654
:104C80000C4619464FF00100A1F8130001F115057B
:104C90002A70B1F8130000F1150020604FF00000F9
:104CA00030BD2DE9F04188B004460E461746254632
:104CB00077480168019140680246029003A8FFF717
:104CC00062FF112203A928460BF0DEFA4FF0030021
:104CD000A5F811004FF00400A5F8130005F1150820
:104CE000C8F80070B5F8130000F1150030604FF0FF
:104CF000000008B0BDE8F08130B503460C46194607
:104D00004FF00200A1F8130001F115056A70B1F827
:104D1000130000F1150020604FF0000030BD2DE9B8
:104D2000F04387B004460E46174698462546584835
:104D30000168009140680246019002A8FFF723FF36
:104D4000112202A928460BF09FFA4FF00600A5F8A1
:104D500011004FF48060A5F8130005F115094246D3
:104D6000394648460BF090FAB5F8130000F11500EB
:104D700030604FF0000007B0BDE8F0832DE9F0434C
:104D800087B004460E4617469846254640480168B7
:104D9000009140680246019002A8FFF7F4FE11223C
:104DA00002A928460BF070FA4FF00500A5F8110093
:104DB0004FF48060A5F8130005F115094246394605
:104DC00048460BF061FAB5F8130000F115003060A9
:104DD0004FF0000007B0BDE8F0832DE9F04387B045
:104DE00004460E4617469846254629480168009114
:104DF00040680246019002A8FFF7C5FE112202A9F1
:104E000028460BF041FA42F20130A5F811004FF4A8
:104E10008060A5F8130005F1150942463946484659
:104E20000BF032FAB5F8130000F1150030604FF0C6
:104E3000000007B0BDE8F0832DE9F04387B00446D9
:104E40000E4617469846254611480168009140686D
:104E50000246019002A8FFF796FE112202A92846F9
:104E60000BF012FA42F20230A5F811004FF4806004
:104E7000A5F8130005F11509424613E0D002002001
:104E800064040020D1020020D2020020FE02002093
:104E90006C0400202C030020F2020020F30200200A
:104EA000F4020020394648460BF0EEF9B5F813003D
:104EB00000F1150030604FF0000007B0BDE8F0834E
:104EC0002DE9F04188B004460E4617462546534862
:104ED0000168019140680246029003A8FFF753FE63
:104EE000112203A928460BF0CFF942F21230A5F89F
:104EF00011004FF00200A5F8130005F1150848480D
:104F0000007888F8000088F80170B5F8130000F107
:104F1000150030604FF0000008B0BDE8F0812DE9C9
:104F2000F04188B0054688462F463C48016801910B
:104F300040680246029003A8FFF725FE112203A94C
:104F400038460BF0A1F942F21330A7F811004FF0E8
:104F50002500A7F81300B7F8130000F11500C8F8F2
:104F6000000007F115042E48007820704FF0010072
:104F700060702C480068A0702B480068E0702B48D7
:104F8000006820714FF0000616E0294850F83600FE
:104F90004FF0640190FBF1F0C1B204F1050000F89C
:104FA0001610234800EBC6004068C1B204F10600A9
:104FB00000F8161006F10106102EE6DB002008B0FE
:104FC000BDE8F0812DE9F04788B004460E4617464B
:104FD0009846DDF8409025461048016801914068E8
:104FE0000246029003A8FFF7CEFD112203A928462E
:104FF0000BF04AF9A5F81170A5F81390B5F8130055
:1050000000F11500306005F1150A4A464146504648
:105010000BF03AF9002008B0BDE8F0876C040020DE
:10502000D1020020BC040020C0040020C4040020E1
:10503000948C002010B50C2005F06BFC044624B1C4
:105040004FF0000020606060A060204610BD70B589
:1050500004460E46254615B1284605F0A0FB70BD56
:1050600070B505460C464FF00001284607F01CF8C5
:105070000021284607F01DF80021284607F016F801
:105080000021284607F018F8204605F088FB28463E
:1050900006F00AFC70BD2DE9F04106460C46B6F854
:1050A0006E006168884202D2B6F86E5001E0606816
:1050B00085B200232A463046216808F011FC0746D5
:1050C00037B92068284420606068A0EB0500606064
:1050D000BDE8F0812DE9F04104460E46174625460D
:1050E00015B90020BDE8F0814FF000002872294674
:1050F0003046FFF7D0FF0020F4E770B504460D46B8
:105100001CB9284606F0D0FB03E021462846FFF7ED
:10511000C2FF002070BD70B505460C461646FC491E
:10512000FC480BF0D9FBFB4820600BF0D2F8606024
:1051300021462846FFF7AFFF70BD2DE9F05F81469D
:105140000C4616469A46DDF828B04FF00005484652
:105150000BF0BFF80746A8463BE0207899F800100E
:10516000884232D13A46214648460BF0C8F860BB27
:105170003C443D4420783D2827D104F1010405F149
:1051800001050EE02078307006F1010604F10104FB
:1051900005F1010508F1010808F10100584500DB9F
:1051A0000AE02078262807D0207828B120780A281D
:1051B00002D020780D28E5D100BF4FF000003070FC
:1051C000CAF800802846BDE8F09F05F1010504F10A
:1051D0000104207828B120780A2802D020780D28F0
:1051E000BBD14FF0FF30EEE770B505460C461646D2
:1051F000C949C8480BF070FBC64820600BF069F83D
:10520000606021462846FFF746FF70BD70B5ACB020
:1052100004460E4615464FF0000001904FF0800006
:105220000BAB0CAA29460090BCA0FFF786FF002814
:1052300006DC2A4631462046FFF7D6FF2CB070BD6B
:1052400060680A90202001AB02AA29460090B6A00F
:10525000FFF773FF0322B6A102A80BF050F820B9A4
:105260000CA9DDE90A02FCF7E2FD2A463146204698
:10527000FFF751FF0CA90A9801F0D3FE00BFDDE74C
:1052800070B505460C461646AA49A2480BF024FB09
:10529000A04820600BF01DF8606021462846FFF70B
:1052A000FAFE70BDF8B505460C461646A2480078D1
:1052B0000090A2480378A2480278A24995480BF0D2
:1052C0000BFB944820600BF004F8606021462846F0
:1052D000FFF7E1FEF8BD70B505460C4616469A4943
:1052E0008C480BF0F9FA8B4820600AF0F2FF6060FE
:1052F00021462846FFF7CFFE70BD70B505460C4627
:105300001646924983480BF0E7FA824820600AF07B
:10531000E0FF606021462846FFF7BDFE70BD70B516
:1053200005460C4616468A497A480BF0D5FA794864
:1053300020600AF0CEFF606021462846FFF7ABFEF2
:1053400070BD70B505460C461646824971480BF093
:10535000C3FA704820600AF0BCFF6060214628460E
:10536000FFF799FE70BD70B594B005460E46144621
:105370004FF0200003AB0CAA2146009076A0FFF767
:10538000DCFE00281FDD202002AB04AA214600908D
:1053900074A0FFF7D2FE042275A10CA80AF0AFFF9B
:1053A00058B9062274A104A80AF0A9FF28B9224618
:1053B00031462846FFF7C5FF0AE022463146284617
:1053C000FFF7ADFF04E0224631462846FFF7A7FF6E
:1053D00014B070BD2DE9F043A1B006460F46144647
:1053E0009846B146B8F1000F00D17CB934B121899B
:1053F000384606F012FB204605F084FC4946384644
:10540000FFF72EFE002021B0BDE8F0832189384649
:1054100006F003FB258900BF802201A861680AF01D
:1054200033FF204605F06EFC002D02DC4FF0FF300C
:10543000E9E7294601A800F085FF51480068504976
:10544000086006224FA101A80AF066FF28B901AA48
:1054500049463846FFF751FF46E012224BA101A80A
:105460000AF05AFF28B901AA49463846FFF77BFFE0
:105470003AE014224AA101A80AF04EFF28B901AA75
:1054800049463846FFF739FF2EE014224AA101A809
:105490000AF042FF28B901AA49463846FFF71BFF28
:1054A00022E00F224AA101A80AF036FF28B901AA7A
:1054B00049463846FFF7F6FE16E00F2248A101A83C
:1054C0000AF02AFF28B901AA49463846FFF7D8FE54
:1054D0000AE00F2246A101A80AF01EFF20B901AA86
:1054E00049463846FFF792FE49463846FFF7B8FD71
:1054F000002088E72DE9F04106460D461746FFF7E4
:1055000099FD04461CB94FF0FF30BDE8F08177E00B
:10551000904001087C840020F53F010866696C65B5
:105520006E616D6500000000616C6C5F6465760003
:105530006F6E0000103D0108F2020020F102002011
:10554000D1020020863B0108913A0108DA350108B2
:1055500059380108EC390108757365726E616D6523
:105560000000000070617373776F726400000000C8
:10557000726F6F7400000000626569686169000005
:10558000C8020020474554202F20000047455420E2
:105590002F6C6F67696E5F7375626D69743F000091
:1055A000474554202F6C6F675F6572725F73756239
:1055B0006D69743F00000000474554202F667261FA
:1055C0006D655F696E6465782E68746D000000001B
:1055D000474554202F6672616D65312E68746D00E9
:1055E000474554202F6672616D65322E68746D00D8
:1055F000474554202F7570646174655F66773F007E
:105600004FF00000206060602146284606F04CFD07
:105610002C49284606F04AFD2B49284606F04CFD49
:105620000A222A49284606F04CFD2949284606F058
:1056300040FD0020BDE8F08170B506F030FD054664
:105640004FF050022349284606F0E9FA044600BF0D
:105650004FF0FF01284606F058FB0546294628462C
:1056600006F022FD1C49284606F029FD70BDF8B55C
:1056700005460C46164619480078009018480378ED
:1056800018480278184919480BF026F91748206085
:105690000AF01FFE606021462846FFF7FCFCF8BDBB
:1056A00070B505460C461646114910480BF014F922
:1056B0000E4820600AF00DFE606021462846FFF784
:1056C000EAFC70BDD55300084F500008FB5000089D
:1056D000D55000082A420108F5540008F2020020C3
:1056E000F1020020D1020020AA3701087C840020AA
:1056F0008D3C010810B502F0DBF9F32002F0F4FB59
:105700000221282002F01CFA082805D003E04148B5
:10571000006840490860FAE710BD10B502F0C8F90A
:1057200010BD10B502F0D0F910BD2DE9F0410446CE
:105730000E4617464FF0000511E056F82510364A80
:10574000A01802F0A5FA082805D003E03148006847
:1057500030490860FAE704F1040405F10105BD428F
:10576000EBDBBDE8F0812DE9F04105460E4617461A
:1057700002F09EF9F32002F0B7FB0221282002F08C
:10578000DFF9082805D003E02248006821490860B5
:10579000FAE74FF000040FE0315D1F4A2A44101968
:1057A00002F0C2FA082805D003E01A480068194937
:1057B0000860FAE704F10104BC42EDDB02F084F971
:1057C000BDE8F08110B503464FF0000005E0124C33
:1057D0001C44245C0C5400F101009042F7DB10BD26
:1057E00001460868704710B50446FAF7E9FDFBF773
:1057F00075FEFBF74DFE4FF47A70FBF779FEFBF771
:1058000047FE4FF47A70FBF773FE20460BF05FF80B
:1058100010BD0000740400200000020810B5FDF760
:10582000CBF810BD4FF0010052490860704710B529
:1058300050480068012859D14F480068002855D1C8
:105840004C4908604FF023004C4908704C480078E0
:1058500048704B48417849488170494881784748A9
:10586000C1704748C17845480171464800784349AE
:1058700048714448417841488171424881783F48A5
:10588000C1714048C1783D4801723F4800783B49AA
:1058900048723D484178394881723B4881783748A1
:1058A000C1723948C1783548017338480088334996
:1058B000C88137480068087436480078487435480D
:1058C00041782E488174334881782C48C17431481E
:1058D000C1782A4801754FF0170201464FF00800C1
:1058E000FDF7D7FA4FF47A70FBF702FE10BD10B542
:1058F000172222490820FDF7D0FB4FF47A70FBF7FE
:10590000F7FD1E480078232832D11C4840791D49F4
:1059100008701A48807948701848C079887017480C
:10592000007AC8701548407A174908701348807A81
:1059300048701248C07A88701048007BC8700F48C1
:10594000407B154908700D48C089104908800B48F4
:10595000007C0F4908600948407C0E4908700748E0
:10596000807C48700548C07C88700448007DC87001
:1059700010BD000078040020300400207C88002046
:10598000FE0200200203002006030020D2020020B5
:10599000F403002028030020D102002070B5044643
:1059A00020460AF096FC054629462046FCF748FFAB
:1059B00070BD10B54FF40071F9480AF07EFCF9484B
:1059C000006820B9F8A1F6480AF086FF05E0F5481E
:1059D000F8A10268F2480AF07FFFF148FFF7DEFF06
:1059E00010BD10B54FF40071ED480AF066FCF648A2
:1059F0000288F6A1EA480AF06FFFE948FFF7CEFFF8
:105A000010BD10B54FF40071E5480AF056FCF3489C
:105A10000278F3A1E2480AF05FFFE148FFF7BEFF1A
:105A200010BD10B54FF40071DD480AF046FCF14896
:105A30000278F1A1DA480AF04FFFD948FFF7AEFF2C
:105A400010BD1CB54FF40071D5480AF036FCEF4884
:105A5000C078EE498978CDE90010EC4843780278A7
:105A6000EBA1CF480AF038FFCD48FFF797FF1CBDE8
:105A700000B59BB04FF06802EC4901A80AF004FCA5
:105A800001A8FFF78BFFFFF7DCFFFFF7CAFFFFF767
:105A9000B8FFFFF7A6FFFFF78CFF1BB000BDF8B5FE
:105AA00004460D4616464FF40071BD480AF005FC49
:105AB0002B462246DEA1BA4800960AF00DFFB848F0
:105AC000FFF76CFFF8BDF8B504460D4616464FF4D7
:105AD0000071B3480AF0F1FB2B462246E1A1B04821
