:020000040800F2
:10000000707A0120C19C0008AD240008AF240008CC
:10001000B3240008B7240008BB2400080000000037
:10002000000000000000000000000000D39C000859
:10003000BF24000800000000D79C0008C12400086D
:10004000DB9C0008DB9C0008DB9C0008DB9C0008B4
:10005000DB9C0008DB9C0008DB9C0008DB9C0008A4
:10006000DB9C0008DB9C0008DB9C0008DB9C000894
:10007000DB9C0008C9240008DB9C0008D124000890
:10008000DB9C0008DB9C0008DB9C0008DB9C000874
:10009000DB9C0008DB9C0008DB9C0008DB9C000864
:1000A000DB9C0008DB9C0008DB9C0008DB9C000854
:1000B000DB9C0008DB9C0008DB9C0008DB9C000844
:1000C000DB9C0008DB9C0008DB9C0008DB9C000834
:1000D000DB9C0008DB9C0008DB9C0008DB9C000824
:1000E000DB9C0008DB9C0008DB9C0008DB9C000814
:1000F000DB9C0008DB9C0008DB9C0008DB9C000804
:10010000DB9C0008DB9C0008DB9C0008DB9C0008F3
:10011000DB9C0008DB9C0008DB9C0008DB9C0008E3
:10012000DB9C0008DB9C0008DB9C0008DB9C0008D3
:10013000DB9C0008DB9C0008DB9C0008DB9C0008C3
:10014000DB9C0008DB9C0008DB9C0008DB9C0008B3
:10015000DB9C0008DB9C0008DB9C0008DB9C0008A3
:10016000DB9C0008DB9C0008DB9C0008DB9C000893
:10017000DB9C0008DB9C0008DB9C0008DB9C000883
:10018000DB9C0008DFF80CD010F0E6FB00480047CD
:1001900099010008707A01204FF47A7001F028F973
:1001A0004FF47A7001F024F900F0CEFC4FF47A702D
:1001B00001F01EF900F0D6FC4FF47A7001F018F946
:1001C00000F077FF00F091FF01F0DDF8544801F0F6
:1001D0000FF9534801F00CF901F0D5F8504801F03F
:1001E00007F94F4801F004F901F0CDF802F074F975
:1001F0004C4801F0FDF800F062FF00F07DFF01F0D7
:10020000C2F8484801F0F4F800F053FF00F06DFF29
:1002100001F0B9F842F2107001F0EAF800F098F835
:1002200005F04CFC01F064FA4FF47A7001F0E0F84C
:1002300006F066FF4FF47A7001F0DAF803F0ABFED7
:100240004FF47A7001F0D4F801F09DF842F210708A
:1002500001F0CEF842F2107001F0CAF842F21070CC
:1002600001F0C6F805F08FFC01F08DF842F2107035
:1002700001F0BEF82C4800782C4908704FE000F0DF
:10028000C9F802F0CAFB01F0B8FA03F0CFFF284822
:100290000068012804DB00202549086002F07BF992
:1002A00024480068022804DB02202249086002F08A
:1002B0007AF921480068052804DB00201E490860FF
:1002C00002F072F91D4800680A2804DB00201B496F
:1002D000086002F06FF91A480068142804DB002057
:1002E0001749086002F07CF916480068322804DBE0
:1002F00000201449086002F077F913480068642868
:1003000004DB00201049086002F095F90F480068EE
:10031000C82804DB00200D49086002F090F9AEE720
:1003200020A10700A0860100A4020020990200205D
:100330003003002034030020380300203C03002059
:100340004003002044030020480300204C03002009
:1003500010B50320FD4908700220FD4908700520F2
:10036000FC4908705F20FC4908700120FB490860C7
:100370000B20FB4908700120FA49087000F033FF98
:10038000F94908700978481E00EBD0714910491CE2
:10039000F64A1180F4480078F24908700020F449C8
:1003A0000860F449086006F0E1F906F0D7FA06F0B3
:1003B000ABFB10F048FB10BD10B542F2107001F01D
:1003C00017F803F067FC01F011F842F2107001F029
:1003D0000FF802F016FB01F009F842F2107001F07C
:1003E00007F802F0D0F842F2107001F001F810BDE9
:1003F00010B505F057FC10BDDF480078012808D083
:10040000DD480078022804D0DB480078032800D0BB
:1004100000BF704700B5FFF7EFFF00BD10B500F05B
:10042000E5FF10BDD548006830B9D548007820F008
:100430000300D349087029E0D048006801280BD197
:10044000CF48007820F00300CD49087008460078B6
:1004500040F00100087019E0C848006802280BD17C
:10046000C748007820F00300C549087008460078A6
:1004700040F00200087009E0C0480068032805D178
:10048000BF48007820F00300BD490870BD480068EF
:1004900030B9BB48007820F00C00B94908701EE064
:1004A000B848006802280BD1B548007820F00C004D
:1004B000B34908700846007840F0040008700EE068
:1004C000B048006801280AD1AD48007820F00C003F
:1004D000AB4908700846007840F008000870AA4848
:1004E000006830B9A648007820F01000A4490870D0
:1004F00005E0A348007840F01000A1490870A34827
:10050000006830B99E48007820F020009C490870AF
:1005100005E09B48007840F02000994908709C480D
:10052000006830B99648007820F0C00094490870FF
:100530002EE09748006801280BD19148007820F000
:10054000C0008F4908700846007840F040000870ED
:100550001EE08F48006802280BD18948007820F0FF
:10056000C000874908700846007840F08000087095
:100570000EE08748006803280AD18148007820F0FF
:10058000C0007F4908700846007840F0C00008703D
:10059000704710B500F0DFFE002807DD00F0E7FE31
:1005A000002803DD00207A4908601EE000F0D3FE39
:1005B00038B900F0DCFE002803DD01207449086032
:1005C00013E000F0C8FE002806DD00F0D0FE18B9E8
:1005D00002206F49086008E000F0BDFE28B900F075
:1005E000C6FE10B903206A49086010BD10B500F0BE
:1005F0008DFE002803DD00206349086002E0012031
:100600006149086000F08EFE002803DD00205F498C
:10061000086002E001205D49086010BD2DE9F0414D
:1006200000F04DFE074600F057FE054600F061FE63
:1006300006463FB90DB901240BE00EB9022408E0CB
:10064000032406E00DB9042403E00EB9042400E0FD
:1006500000242046BDE8F0814E4A42F82010704741
:1006600001464C4850F82100704700B54A480068E0
:10067000A0B90A210020FFF7EFFF00210120FFF7BA
:10068000EBFF00210220FFF7E7FF00210320FFF727
:10069000E3FF00210420FFF7DFFFB0E03E480068E1
:1006A000002818DD3C480068032814DC00210846B7
:1006B000FFF7D2FF0A210120FFF7CEFF0021022021
:1006C000FFF7CAFF00210320FFF7C6FF0021042027
:1006D000FFF7C2FF93E030480068032818DD2E487A
:1006E0000068062814DC00210846FFF7B5FF00214A
:1006F0000120FFF7B1FF0A210220FFF7ADFF002123
:100700000320FFF7A9FF00210420FFF7A5FF76E0F3
:1007100021480068062841DD1F48006809283DDCA3
:1007200000210846FFF798FF00210120FFF794FF02
:1007300000210220FFF790FF0A210320FFF78CFF22
:1007400000210420FFF788FF59E00000B9020020D3
:10075000BA020020BB020020BC0200209C02002044
:100760009802002099020020A40200209A02002092
:100770001C03002020030020BD020020A80200204E
:10078000B802002028040020AC020020B0020020A3
:10079000B4020020C4070020F0030020E1480068F4
:1007A000092818DDDF4800680C2814DC0021084601
:1007B000FFF752FF00210120FFF74EFF002102202A
:1007C000FFF74AFF00210320FFF746FF0A2104201C
:1007D000FFF742FF13E000210846FFF73DFF00212D
:1007E0000120FFF739FF00210220FFF735FF00212C
:1007F0000320FFF731FF00210420FFF72DFFCA4837
:10080000006848BB0020FFF72BFF18B9012100202A
:10081000FFF722FF0120FFF723FF18B90021012075
:10082000FFF71AFF0220FFF71BFF18B90021022073
:10083000FFF712FF0320FFF713FF18B90021032071
:10084000FFF70AFF0420FFF70BFF002803D1002168
:100850000420FFF701FFC4E0B348006800282DDD45
:10086000B1480068032829DC0020FFF7F9FE18B919
:1008700000210846FFF7F0FE0120FFF7F1FE18B94E
:1008800001210846FFF7E8FE0220FFF7E9FE18B94C
:1008900000210220FFF7E0FE0320FFF7E1FE18B978
:1008A00000210320FFF7D8FE0420FFF7D9FE00281F
:1008B000D1D100210420FFF7CFFE92E09A480068D2
:1008C00003282DDD98480068062829DC0020FFF762
:1008D000C7FE18B900210846FFF7BEFE0120FFF74A
:1008E000BFFE18B900210120FFF7B6FE0220FFF776
:1008F000B7FE18B901210220FFF7AEFE0320FFF773
:10090000AFFE18B900210320FFF7A6FE0420FFF771
:10091000A7FE002865D100210420FFF79DFE60E0BE
:100920008148006806282CDD7F480068092828DCFB
:100930000020FFF795FE18B900210846FFF78CFE4E
:100940000120FFF78DFE18B900210120FFF784FE7A
:100950000220FFF785FE18B900210220FFF77CFE78
:100960000320FFF77DFE18B901210320FFF774FE75
:100970000420FFF775FEA0BB00210420FFF76CFEEA
:100980002FE06948006809282BDD674800680C28BB
:1009900027DC0020FFF764FE18B900210846FFF7A6
:1009A0005BFE0120FFF75CFE18B900210120FFF774
:1009B00053FE0220FFF754FE18B900210220FFF772
:1009C0004BFE0320FFF74CFE18B900210320FFF770
:1009D00043FE0420FFF744FE18B901210420FFF76D
:1009E0003BFE00BD10B500F0CEFC50480068401C36
:1009F0004E49086008460068142805D101204C497A
:100A00000860FFF7F5FC08E048480068B0F57A7F19
:100A100003DD4FF47A7045490860FFF726FEFFF7C3
:100A2000FDFD44490860FFF7E1FDFFF7B2FDFFF768
:100A3000F9FC10BD704710B50446402C02DD4FF0A4
:100A4000FF3010BD3C490C7005F03CF805F0F3F8A0
:100A50000020F6E710B50446B4F5803F02DD4FF004
:100A6000FF3010BD35490C8005F02CF805F0D3F8A7
:100A70000020F6E710B5324800683249096888421C
:100A800002DD00F070FB01E000F074FB2C484068D0
:100A90002C490968884202DD00F073FB01E000F098
:100AA00076FB2748806827490968884202DD00F004
:100AB00074FB01E000F077FB2148C0682149096818
:100AC000884202DD00F075FB01E000F078FB1C4875
:100AD00000691C490968884202DD00F076FB01E0EC
:100AE00000F07AFB17480068401C16490860084669
:100AF00000680A2801DB0020086010BD10B503461D
:100B0000642B01D1D0B210BD0BB96420FBE7C2F158
:100B100028005843642490FBF4F0C0F12800C0B2D0
:100B2000F1E70000F00300204C0400209C020020AC
:100B3000A0020020A8020020990200209A020020B2
:100B4000C4070020D402002010B501217F2008F046
:100B500007FB0121880308F047FB0121880508F005
:100B600032FB10BD1CB50420009001208DF804005C
:100B700000208DF8060003208DF8050000208DF878
:100B800007006946FE4807F091FE4FF48060009030
:100B900001208DF8040000208DF8060003208DF858
:100BA000050000208DF807006946F64807F07EFE34
:100BB00004220121F24807F004FF04220021F0483A
:100BC00007F0FFFE022000908DF804008DF805006C
:100BD00001208DF8060000208DF807006946E848DE
:100BE00007F064FE012000906946E54807F05EFECC
:100BF0004FF40070009002208DF804008DF805007D
:100C000000208DF806008DF807006946DE4807F0E1
:100C10004DFE05220921DC4807F0D3FE402000905C
:100C200002208DF804008DF8050000208DF80600E4
:100C30008DF807006946D44807F038FE05220621E2
:100C4000D14807F0BEFE4FF48050009002208DF88E
:100C500004008DF8050000208DF806008DF80700CF
:100C60006946CA4807F022FE05220C21C74807F052
:100C7000A8FE4FF40050009002208DF804008DF87B
:100C8000050000208DF806008DF807006946BF4872
:100C900007F00CFE05220D21BC4807F092FE4FF430
:100CA0000040009002208DF804008DF8050000201F
:100CB0008DF806008DF807006946B44807F0F6FD88
:100CC00005220F21B14807F07CFE80200090022011
:100CD0008DF804008DF8050000208DF806008DF8D1
:100CE00007006946A84807F0E1FD06220721A6484B
:100CF00007F067FE1020009002208DF804008DF8A8
:100D0000050000208DF806008DF807006946A04810
:100D100007F0CCFD062204219D4807F052FE4FF457
:100D20008060009002208DF804008DF805000020FE
:100D30008DF806008DF807006946934807F0B6FD68
:100D400006220A21904807F03CFE4FF480500090A4
:100D500002208DF804008DF8050000208DF80600B3
:100D60008DF807006946884807F0A0FD06220C218F
:100D7000854807F026FE4FF40050009001208DF8C2
:100D8000040000208DF8060003208DF805000020E7
:100D90008DF8070069467B4807F088FD4FF48040D6
:100DA000009001208DF8040000208DF8060003203B
:100DB0008DF8050000208DF807006946714807F09E
:100DC00075FD4FF40040009001208DF804000020D4
:100DD0008DF8060003208DF8050000208DF807002F
:100DE0006946684807F062FD4FF40040009001201A
:100DF0008DF8040000208DF8060003208DF8050012
:100E000000208DF8070069465D4807F04FFD01207E
:100E100000908DF8040000208DF8060003208DF866
:100E2000050000208DF8070069465A4807F03EFD8E
:100E30000220009001208DF8040000208DF80600AB
:100E400003208DF8050000208DF807006946514801
:100E500007F02CFD8020009001208DF80400002078
:100E60008DF8060003208DF8050000208DF807009E
:100E70006946444807F01AFD4FF480700090012045
:100E80008DF8040000208DF8060003208DF8050081
:100E900000208DF8070069463A4807F007FD4FF437
:100EA0000060009000208DF8040003208DF80500FC
:100EB00001208DF807006946334807F0F7FC02204F
:100EC000009000208DF8040003208DF8050001201B
:100ED0008DF807006946304807F0E8FC01200090D3
:100EE00000208DF8040003208DF8050001208DF806
:100EF00007006946284807F0D9FC0420009000202C
:100F00008DF8040003208DF8050001208DF80700FE
:100F10006946214807F0CAFC4FF4006000900020A9
:100F20008DF8040003208DF8050001208DF80700DE
:100F30006946144807F0BAFC4FF400700090002096
:100F40008DF8040003208DF8050001208DF80700BE
:100F500069460C4807F0AAFC4FF40060009000209E
:100F60008DF8040003208DF8050001208DF807009E
:100F70006946034807F09AFC4FF4805000900DE05A
:100F80000014024000100240000802400004024029
:100F90000000024000180240000C024000208DF8C2
:100FA000040003208DF8050001208DF80700694634
:100FB000FC4807F07BFC4FF40050009000208DF8B7
:100FC000040003208DF8050001208DF80700694614
:100FD000F44807F06BFC1020009000208DF804000E
:100FE00003208DF8050001208DF807006946EE48C2
:100FF00007F05CFC0820009000208DF8040003201E
:101000008DF8050001208DF807006946E64807F0D5
:101010004DFC4FF48040009000208DF80400032028
:101020008DF8050001208DF807006946DD4807F0BE
:101030003DFC2020009000208DF8040003208DF856
:10104000050001208DF807006946D84807F02EFCFE
:101050000820009000208DF8040003208DF8050082
:1010600001208DF807006946D04807F01FFC0420D6
:10107000009001208DF8040000208DF80600032068
:101080008DF8050000208DF807006946C84807F074
:101090000DFC1CBD704710B50421C24807F075FC5B
:1010A000C0F10100C4B222460421BE4807F07EFC14
:1010B00010BD10B50421BB4807F076FC10BD10B57B
:1010C0000421B84807F06EFC10BD10B54FF48061E4
:1010D000B74807F05AFCC0F10100C4B222464FF4F1
:1010E0008061B34807F062FC10BD10B54FF4806119
:1010F000AF4807F059FC10BD10B54FF48061AC4803
:1011000007F050FC10BD10B50446002C05DD4FF46F
:101110000051A74807F046FC04E04FF40051A448F2
:1011200007F042FC10BD10B50446002C05DD4FF45D
:1011300080419F4807F036FC04E04FF480419C4812
:1011400007F032FC10BD10B50446002C05DD4FF44D
:101150000041974807F026FC04E04FF40041944812
:1011600007F022FC10BD10B54FF400418D4807F088
:101170001BFC10BD10B54FF400418A4807F012FC6B
:1011800010BD10B501218B4807F00EFC10BD10B545
:101190000121884807F006FC10BD10B502218548E2
:1011A00007F002FC10BD10B50221824807F0FAFBDF
:1011B00010BD10B580217E4807F0F6FB10BD10B5BC
:1011C00080217B4807F0EEFB10BD10B54FF4807115
:1011D000774807F0E9FB10BD10B54FF480717448F3
:1011E00007F0E0FB10BD70B500244FF400617248B9
:1011F00007F0BEFB05466019C4B202216A4807F039
:10120000B7FB054604EB4500C4B20121664807F070
:10121000AFFB054604EB8500C4B20421624807F029
:10122000A7FB054604EBC500C4B20F20A043441C35
:10123000092C01D1022426E0022C01D1032422E052
:101240000A2C01D104241EE0032C01D105241AE04C
:101250000B2C01D1062416E0042C01D1072412E046
:101260000C2C01D108240EE0052C01D109240AE040
:101270000D2C01D10A2406E0062C01D10B2402E03A
:101280000E2C00D10C24204670BD70B54FF40061C7
:10129000474807F06DFB05460DB9002400E0012426
:1012A000204670BD70B54FF40071414807F060FBF7
:1012B00005460DB9002400E00124204670BD70B53C
:1012C0004FF40061374807F053FB05460DB9002481
:1012D00000E00124204670BD70B54FF480513148C4
:1012E00007F046FB05460DB9002400E00124204626
:1012F00070BD70B54FF400512A4807F039FB054620
:101300000DB9002400E00124204670BD70B5102105
:10131000254807F02DFB05460DB9002400E0012407
:10132000204670BD70B508211F4807F021FB054617
:101330000DB9002400E00124204670BD70B54FF4C3
:101340008041184807F014FB05460DB9002400E061
:101350000124204670BD70B52021144807F008FB19
:1013600005460DB9002400E00124204670BD70B58B
:1013700008210E4807F0FCFA05460DB9002400E0EC
:101380000124204670BD10B50421094807F0FDFA7C
:10139000C0F10100C4B222460421054807F006FB53
:1013A00010BD000000140240000C0240000002408A
:1013B00000100240001802400008024010B57E20D4
:1013C00007F06DFD08B107F0EEFF08F031FC0121D8
:1013D000C80207F0F8FE4FF4C07008F034FC50204B
:1013E00008F03AFC7F2008F052FC10BD7047000066
:1013F0000146002206E0002001E000BF401C142846
:10140000FBDB521C8A42F6D3704710B5014601F04F
:10141000F00201F00F03121102EB820403EB44040B
:10142000E0B210BD30B501460A2491FBF4F4E2B2FB
:101430000A2491FBF4F504FB1514E3B203EB021448
:10144000E0B230BD01460A2009B9012007E00122BF
:1014500003E000EB80035800521C8A42F9DB70471E
:101460000146102009B9012005E0012201E0000138
:10147000521C8A42FBDB704710B5002304E0401C7D
:10148000884200DB00205B1C9342F8DB10BD401C4F
:10149000884200DB002070472DE9F04104460F46EA
:1014A0001646069D0021002025E014F801C0BCF17D
:1014B000000F06D14FF0000800FB05FC06F80C8079
:1014C0001DE0002207E014F801C000FB056808F8E1
:1014D00002C0491C521C14F801C0BCF1200F01DDF0
:1014E000AA42F0DB32B14FF0000C00FB056808F8AF
:1014F00002C0401C491C984201DAB942D5DB00BF4A
:10150000BDE8F08170B503460C460021002500209F
:101510000EE05E5CA64204D01DB95E5C1654401C11
:1015200005E05E5CA64202D1002616546D1C491CE3
:101530005E5C16B1B1F5806FEBDB0026165470BD12
:1015400070B503460C460021002500200FE05E5CCC
:10155000A64205D0012D03D15E5C1654401C05E067
:101560005E5CA64202D1002616546D1C491C5E5CCE
:1015700016B1B1F5806FEADB0026165470BD2DE977
:10158000F04107464FF0000838460EF061FF06466E
:10159000022E34DD3878302831D17878782802D09E
:1015A000787858282BD1002525E0B81C445D302CD4
:1015B00009DB392C07DC303CF11E481BFFF750FFDC
:1015C00004FB008816E0412C09DB462C07DC373C85
:1015D000F11E481BFFF744FF04FB00880AE0612C62
:1015E00008DB662C06DC573CF11E481BFFF738FF72
:1015F00004FB00886D1CB01EA842D6DC15E0002557
:1016000011E07C5D302C09DB392C07DC303C711E8D
:10161000481BFFF717FF04FB008803E0334800680E
:10162000324908606D1CB542EBDB4046BDE8F081F5
:101630002DE9F0470646894615469A46BAF1000F4D
:1016400021D12846FFF7FEFE99FBF0F100FB119730
:10165000002413E0691E081BFFF7F4FE97FBF0F06F
:1016600000F0FF08691E081BFFF7ECFE97FBF0F186
:1016700000FB117708F130003055641CAC42E9DB07
:101680000020705522E086F800A0681EFFF7DAFE01
:1016900099FBF0F100FB1197012413E0691E081B70
:1016A000FFF7D0FE97FBF0F000F0FF08691E081B63
:1016B000FFF7C8FE97FBF0F100FB117708F130004F
:1016C0003055641CAC42E9DB002070550020BDE8B9
:1016D000F08701460A7812064B7842EA03428B787B
:1016E00042EA0322CB7842EA0300704794020020CA
:1016F00010B542F21070FFF77BFE5E20FB490870C8
:1017000045204870C0208870A820C87065200871E6
:1017100064204871C020F6490870A82048706520F0
:1017200088706420C870C020F2490870A8204870F2
:10173000652088700120C870FF20EF49087048704C
:1017400088700020C870C020EC490870A82048703C
:10175000652088708F20C870FFF745FDE849087044
:1017600008460078E7490870E4480078E0490870C6
:10177000E24840784870E14880788870DF48C07857
:10178000E04909780844DA49C8700846C07808B9C1
:10179000FF20C870D6484078D449C870D4488078B3
:1017A0000871D348C0784871D1480078D64908708C
:1017B000CF4840784870CE4880788870FF20C87045
:1017C000D248D34908600120D249086042F2107023
:1017D000FFF70EFE00F057FE42F21070FFF708FE12
:1017E00000BF01F08FF842F21070FFF701FE03F026
:1017F0002DFA04F07AF8002010BD704770471CB530
:10180000C5480068002802DDC348047A00E0FF24D0
:10181000C2480178C2480078CDE90001C148037888
:101820002246C149BA48006803F047FBBE48016838
:10183000B748006801F094F900201CBD10B5FFF70F
:10184000DEFFBA48006838B1B8480068401EB749A2
:1018500008600020B649086010BD0246080E1070EE
:10186000080C5070080A9070D17000207047014633
:101870000A7812064B7842EA03428B7842EA032246
:10188000CB7842EA030070472DE9F04104460D464B
:1018900016461F46802C03DA4FF0FF30BDE8F0817A
:1018A000F72D02DD4FF0FF30F8E7FF2E02DD4FF09D
:1018B000FF30F3E7FF2F02DD4FF0FF30EEE78C48FB
:1018C000047045708670C7708C48047045708670CF
:1018D000C7704FF47A70FFF78BFD04F0F3F84FF404
:1018E0007A70FFF785FD04F0F1F84FF47A70FFF796
:1018F0007FFD4FF47A70FFF77BFD8E48FFF778FD90
:101900008C48FFF775FD0020C8E730B501460A0E88
:10191000C1F30743C1F30724CDB2802A02DA4FF0A6
:10192000FF3030BDF72A02DD4FF0FF30F9E7FF2B23
:1019300002DD4FF0FF30F4E7FF2C02DD4FF0FF3007
:10194000EFE7FF2D02DD4FF0FF30EAE76848027055
:1019500043708470C5700020E3E72DE9F0418AB040
:101960007548076807F1090898F802007349097873
:10197000884204D04FF0FF300AB0BDE8F0816E48D5
:10198000006803F0CFF904466B480068B0F81350C4
:10199000E1780A06A17842EA0142617842EA01212F
:1019A000227841EA02000DF033F909902E1F3246E9
:1019B000211D01A80EF028FD01A9099805F0E6FBFC
:1019C0000020D9E770B50546002D01DA022400E0B9
:1019D0000124224654494E48006803F0DFFB524878
:1019E00001684B48006801F0BBF8002070BD2DE98C
:1019F000F0415148006803F095F90446257866786F
:101A000040480078854207D1012E05D105F08AF8BB
:101A100007463846FFF7D6FF0020BDE8F08170B5D5
:101A20004548006803F07EF9044625466878444935
:101A3000086008460068012802D1001F086016E00F
:101A40003F480068022804D16FF005003C49086057
:101A50000DE03B480068032802D13949086006E0E0
:101A600037480068042802D1062035490860002064
:101A700070BD70B53048006803F054F905462C4637
:101A8000207801281AD160782E490870E0782E4914
:101A900008602C480078032811D1294800680528DF
:101AA00009D12A480068642805D0642002F01EFA93
:101AB000642026490860002025490870BDE02148BF
:101AC0000078012846D11E480068052809D11F4822
:101AD0000068642805D0642002F008FA64201B49DD
:101AE000086001201A490870A7E00000D802002011
:101AF000DE020020E2020020E602002008030020AF
:101B0000A4020020990200200C030020D807002026
:101B1000F8020020000300200C7D0020B902002004
:101B20004C040020B8020020FC0200202403002006
:101B30001C030020A0860100F00200209802002073
:101B4000C8020020BD020020C00200207004002056
:101B5000D0060020FD48007802282CD1FC480068FF
:101B600005280AD1FB480068642820D0642002F0D0
:101B7000BDF96420F749086019E0E078F64908608B
:101B800008460068F3490968884205D1F0480068B2
:101B9000F249096888420AD0EF480068ED490860B8
:101BA0000120EF490870EA480068EC49086001200C
:101BB000EC49087041E0E548007804282CD1E4485D
:101BC000006805280AD1E3480068642820D0642012
:101BD00002F08CF96420DF49086019E0E078DE4902
:101BE000086008460068DB490968884205D1D84882
:101BF0000068DA49096888420AD0D7480068D549A0
:101C000008600120D6490870D1480068D3490860AF
:101C10000020D449087010E0CC48007805280CD189
:101C2000CC480068642805D0642002F05FF9642085
:101C3000C84908600120CB490870002070BD2DE91B
:101C4000F84F0446270EC4F30748C4F30729E5B24A
:101C5000802F03DA4FF0FF30BDE8F88FB8F1F70FAF
:101C600002DD4FF0FF30F7E7B9F1FF0F02DD4FF073
:101C7000FF30F1E75A2D02DD4FF0FF30ECE7BA48B4
:101C800090F800A090F801B080780090B7480078F4
:101C90000B2807D1B448C078B5490978401A8E3866
:101CA000C6B216E0B1480078022807D1AE48C07825
:101CB000AF490978401A801EC6B20AE0AB480078E6
:101CC000082806D1A848C078A9490978401A5C3884
:101CD000C6B2574508D1D84506D10098814503D1F1
:101CE000B54201D10120B7E7A248077080F8018012
:101CF00080F802909D4800780B2804D105F18E00F1
:101D00009C49C8700FE099480078022803D1A81CAC
:101D10009849C87007E095480078082803D105F174
:101D20005C009449C87003F0CDFE002094E770B5C4
:101D30009148066806F10904A078012807D1E078E7
:101D4000012863D165682846FFF779FF5EE0A07837
:101D500002285BD0A078232802D1FFF78AFE55E045
:101D6000A078242852D1E07801280AD18048007850
:101D7000012803D07E480078022802D1FFF74FFEE9
:101D800044E0E07802280AD179480078032803D09B
:101D900077480078042802D1FFF741FE36E0E0786A
:101DA00003280AD172480078052803D070480078CB
:101DB000062802D1FFF733FE28E0E07804280AD194
:101DC0006B480078072803D069480078082802D1BA
:101DD000FFF725FE1AE0E07805280AD1644800786C
:101DE000092803D0624800780A2802D1FFF717FEBD
:101DF0000CE0E078062809D15D4800780B2803D074
:101E00005B4800780C2801D1FFF709FE002070BD67
:101E100010B5574803785548027858480168564825
:101E2000006802F084FF0446642C00DC00BF002040
:101E300010BD70B505460E464F4805604F48066018
:101E40000A204F4908604F48006810B901204D49E9
:101E500008604948006802F017FF10B14FF0FF30EA
:101E600070BD4548006802F053FF0446012C0BD0BA
:101E7000022C06D0A4F50C50113840B110280CD11A
:101E800008E0FFF7C5FF09E0FFF751FF06E0FFF7A5
:101E9000AEFD03E0FFF761FD00E000BF00BF0020E2
:101EA000DEE710B538493948006803F0A3F9364831
:101EB00001683648006800F053FE002010BD2DE98F
:101EC000F74392B00D46144642F221360DF148090F
:101ED000D9F80080414601A8FFF7BFFC9DF8040037
:101EE0008DF808009DF805008DF809009DF80600A2
:101EF0008DF80A009DF807008DF80B00621C29463A
:101F000003A80EF081FA671D02AB32461E491F4836
:101F10000097006803F0B7F91B4801681B48006888
:101F200000F01EFE002015B0BDE8F0832DE9F84F4B
:101F300082460F461048C0F800A010480760B7F569
:101F4000806F25DA4FF0FF30BDE8F88FBD0200202A
:101F5000C802002070040020C0020020CC02002033
:101F600088040020D0060020DE0200209802002015
:101F70009902002008030020F0020020F402002053
:101F80002403002020030020FC020020F80200208F
:101F9000DC48006802F078FE18B14FF0FF30BDE871
:101FA000F88FD848006802F0B3FE8046D548006834
:101FB00002F0A2FE0546D348006802F0A5FE0646E0
:101FC000D048006802F0AEFE044694F800B0CD4858
:101FD000006802F095FE8146B8F1040F70D1BBF1A4
:101FE0000C0F08D1B8F1040F05D1C7480088484547
:101FF00001D00098D3E7C348006802F093FE04467E
:10200000C2480068012820DA0A20C0490860084652
:10201000057146716078088120788871084680795A
:10202000BB490978884203D1BA480078012808D111
:10203000B6488079B649087002F065FD0021B548C0
:102040000170A01C02F031F83AE06078AF490989CC
:10205000884220DA0A20AD490860084605714671B9
:10206000607808812078887108468079A8490978C5
:10207000884203D1A7480078012808D1A348807975
:10208000A349087002F03FFD0020A2490870A01C7F
:1020900002F00BF814E060789C49098988420FD15E
:1020A0009A480079A8420BD198484079B04207D1AC
:1020B0000A209649086002F026FDA01C01F0F5FFF9
:1020C00000206CE70020704702460020704702465F
:1020D0000020704770B504460D462B4622468E49B7
:1020E0008E48006803F000F88B4801688B48006850
:1020F00000F07CFD002070BD70B504460D462B46F7
:10210000224685498548006803F01BF8824801682B
:102110008248006800F06AFD002070BD2DE9F041A2
:1021200006460F46774806607D4807607548006898
:1021300002F0AAFD18B14FF0FF30BDE8F081714800
:10214000006802F0E5FD0446032C13D16D480068D9
:1021500002F0DAFD05467348007885420ADA7248D3
:102160000068401C7049086008460068802801DD4E
:10217000802008600020E0E710B56C480068012866
:102180000FD16B48644902686448006802F0F1FEB0
:10219000614801686148006800F04BFD0020634918
:1021A0000860002010BD10B503F0EDFC6148007818
:1021B000802802DAC0205F4908705E484078F7281E
:1021C00002DDA8205B4908705A488078FF2802DDAC
:1021D0006520584988705748C078022802DA642080
:1021E0005449C870002010BD7CB5042542F2323439
:1021F00051480088000A8DF804004F4800788DF897
:1022000005004E480088000A8DF806004B4800780B
:102210008DF8070001AB22463F4940480095006811
:1022200003F031F83C4801683C48006800F024FDA8
:1022300000207CBD2DE9F04106460F46144620469D
:10224000E11704EB91718D10E11704EB9171891086
:10225000A4EB8101002900DD6D1C2A463946304679
:1022600003F0BBFBBDE8F0812DE9F04106460F46C7
:10227000244806602A4807602248006802F004FDEE
:1022800018B14FF0FF30BDE8F0811E48006802F041
:102290003FFD80461B48006802F044FD044642F2C0
:1022A000313080452BD101202549086061782078A4
:1022B00001EB002020490860E178A07801EB0020C4
:1022C0001E4908600846006808B903F06BFB1B480C
:1022D000006885024FF48062211D2846FFF7AAFF9F
:1022E000FFF782FF1548006813490968884206D144
:1022F00042F21070FFF77CF8281D03F0C5FB0020A8
:10230000C1E70000F00200209A0200200C7D0020AE
:102310006404002088040020FC020020F802002051
:10232000F402002099020020140400200C04002074
:1023300008040020080300201403002018030020D4
:102340001003002000B5AFB001214FF0606006F02F
:1023500007FF07F0C5FD08F084FA00BF08F088FA0F
:102360000128FBD0684607F0C6FD01200090002040
:1023700007904FF400700A9000200B900E9011907F
:102380001390149015904FF48060099000202090D5
:102390004FF000702190001123900020259026908E
:1023A00004202890C005299040122A9080012B908B
:1023B00040122C9040002E900121684607F0F4FD59
:1023C000364908602FB000BD1CB50121672006F01A
:1023D000C7FE0121880306F007FF4FF480700090CC
:1023E00003208DF8050002208DF8040000208DF8F0
:1023F00006008DF807006946294806F057FA0120C3
:1024000007F0CDF9862000906946254806F04EFA7F
:102410000B220121224806F0D4FA0B220221204887
:1024200006F0CFFA0B2207211D4806F0CAFA322027
:10243000009069461B4806F039FA0B220121194821
:1024400006F0BFFA0B220421164806F0BAFA0B2256
:102450000521144806F0B5FA4FF4D04000906946C3
:10246000114806F023FA0B2211460F4806F0A9FA8C
:102470000B220D210C4806F0A4FA0B220E210A486B
:1024800006F09FFA1CBD10B5FFF79EFFFFF75AFF3D
:1024900010BD10B507F024FD10BD0000280300207A
:1024A000000002400008024000180240704700BFD0
:1024B000FEE700BFFEE700BFFEE700BFFEE7704794
:1024C00010B500F037F810BD10B501F0BDFB10BD20
:1024D00010B501F074FA10BD7FB5042005F028FD99
:1024E000684606F0A8FD64220198B0FBF2F1B1F154
:1024F000807F00D31DE021F07F40401E4FF0E0229E
:10250000506150170F22002807DA13071D0E4C4B9D
:1025100000F00F04241F1D5503E013071C0E494B48
:102520001C5400BF00204FF0E02290610720106192
:1025300000BF7FBD44480068401C434908604348D1
:102540000068401C4149086041480068401C4049FF
:10255000086040480068401C3E4908603E480068EA
:10256000401C3D4908603D480068401C3B490860EC
:102570003B480068401C3A4908603A480068401CE3
:102580003849086070476FF007004FF0E02108619C
:1025900070477047704710B504F068FE01F06CFF9B
:1025A000FDF73CFF10BD704710B5FFF727F900F0AD
:1025B0004AFA10BD10B5FEF715FA02F048F82A489D
:1025C0000068002803DDFEF766FDFEF77EFD03F0E0
:1025D0007DFA04F0C3FA04F0EAFE04F0C0FD10BD79
:1025E00010B502F063F810BD10B51F48006801284F
:1025F00003DAFEF750FDFEF768FDFFF71FF902F062
:1026000085F803F09FFB04F06FFC1848006888B958
:102610001748006870B117480068401C15490860E9
:10262000084600681E2805DD03E04FF47A70FEF7C7
:10263000DFFEFAE710BD10B5FEF7FCF910BD7047DC
:1026400018ED00E000E400E0300300203403002037
:10265000380300203C0300204003002044030020F6
:10266000480300204C0300200C7D002024030020A0
:10267000200300201C03002010B50BF0D7FFFE49FB
:1026800008604DF61952FD49FB4800680BF0B5FE95
:1026900010BD2DE9F04106460F4614469846069DAA
:1026A00061896068FFF7E0FD204608F0C9FDBDE8DC
:1026B000F08110B50BF0BAFFF14908604DF61852E1
:1026C000EE49EF4800680BF098FE0022AFF23D01A2
:1026D000EB4800680BF089FF10BD10B50BF0A6FFAA
:1026E000E84908604CF69F72E449E64800680BF040
:1026F00084FE10BD2DE9F04106460F46144698466B
:10270000069D61896068FFF709FD204608F098FD85
:10271000BDE8F08110B50BF089FFDB4908604CF68D
:10272000A072D649D84800680BF067FE0022AFF2CD
:102730003B01D54800680BF058FF10BD10B50BF0F9
:1027400075FFD24908604CF6B732CC49CF480068D3
:102750000BF053FE10BD2DE9F04106460F4614461E
:102760009846069D61896068FFF7AEFC204608F038
:1027700067FDBDE8F08110B50BF058FFC449086053
:102780004CF6B832BD49C24800680BF036FE002254
:10279000AFF23D01BE4800680BF027FF10BD10B539
:1027A0000BF044FFBB4908604CF2CF72B349B94803
:1027B00000680BF022FE10BD2DE9F04106460F46E1
:1027C00014469846069D61896068FFF7AFFB204676
:1027D00008F036FDBDE8F08110B50BF027FFAE49DB
:1027E00008604CF2D072A549AB4800680BF005FEBA
:1027F0000022AFF23B01A84800680BF0F6FE10BDC6
:1028000010B50BF013FFA54908604CF2E7329B4965
:10281000A24800680BF0F1FD10BD2DE9F04106461D
:102820000F4614469846069D61896068FFF701FBD4
:10283000204608F005FDBDE8F08110B50BF0F6FE6E
:10284000974908604CF2E8328C49954800680BF0D3
:10285000D4FD0022AFF23D01914800680BF0C5FEA7
:1028600010BD2DE9F04106460F4614469846069DD8
:102870006189606803F0F1FA204608F0E1FCBDE8E8
:10288000F08110B50BF0D2FE8649086043F6603245
:102890007A49844800680BF0B0FD0022AFF23D0198
:1028A000804800680BF0A1FE10BD2DE9F041804684
:1028B0000D4614461E46069F43F6623231462846B0
:1028C0000BF056FE214628460BF048FE28460BF03A
:1028D0007EFE204608F0B4FCBDE8F08110B50BF098
:1028E000A5FE7149086043F6623264496E4800688B
:1028F0000BF083FD0022AFF24D016B4800680BF036
:1029000074FE10BD00B587B008F0DCF908F042FB9A
:10291000664909780A066549497842EA01426349ED
:10292000897842EA0121614AD27841EA02000CF03A
:102930006FF906905E4909780A065D49497842EACE
:1029400001425B49897842EA0121594AD27841EA39
:1029500002000CF05DF90590564909780A065549C0
:10296000497842EA01425349897842EA0121514AB1
:10297000D27841EA02000CF04BF904904FF0FF309E
:102980000CF046F94C490860484909780A0647495D
:10299000497842EA01424549897842EA012141F0F9
:1029A000FF000CF035F945490860454845490022CB
:1029B00004ABCDE90021029005AA06A9424808F01F
:1029C00094FB414808F0C2FB3F4808F007FCFFF7C2
:1029D00085FFFFF756FFFFF730FFFFF711FFFFF707
:1029E000FBFEFFF7DCFEFFF7C6FEFFF7A7FEFFF7D3
:1029F00091FEFFF772FEFFF75CFEFFF73DFE07B0AA
:102A000000BD10B5304808F0A4FBFFF742FD10BD33
:102A100010B52D480DF0BAFC10BD10B507F0F2FD51
:102A200008B1FFF7F5FF10BD10B528480068401C3D
:102A30002649086008460068642803DD0020086015
:102A40000CF05DFF10BD10B5FFF7EEFF10BD1CB51B
:102A500020208DF8000021208DF8010022208DF823
:102A6000020023208DF8030024208DF80400252087
:102A70008DF8050026202BE0840300205443010834
:102A8000800300207C0300207803002074030020D2
:102A9000700300206C030020680300206403002002
:102AA000600300205C03002058030020DE020020A9
:102AB000E6020020E2020020500300205403002020
:102AC000BB010108B9030108D80C002088030020CD
:102AD0008DF8060027208DF8070043F6623278490A
:102AE000784800680BF044FD03220821002008F01C
:102AF000DEFB044684B108226946204608F016FE33
:102B00002146704800680BF029FD6E4800680BF004
:102B10005EFD204608F094FB1CBD70B506460C46D1
:102B200043F661326649684800680BF021FDA1B2A6
:102B30000322002008F0BBFB054685B1A2B2314656
:102B4000284608F0F3FD29465F4800680BF006FDB3
:102B50005D4800680BF03BFD284608F071FB70BD36
:102B600070B506460C464CF2E832554957480068A5
:102B70000BF0FEFCA1B20322002008F098FB0546F2
:102B800085B1A2B23146284608F0D0FD29464F480B
:102B900000680BF0E3FC4D4800680BF018FD284678
:102BA00008F04EFB70BD70B506460C464CF2D07274
:102BB0004349474800680BF0DBFCA1B20322002028
:102BC00008F075FB054685B1A2B23146284608F0EB
:102BD000ADFD29463E4800680BF0C0FC3C4800684B
:102BE0000BF0F5FC284608F02BFB70BD70B50646CF
:102BF0000C464CF6B8323249364800680BF0B8FC47
:102C0000A1B20322002008F052FB054685B1A2B212
:102C10003146284608F08AFD29462E4800680BF008
:102C20009DFC2C4800680BF0D2FC284608F008FBFD
:102C300070BD70B506460C464CF6A0722049264879
:102C400000680BF095FCA1B20322002008F02FFBD6
:102C5000054685B1A2B23146284608F067FD2946EF
:102C60001D4800680BF07AFC1B4800680BF0AFFCB5
:102C7000284608F0E5FA70BD70B506460C464DF6DC
:102C800018520F49154800680BF072FCA1B20322DC
:102C9000002008F00CFB054685B1A2B2314628465B
:102CA00008F044FD29460D4800680BF057FC0B481E
:102CB00000680BF08CFC284608F0C2FA70BD0000DA
:102CC00054030020580300205C030020640300200C
:102CD0006C030020740300207C0300208403002088
:102CE0001FB50020ADF804004BF6FF70ADF80600EC
:102CF000A020ADF808004FF48060ADF80A00000194
:102D0000ADF80C00FA4800900121FA4805F033FFB5
:102D10006946F84805F0B3FE1FBD2DE9F0410446B1
:102D20000D46270AE6B20020F3490860F34908601F
:102D30000EE0F1480068401CEF4908600846006852
:102D4000B0F57A2F04DD0120EC490860BDE8F08180
:102D50004FF40031E74806F034F80028E9D10121AA
:102D6000E44805F014FF0020E3490860E3490860E7
:102D70000DE0E1480068401CDF4908600846006833
:102D8000B0F57A2F03DD0220DC490860DEE7DC497C
:102D9000D84805F0F4FF0028EBD00022A021D54848
:102DA00005F00DFF0020D4490860D44908600DE00B
:102DB000D1480068401CD049086008460068B0F55A
:102DC0007A2F03DD0320CD490860BFE7CD49C9480C
:102DD00005F0D5FF0028EBD03946C64805F073FF53
:102DE0000020C5490860C54908600DE0C248006878
:102DF000401CC149086008460068B0F57A2F03DD21
:102E00000420BE490860A1E7BF49BA4805F0D9FFD0
:102E10000028EBD03146B74805F055FF0020B649F1
:102E20000860B64908600DE0B3480068401CB2492C
:102E3000086008460068B0F57A2F03DD0520AF4929
:102E4000086083E7B049AB4805F0BBFF0028EBD032
:102E50002946A84805F037FF0020A7490860A74980
:102E600008600DE0A4480068401CA34908600846BB
:102E70000068B0F57A2F03DD0620A049086065E7F9
:102E8000A1499C4805F09DFF0028EBD000209A49FD
:102E900008609A4908600DE097480068401C964910
:102EA000086008460068B0F57A2F03DD07209349D3
:102EB00008604BE79349891E8E4805F060FF0028A3
:102EC000EAD001218B4805F06EFE00BF3EE72DE9F8
:102ED000F0410446260AE5B2002087490860874988
:102EE00008600FE084480068401C83490860084679
:102EF0000068B0F57A2F05DD082080490860FF20C2
:102F0000BDE8F0814FF400317A4805F05AFF0028FF
:102F1000E8D10121774805F03AFE002076490860A3
:102F2000764908600EE074480068401C72490860E9
:102F300008460068B0F57A2F04DD09206F49086063
:102F4000FF20DDE76E496B4805F019FF0028EAD045
:102F50000022A021674805F032FE00206649086083
:102F6000664908600EE064480068401C62490860D9
:102F700008460068B0F57A2F04DD0A205F49086032
:102F8000FF20BDE75F495B4805F0F9FE0028EAD065
:102F90003146584805F097FE0020574908605749C8
:102FA00008600EE054480068401C53490860084619
:102FB0000068B0F57A2F04DD0B2050490860FF202F
:102FC0009EE751494B4805F0FCFE0028EAD029460F
:102FD000484805F078FE00204749086047490860E6
:102FE0000EE045480068401C4349086008460068F8
:102FF000B0F57A2F04DD0B2040490860FF207FE701
:1030000041493C4805F0DDFE0028EAD0012139485D
:1030100005F0BDFD002038490860384908600EE021
:1030200035480068401C3449086008460068B0F51F
:103030007A2F04DD0C2031490860FF2060E7304919
:103040002C4805F09CFE0028EAD00122A021294846
:1030500005F0B5FD002028490860284908600EE009
:1030600025480068401C2449086008460068B0F5FF
:103070007A2F04DD0D2021490860FF2040E7224916
:10308000891E1C4805F09DFE0028E9D00021194842
:1030900005F09DFD1748183000880121154805F0FE
:1030A00082FD002014490860144908600EE01248AF
:1030B0000068401C1049086008460068B0F57A2F87
:1030C00004DD0E200D490860FF2019E70E493C3150
:1030D000084805F076FE0028E9D0064805F0F5FD21
:1030E0000746002004490860044908601DE000000C
:1030F000A0860100005800408C03002090030020AF
:10310000010003008200070004000010FC48006872
:10311000401CFB49086008460068B0F57A2F04DDC2
:103120000F20F8490860FF20EAE6F748008800F41D
:1031300000700028EAD10121F34805F048FD384627
:10314000DEE62DE9F04706460F4615464FF6FF70BE
:1031500000EA46184FEA182A08F0FF09202D00DD82
:1031600020250020E6490860E64908600EE0E448B2
:103170000068401CE249086008460068B0F57A2FF4
:1031800004DD1020DF490860BDE8F0874FF400310E
:10319000DD4805F016FE0028E9D10121DA4805F0E6
:1031A000F6FC0020D6490860D64908600DE0D448F6
:1031B0000068401CD249086008460068B0F57A2FC4
:1031C00003DD1120CF490860DEE7D049CE4805F085
:1031D000D6FD0028EBD00022A021CB4805F0EFFC63
:1031E0000020C7490860C74908600DE0C44800686E
:1031F000401CC349086008460068B0F57A2F03DD1B
:103200001220C0490860BFE7C149BF4805F0B7FDBB
:103210000028EBD05146BC4805F055FD0020B849C8
:103220000860B84908600DE0B5480068401CB44922
:10323000086008460068B0F57A2F03DD1320B14915
:103240000860A1E7B349B04805F0BBFD0028EBD00A
:103250004946AD4805F037FD0020A9490860A94955
:1032600008600DE0A6480068401CA54908600846B3
:103270000068B0F57A2F03DD1420A249086083E7C7
:10328000A449A14805F09DFD0028EBD000241EE0D4
:10329000395D9D4805F017FD00209949086099495E
:1032A00008600DE096480068401C95490860084693
:1032B0000068B0F57A2F03DD15209249086063E7B6
:1032C0009449914805F07DFD0028EBD0641CAC4288
:1032D000DEDB00208A4908608A4908600DE08848E2
:1032E0000068401C8649086008460068B0F57A2FDF
:1032F00003DD16208349086046E78549891E824818
:1033000005F03DFD0028EAD001217F4805F04BFC87
:1033100000BF39E72DE9F04706460F4615464FF640
:10332000FF7000EA46184FEA182A08F0FF09202D1E
:1033300000DD2025002072490860724908600EE017
:103340006F480068401C6E49086008460068B0F588
:103350007A2F04DD17206B490860BDE8F0874FF431
:103360000031694805F02DFD0028E9D101216648AA
:1033700005F00DFC002062490860624908600DE01C
:103380005F480068401C5E49086008460068B0F568
:103390007A2F03DD18205B490860DEE75B495A4855
:1033A00005F0EDFC0028EBD00022A021564805F0E6
:1033B00006FC002052490860524908600DE0504860
:1033C0000068401C4E49086008460068B0F57A2F36
:1033D00003DD19204B490860BFE74D494A4805F015
:1033E000CEFC0028EBD05146474805F06CFC00208D
:1033F00043490860434908600DE041480068401CAB
:103400003F49086008460068B0F57A2F03DD1A20AE
:103410003C490860A1E73F493B4805F0D2FC002841
:10342000EBD04946384805F04EFC0020344908608E
:10343000344908600DE032480068401C304908609B
:1034400008460068B0F57A2F03DD1B202D4908607F
:1034500083E730492C4805F0B4FC0028EBD0002469
:1034600091E00121284805F092FB002024490860E2
:10347000244908600DE022480068401C204908608B
:1034800008460068B0F57A2F03DD1C201D4908604E
:1034900063E71E491C4805F072FC0028EBD00122AE
:1034A000A021194805F08BFB00201549086015493B
:1034B00008600DE012480068401C11490860084689
:1034C0000068B0F57A2F03DD1D200E49086044E73F
:1034D0001049891E0C4805F074FC0028EAD0002130
:1034E000094805F074FB0848183000880121064897
:1034F00005F059FB0020024908600249086019E004
:103500008C030020900300200058004001000300BD
:1035100082000700040000109F480068401C9E497C
:10352000086008460068B0F57A2F03DD1E209B492D
:10353000086012E79A499B4805F043FC0028EBD04D
:10354000984805F0C2FB385500209349086093491C
:1035500008600DE090480068401C8F4908600846EC
:103560000068B0F57A2F03DD1F208C490860F4E66F
:103570008C48008800F400700028EBD101218948B4
:1035800005F025FB641CAC42FFF66BAF00BFE4E620
:103590001FB50020ADF804004BF6FF70ADF8060033
:1035A0008820ADF808004FF48060ADF80A000001F3
:1035B000ADF80C007C48009001217A4805F0DBFA58
:1035C0006946784805F05BFA1FBD2DE9F047814652
:1035D0000C464F2C01DD4F2402E0002C00DA0024C1
:1035E0000A2094FBF0F0C7B20A2094FBF0F100FB34
:1035F000114000F0FF08B9F1010F04D147F0B00508
:1036000048F0A0060BE0B9F1020F04D147F03005F5
:1036100048F0200603E047F0E00548F0D00600201F
:103620005D4908605D4908600EE05B480068401C29
:103630005949086008460068B0F57A2F04DD652016
:1036400056490860BDE8F0874FF40031554805F051
:10365000B8FB0028E9D10121524805F098FA002072
:103660004D4908604D4908600DE04B480068401C1A
:103670004949086008460068B0F57A2F03DD6620E6
:1036800046490860DEE74949464805F078FB0028CE
:10369000EBD000228821434805F091FA00203E49F2
:1036A00008603E4908600DE03B480068401C3A490C
:1036B000086008460068B0F57A2F03DD67203749B7
:1036C0000860BFE73A49374805F059FB0028EBD0BE
:1036D0002946344805F0F7FA00202F4908602F49A1
:1036E00008600DE02C480068401C2B490860084623
:1036F0000068B0F57A2F03DD682028490860A1E74B
:1037000027493C39274805F05CFB0028EAD03146C0
:10371000244805F0D8FA00201F4908601F490860B6
:103720000DE01D480068401C1B4908600846006801
:10373000B0F57A2F03DD69201849086082E718493F
:103740003C39184805F03DFB0028EAD0002012491A
:103750000860124908600DE00F480068401C0E49DF
:10376000086008460068B0F57A2F03DD6A200B492F
:10377000086067E70E49891E0A4805F000FB00282B
:10378000EAD00121074805F00EFA00BF5AE770475A
:1037900001460020704770478C03002090030020F2
:1037A0004000001000580040A08601000100030006
:1037B000820007001FB5012005F0CFFC012188031E
:1037C00005F001FDFA4805F009FE4AF64440029072
:1037D0000020ADF80200ADF80400ADF80C004FF485
:1037E0000070ADF800000020ADF806006946F04812
:1037F00005F038FE0121EE4805F0E3FE1FBD10B5CF
:103800000021EB4805F0DDFE0021EA4804F08AFCC7
:1038100000220221E64805F03FFF10BD10B501214E
:10382000E34805F0CEFE0121E24804F07BFC0122D2
:103830000221DF4805F030FF10BD00B591B0012135
:10384000480505F08DFC0021DA4804F06BFCD948EE
:1038500004F08CFB0022D849D64804F08AFC0121F0
:10386000D44804F092FC00200290D1480C30039020
:10387000D248049040200590000106900020079057
:103880004FF4806008904000099080000A90401139
:103890000B9040020C9004200D9003200E9000200D
:1038A0000F90109002A9C34804F002FC01221021DD
:1038B000C04804F0C4FC01220821BE4804F0BFFC4B
:1038C0000F208DF8040000208DF805008DF806000B
:1038D00001208DF8070001A804F0DDFA0121B548A8
:1038E00004F020FC01220221B14805F0D5FE11B000
:1038F00000BD70B5AF4804F058FC08B9AE4D00E00B
:10390000AE4DAF480068AF49096801EB8026082139
:10391000AB480068FDF7BBFDA9490860002405E03D
:1039200036F8140005EB84014880641CB4F5007F70
:10393000F6DB70BD70B59F4804F037FC08B99E4DAA
:1039400000E09E4DA0480068A049096801EB802670
:10395000002405E036F81400610025F81100641C0D
:10396000B4F5007FF6DB9A480068A0F580609849BE
:10397000086008460068002801DA002008609548C1
:10398000006800F580609349086008460068B0F55B
:10399000005F02DD4FF4005008608B4909688B4AD4
:1039A000126802EB81204FF480610CF046FD082183
:1039B00085480068FDF76BFD8349086070BD10B550
:1039C000854800688449086084497A4804F054FCBA
:1039D000012810D18149774804F078FC7E480068BE
:1039E0007D490860FFF7A6FFFFF783FF01207C49B0
:1039F000086001F063F87B496E4804F03DFC012843
:103A000007D178496B4804F061FC7348006872493B
:103A1000086010BD1FB50121C80305F0D4FB724832
:103A200005F0DCFC4AF6444002900020ADF80200AC
:103A3000ADF80400ADF80C004FF48070ADF8000054
:103A40000020ADF806006946674805F00BFD01212E
:103A5000654805F0B6FD1FBD10B50021624805F0B0
:103A6000B0FD00215348303804F05CFB00220121F6
:103A70005D4805F011FE10BD10B501215A4805F052
:103A8000A0FD01214B48303804F04CFB01221146C7
:103A9000554805F001FE10BD00B591B00121480563
:103AA00005F05EFB00214348303804F03BFB414801
:103AB000303804F05BFA00224C493E48303804F0BC
:103AC00058FB01213B48303804F05FFB0020029096
:103AD00045480C30039046480490002005904FF470
:103AE00080600690002007904FF4806008904000AE
:103AF000099080000A9040110B9040020C90042025
:103B00000D9003200E9000200F90109002A92948DC
:103B1000303804F0CDFA012210212648303804F064
:103B20008EFB012208212348303804F088FB0D2049
:103B30008DF8040001208DF8050000208DF80600A6
:103B400001208DF8070001A804F0A5F9012119480A
:103B5000303804F0E7FA01221146234805F09CFDB5
:103B600011B000BD70B51348303804F01EFB08B921
:103B70001E4D00E01E4D1F4800681F49096801EBFB
:103B8000802602211B480068FDF781FC1949086066
:103B9000002405E005EB8400408826F81400641C2E
:103BA000B4F5007FF6DB01201449086070BD000009
:103BB00000380040706002400C1500200C0D002001
:103BC000C0030020B8030020A003002098030020B9
:103BD000B4030020B00300209402002020800020C5
:103BE0009403002010400020003C00400C250020E1
:103BF0000C1D0020D8030020D4030020E80300207F
:103C000070B5B14804F0D1FA08B9B04D00E0B04D3C
:103C1000B0480068B049096801EB80260221AD4830
:103C20000068FDF734FCAB490860002405E0600043
:103C300035F8100026F81400641CB4F5007FF6DB9C
:103C40000120A649086070BD10B5A5480068A449C8
:103C50000860A4499C4804F00FFB01280BD1A1493E
:103C6000994804F033FBFFF7CBFFFFF77BFF9C483D
:103C700000689B4908609C49934804F0FDFA0128BC
:103C800007D19949904804F021FB95480068944970
:103C9000086010BD10B5FFF7B2FDFFF7DDFE10BDE7
:103CA000002000E0401C0528FCDB704770B506468C
:103CB0000D462846FDF747FA0120FDF734FA0020AB
:103CC000FDF721FAFFF7ECFF00241DE046FA04F0AF
:103CD00000F0010030B90020FDF715FA0020FDF7D3
:103CE00012FA05E00020FDF70EFA0120FDF70BFAAD
:103CF0000020FDF718FAFFF7D3FF0120FDF713FAB4
:103D0000FFF7CEFF601CC4B2082CDFDBFFF7C8FF53
:103D10000120FDF718FAFFF7C3FF70BD10B50021B1
:103D20001620FFF7C3FF01216020FFF7BFFF01212D
:103D30002020FFF7BBFF01218320FFF7B7FF10BD55
:103D400010B500211620FFF7B1FF01218020FFF7F9
:103D5000ADFF10BD10B500211620FFF7A7FF012110
:103D60008320FFF7A3FF10BD10B500211420FFF73B
:103D70009DFF01210F20FFF799FF01218120FFF70F
:103D800095FF0121C220FFF791FF0121E320FFF7FA
:103D90008DFF0121C120FFF789FF0121FF20FFF7DF
:103DA00085FF0121C020FFF781FF0121F020FFF7EF
:103DB0007DFF10BD704710B5FFF7B0FFFFF7D4FFD0
:103DC00010BD10B504466CB900211420FFF76EFF3A
:103DD00001218120FFF76AFF01210020FFF766FF24
:103DE000002010BD3D2C1CDA282C0CD10021142001
:103DF000FFF75CFF01218520FFF758FF01212046D6
:103E0000FFF754FF0BE000211420FFF74FFF0121C3
:103E10008120FFF74BFF01212046FFF747FF0020DD
:103E2000DFE7642C0DDC00211420FFF73FFF0121A8
:103E30008120FFF73BFF01216F20FFF737FF0020B4
:103E4000CFE74FF0FF30CCE770B504460D46102C9D
:103E500000DD1024062D00DD0625204604EBD07180
:103E6000C1F34704284605EBD071C1F3470504F0C0
:103E70000F00402141EA800005F0030140EA0106FD
:103E800000211420FFF712FF01213046FFF70EFF3B
:103E9000002070BD10B5044600211420FFF706FF76
:103EA0002D2C00DD2D246000032190FBF1F0C4B225
:103EB0000121C020FFF7FAFE44F0E0000121FFF7E6
:103EC000F5FE002010BD0000406002400C250020DF
:103ED0000C1D0020CC030020C8030020E0030020BC
:103EE00094020020008020100040101070B505469C
:103EF0000024F74805600068002803DA0020F44930
:103F0000086006E0F2480068282802DD2820F04911
:103F10000860F0480078022803D0EE4800780428B2
:103F20000BD1EB480068EC49096849420844EB4969
:103F300009680844EA49086007E0E5480068E6497E
:103F4000096849420844E6490860E54800680028D5
:103F500003DA0020E249086006E0E148006828280A
:103F600002DB2820DE490860DD480068022801DC09
:103F7000022401E0DA480468DA480068844204D088
:103F8000D8480460E0B203F066FF002070BD002056
:103F9000D5490860704710B5002405E00020D349DA
:103FA0000855D3490855641CB4F5005FF6DBCF48CB
:103FB000D0490860CE48D04908600020CF49086049
:103FC0000420CF4908608002CE4908600020CE4915
:103FD00008604FF48050CD490860CD49086000204A
:103FE000CC4908600420CC490860CC48CC49086022
:103FF0000020CC4908600120CB4908600020CB4953
:1040000008600120CA490860CA48CB4908600020FE
:10401000CA4908600120CA4908600020C9490860EF
:104020000120C94908600020C84908600A20A84941
:10403000086008460068AA4908600020C449086072
:10404000C4490860A6490860C349087003F0DCFE53
:104050004FF4FA60FDF7CCF9FFF7ACFBFFF7DAFCA1
:10406000FFF7EBFBFFF718FD4AF22800FDF7C0F958
:10407000FFF78DFF01F087FD42F21070FDF7B8F9F0
:1040800093480068FFF732FF0020B4490860B44944
:104090000860B449086010BD10B5FFF7BFFBFFF71B
:1040A000EBFC01209049086010BD10B5044694480F
:1040B000006892490968884208D008218F48006842
:1040C000FDF7E5F98E490968884207D105220821E4
:1040D0008A480068FDF7D0F989490860884909686D
:1040E000844A126802EB81204FF4806221460CF072
:1040F0008BF9082182480068FDF7C9F980490860FA
:1041000000209949086010BD70B50546002411E0F3
:1041100094480068285C9549085592480068401CFE
:104120009049086008460068B0F55C7F01DB00201C
:104130000860641CB4F5806FEADB8C48FFF7B5FFBC
:10414000002070BD10B581480068002800DD10BD5A
:1041500087480068002867D085480068012863D137
:1041600084480068642803D18348FFF7CDFF5BE0F3
:1041700080480068C82803D18048FFF7C5FF53E096
:104180007C480068B0F5FA7F03D17D48FFF7BCFF9B
:104190004AE078480068B0F5487F03D17948FFF7D6
:1041A000B3FF41E073480068B0F57A7F03D17648E9
:1041B000FFF7AAFF38E06F480068B0F5FA6F03D147
:1041C0007248FFF7A1FF2FE06A48006841F288318A
:1041D000884203D16E48FFF797FF25E065480068E5
:1041E000B0F5FA5F03D16B48FFF78EFF1CE0614822
:1041F000006842F21071884203D16748FFF784FFDC
:1042000012E05C48006843F69821884203D1634875
:10421000FFF77AFF08E05748006844F620618842BB
:1042200002D15F48FFF770FF00BF90E710B55D480F
:10423000006800280EDD00205A4908604A480068DE
:10424000401C4949086058480068401C56490860AD
:10425000FFF778FF4448006808280ADD42480068F4
:10426000102806DA4FF40051224800680CF0E5F8F7
:1042700006E03D480068802802DD80203A49086059
:104280004948006808280ADD47480068102806DA0F
:104290004FF40051184800680CF0CFF806E042488F
:1042A0000068802802DD80203F49086010BD2DE9AC
:1042B000F04702211C480068FDF7E9F80746184856
:1042C000006800EB872A4FF00008C146002477E021
:1042D000F0030020BD02002040040020C80200209E
:1042E0004C0400208C0400203C0400200C2D0020F5
:1042F0000C4D002098030020B8030020A0030020EC
:104300009C030020A8030020AC030020B003002081
:10431000B4030020C0030020BC0300200C6D00206B
:10432000C8030020D0030020CC030020E0030020BD
:10433000E40300200C750020D4030020DC030020DF
:10434000D8030020E8030020EC0300200C7D0020AF
:1043500044040020480400206404002020040020BD
:104360003404002058040020A4030020587D0020BD
:10437000500400205404002080110108F2140108A8
:1043800064180108D61B0108481F0108BA22010859
:104390002C2601089E290108102D010882300108F1
:1043A000F433010894030020C40300203AF91450A8
:1043B000454501DDA84602E04D4500DAA946641CEA
:1043C000B4F5007FF2DBA8EB0900F949F94A12685D
:1043D00041F822000221F8480068FDF758F8074626
:1043E000F648006800EB872A4FF00008C146002419
:1043F00009E03AF91450454501DDA84602E04D4573
:1044000000DAA946641CB4F5007FF2DBA8EB0900D2
:10441000EB49E84A126841F82200E6480068401C6F
:10442000E449086008460068082823DB002008608B
:104430000026002404E0DE4850F824000644641CF2
:10444000082CF8DB3046F11706EB5171C910DD4A34
:1044500011600026002404E0D94850F824000644E6
:10446000641C082CF8DB3046F11706EB5171C910BB
:10447000D54A1160BDE8F08710B5FFF718FF10BDF1
:104480002DE9F04703461F46884601EBD8794FEAED
:10449000690C00240025082600200AE037F91020C6
:1044A00012F13C0F04DB04EB020808F13C046D1C24
:1044B00030446045F2DB94FBF5F8DFF81093DFF849
:1044C00010A3DAF800A049F82A80BDE8F0872DE9AA
:1044D000F04703461F46884601EBD8794FEA690C3E
:1044E00000240025082600200AE037F9102012F1E8
:1044F000140F04DB04EB020808F114046D1C3044B3
:104500006045F2DB94FBF5F8DFF8C892DFF8C0A253
:10451000DAF800A049F82A80BDE8F08770B5AE4807
:10452000006801282ED1AD48006801282AD100205A
:10453000A94908600221AA480068FCF7A8FFA94918
:1045400008600968A84A126802EB81204FF4806174
:10455000FFF7BDFF0020A1490860022196480068CE
:10456000FCF795FFA14908600968944A126802EBBC
:1045700081204FF48061FFF783FF95480068401C5D
:10458000934908609248006808285FDB0020904942
:1045900008600025002404E08E4850F824000544FB
:1045A000641C082CF8DBE91705EB5171C91001EB0D
:1045B000810149008E4A11600025002404E08348EF
:1045C00050F824000544641C082CF8DB2846E91741
:1045D00005EB5171C910874A11608548006864284D
:1045E00009DA104600680A2805DA002082490860C6
:1045F000824908602AE07E480068142803DA012016
:104600007E49086022E07B480068022803DA022025
:104610007A4908601AE0764800687649096890FB94
:10462000F1F07549086008460068C82803DD0220DB
:10463000724908600AE0704800680A2803DA01201D
:104640006E49086002E000206C49086070BD10B53A
:104650006B480068401E6A490860084600680028E8
:1046600003DA00200860FFF792FC66480068002823
:1046700001DDFFF753FF64480068801E624908604F
:1046800008460068002801DA002008605F480078CA
:10469000C0F140005C490968884203DA00205C49A7
:1046A000086002E001205A49086010BD704710B54B
:1046B00058480068002805DD56480068401E5549E6
:1046C000086002E0002054490860544800685249DC
:1046D0000968884209DD51480068401E4F4908605A
:1046E0004F480068FFF702FC0EE04C4800684A495A
:1046F0000968884208DA49480068401C4749086050
:1047000047480068FFF7F2FB002010BD10B5FFF727
:10471000CEFF10BD10B5044642490968424A1268EE
:1047200002EB81204FF4806221460BF06DFE0821E0
:104730003C480068FCF7ABFE3A49086000203B4962
:10474000086010BD30B503463948046801F5806043
:10475000844277DB002211E09C5C3648364D2D68A0
:10476000445535480068401C334C206020460068A2
:10477000B0F5005F01DB00202060521C8A42EBDBB9
:104780002B480068401A2A4C20602C4800680844D6
:104790002A4C206020460068B0F5005F02DD4FF42F
:1047A000005020600020264C2060084630BD49E0C3
:1047B0005881002090040020D8030020D40300205A
:1047C000788100205C04002060040020387D0020F7
:1047D00020040020187D0020E0030020E8030020D2
:1047E000CC030020D0030020C8030020DC030020FD
:1047F000180400201C0400202404002028040020A9
:104800000C7D0020A002002014040020990200204A
:10481000100400204404002048040020400400202C
:10482000F0030020BC030020B8030020C4030020D4
:10483000B00300200C2D0020A8030020B4030020AA
:10484000A40300204FF0FF3030BD02464FF0FF3090
:1048500070470246DD480068002802DD4FF0FF3057
:1048600070472AB90020DA4B1860DA4B1860F7E776
:10487000012A4BD10120D64B1860642902D1D648B9
:10488000016041E0C82902D1D34801603CE0B1F5A4
:10489000FA7F02D1D048016036E0B1F5487F02D1FD
:1048A000CD48016030E0B1F57A7F02D1CA4801609D
:1048B0002AE0B1F5FA6F02D1C748016024E041F265
:1048C0008830814202D1C44801601DE0B1F5FA5F31
:1048D00002D1C148016017E042F21070814202D15A
:1048E000BD48016010E043F69820814202D1BA48E9
:1048F000016009E044F62060814202D1B6480160BF
:1049000002E06FF00100ABE70020A9E74FF0FF30B5
:10491000A6E710B5B1480068012816D1B048006874
:10492000012812D10020AE4908600221AD4800687C
:10493000FCF7ADFDAC4908600968AC4A126802EBAF
:1049400081204FF48061FDF7C5FBA948006801286C
:1049500016D1A8480068012812D10020A549086096
:104960000221A5480068FCF792FDA4490860096887
:10497000A34A126802EB81204FF48061FDF7BCFB73
:1049800010BD01209F4908609F4800689F4908604A
:10499000704710B59E480068012814D199480068F6
:1049A00000280FDD4FF47A70FCF722FD974801686C
:1049B0000020FEF70AFE4FF47A70FCF719FD002084
:1049C0009049086010BD9348006830B94F208F4966
:1049D00008600A208F49086064E08E48006801285A
:1049E00007D189480068894908600B208949086017
:1049F00058E0884800680A2813D14FF47A70FCF711
:104A0000F7FC824801680020FEF7DFFD4FF47A7062
:104A1000FCF7EEFC00207B49086014207D4908600B
:104A200040E07C4800680B2810D14FF47A70FCF706
:104A3000DFFC764801680020FEF7C7FD4FF47A706E
:104A4000FCF7D6FC1520734908602BE0714800681C
:104A5000142809D100206B490860FCF76FFC08BBE3
:104A600001206C4908601DE06A480068152819D1CA
:104A70006448006800280FDD4FF47A70FCF7B8FC3A
:104A8000624801680020FEF7A0FD4FF47A70FCF741
:104A9000AFFC00205B490860FCF750FC10B100201F
:104AA0005C49086000BF8DE7002803DD0121584AFA
:104AB000116002E00021564A1160704756480068B4
:104AC000401C5549086055480068012801D15449E7
:104AD0000860002070470146642901DC3C2902DAA5
:104AE0004FF0FF3070475F2901DD5F2102E0492967
:104AF00000DA4921A1F14B004A4A106004204A4AD9
:104B000010600020EEE710B54848007801280BD06F
:104B100046480078022807D044480078062803D089
:104B200042480078052807D141490968414A12687E
:104B30008818FFF7DBF948E03C480078032807D1E4
:104B40003D4909683B4A12688818FFF7CFF93CE0F5
:104B500036480078082807D138490968354A12686C
:104B60008818FFF7C3F930E030480078092807D1EA
:104B7000334909682F4A12688818FFF7B7F924E00B
:104B80002A480078042807D12E490968294A126862
:104B90008818FFF7ABF918E024480078072807D1F8
:104BA00029490968234A12688818FFF79FF90CE021
:104BB0001E4800780A2804D11E480068FFF796F9BD
:104BC00003E01C480068FFF791F910BD0C7D002040
:104BD000500400205804002054040020E403002066
:104BE000E0030020CC030020D0030020C8030020F5
:104BF000EC030020E8030020D8030020DC030020A1
:104C0000D403002030040020F00300202C040020F6
:104C10003804002034040020080400201004002080
:104C20000C040020480400204404002064040020F8
:104C30007404002070040020780400206804002020
:104C40006C040020800400207C04002010B5FA4889
:104C50000078FA498870FA480078C870F9480088E6
:104C60000880F948FCF703FEF4494860FF20F74943
:104C70008870C8704FF6FF700880F548FCF7F7FDA4
:104C8000F2494860002010BD70B505462C462078DA
:104C90007E2802D04FF0FF3070BDE078E6490978F9
:104CA000884205D0E078FF2802D04FF0FF30F3E7CC
:104CB0002079E3490978884205D02079FF2802D07D
:104CC0004FF0FF30E8E7E048FCF7D1FDD4F80510DD
:104CD00088420FD0D4F80500401C58B1DA48FCF7E0
:104CE000C6FD40F0FF01D4F80500814202D04FF02C
:104CF000FF30D1E70020CFE701460A46D07A70475F
:104D000001460A465078704701460A46107B7047B4
:104D100001460A46B2F81100704701460A46B2F849
:104D20001300704701460A4602F1150070472DE94D
:104D3000F04706468A4617461D46B14609F1150852
:104D400044460B2F7ED1C3480078032803D0C148C6
:104D5000007801281ED1681E611D085C282819DC16
:104D6000BD480068052806D16420FFF7BFF864201D
:104D7000BA4908600EE0681E611D085CB749096801
:104D8000884207D0681E611D085CB4490860012094
:104D9000B3490870E07828280ADCE078B14909684E
:104DA000884205D0E078AF4908600120AC4908701E
:104DB000207928280ADC2079AB490968884205D087
:104DC0002079A94908600120A5490870E07D2828BC
:104DD0000ADCE07DA5490968884205D0E07DA34949
:104DE000086001209E490870207E28280ADC207E69
:104DF0009F490968884205D0207E9D4908600120AE
:104E000097490870607E28280ADC607E9949096805
:104E1000884205D0607E974908600120904908705B
:104E2000A07E28280ADCA07E93490968884205D024
:104E3000A07E9149086001208949087020782828BF
:104E40000CDC00E00EE020788C490968884205D02F
:104E500020788A4908600120814908707F480078DD
:104E6000BDE8F087FF20FBE717B585B00446724820
:104E700000787249887072480078C870714800885C
:104E800008807148FCF7F3FC6C4948607E208DF87F
:104E900000000698CDF801000798CDF805000846F7
:104EA0000168CDF809104068CDF80D00112269465F
:104EB00020460BF0A9FA08B010BD2DE9F04F87B0DD
:104EC00005460F4690469946DDE910AB2E465F48F1
:104ED0000168009140680246019002A8FFF7C4FFF4
:104EE000112202A930460BF08FFA0120A6F811001A
:104EF0000820A6F8130006F1150484F8008084F851
:104F0000019084F802A05E480078E07084F804B054
:104F10005C48007860715C480078A0715B4800785C
:104F2000E071B6F8130015303860002007B0BDE816
:104F3000F08F30B503460C4619460420A1F8130043
:104F400001F115052A60B1F813001530206000202A
:104F500030BD30B503460C4619460120A1F81300B8
:104F600001F115052A70B1F81300153020600020FA
:104F700030BD2DE9F04188B004460E46174625465F
:104F800032480168019140680246029003A8FFF789
:104F90006BFF112203A928460BF036FA0320A5F86F
:104FA00011000420A5F8130005F11508C8F80070D9
:104FB000B5F8130015303060002008B0BDE8F0816E
:104FC00030B503460C4619460220A1F8130001F142
:104FD00015056A70B1F8130015302060002030BD4F
:104FE0002DE9F04387B004460E46174698462546FD
:104FF00016480168009140680246019002A8FFF738
:1050000033FF112202A928460BF0FEF90620A5F86D
:1050100011004FF48060A5F8130005F11509424610
:10502000394648460BF0F0F9B5F8130015303060FA
:10503000002007B0BDE8F08398020020940400200F
:10504000990200209A020020DE0200209C04002029
:105050000C030020BD020020C802002070040020C4
:1050600088040020680400206C04002074040020E0
:10507000780400207C0400208004002084040020A8
:10508000A0060020BA020020BB020020BC020020C3
:105090002DE9F04387B004460E461746984625464C
:1050A0008E480168009140680246019002A8FFF70F
:1050B000DBFE112202A928460BF0A6F90520A5F86F
:1050C00011004FF48060A5F8130005F11509424660
:1050D000394648460BF098F9B5F8130015303060A2
:1050E000002007B0BDE8F0832DE9F04387B0044607
:1050F0000E46174698462546784801680091406854
:105100000246019002A8FFF7AFFE112202A928462D
:105110000BF07AF942F20130A5F811004FF48060EB
:10512000A5F8130005F115094246394648460BF02B
:105130006BF9B5F8130015303060002007B0BDE8FA
:10514000F0832DE9F04387B004460E461746984693
:10515000254662480168009140680246019002A815
:10516000FFF782FE112202A928460BF04DF942F208
:105170000230A5F811004FF48060A5F8130005F186
:1051800015094246394648460BF03EF9B5F813007A
:1051900015303060002007B0BDE8F0832DE9F04104
:1051A00088B004460E46174625464C4801680191D2
:1051B00040680246029003A8FFF756FE112203A999
:1051C00028460BF021F942F21230A5F81100022016
:1051D000A5F8130005F115084148007888F800008B
:1051E00088F80170B5F8130015303060002008B061
:1051F000BDE8F0812DE9F04188B0054688462F468C
:1052000036480168019140680246029003A8FFF702
:105210002BFE112203A938460BF0F6F842F21330A8
:1052200027F8110F252078807888113F1530C8F8AD
:10523000000007F115042A480078207001206070F2
:1052400028480078A07028480078E0702748007847
:105250002071002611E0264850F83600642190FBAA
:10526000F1F0C1B2601D00F81610214800EBC60035
:105270000179A01D00F81610761C102EEBDB002023
:1052800008B0BDE8F0812DE9F04788B004460E462D
:1052900017469846DDF84090254610480168019170
:1052A00040680246029003A8FFF7DEFD112203A921
:1052B00028460BF0A9F8A5F81170A5F8139005F190
:1052C000150A4A46414650460BF09EF8B5F81300C1
:1052D00015303060002008B0BDE8F0879C04002045
:1052E00099020020EC040020F0040020F4040020C7
:1052F000B08D002010B50C2005F0BEFD04461CB199
:10530000002020606060A060204610BD70B504469B
:105310000E46254615B1284605F0FCFC70BD70B55B
:1053200005460C460021284607F0EAF800212846E9
:1053300007F0EBF80021284607F0E4F800212846A2
:1053400007F0E6F8204605F0E5FC284606F0FCFCF0
:1053500070BD2DE9F04106460C46B6F86E00616856
:10536000884202D2B6F86E5001E0A08885B20023D0
:105370002A463046216808F081FC07462FB920688C
:10538000284420606068401B6060BDE8F0812DE922
:10539000F04104460E461746254615B90020BDE8E3
:1053A000F0810020287229463046FFF7D2FF002006
:1053B000F5E770B504460D461CB9284606F0C4FC56
:1053C00003E021462846FFF7C4FF002070BD70B5FA
:1053D00005460C461646F949F9480BF03FFBF848DC
:1053E00020600BF035F8606021462846FFF7B1FFDA
:1053F00070BD2DE9F05F81460C4616469A46DDF8F1
:1054000028B0002548460BF023F80746A84633E0AD
:10541000207899F8001088422CD13A462146484617
:105420000BF02BF830BB3C443D4420783D2821D183
:10543000641C6D1C0BE020783070761C641C6D1CA5
:1054400008F1010808F10100584500DB0AE0207866
:10545000262807D0207828B120780A2802D0207882
:105460000D28E8D100BF00203070CAF8008028461F
:10547000BDE8F09F6D1C641C207828B120780A28B4
:1054800002D020780D28C3D14FF0FF30F0E770B57F
:1054900005460C461646CB49C9480BF0DFFAC8480A
:1054A00020600AF0D5FF606021462846FFF751FFD3
:1054B00070BD70B5ACB004460E4615460020019094
:1054C00080200BAB0CAA29460090BFA0FFF791FFEC
:1054D000002806DC2A4631462046FFF7D8FF2CB0CC
:1054E00070BD60680A90202001AB02AA2946009096
:1054F000B8A0FFF77EFF0322B8A102A80AF0BDFF03
:1055000020B90CA9DDE90A02FCF7D9FC2A4631468C
:105510002046FFF75CFF0CA90A9801F037FE00BF98
:10552000DDE770B505460C461646AD49A4480BF0BC
:1055300095FAA34820600AF08BFF60602146284658
:10554000FFF707FF70BDFEB505460C461646A54899
:105550000078A5490978A54A1278CDE90021029082
:10556000A3480378A3480278A34995480BF076FA3C
:10557000934820600AF06CFF606021462846FFF7E0
:10558000E8FEFEBD70B505460C4616469B498C48A4
:105590000BF064FA8A4820600AF05AFF60602146E6
:1055A0002846FFF7D6FE70BD70B505460C46164678
:1055B000934983480BF052FA814820600AF048FF73
:1055C000606021462846FFF7C4FE70BD70B50546F1
:1055D0000C4616468B497A480BF040FA7848206012
:1055E0000AF036FF606021462846FFF7B2FE70BD24
:1055F00070B505460C461646834971480BF02EFAE5
:105600006F4820600AF024FF606021462846FFF7BB
:10561000A0FE70BD70B594B005460E46144620201D
:1056200003AB0CAA2146009078A0FFF7E2FE002809
:105630001FDD202002AB04AA2146009076A0FFF7D0
:10564000D8FE042277A10CA80AF017FF58B9062249
:1056500076A104A80AF011FF28B92246314628464F
:10566000FFF7C6FF0AE0224631462846FFF7AEFFA5
:1056700004E0224631462846FFF7A8FF14B070BD6B
:105680002DE9F043A1B006460F4614469846B146B0
:10569000B8F1000F00D17CB934B12189384606F049
:1056A00000FC204605F0CCFD49463846FFF737FEA2
:1056B000002021B0BDE8F0832189384606F0F1FBD7
:1056C000258900BF802201A861680AF09DFE20465E
:1056D00005F0B6FD002D02DC4FF0FF30E9E729466A
:1056E00001A800F045FF53480068524908600622AF
:1056F00051A101A80AF0CEFE28B901AA49463846B0
:10570000FFF752FF46E012224DA101A80AF0C2FEA7
:1057100028B901AA49463846FFF77CFF3AE014222F
:105720004CA101A80AF0B6FE28B901AA494638469C
:10573000FFF73AFF2EE014224CA101A80AF0AAFEBE
:1057400028B901AA49463846FFF71CFF22E00F227C
:105750004CA101A80AF09EFE28B901AA4946384684
:10576000FFF7F1FE16E00F224AA101A80AF092FE0F
:1057700028B901AA49463846FFF7D3FE0AE00F22AE
:1057800048A101A80AF086FE20B901AA4946384678
:10579000FFF78FFE49463846FFF7C1FD002088E736
:1057A0002DE9F04106460D461746FFF7A3FD0446D6
:1057B0001CB94FF0FF30BDE8F0817BE022420108C8
:1057C000988500208741010866696C656E616D658A
:1057D00000000000616C6C5F646576006F6E000015
:1057E000A23E0108BC020020BB020020BA02002039
:1057F000B902002099020020123D01081D3C010859
:1058000066370108E5390108783B01087573657250
:105810006E616D650000000070617373776F726474
:1058200000000000726F6F7400000000626569681C
:105830006169000094020020474554202F20000099
:10584000474554202F6C6F67696E5F7375626D6991
:10585000743F0000474554202F6C6F675F6572727C
:105860005F7375626D69743F000000004745542006
:105870002F6672616D655F696E6465782E68746D00
:1058800000000000474554202F6672616D65312E7F
:1058900068746D00474554202F6672616D65322E25
:1058A00068746D00474554202F7570646174655F9E
:1058B00066773F000020206060602146284606F0A1
:1058C0001FFE2C49284606F01DFE2B49284606F0EF
:1058D0001FFE0A222949284606F01FFE28492846AD
:1058E00006F013FE0020BDE8F08170B506F003FE5F
:1058F000054650222349284606F0D3FB044600BF44
:10590000FF21284606F043FC05462946284606F0B6
:10591000F7FD1D49284606F0FEFD70BDF8B50546A9
:105920000C46164619480078009019480378194823
:105930000278194919480BF091F8184820600AF0CC
:1059400087FD606021462846FFF703FDF8BD70B56E
:1059500005460C461646124910480BF07FF80F48D2
:1059600020600AF075FD606021462846FFF7F1FCD3
:1059700070BD0000815600080D530008B3530008A5
:105980008F53000854430108A1570008BA020020B1
:10599000B9020020990200203639010898850020BC
:1059A0001F3E010810B502F0F3FCF32002F009FFDE
:1059B0000221282002F038FD082805D003E03D48E8
:1059C00000683C490860FAE710BD10B502F0E0FC41
:1059D00010BD10B502F0E9FC10BD2DE9F041044600
:1059E0000E46174600250FE056F82510324AA0183B
:1059F00002F0C3FD082805D003E02E4800682D49B9
:105A00000860FAE7241D6D1CBD42EDDBBDE8F081A6
:105A10002DE9F04105460E46174602F0B9FCF32089
:105A200002F0CFFE0221282002F0FEFC082805D05B
:105A300003E0204800681F490860FAE700240EE0F0
:105A4000315D1D4A2A44101902F0E9FD082805D0ED
:105A500003E01848006817490860FAE7641CBC4274
:105A6000EEDB02F0A2FCBDE8F08110B50346002099
:105A700004E0114C1C44245C0C54401C9042F8DBA4
:105A800010BD01460868704710B50446FAF794FC4B
:105A9000FBF7ACFCFBF777FC4FF47A70FBF7A8FC44
:105AA000FBF771FC4FF47A70FBF7A2FC20460AF07A
:105AB000CFFF10BDA40400200000020810B5FDF7C0
:105AC0000FF910BD012039490860704710B53748FB
:105AD0000068012856D136480068002852D1334961
