:020000040806EC
:10000000686F012049350608313406083334060884
:10001000373406083B3406083F3406080000000069
:100020000000000000000000000000005B35060832
:1000300043340608000000005F3506084534060812
:100040006335060863350608633506086335060818
:100050006335060863350608633506086335060808
:1000600063350608633506086335060863350608F8
:10007000633506084D34060863350608553406080E
:1000800063350608633506086335060863350608D8
:1000900063350608633506086335060863350608C8
:1000A00063350608633506086335060863350608B8
:1000B00063350608633506086335060863350608A8
:1000C0006335060863350608633506086335060898
:1000D0006335060863350608633506086335060888
:1000E0006335060863350608633506086335060878
:1000F0006335060863350608633506086335060868
:100100006335060863350608633506086335060857
:100110006335060863350608633506086335060847
:100120006335060863350608633506086335060837
:100130006335060863350608633506086335060827
:100140006335060863350608633506086335060817
:100150006335060863350608633506086335060807
:1001600063350608633506086335060863350608F7
:1001700063350608633506086335060863350608E7
:100180006335060800F002F800F064F80AA090E871
:10019000000C82448344AAF10107DA4501D100F042
:1001A00059F8AFF2090EBAE80F0013F0010F18BFAB
:1001B000FB1A43F001031847B8E00000D8E0000044
:1001C0000A444FF0000C10F8013B13F0070408BF7D
:1001D00010F8014B1D1108BF10F8015B641E05D01B
:1001E00010F8016B641E01F8016BF9D113F0080FD0
:1001F0001EBF10F8014BAD1C0C1B09D16D1E58BF62
:1002000001F801CBFAD505E014F8016B01F8016B98
:100210006D1EF9D59142D6D370470000002300240B
:1002200000250026103A28BF78C1FBD8520728BF06
:1002300030C148BF0B60704764290DF00B827329F1
:100240000DF07184002070471FB50DF0AAFC1FBD92
:1002500010B510BD0DF06BFC1146FFF7F5FF00F077
:1002600019F80DF089FC03B4FFF7F2FF03BC0DF0A1
:1002700091FC0000EFF30980704780F30988704714
:10028000EFF30880704780F30888704740BA7047E2
:10029000C0BA70474FF000005549086055490860E2
:1002A000554908600DF04FF94FF47A7002F0F0F9FB
:1002B00000F036FC4FF47A7002F0EAF900F042FCEC
:1002C00003F01EF800F0E9F800F0E7F800F0C6FDD2
:1002D00000F0DEFD00F0E1F800F0DFF800F094FA45
:1002E00002F014FF02F09AFB4FF47A7002F0D0F99A
:1002F00000F0D3F800F0D1F802F08CFF4FF47A70E0
:1003000002F0C6F900F0C9F800F0C7F80CF0F8FBED
:100310006CE000F08FFA02F07DF84FF47A71354806
:1003200000F0F7F808B100F0B8F841F2883132482F
:1003300000F0EFF820B101200BF0E6FD00F07AFDAF
:1003400044F620612A4800F0E4F808B100F045FEC8
:100350000CF025FE29480068642805DB4FF00000FA
:100360002649086003F035F825480068C82805DBF1
:100370004FF002002249086003F02CF82148006881
:10038000B0F5FA7F05DB4FF000001E49086003F06E
:1003900022F81D480068B0F57A7F05DB4FF00000B9
:1003A0001949086003F01DF81848006841F28831C7
:1003B000884203DB4FF000001449086014480068CD
:1003C00042F21071884205DB4FF0000010490860CE
:1003D00003F015F80F48006844F62061884205DBF9
:1003E0004FF000000B49086003F00DF891E70000A2
:1003F0000C0000200800002004000020280200203B
:100400002C0200203002002034020020380200209C
:100410003C0200204002002006E04FF0000200F8FD
:10042000012BA1F1010291B20029F6DC704704E032
:1004300000F8011BA2F101039AB2002AF8DC704710
:1004400006E011F8013B00F8013BA2F101039AB26A
:10045000002AF6DC704700001CB54FF001008DF853
:1004600004004FF000008DF806004FF003008DF8F7
:1004700005004FF000008DF807004FF004000090D9
:10048000694634480AF0E0FB042132480AF075FC62
:10049000042130480AF073FC1CBD10B504212D481E
:1004A0000AF05BFCC0F10100C4B2224604212948D5
:1004B0000AF067FC10BD2848007860B14FF00000DA
:1004C000264908604FF00100254908804FF00000E0
:1004D0002149087006E0214800682149098808443C
:1004E0001E4908601F48007800F101001D4908708E
:1004F000084600781C490978884209DB4FF0000063
:10050000184908701948007800F10100174908706F
:1005100070470246E1B1114B10681B6898420CD934
:100520001068C0F1FF300D4B1B68184488420FD390
:100530000A480068106001207047084B10681B686B
:10054000181A884204D30548006810600120F3E7B8
:100550000020F1E700100240200000201C000020D5
:10056000180000202100002032030020020000209B
:1005700010B50446012C01DB112C00DD10BD601EFE
:10058000994901EB40004078C0F3001020B1802170
:1005900096480AF0F2FB03E0802194480AF0EFFB52
:1005A000601E914901EB40004078C0F3C00028B1C3
:1005B0004FF480718D480AF0E0FB04E04FF4807145
:1005C0008A480AF0DCFB601E874901EB4000407856
:1005D000C0F3800028B14FF4007184480AF0CDFBCD
:1005E00004E04FF4007181480AF0C9FB601E7E49A7
:1005F00001EB40004078C0F3000028B14FF4806167
:100600007A480AF0BAFB04E04FF4806177480AF0B8
:10061000B6FB601E744901EB40004078C0F3400017
:1006200028B14FF4006172480AF0A9FB04E04FF4CE
:1006300000616F480AF0A1FB00BF9FE710B54FF4BF
:1006400080616B480AF09BFB4FF4004167480AF059
:1006500096FB10BD1CB54FF001008DF804004FF063
:1006600000008DF806004FF003008DF805004FF0F4
:1006700000008DF807004FF68070009069465B48D7
:100680000AF0E2FA4FF440600090694658480AF0D8
:10069000DBFAFFF7D3FF0CF0CAF94FF400615448BE
:1006A0000AF06DFB1CBD2DE9F0414FF00006374606
:1006B00050490978A1F101004FEAE07100EB517156
:1006C0004FEAE101A0EBC101C1F107024FF00101C6
:1006D00001FA02F1CEB247490978A1F101004FEACF
:1006E000E07100EB5171C1F3C7074FF0000445E022
:1006F00020464FEAE47204EB52724FEAE2024FEAFC
:10070000C20202F1070221464FEAE47304EB53737D
:100710004FEAE303A4EBC303A2EB0302D5B23648CE
:1007200000EB4500C05D304205D04FF480412F48BA
:100730000AF023FB04E04FF480412C480AF01FFB31
:100740002E4800EB4500C05D304205D04FF480518B
:1007500026480AF012FB04E04FF4805123480AF0C7
:100760000EFB4FF4806122480AF007FB4FF48061D2
:100770001F480AF004FB04F10100C4B2902CB7DB5F
:100780004FF400611A480AF0FAFA1D48008801F097
:100790007FFF4FF4004115480AF0EFFA4FF4004193
:1007A00012480AF0ECFA13480078FFF7E1FE11480E
:1007B000007800F101000F49087008460078102801
:1007C00002DD4FF0010008700A490878C11700EBFC
:1007D00011710911A0EB0111012902D10846094943
:1007E0000870BDE8F0810000B0DB06080010024090
:1007F0000004024028000020200500200004002002
:10080000340300200100002010B54FF001002949F9
:1008100008604FF00A002849087002F038FE2749A6
:1008200008704FF001002649088010BD10B500F097
:10083000BFFB10BD704710B51E48006800F10100F5
:100840001C49086008460068142809D14FF00000D0
:1008500008604FF001001B490860FFF7E7FF08E060
:1008600014480068B0F57A7F03DD4FF47A701149BF
:10087000086010BD704710B50446402C02DD4FF0F3
:10088000FF3010BD0D490C7002F044FC00F059FB24
:100890000020F6E710B50446B4F5803F02DD4FF0C6
:1008A000FF3010BD06490C8002F034FC00F039FB2B
:1008B0000020F6E7300000202C0000202D00002052
:1008C0002E0000203400002010B504467E4804604D
:1008D0000068002804DA4FF000007B49086007E058
:1008E00079480068282803DD4FF028007649086021
:1008F00075480068C0B201F094FB02F00BFC0020C8
:1009000010BD10B54FF0000407E04FF000006F4934
:1009100008556F49085504F10104012CF5DB6B48BB
:100920006C4908606A486C4908604FF000006B49E8
:1009300008606B4908606B4908606B4908606B4848
:100940006B4908604FF000006A4908604FF00200F0
:100950006949086069486A4908604FF000006949C0
:1009600008604FF00200684908604FF000006749D6
:1009700008604FF00100664908604FF000006549CB
:1009800008604FF00A005049086001F044FB4FF442
:100990007A7001F07DFE01F0A7F801F0C9F84FF47C
:1009A0007A7001F075FE01F0A9F901F0CBF94FF46E
:1009B0007A7001F06DFE42F2107001F069FE42F2B1
:1009C000107001F065FE02F025FC42F2107001F09B
:1009D0005FFE42F2107001F05BFE3B480068FFF7DB
:1009E00073FF10BD4C480068002809DD4FF000007F
:1009F000494908604948006800F10100474908601A
:100A000046480068032809DD44480068092805DADB
:100A1000304800684FF00001017007E03F4800686F
:100A2000802803DD4FF080003C490860704739485A
:100A30000068A0F1010037490860084600680028F6
:100A400002DA4FF000000860704710B504462448F1
:100A50000068204909680844217801704FF00101BD
:100A60001F48006801F078FE1D4908604FF0000043
:100A70002A49086010BD10B504461B480068164995
:100A800009680844217801704FF001011648006898
:100A900001F062FE14490860002010BD10B51C482A
:100AA000006801280FD11948006801280BD14FF0C8
:100AB0000000164908604FF480610F48006801F09B
:100AC0004BFE0C49086010BD880000203800002053
:100AD0004C0000203C00002050000020440000207A
:100AE0004000002058000020540000206007002033
:100AF00060000020680000206400002060170020D3
:100B00006C0000207400002070000020780000209D
:100B10007C00002080000020AC0100204800002064
:100B200010B501217F200AF04DFD012188030AF054
:100B300085FD012108460AF081FD012188050AF0A2
:100B40006EFD10BD1CB54FF0040000904FF0010089
:100B50008DF804004FF000008DF806004FF0030000
:100B60008DF805004FF000008DF807006946E24857
:100B70000AF06AF84FF0080000904FF001008DF87D
:100B800004004FF000008DF806004FF003008DF8D0
:100B900005004FF000008DF807006946D6480AF0BE
:100BA00053F804220121D4480AF0F7F80422002166
:100BB000D1480AF0F2F84FF0020000908DF80400DE
:100BC0008DF805004FF001008DF806004FF0000091
:100BD0008DF807006946C8480AF036F84FF0010062
:100BE00000906946C4480AF02FF84FF40070009056
:100BF0004FF002008DF804008DF805004FF0000062
:100C00008DF806008DF807006946BC480AF01CF80C
:100C100005220921B9480AF0C0F84FF040000090C1
:100C20004FF002008DF804008DF805004FF0000031
:100C30008DF806008DF807006946B0480AF004F800
:100C400005220621AD480AF0A8F84FF48050009024
:100C50004FF002008DF804008DF805004FF0000001
:100C60008DF806008DF807006946A54809F0ECFFED
:100C700005220C21A2480AF090F84FF40050009091
:100C80004FF002008DF804008DF805004FF00000D1
:100C90008DF806008DF807006946994809F0D4FFE1
:100CA00005220D2196480AF078F84FF40040009094
:100CB0004FF002008DF804008DF805004FF00000A1
:100CC0008DF806008DF8070069468D4809F0BCFFD5
:100CD00005220F218A480AF060F84FF0800000904A
:100CE0004FF002008DF804008DF805004FF0000071
:100CF0008DF806008DF807006946804809F0A4FFCA
:100D0000062207217D480AF048F84FF010000090B5
:100D10004FF002008DF804008DF805004FF0000040
:100D20008DF806008DF807006946764809F08CFFBB
:100D30000622042173480AF030F84FF480600090D6
:100D40004FF002008DF804008DF805004FF0000010
:100D50008DF806008DF807006946684809F074FFB1
:100D600006220A2165480AF018F84FF480500090D6
:100D70004FF002008DF804008DF805004FF00000E0
:100D80008DF806008DF8070069465C4809F05CFFA5
:100D900006220C2159480AF000F84FF40050009048
:100DA0004FF001008DF804004FF000008DF80600B0
:100DB0004FF003008DF805004FF000008DF807009C
:100DC0006946514809F040FF4FF4804000904FF0D1
:100DD00001008DF804004FF000008DF806004FF080
:100DE00003008DF805004FF000008DF807006946FC
:100DF000454809F029FF4FF0100000904FF0010026
:100E00008DF804004FF000008DF806004FF003004D
:100E10008DF805004FF000008DF8070069463A484C
:100E200009F012FFFFF718FB02F018FBFFF712FCA6
:100E30001CBD704710B504212F4809F08EFFC0F18A
:100E40000100C4B2224604212B4809F09AFF10BDCC
:100E500010B50421284809F092FF10BD10B50421F7
:100E6000254809F08AFF10BD10B50821224809F075
:100E700074FFC0F10100C4B2224608211E4809F0E7
:100E800080FF10BD10B508211B4809F078FF10BD88
:100E900010B50821184809F070FF10BD10B50446C0
:100EA000002C05DD4FF40051174809F066FF04E0FF
:100EB0004FF40051144809F062FF10BD10B504460C
:100EC000002C05DD4FF480410F4809F056FF04E087
:100ED0004FF480410C4809F052FF10BD10B5044694
:100EE000002C04DD1021084809F047FF03E0102121
:100EF000054809F044FF10BD0014024000080240FC
:100F000000040240000002400010024070B5044698
:100F100020460CF007FC05462946204601F0D7FA8A
:100F200070BD10B54FF48071A8480CF0E4FCA848DF
:100F30000288A8A1A5480CF01BFBA448FFF7E6FF18
:100F400010BD10B54FF48071A0480CF0D4FCA5483A
:100F50000278A5A19D480CF00BFB9C48FFF7D6FF3B
:100F600010BD10B54FF4807198480CF0C4FCA34834
:100F70000278A3A195480CF0FBFA9448FFF7C6FF4E
:100F800010BD1CB54FF4807190480CF0B4FCA14822
:100F9000C078A0498978CDE900109E48437802784E
:100FA0009DA18A480CF0E4FA8848FFF7AFFF1CBD0A
:100FB00000B59BB04FF06C029E4968460CF061FC96
:100FC0006846FFF7A3FFFFF7DCFFFFF7CAFFFFF755
:100FD000B8FFFFF7A6FF1BB000BD00B59BB04FF0F8
:100FE0006C02944968460CF04CFC6846FFF78EFF93
:100FF000FFF7C7FFFFF7B5FFFFF7A3FFFFF791FF6D
:101000001BB000BD00B5A7B04FF06C02894901F1DB
:101010006C010CA80CF035FC4FF02C0286A101A845
:101020000CF02FFC0CA8FFF771FFFFF7AAFFFFF7EA
:1010300098FFFFF786FFFFF774FF01A8FFF766FF31
:1010400027B000BDF0B5C3B004460D464FF4807123
:1010500003A80CF072FC1020034603AA2946009056
:10106000204601F080FB7FA103A80CF08DFC002836
:1010700034D17DA107A80CF087FC70BB0BA801F050
:10108000F7FBC0B28DF808000FA801F0F1FBC0B269
:101090008DF8090013A801F0EBFBC0B28DF80A002F
:1010A00017A801F0E5FBC0B28DF80B004FF480717A
:1010B00046480CF020FC6EA144480CF059FA434815
:1010C000FFF724FF9DF80B309DF80A209DF80910CA
:1010D0009DF8080001F046FD76E0FFE769A103A84E
:1010E0000CF052FC38B960A107A80CF04DFC10B907
:1010F000FFF747FF68E063A103A80CF045FC38B98F
:1011000062A107A80CF040FC10B9FFF72AFF5BE0D2
:1011100054A103A80CF038FC60B95EA107A80CF03C
:1011200033FC38B90BA801F0A3FB06463046FFF7A5
:10113000A2FB49E053A103A80CF026FC38B955A145
:1011400007A80CF021FC10B9FFF7FBFE3CE045A11D
:1011500003A80CF019FC60B950A107A80CF014FC0E
:1011600038B90BA801F084FB06463046FFF792FB26
:101170002AE044A103A80CF007FC38B947A107A84E
:101180000CF002FC10B9FFF7CCFE1DE035A103A85E
:101190000CF0FAFB60B943A107A80CF0F5FB38B9D5
:1011A0000BA801F065FB06463046FFF78DFB0BE010
:1011B0004FF4807105480CF09EFB3CA103480CF0F5
:1011C000D7F90248FFF7A2FE43B0F0BD6027002028
:1011D0002E000020547261696E2049643A20256413
:1011E00020200A002D0000204465766963652049AF
:1011F000643A20256420200A000000002C00002012
:1012000044657669636520547970653A20256420C9
:10121000200A0000E60100204C6F63616C204950F9
:101220003A2025642E25642E25642E256420200A6C
:1012300000000000D4DB0608706C656173652064F3
:101240006F776E6C6F6164206170706C696361743C
:10125000696F6E2070726F6772616D65206E6F7757
:1012600021210A00736574006C6F63616C69700002
:101270004F6B2C20706C6561736520776169742EEB
:101280002E2E0A00726561640000000064657674A9
:101290007970650064657669640000007472616944
:1012A0006E696400766F6C756D650000496E7661DD
:1012B0006C696420436F6D6D616E6420210A0000CB
:1012C00000B5AFB001214FF060600AF07BF902F089
:1012D00050FA02F07FFF00BF02F083FF0128FBD02D
:1012E000684602F051FA4FF0010000904FF0000004
:1012F00007904FF400700A904FF000000B900E9092
:10130000119013901490159020904FF00070219040
:101310004FF4001023904FF00000259026904FF0DE
:10132000040028904FF0007029904FF480302A90EC
:101330004FF480002B904FF400502C904FF48040DD
:101340002E904FF00101684602F087FA3649086096
:101350002FB000BD1CB5012167200AF033F901212F
:1013600088030AF06BF94FF4807000904FF003008F
:101370008DF805004FF002008DF804004FF00000DA
:101380008DF806008DF807006946284809F05CFCD6
:1013900001200AF097FC4FF0860000906946234830
:1013A00009F052FC0B220121204809F0F6FC0B2227
:1013B00002211E4809F0F1FC0B2207211B4809F00D
:1013C000ECFC4FF0320000906946194809F03CFCF3
:1013D0000B220121164809F0E0FC0B2204211448DD
:1013E00009F0DBFC0B220521114809F0D6FC4FF473
:1013F000D040009069460F4809F026FC0B221146A8
:101400000C4809F0CAFC0B220D210A4809F0C5FC62
:101410000B220E21074809F0C0FC1CBD10B5FFF7D8
:1014200099FFFFF74DFF10BDA4000020000002400F
:10143000000802400018024010B50C2003F005FA25
:10144000044624B14FF0000020606060A060204698
:1014500010BD10B50446204603F03DF910BD70B52F
:1014600004460E46254615B1284603F034F970BDF2
:1014700070B505460C464FF00001284604F0B0FD5B
:101480000021284604F0B1FD0021284604F0AAFD01
:101490000021284604F0ACFD204603F01CF9284644
:1014A00004F09EF970BD2DE9F04106460C46B6F8F1
:1014B0006E006168884202D2B6F86E5001E0606842
:1014C00085B200232A463046216806F0A5F9074672
:1014D00037B92068284420606068A0EB0500606090
:1014E000BDE8F0812DE9F04104460E461746254639
:1014F00015B90020BDE8F0814FF0000028722946A0
:101500003046FFF7D0FF0020F4E770B504460D46E3
:101510001CB9284604F064F903E021462846FFF789
:10152000C2FF002070BD2DE9F043A1B006460F4672
:10153000144698463546B8F1000F00D17CB934B155
:101540002189384604F005FA204603F077FB294646
:101550003846FFF78DFF002021B0BDE8F0832189D8
:10156000384604F0F6F9B4F8089000BF802201A8CC
:1015700061680CF041F94C4800684B49086005224D
:101580004AA101A80CF0EDF8002844D1112249A18C
:1015900001A80CF0E6F800283DD008224AA101A8D5
:1015A0000CF0DFF860B94B4828600CF0BBF86860BD
:1015B000204603F043FB29463846FFF774FF2AE034
:1015C000082245A101A80CF0CCF870B94548286064
:1015D0000CF0A8F86860204603F030FB2946384636
:1015E000FFF761FF0BF071FF15E04FF480613E489B
:1015F0000CF081F93DA23E493B480BF0B9FF3A4857
:1016000028600CF08FF86860204603F017FB29462D
:101610003846FFF748FF29463846FFF729FF0020E4
:101620009AE72DE9F04106460D461746FFF704FFFD
:1016300004461CB94FF0FF30BDE8F0814FF00000C8
:10164000206060602146284604F0CAFC29492846EB
:1016500004F0C8FC2849284604F0CAFC0A2227499D
:10166000284604F0CAFC2649284604F0BEFC0020A7
:10167000E2E770B504F0AFFC05464FF05002214997
:10168000284604F068FA044600BF4FF0FF012846E0
:1016900004F0D7FA05462946284604F0A1FC1A4969
:1016A000284604F0A8FC70BD1000002047455420D7
:1016B0002F000000474554202F72657365746D63D9
:1016C000752E636769000000474554202F41414152
:1016D00000000000A9000020474554202F4242424C
:1016E00000000000290100206028002061626300E2
:1016F000ACDC0608271506085F1406080B1506085B
:10170000E51406082CDE0608231606081FB54FF060
:101710000000ADF804004BF6FF70ADF806004FF086
:10172000A000ADF808004FF48060ADF80A004FF457
:101730008040ADF80C00E64800904FF00101E5480C
:1017400009F021FC6946E34809F091FB1FBD2DE932
:10175000F04104460D464FEA1427E6B200BF4FF4AD
:101760000031DC4809F05EFD0028F8D10121D9489C
:1017700009F016FC00BFD849D64809F01EFD002824
:10178000F9D00022A021D34809F024FC00BFD3499E
:10179000D04809F012FD0028F9D03946CD4809F0AB
:1017A000A8FC00BFCE49CB4809F03CFD0028F9D089
:1017B0003146C84809F09DFC00BFC949C54809F039
:1017C00031FD0028F9D02946C24809F092FC00BF3B
:1017D000C349C04809F026FD0028F9D000BFBF4921
:1017E000891EBC4809F0E9FC0028F8D00121B9485D
:1017F00009F0E3FBBDE8F0812DE9F04104464FEA32
:101800001426E5B200BF4FF40031B24809F00AFDDA
:101810000028F8D10121AF4809F0C2FB00BFAE4952
:10182000AC4809F0CAFC0028F9D00022A021A94840
:1018300009F0D0FB00BFA949A64809F0BEFC00286A
:10184000F9D03146A34809F054FC00BFA449A1488F
:1018500009F0E8FC0028F9D029469E4809F049FC27
:1018600000BF9F499B4809F0DDFC0028F9D0012109
:10187000984809F095FB00BF9749964809F09DFCF0
:101880000028F9D00122A021924809F0A3FB00BF53
:101890009349891E8F4809F0C5FC0028F8D0002123
:1018A0008C4809F09FFB8F4800884FF00101894860
:1018B00009F083FB00BF8A493C31864809F0B2FC3D
:1018C0000028F8D0834809F016FC074600BF81487D
:1018D000008810F4007FFAD101217E4809F082FBD4
:1018E0003846BDE8F0812DE9F04705460F4616461B
:1018F0004FEA45504FEA10484FEA182A08F0FF090E
:10190000202E01DD4FF0200600BF4FF4003171485A
:1019100009F088FC0028F8D101216E4809F040FB4D
:1019200000BF6D496B4809F048FC0028F9D000223F
:10193000A021684809F04EFB00BF6849654809F0DE
:101940003CFC0028F9D05146624809F0D2FB00BFA8
:101950006349604809F066FC0028F9D049465D48B3
:1019600009F0C7FB00BF5E495A4809F05BFC00283C
:10197000F9D04FF000040CE0395D564809F0B9FB8E
:1019800000BF5749534809F04DFC0028F9D004F135
:101990000104B442F0DB00BF5049891E4D4809F0F4
:1019A0000CFC0028F8D001214A4809F006FBBDE8EC
:1019B000F0872DE9F04705460F4616464FEA455099
:1019C0004FEA10484FEA182A08F0FF09202E01DDDF
:1019D0004FF0200600BF4FF400313E4809F022FCD2
:1019E0000028F8D101213B4809F0DAFA00BF3A4952
:1019F000384809F0E2FB0028F9D00022A021354840
:101A000009F0E8FA00BF3549324809F0D6FB002852
:101A1000F9D051462F4809F06CFB00BF30492D48E2
:101A200009F000FC0028F9D049462A4809F061FB7A
:101A300000BF2B49274809F0F5FB0028F9D04FF0EB
:101A400000043AE00121234809F0AAFA00BF224924
:101A5000204809F0B2FB0028F9D00122A0211D483E
:101A600009F0B8FA00BF1E49891E1A4809F0DAFBCE
:101A70000028F8D00021174809F0B4FA1948008866
:101A80004FF00101134809F098FA00BF14493C31A6
:101A9000104809F0C7FB0028F8D00E4809F02BFBCE
:101AA000385500BF0B48008810F4007FFAD101219F
:101AB000084809F097FA04F10104B442C2DBBDE81A
:101AC000F087704701464FF00000704770470000F4
:101AD000A0860100005800400100030082000700BA
:101AE00004000010185800401FB50121880309F0B8
:101AF00096FDF64809F0C0FE4AF6444002904FF0C9
:101B00000000ADF80200ADF80400ADF80C004FF491
:101B10000070ADF800004FF00000ADF80600694617
:101B2000EA4809F0F7FE0121E84809F0ADFF1FBDC2
:101B300000B591B00121480509F044FD0021E448B9
:101B400008F0A1FCE24808F0BFFB0022E149E048B0
:101B500008F0C0FC0121DE4808F0C8FC4FF000008E
:101B60000290DD480390DD4804904FF0400005905E
:101B70004FF4806006904FF0000007904FF48060B3
:101B800008904FF4006009904FF400500A904FF411
:101B900080700B904FF400300C904FF004000D90CB
:101BA0004FF003000E904FF000000F90109002A92C
:101BB000C74808F01FFC01221021C54808F0F8FCB6
:101BC00001220821C24808F0F3FC4FF00F008DF805
:101BD00004004FF000008DF805008DF806004FF06E
:101BE00001008DF8070001A808F0F0FA0121B848BB
:101BF00008F049FC01220221B44809F0B9FF11B0F4
:101C000000BD70B5B24808F081FC08B9B14D00E0E4
:101C1000B24DB3480068B349096800EB01064FF0C4
:101C20000101AF48006800F097FDAD4908604FF032
:101C3000000406E036F8140005EB8401488004F146
:101C40000104B4F5007FF5DB70BD70B5A04808F065
:101C50005DFC08B99F4D00E0A04DA3480068A34972
:101C6000096800EB01064FF001019F48006800F091
:101C700073FD9D4908604FF0000407E036F814003A
:101C80004FEA440125F8110004F10104B4F5007F86
:101C9000F4DB70BD10B59648006895490860954919
:101CA0008B4808F0A4FC012819D19249884808F013
:101CB000CAFC8F4800688E490860FFF7C6FFFFF72F
:101CC000A0FF4FF001008C4908608C48006800F1CB
:101CD00001008A4908604FF001008949086089497C
:101CE0007B4808F084FC012807D18649784808F031
:101CF000AAFC7F4800687E49086010BD1FB501211D
:101D0000C80309F08CFC804809F0B6FD4AF644404F
:101D100002904FF00000ADF80200ADF80400ADF8FD
:101D20000C004FF48070ADF800004FF00000ADF8EB
:101D300006006946744809F0EDFD0121724809F07A
:101D4000A3FE1FBD00B591B00121480509F03AFC82
:101D500000215F48303808F096FB5D48303808F0C5
:101D6000B3FA002269495A48303808F0B3FB012120
:101D70005748303808F0BAFB4FF000000290644832
:101D80000390644804904FF0000005904FF4806089
:101D900006904FF0000007904FF4806008904FF4D9
:101DA000006009904FF400500A904FF480700B903F
:101DB0004FF400300C904FF004000D904FF00300F2
:101DC0000E904FF000000F90109002A9524808F0BA
:101DD00011FB01221021504808F0EAFB01220821E2
:101DE0004D4808F0E5FB4FF00D008DF804004FF072
:101DF00001008DF805004FF000008DF806004FF04F
:101E000001008DF8070001A808F0E0F9012142481F
:101E100008F039FB012211463B4809F0A9FE11B038
:101E200000BD70B53C4808F071FB08B9374D00E0C3
:101E3000384D3A4800683A49096801EB80264FF06E
:101E400004013648006800F087FC344908604FF010
:101E5000000407E04FEA440035F8100026F81400AB
:101E600004F10104B4F5007FF4DB70BD10B5204827
:101E700000681F4908602B49274808F0B8FB012873
:101E80000DD12849244808F0DEFBFFF7CAFF4FF0C8
:101E90000100254908601648006815490860234973
:101EA0001D4808F0A4FB012807D120491A4808F072
:101EB000CAFB0F4800680E49086010BD4FF00000D3
:101EC00001E000F101000528FBDB7047003800400D
:101ED00070600240603400200C380040602C00200C
:101EE0005800002050000020440000203C0000204A
:101EF0001000002020800020AC0100209C00002069
:101F0000A000002010400020003C00406044002061
:101F10000C3C0040603C0020406002406800002013
:101F20006000002000802010780000200040101089
:101F300070B506460D462846FEF7D0FF0120FEF795
:101F4000BDFF0020FEF7AAFFFFF7B8FF4FF0000427
:101F50001EE046FA04F010F0010F06D10020FEF753
:101F60009DFF0020FEF79AFF05E00020FEF796FF98
:101F70000120FEF793FF0020FEF7A0FFFFF79EFF72
:101F80000120FEF79BFFFFF799FF04F10100C4B2A7
:101F9000082CDEDBFFF792FF0120FEF79FFFFFF723
:101FA0008DFF70BD10B500211620FFF7C1FF012184
:101FB0006020FFF7BDFF01212020FFF7B9FF0121BD
:101FC0008320FFF7B5FF10BD10B500211420FFF7E7
:101FD000AFFF01210F20FFF7ABFF01218120FFF7A9
:101FE000A7FF0121C220FFF7A3FF0121E320FFF794
:101FF0009FFF0121C120FFF79BFF0121FF20FFF779
:1020000097FF0121C020FFF793FF0121F020FFF788
:102010008FFF10BD704710B5FFF7C4FFFFF7D4FF67
:1020200010BD10B504464CB900211420FFF780FF05
:1020300001210020FFF77CFF002010BD3D2C0ADAB3
:1020400000211420FFF774FF0121601CC0B2FFF7CC
:102050006FFF0020F1E7642C09DC00211420FFF75A
:1020600067FF01216F20FFF763FF0020E5E74FF0D6
:10207000FF30E2E770B504460D46102C01DD4FF04D
:102080001004062D01DD4FF00605204604EBD0714B
:102090004FEA6104284605EBD0714FEA610504F070
:1020A0000F004FF0400141EA800005F0030140EAD3
:1020B00001064FF000014FF01400FFF739FF012136
:1020C0003046FFF735FF002070BD10B504464FF0D5
:1020D00000014FF01400FFF72BFF2D2C01DD4FF016
:1020E0002D044FEA44004FF0030190FBF1F0C4B21D
:1020F0004FF001014FF0C000FFF71AFF44F0E0007D
:102100000121FFF715FF002010BD000010B506F0FB
:1021100098F8FE4908604CF69F72FD49FB4800683C
:1021200005F06CFF10BD2DE9F04106460F46144640
:102130009846069D6189606800F02CFE204602F0FA
:102140007DFDBDE8F08110B506F07BF8F14908602F
:102150004CF6A072EE49EF48006805F04FFF0022F0
:10216000AFF23D01EB48006806F04AF810BD10B52B
:1021700006F067F8E84908604CF6B732E449E648EB
:10218000006805F03BFF10BD2DE9F04106460F4603
:1021900014469846069D6189606800F0F3FD20466C
:1021A00002F04CFDBDE8F08110B506F04AF8DB49BD
:1021B00008604CF6B832D649D848006805F01EFFD2
:1021C0000022AFF23B01D548006806F019F810BDB7
:1021D00010B506F036F8D24908604CF2CF72CC49FF
:1021E000CF48006805F00AFF10BD2DE9F041064612
:1021F0000F4614469846069D6189606800F055FDBB
:10220000204602F01BFDBDE8F08110B506F019F87C
:10221000C44908604CF2D072BD49C248006805F05C
:10222000EDFE0022AFF23D01BE48006805F0E8FF78
:1022300010BD10B506F005F8BB4908604CF2E73256
:10224000B349B948006805F0D9FE10BD2DE9F04149
:1022500006460F4614469846069D6189606800F060
:10226000FCFC204602F0EAFCBDE8F08110B505F068
:10227000E8FFAE4908604CF2E832A549AB48006877
:1022800005F0BCFE0022AFF23B01A848006805F053
:10229000B7FF10BD2DE9F04106460F46144698469B
:1022A000069D61896068FEF7CDFE204602F0C6FCFF
:1022B000BDE8F08110B505F0C4FF9D49086043F604
:1022C000603293499A48006805F098FE0022AFF208
:1022D0003B019748006805F093FF10BD2DE9F041E0
:1022E00080460D4614461E46069F43F6623231462E
:1022F000284605F045FF2146284605F036FF2846CA
:1023000005F06EFF204602F099FCBDE8F08110B5A3
:1023100005F097FF8749086043F662327C4985489B
:10232000006805F06BFE0022AFF24F0181480068A3
:1023300005F066FF10BD00B587B002F0A1F902F00C
:1023400019FB7D4909780A067B49497842EA01422E
:102350007949897842EA0121774AD27841EA020034
:1023600006F0A2FA0690754909780A067349497879
:1023700042EA01427149897842EA01216F4AD278E2
:1023800041EA020006F090FA05906D4909780A06C4
:102390006B49497842EA01426949897842EA012158
:1023A000674AD27841EA020006F07EFA04904FF0C4
:1023B000FF3006F079FA63490860634863490022F8
:1023C00004ABCDE90021029005AA06A9604802F0FD
:1023D00086FB5F4802F0B6FB5D4802F0FCFBFFF7AE
:1023E00096FFFFF767FFFFF741FFFFF722FFFFF7B9
:1023F0000CFFFFF7EDFEFFF7D7FEFFF7B8FEFFF784
:10240000A2FEFFF783FE07B000BD10B5504807F0ED
:1024100096FE10BD10B501F095FD08B1FFF7F5FF70
:1024200010BD10B54B48006800F101004949086033
:1024300008460068642804DD4FF00000086007F0DB
:10244000EEF810BD10B5FFF7ECFF10BD1CB54FF056
:1024500020008DF800004FF021008DF801004FF0B2
:1024600022008DF802004FF023008DF803004FF09A
:1024700024008DF804004FF025008DF805004FF082
:1024800026008DF806004FF027008DF8070043F670
:1024900062322C492748006805F072FE03220821A9
:1024A000002002F006FC044684B10822694620465A
:1024B00002F061FE21461F48006805F056FE1D48E7
:1024C000006805F08DFE204602F0B8FB1CBD70B51B
:1024D00006460C4643F661321A491548006805F075
:1024E0004FFE0322A1B2002002F0E3FB054665B1D6
:1024F000A2B23146284602F03EFE29460C4800684A
:1025000005F033FE0A48006826E02AE0DC010020DE
:102510002CDE0608D8010020D4010020D0010020C4
:10252000CC010020C8010020C4010020C00100200F
:10253000BC010020B8010020E6010020EE010020CF
:10254000EA010020B4010020459F06086DA106089D
:10255000604C0020B001002005F042FE284602F049
:102560006DFB70BD70B506460C464CF2E83243492F
:102570004348006805F004FE0322A1B2002002F0E7
:1025800098FB054685B1A2B23146284602F0F3FD1C
:1025900029463B48006805F0E8FD3948006805F029
:1025A0001FFE284602F04AFB70BD70B506460C4679
:1025B0004CF2D07231493348006805F0E1FD032246
:1025C000A1B2002002F075FB054685B1A2B23146EA
:1025D000284602F0D0FD29462A48006805F0C5FDCE
:1025E0002848006805F0FCFD284602F027FB70BD76
:1025F00070B506460C464CF6B832204922480068B1
:1026000005F0BEFD0322A1B2002002F052FB0546F8
:1026100085B1A2B23146284602F0ADFD29461A48DE
:10262000006805F0A2FD1848006805F0D9FD2846AD
:1026300002F004FB70BD70B506460C464CF6A07265
:102640000E491248006805F09BFD0322A1B200204C
:1026500002F02FFB054685B1A2B23146284602F0B2
:102660008AFD29460948006805F07FFD0748006893
:1026700005F0B6FD284602F0E1FA70BDB401002075
:10268000C4010020CC010020D4010020DC01002086
:1026900001464FF0000209E04FF0000002E000BFE9
:1026A00000F101001428FADB02F101028A42F3D39F
:1026B000704710B5014601F0F00201F00F034FEA38
:1026C000221202EB820403EB4404E0B210BD30B5E9
:1026D00001464FF00A0491FBF4F4E2B24FF00A0411
:1026E00091FBF4F504FB1514E3B203EB0214E0B222
:1026F00030BD01464FF00A0011B94FF001000AE069
:102700004FF0010205E000EB80034FEA430002F1C5
:1027100001028A42F7DB704701464FF0100011B901
:102720004FF0010008E04FF0010203E04FEA001013
:1027300002F101028A42F9DB704710B54FF0000345
:1027400007E000F10100884201DB4FF0000003F1D7
:1027500001039342F5DB10BD00F10100884201DB6B
:102760004FF0000070472DE9F04104460F46164631
:10277000069D4FF0000108462AE014F801C0BCF1A4
:10278000000F06D14FF0000800FB05FC06F80C8096
:1027900022E04FF0000209E014F801C000FB0568D8
:1027A00008F802C001F1010102F1010214F801C0B0
:1027B000BCF1200F01DDAA42EEDB3AB14FF0000C74
:1027C00000FB056808F802C000F1010001F10101F9
:1027D000984201DAB942D0DB00BFBDE8F08170B5A4
:1027E00003460C464FF000010D46084612E05E5CC1
:1027F000A64205D025B95E5C165400F1010007E041
:102800005E5CA64204D14FF00006165405F10105A6
:1028100001F101015E5C16B1B1F5806FE7DB4FF0AD
:102820000006165470BD70B503460C464FF000010B
:102830000D46084613E05E5CA64206D0012D04D189
:102840005E5C165400F1010007E05E5CA64204D114
:102850004FF00006165405F1010501F101015E5C1F
:1028600016B1B1F5806FE6DB4FF00006165470BD6F
:102870002DE9F04107464FF0000838460AF052FFB4
:102880000646022E40DD387830283DD17878782809
:1028900002D07878582837D14FF0000530E007F1A2
:1028A0000200445D302C0CDB392C0ADCA4F130042E
:1028B000A6F10301A1EB0500FFF72EFF04FB008842
:1028C0001CE0412C0CDB462C0ADCA4F13704A6F1F9
:1028D0000301A1EB0500FFF71FFF04FB00880DE0DB
:1028E000612C0BDB662C09DCA4F15704A6F1030173
:1028F000A1EB0500FFF710FF04FB008805F10105BF
:10290000B01EA842CBDC1AE04FF0000515E07C5D5C
:10291000302C0CDB392C0ADCA4F13004A6F10101C7
:10292000A1EB0500FFF7E5FE04FB008803E03A4851
:1029300000683949086005F10105B542E7DB40460A
:10294000BDE8F0812DE9F0470646894615469A46CE
:10295000BAF1000F26D12846FFF7CBFE99FBF0F124
:1029600000FB11974FF0000416E0691E081BFFF7EB
:10297000C0FE97FBF0F000F0FF08A5F10101A1EB0C
:102980000400FFF7B6FE97FBF0F100FB117708F1AA
:102990003000305504F10104AC42E6DB4FF000009A
:1029A000705527E086F800A0681EFFF7A2FE99FB8D
:1029B000F0F100FB11974FF0010416E0691E081BAF
:1029C000FFF797FE97FBF0F000F0FF08A5F101017B
:1029D000A1EB0400FFF78DFE97FBF0F100FB1177F0
:1029E00008F13000305504F10104AC42E6DB4FF051
:1029F000000070550020BDE8F08701460A784FEAD4
:102A000002624B7842EA03428B7842EA0322CB7897
:102A100042EA0300704700001000002010B542F2A7
:102A20001070FFF735FE4FF00C00EA4908704FF0C8
:102A3000080048704FF00C0088704FF00D00C8700F
:102A40004FF0170008714FF0370048714FF0C00089
:102A5000E14908704FF0A80048704FF06500887099
:102A60004FF06400C8704FF0C000DC4908704FF0B0
:102A7000A80048704FF0650088704FF00100C870E2
:102A80004FF0FF00D6490870487088704FF0000082
:102A9000C87000F0BFFBD348D34908604FF0010075
:102AA000D249086042F21070FFF7F2FDFEF7B6FC63
:102AB00042F21070FFF7ECFD00BFFFF73CFC42F262
:102AC0001070FFF7E5FD00F0A9F9FEF7D2FD002038
:102AD00010BD10B5C6480068012810D1C548C649C8
:102AE0000268C148006800F09AFAC3480168BE480D
:102AF0000068FFF7A0FD4FF00000BD49086000200E
:102B000010BD10B5FFF7E5FF10BD704710B5BB480D
:102B10000068002803DDB948C088C4B201E04FF066
:102B2000FF0400232246B449AF48006800F023FAAE
:102B3000B1480168AC480068FFF714FD002010BDE3
:102B400010B5FFF7E3FF10BD01460A784FEA0262B5
:102B50004B7842EA03428B7842EA0322CB7842EA7E
:102B6000030070472DE9F04104460D4616461F4606
:102B7000802C03DA4FF0FF30BDE8F081F72C02DD46
:102B80004FF0FF30F8E7FF2D02DD4FF0FF30F3E7A5
:102B9000FF2E02DD4FF0FF30EEE7FF2F02DD4FF09A
:102BA000FF30E9E709F09CFF8B48047045708670A0
:102BB000C7704FF47A70FFF76BFD00F0ABFA4FF47B
:102BC0007A70FFF765FD00F0AAFA4FF47A70FFF70C
:102BD0005FFD4FF47A70FFF75BFD8948FFF758FD02
:102BE0008748FFF755FD00BF8648006800F4E060A5
:102BF000854940EA010000F1040082490860BFF302
:102C0000408F00BF00BFFEE730B501464FEA1162BA
:102C1000C1F30743C1F30724CDB2802A02DA4FF093
:102C2000FF3030BDF72A02DD4FF0FF30F9E7FF2B10
:102C300002DD4FF0FF30F4E7FF2C02DD4FF0FF30F4
:102C4000EFE7FF2D02DD4FF0FF30EAE76248027048
:102C500043708470C5700020E3E770B505460C46EC
:102C60006A4805606A4804606848006800F0F4F843
:102C700010B14FF0FF3070BD6448006809F0BDFC32
:102C80000020F8E710B5634803786348027860488D
:102C900001685E48006800F02EF90446642C02DAF0
:102CA0002046FDF711FE002010BD2DE9F0478046BB
:102CB0000F465648C0F8008055480760B7F5806F4A
:102CC00003DA4FF0FF30BDE8F0875048006800F0AD
:102CD000C3F810B14FF0FF30F5E74C48006800F042
:102CE000FBF881464948006800F0EEF80646474880
:102CF000006800F0EDF80546B9F1040F3ED14348F5
:102D0000006800F0F3F804463C48006801280DDA3A
:102D10004FF00A003949086008460671457120786D
:102D2000C88004F10100FDF790FE27E020783349C8
:102D3000C98888420DDA4FF00A0030490860084619
:102D4000067145712078C88004F10100FDF77DFE11
:102D500014E020782949C98888420FD12748007992
:102D6000B0420BD125484079A84207D14FF00A0064
:102D70002249086004F10100FDF767FE0020A2E788
:102D80000020704702464FF00000704702464FF0A7
:102D9000000070472DE9F04105460E461B480560CE
:102DA0001B4806601948006800F056F818B14FF04B
:102DB000FF30BDE8F0811548006800F08DF804464A
:102DC000032C05D11148006800F082F8074600BFC7
:102DD0000020EEE7E0010020E6010020EA010020EB
:102DE000EE010020944C0020000200200802002088
:102DF000A00000209C000020040200208000002091
:102E0000A08601000CED00E00000FA05F8010020AA
:102E1000FC0100202D0000202C00002010B5B4483B
:102E20000078B4498870B4480078C870B348008806
:102E30000880B348FFF788FEAE4948604FF0FF00B6
:102E4000B0498870C8704FF6FF7008804FF0FF30AF
:102E500048604FF0000010BD70B505462C46207844
:102E60007E2802D04FF0FF3070BDE078A04909788D
:102E7000884205D0E078FF2802D04FF0FF30F3E71A
:102E800020799D490978884205D02079FF2802D011
:102E90004FF0FF30E8E79A48FFF756FED4F80510E8
:102EA00088420FD0D4F80500401C0BD09448FFF79F
:102EB0004BFE40F0FF01D4F80500814202D04FF0F4
:102EC000FF30D1E70020CFE701460A46D07A7047AD
:102ED00001460A46107B704701460A46B2F81100C7
:102EE000704701460A46B2F81300704701460A4689
:102EF00002F1150070472DE9F04104468C46274643
:102F000007F115052E460B2A08D1A3F1010006F1A1
:102F1000050818F800100846BDE8F081FF20FBE71F
:102F200017B585B0044672480078724988707248B7
:102F30000078C8707148008808807148FFF704FE67
:102F40006C4948604FF07E008DF800000698CDF87F
:102F500001000798CDF8050008460168CDF8091072
:102F60004068CDF80D004FF01102694620460AF086
:102F700043FC08B010BD2DE9F04387B004460E466F
:102F80001746984625465F4903C90A46CDE9000120
:102F9000014602A8FFF7C4FF112202A928460AF041
:102FA0002BFC4FF00100A5F811004FF00200A5F82E
:102FB000130005F1150989F8007089F80180B5F84A
:102FC000130000F1150030604FF0000007B0BDE8BD
:102FD000F08330B503460C4619464FF00400A1F8C3
:102FE000130001F115052A60B1F8130000F1150076
:102FF00020604FF0000030BD30B503460C46194646
:103000004FF00100A1F8130001F115052A70B1F885
:10301000130000F1150020604FF0000030BD2DE9D5
:10302000F04188B004460E4617462546354903C987
:103030000A46CDE90101014603A8FFF771FF1122FD
:1030400003A928460AF0D8FB4FF00300A5F81100A9
:103050004FF00400A5F8130005F11508C8F800703A
:10306000B5F8130000F1150030604FF0000008B013
:10307000BDE8F08130B503460C4619464FF002001A
:10308000A1F8130001F115056A70B1F8130000F101
:10309000150020604FF0000030BD2DE9F0470446D8
:1030A0000F4690461D46264640F20340A6F8130000
:1030B00006F115092A46414609F103000AF09CFB76
:1030C00009F1030000EB050A0F480068CAF8000088
:1030D0000D48006800F101000B490860B6F81300C4
:1030E00000F1190038604FF00000BDE8F0870000E3
:1030F0002C000020140200202D0000202E000020B3
:10310000E60100201C0200201002002010B5FEF78E
:10311000FDFA10BD4FF0010071490860704770B5AD
:103120006F480068012874D14FF000006C490860B6
:103130004FF0A5006B4908706B48007848706A48EA
:10314000417868488170684881786648C1706648EF
:10315000C1786448017165480078624948716348E4
:10316000417860488171614881785E48C1715F48EB
:10317000C1785C4801725E4800785A4948725C48E0
:103180004178584881725A4881785648C1725848E7
:10319000C1785448017357480078524948735548DC
:1031A000417850488173534881784E48C1735148E3
:1031B000C1784C4801744F4801794A4841744D48E0
:1031C0004179484881744C4800684649C8744B4866
:1031D000008888824FF05A0088754FF000050E462F
:1031E0004FF0000405E0305D2844C5B204F1010051
:1031F00084B2172CF7D3C5F155003A49C8754FF082
:1032000018024FF00800FEF76EFB4FF47A70FFF7DC
:103210003FFA70BD70B5182232490820FEF7C9FB8D
:103220004FF47A70FFF734FA4FF000052D4E2C461C
:1032300005E0305D2844C5B204F1010084B2182CC9
:10324000F7D3552D00D070BD26480078A52845D16C
:103250002448807D5A2841D122484078224908706C
:103260002048807848701F48C07888701D480079D1
:10327000C8701C4840791D4908701A488079487008
:103280001848C07988701748007AC8701548407A85
:10329000174908701348807A48701248C07A8870BD
:1032A0001048007BC8700F48407B124908700D48D9
:1032B000807B48700B48C07B88700A48007CC870CF
:1032C0000848407C08710748807C48710548C07CEC
:1032D000094908600348808A0849088000BFB2E7AE
:1032E0002402002094510020E6010020EA01002081
:1032F000EE010020E0010020880000202E000020C8
:103300007FB5042006F0BDFF684608F0C8F842F219
:1033100010720198B0FBF2F1B1F1807F00D327E089
:1033200021F07F40A0F101004FF0E02250614FF00A
:10333000FF304FF00F0200280ADA4FEA02734FEA1B
:103340001365314B00F00F04A4F104041D5505E092
:103350004FEA02734FEA13642C4B1C5400BF4FF02A
:1033600000004FF0E02290614FF00700106100BFB5
:103370007FBD10B52648006800F1010024490860AF
:103380002448006800F101002249086022480068D2
:1033900000F10100204908602048006800F10100A8
:1033A0001E4908601E48006800F101001C490860C1
:1033B0001C48006800F101001A4908601A480068BA
:1033C00000F1010018490860FDF775F810BD70475D
:1033D00070477047704710B5FFF797FBFFF732F85B
:1033E00010BD10B5FFF79BFE10BD10B50F4800686B
:1033F000012801DAFDF71EFDFFF7A2FB10BD10B595
:10340000FDF738FA10BD704718ED00E000E400E069
:10341000280200202C02002030020020340200206C
:10342000380200203C0200204002002080000020E2
:10343000704700BFFEE700BFFEE700BFFEE700BF2A
:10344000FEE7704710B5FFF794FF10BD10B5FEF70B
:103450000DFD10BD10B5FEF71DFC10BD1CB54FF0E5
:1034600000008DF804004FF001008DF806004FF0C9
:1034700003008DF805004FF000008DF807004FF0B5
:10348000FF00009069462E4807F0DEFB1CBDF8B532
:103490004FF0000000904FF6FF740646074618E014
:1034A00001E0FCF7FAFF4FF47A716846FDF731F856
:1034B0000028F6D0224807F04CFC0446A64205D16D
:1034C00007F10100C7B2052F03DB03E04FF000074F
:1034D0002646E5E700BFF6B2344604F00F0009289F
:1034E00003DC0920B0EB241F06DA4FF0FF054FF094
:1034F0002E0008F005FC11E004F00F004FEA241143
:1035000001EB810100EB4100C5B2012D01DB022D71
:1035100004DD2F2008F0F4FB4FF0FF052846F8BD2E
:1035200010B508480078012803DB06480078022817
:1035300004DD2F2008F0E4FB012010BD0020FCE793
:10354000001802402D000020094880470948004724
:10355000FEE7FEE7FEE7FEE7FEE7FEE7FEE7FEE743
:10356000FEE7FEE704480549054A064B70470000A0
:10357000333606088501060868690120686F012056
:10358000686B0120686B01204FF000010846674A14
:10359000126842F48032654B1A6000BF634A1268B9
:1035A00002F4003001F1010110B9B1F5A06FF5D1BD
:1035B0005E4A126812F4003F02D04FF0010001E0B1
:1035C0004FF00000012833D1594A1268584B1A6055
:1035D0001A46126842F400421A601A46126842F40F
:1035E000A0521A60534AA3F104031A604F4A1268AA
:1035F00042F080724D4B1A6000BF4C4A126812F0C4
:10360000007FFAD040F203724B4B1A60484A1268AE
:1036100022F00302464B1A601A46126842F0020278
:103620001A6000BF424A126802F00C02082AF9D15F
:10363000704710B53D48006840F001003B49086004
:103640004FF000003A490860384800683B4900EAFA
:103650000100364908603A4801F104010860334826
:10366000006820F48020314908604FF0000035499F
:103670000860FFF789FF4FF000603349086010BD14
:1036800070B54FF0000002464FF0020304464FF0C1
:103690000201274D2D6805F00C0020B1042806D04A
:1036A000082831D107E0294D294E356030E0294DF9
:1036B000274E35602CE0284D2D68C5F38054264DEB
:1036C0002D6805F03F014CB1224DB5FBF1F5224EBE
:1036D0003668C6F3881605FB06F208E01B4DB5FBFD
:1036E000F1F51D4E3668C6F3881605FB06F21A4D35
:1036F0002D68C5F3014505F101054FEA4503B2FB0D
:10370000F3F5134E356003E0104D114E356000BFE8
:1037100000BF074D2D68C5F30315104E705D0C4DAD
:103720002D6825FA00F50A4E356070BD003802405C
:1037300008380240193C4005003C0240FFFFF6FEFD
:10374000103000240C38024008ED00E00024F400A2
:103750004402002040787D010438024048020020E5
:103760004FF00001014601E0A1F101010029FBD168
:10377000704710B50121480607F06FFF00214FF098
:10378000007007F06AFF10BD4FF0010101604FF0BB
:10379000000141608160C16001614FF4804141617D
:1037A0004FF000018161C1614FF4006101624FF08F
:1037B000000141628162C162016341638163C1634F
:1037C0004FF0400101644FF0200141644FF00001CF
:1037D0008164C164016541658165C16501664FF021
:1037E000800141664FF000018166C1660167416753
:1037F0008167C1674FF08061C0F880104FF00071A1
:10380000C0F884104FF00001C0F888104FF4001188
:10381000C0F88C104FF00001C0F89010C0F8941060
:10382000C0F89810C0F89C10C0F8A0104FF00071BC
:10383000C0F8A4104FF48031C0F8A8104FF48001F4
:10384000C0F8AC104FF40051C0F8B0104FF00001B8
:10385000C0F8B410C0F8B81070472DE9FF4704460F
:103860008A464FF000084546A946F74E2F46F748CE
:10387000056925F01C05684607F011FE019EF44815
:10388000864205D3F348864202D245F0080511E08E
:10389000F048864205D3EC48864202D245F00C053A
:1038A00008E0E948864203D3EB48864200D201E0B3
:1038B00045F00405E5480561E848FFF751FF206839
:1038C000B0B1E748874203D1002004B0BDE8F087DB
:1038D0004FF00007E248874201D10020F5E74FF0A2
:1038E00000074FF4006020624FF48040606103E005
:1038F0006FF07F40FFF734FFD4480568D94805EAE8
:103900000005D4E9010140EA0100E16840EA010054
:10391000216940EA0100616940EA0100A16940EAC9
:103920000100E16940EA0100216A40EA0100616AA0
:1039300040EA0100A16A40EA0100E16A40EA0100B0
:10394000216B40EA0100616B40EA010040EA050595
:10395000BE480560D4E90E0140EA0100216C40EA4E
:103960000100616C40EA0100A16C40EA0100E16CD9
:1039700040EA0100216D40EA0100616D40EA01006A
:10398000B2494860A06D8860E06DC86008468569EE
:103990004FF6417005EA0005D4E9181040EA0140ED
:1039A000A16E40EA0100E16E40EA0100216F40EAA9
:1039B0000100616F40EA010040EA0505A348856106
:1039C000D4E91E0140EA0100A049C861A648856902
:1039D000A64805EA0005D4E9200140EA0100D4F830
:1039E000881040EA0100D4F88C1040EA0100D4F8B5
:1039F000901040EA0100D4F8941040EA0100D4F895
:103A0000981040EA0100D4F89C1040EA0100D4F874
:103A1000A01040EA010040EA050593488561D4E919
:103A2000290140EA0100D4F8AC1040EA0100D4F8C2
:103A3000B01040EA0100D4F8B41040EA8100D4F894
:103A4000B81040EA010040F40000874908600846C9
:103A5000006840F0800008604FF0010035E730B1A9
:103A60008149896941F002017F4A916105E07E49FF
:103A7000896921F002017C4A9161704730B17A492D
:103A8000896941F40051784A916105E07649896974
:103A900021F40051744A9161704730B16B49096853
:103AA00041F00401694A116005E06849096821F0A4
:103AB0000401664A116070476B48806940F48010C9
:103AC00069498861704730B16049096841F008016F
:103AD0005E4A116005E05D49096821F008015B4A12
:103AE0001160704700B50120FFF7EDFFFFF7E4FF1D
:103AF0000120FFF7D2FF0120FFF7C0FF0120FFF7F1
:103B0000AEFF00BD4FF000005049896911F0010F70
:103B100002D04FF0010001E04FF0000070474B4829
:103B2000806940F0010049498861704730B14749D8
:103B3000896941F00101454A916105E0434989697C
:103B400021F00101414A9161704701464FF00000A8
:103B50003E4A926B0A4202D04FF0010001E04FF062
:103B60000000704701464FF00000384A926B0A424D
:103B700002D04FF0010001E04FF00000704731B17A
:103B8000324AD26B22EA0002304BDA6305E02F4A58
:103B9000D26B42EA00022D4BDA63704710B50B7905
:103BA0004C7943EA0422294B03441A64CB784FEA48
:103BB00003638C7843EA04434C7843EA04230C788B
:103BC00043EA0402214B03445A6410BD02461F4BD2
:103BD0001344186C4FEA10234B7108711B4B1344AC
:103BE000586C4FEA1063CB704FEA10438B704FEA6A
:103BF00010234B700870704741B1144A0244126C94
:103C000042F00042114B03441A6407E00F4A024499
:103C1000126C22F000420D4B03441A6470470829CD
:103C200008D00A4A0244126C42F08042074B034417
:103C30001A6407E0054A0244126C22F08042034BEA
:103C400003441A6470470000008793030080024019
:103C5000002D3101C00E160200E1F505FFFF0F0037
:103C6000FFFF04000F8120FF00900240233FDEF899
:103C7000FA4A0244126C22F07C52F84B03441A6454
:103C8000F64A0244126C42EA0102F44B03441A64FD
:103C900070471EB54FF000010A4600920192029251
:103CA000EF4A12681268C2F30D42A2F104010091BA
:103CB000EC4A12689268012A05D9EA4A1268126829
:103CC0009268019203E0E64A126892680192E44A1F
:103CD00012680292E24A1268D268E14B1A609DE8CB
:103CE0001C0080E81C001EBD1EB54FF000020092B3
:103CF00001920292114672E001F10101D84A126864
:103D0000126812F4007F15D0D54A1268126812F4B6
:103D1000807F0FD1D24A1268D24B1B681A604FF0D5
:103D20000102D04B1B689A60CD4A1268D268CC4B16
:103D30001A6054E0CA4A1268126812F4807F13D1E4
:103D4000C74A1268126812F4007F0DD1C54A126882
:103D5000926802F10102C34B1B689A60C04A126864
:103D6000D268BF4B1A603AE0BD4A1268BD4B1B686F
:103D70005A60BC4A1268926802F10102B94B1B6892
:103D80009A60B84A12689268012A04D1B44A12684B
:103D9000B44B1B681A60B24A12681268C2F30D4233
:103DA000A2F104020092AF4A12689268012A05D972
:103DB000AC4A126812689268019203E0A84A12683D
:103DC00092680192A64A12680292A54A1268D268C5
:103DD000A34B1A609DE81C0080E81C001EBDA04A91
:103DE0001268126812F0004F01D1052984D39DE8B2
:103DF0001C0080E81C0000BFF0E770B502464FF0E1
:103E000000031D461C4698480068006810F0004FEB
:103E100001D0002070BD9448016840F2F450824205
:103E200009DD92FBF0F392FBF0F600FB162020B1C7
:103E300003F1010301E04FF00103012B1AD18A487D
:103E40000068006840F04050874E36683060C2F32A
:103E50000C00854E3668706083480068006840F04A
:103E60000040814E366830607F480068C0687E4EF2
:103E700030602CE04FF0000425E03CB97A4800683F
:103E8000006840F08050784E3668306040F2F45060
:103E90004860A3F10100A0420ED1086840F0005034
:103EA0000860A3F10100C0EBC01000EB4000A2EBE2
:103EB0008005C5F30C004860086840F000400860C9
:103EC000C96804F101049C42D7D367480160674880
:103ED000406910F0040F06D04FF00400634E70618B
:103EE0004FF000007060012094E770B50C46134657
:103EF0004FF000015A4D286000BF1BE000EB41125B
:103F00004FF00045156044F2F4555560C1EBC11502
:103F100005EB450504EB85059560A3F101058D4290
:103F200005D900EB411505F12005D56000E0D06012
:103F300001F101019942E1D34C4DE8604C4D494EED
:103F4000356070BD46480068006810F0004F15D11C
:103F500043480068006810F4807F0FD04048006834
:103F60004049096848603F480068806800F10100E6
:103F70003C49096888604FF0010070473848006884
:103F8000006810F0004F20D135480068006810F438
:103F9000007F1AD032480068006810F4807F14D186
:103FA0002F4800682F49096808604FF000002D492C
:103FB000096848604FF001002A490968886028486C
:103FC0000068C068264908601EE02548006800684F
:103FD00010F0004F18D122480068006810F4007FEC
:103FE00012D11F480068006810F4807F0CD11D4872
:103FF0000068806800F101001A4909688860184863
:104000000068C068164908600020B6E730B50C4665
:1040100013464FF00001144D286000BF18E000EB7C
:1040200041124FF480151560C1EBC11505EB450534
:1040300004EB85059560A3F101058D4205D900EBE0
:10404000411505F12005D56000E0D06001F10101C6
:104050009942E4D3054D286130BD00000080024044
:104060005C02002060020020580200200090024004
:10407000748E002002464FF0000013680B4202D0FD
:104080004FF0010001E04FF0000070470146086862
:10409000C0F3C3007047016841F000410160704700
:1040A00021B1026842F08042026003E0026822F01F
:1040B000804202607047026842EA01020260704773
:1040C000026842EA01020260704721B1026822F0F0
:1040D0000062026003E0026842F000620260704722
:1040E00021B1026842F48012026003E0026822F407
:1040F00080120260704721B1026822F08062026083
:1041000003E0026842F080620260704710B541EA45
:104110000244436843EA0403436010BD02464FF083
:10412000000013680B4202D04FF0010001E04FF095
:104130000000704702464FF0000013690B4202D0A6
:104140004FF0010001E04FF000007047016841F0BE
:1041500000410160704701460868C0F30D40704798
:1041600021B1426822F00042426003E0426842F01E
:10417000004242607047024619B15068C0F30C40DB
:1041800070475068C0F30C00FAE700B502464FF0E4
:104190000003106810F0004F0BD1106810F4004FAE
:1041A00007D1106810F4807F03D01046FFF7D3FFCB
:1041B0000346184600BD30B1FD49096841F0800151
:1041C000FB4A116005E0FA49096821F08001F84ACC
:1041D00011607047F648006840F00100F44908603B
:1041E00070474FF00000F249096811F0010F02D04A
:1041F0004FF0010001E04FF00000704701464FF022
:104200000000EB4A52690A4202D04FF0010001E07F
:104210004FF000007047E6494861704731B1E44A09
:10422000D26942EA0002E24BDA6105E0E04AD26973
:1042300022EA0002DE4BDA61704701464FF00000CF
:10424000DB4A52690A4202D04FF0010001E04FF010
:1042500000007047D64948617047D548406900F072
:1042600001007047D248406900F0400070474FF0AD
:104270000000CF49896911F4801F02D04FF001007E
:1042800001E04FF00000704701464FF00000C84ABF
:10429000126A0A4202D04FF0010001E04FF0000024
:1042A0007047C348006AC0F34A407047C048006A7C
:1042B00080B27047BE48806C7047BD48C06C704784
:1042C000BB48006D7047BA48406D70474FF0000022
:1042D000B749486070474FF00000B54988607047A3
:1042E000B3494862704710B503460C464FF00001D1
:1042F0000A46B048016901F01C014FF4784000EA19
:10430000C32040EA01014FF4F86000EA841040EA5B
:10431000010121F0020141F00101A648016100BF45
:1043200002F10102A348016911F0010F02D0A24875
:104330008242F5D3A048824201D1002010BD9D48A1
:10434000406980B2FAE730B503460C4615464FF097
:1043500000010A469748016901F01C014FF47840BA
:1043600000EAC32040EA01014FF4F86000EA84103B
:1043700040EA010141F0020141F001018D4845612F
:10438000016100BF02F101028A48016911F0010FC9
:1043900002D089488242F5D38748824201D1002069
:1043A00030BD0120FCE770B506460D464FF0000415
:1043B00021463046FFF797FF044615B144F4804488
:1043C00003E04BF6FF7004EA000422460021304669
:1043D000FFF7B9FF08B1012070BD0020FCE7754868
:1043E000C06A40F000407349C862704701464FF010
:1043F000000000BF05E051F820206E4B9A6200F1EA
:1044000001000828F7D3704730B16A49C96A41F4FE
:104410000071684AD16205E06649C96A21F40071F9
:10442000644AD162704701464FF00000614AD26A87
:104430000A4202D04FF0010001E04FF00000704747
:1044400030B15C49C96A41F004015A4AD16205E0C1
:104450005849C96A21F00401564AD162704730B107
:104460005449C96A41F00201524AD16205E05149FA
:10447000C96A21F002014F4AD162704730B14D49FB
:10448000C96A41F001014B4AD16205E04949C96A54
:1044900021F00101474AD16270474848006840F066
:1044A00030004449C1F8000170474448006820F0DA
:1044B00020004049C1F800010846D0F8000140F052
:1044C0001000C1F80001704738B13C49096841F05B
:1044D0000801384AC2F8001106E03849096821F09D
:1044E0000801344AC2F80011704738B133490968ED
:1044F00041F004012F4AC2F8001106E02F49096873
:1045000021F004012B4AC2F80011704738B12B4941
:10451000096821F00201274AC2F8001106E0274984
:10452000096841F00201234AC2F80011704723488C
:10453000006840F001001F49C1F80001704710F009
:10454000805F12D020F0805039B11D4A126822EAF3
:104550000002184BC3F80C2117E0194A126842EA0E
:104560000002144BC3F80C210FE039B1154A126850
:1045700022EA00020F4BC3F8102106E0114A12682C
:1045800042EA00020B4BC3F81021704701464FF07E
:10459000000011F0805F1AD0084A121D12680A420A
:1045A00012D0074A12680A420ED14FF001001CE0F7
:1045B0000090024000800240FFFF040000810240A2
:1045C0000C810240108102404FF000000DE0094ACA
:1045D00012680A4207D0074A121D12680A4202D125
:1045E0004FF0010001E04FF0000070470146024823
:1045F00008587047088102400080024030B500BF73
:1046000000BF00BF00BF00BF00BF00BF00BF0388E6
:10461000D34C246803EB0401884216D00B79A3B96C
:10462000D04B1B68994210D0CF4B1B688B4201D1F5
:10463000CD4B18600B880380C94B1B68A0EB0303AC
:104640000C88C74D2D682C4463804388C44C246873
:1046500003EB0402824212D0137983B9C24B1B6868
:10466000834201D1C04B1A6003881380BC4B1B6886
:10467000A2EB03030488BA4D2D682C44638030BD3F
:1046800000BF00BFB94921F00301B54A11601146CE
:1046900008684FF4205101804FF000014180017102
:1046A0001146096801F52051AE4A11604FF0010131
:1046B000126811714FF42051AA4A12681180A94A58
:1046C000126851804FF00101A94A1170A44909688C
:1046D000A54A1160704770B5054605B970BD00BFA9
:1046E00000BF00BF00BF9E480068854203D39D48BD
:1046F0000068854200D3F1E7A5F1080400BF00BFC0
:104700004FF00000207198480068844201D296481A
:1047100004602046FFF772FF00BFDFE72DE9F0419C
:1047200006460A4602F1030020F0030082B20C2A7A
:1047300001DA4FF00C02B2F5205F02DD0020BDE887
:10474000F08100BF00BF86480068864203D38548D9
:104750000068864201D33046F1E7A6F1080480489C
:104760000068A4EB000085B22088A0EB0500A0F152
:10477000080087B200BF00BFBA4201DD0020DEE7BB
:10478000BA4201D13046DAE72088DFF8D4C1DCF83C
:1047900000C000EB0C01087980BB088805F1080C0B
:1047A00094441FFA8CF3DFF8C0C1DCF800C08C45DC
:1047B00008D1DFF8ACC1DCF800C09C44DFF8A88168
:1047C000C8F800C0DFF898C1DCF800C00CEB0301AA
:1047D0004FF0000C81F804C008804D802380B1F8B0
:1047E00000C0BCF5205F08D0B1F800C0DFF87081D0
:1047F000D8F80080C444ACF8023024E0FFE702F1AE
:104800001400B8421FD805F10800104483B2544880
:10481000006800EB030154480068814201D252480D
:1048200001604FF000000871208808804D802380CF
:104830000888B0F5205F06D00888DFF824C1DCF8CE
:1048400000C060444380304679E770B502460AB93B
:10485000002070BD02F1030020F0030082B20C2A98
:1048600001DA4FF00C02B2F5205F01DD0020F0E725
:104870003D4800683A4E3668A0EB060083B258E027
:104880003748006800EB0301087900284ED10E88F4
:1048900003F10800301A904248D30E8803F1080053
:1048A000361A02F1140086421BD303F108001044AB
:1048B00085B22B48006800EB05044FF00000207122
:1048C0000888208063800D804FF0010008712088E7
:1048D000B0F5205F08D02088214E366830444580EE
:1048E00002E04FF0010008711F480068814214D1B6
:1048F00007E01D4800680088194E366830441A4E9B
:10490000306019480068007928B117480068154ED2
:104910003668B042EDD100BF00BF00BF00BF00BF8E
:1049200000BF00BF00BF01F1080092E70C4800681B
:10493000C35AC2F520509842A2DC002089E770B526
:1049400004460D4604FB05F188B2FFF77EFF0646DC
:1049500026B104FB05F1304608F0CDFF304670BDAE
:10496000680200206C02002070020020838E00206C
:104970007402002010B54FF0000002E000F10103C6
:1049800098B20928FADB244B23F003014FF0000012
:104990001CE04FF00003214C44F820301A460DE093
:1049A0001E4B53F820300B601C4B43F820101C4B5F
:1049B00033F81030194402F101039AB2194B33F85D
:1049C00010309342ECDC00F1010398B20928E0DBDF
:1049D00010BD024600BF092A01DB0020704700BF5E
:1049E0000E4850F8221031B10C4B086843F82200F1
:1049F00000BF00BF00BF0846F0E701B9704700BF25
:104A000000BF0A46054B53F820301360034B43F8B0
:104A1000202000BFF2E70000BBB6002094B60020C3
:104A2000F4DD060806DE060811B94FF0000200E0CA
:104A30000A68C260704711B94FF0000200E00A68CE
:104A4000826070472DE9F04107460D462868796875
:104A5000884201D1012000E0002020BB7248066896
:104A60000CE030687968884207D1D6F80C800121C3
:104A7000304600F0F2FF464600E0F668002EF0D126
:104A80006A4804680DE05CB1206848B12068796824
:104A9000884205D115B94FF0000000E02868206079
:104AA000E468002CEFD115B94FF0000000E0286851
:104AB0007860BDE8F0812DE9F04106460F461446C6
:104AC0001D4639463046FFF7BDFF21463046FFF709
:104AD000B2FF29463046FFF7A7FFBDE8F0812DE978
:104AE000F04704460D4616461F46DDE909A9DDF8E4
:104AF00020804FF000006060A060E06084F82D002E
:104B00002062C4F81C804A48007884F83000484885
:104B1000007800F1010046490870C4F810903B4647
:104B2000324629462046FFF7C6FF2046D04710B13F
:104B30000020BDE8F0873F48006820603D480460E1
:104B40002046F6E73C490860704700B5024602B9C6
:104B500000BD38480068904203D1364910680860AB
:104B60000FE03449086806E00168914202D11168FB
:104B7000016002E000680028F6D100BF00B9E7E755
:104B800000BF2D480068904202D10020FFF7DAFFF5
:104B900000BFDDE710B502460AB9002010BD9078CD
:104BA000A0F13000C3B22348016810E091F8300052
:104BB00098420BD1107891F82E40A04206D154783B
:104BC0002F20405C844201D10846E7E709680029AC
:104BD000ECD10020E2E710B5044694F82D0010F067
:104BE000010F0DD114F82D0F40F00100207014F8C2
:104BF0002D0910F0200F03D0211D204605F062F88A
:104C000010BD90F82D1011F0010F05D090F82D1067
:104C100021F0010180F82D107047014691F82D0018
:104C200000F0010070470000C8020020C40200200C
:104C3000780200207C020020800200202DE9F04153
:104C4000044624B900BF00BF0020BDE8F08100BFCA
:104C500000BF4FF0000628E000BF00BFE089A0F1D0
:104C600001001FFA80F8A4F80E80B8F1000F19D1E6
:104C70002768257B032D04D121460820FFF7BDFEC0
:104C80000BE0012D01D0022D04D121460720FFF7B2
:104C9000B4FE02E02046FFF71EFD06F10100C6B299
:104CA0003C4601E04FF0000400BF002CD4D1304658
:104CB000CBE72DE9F05F83460F4690464FF00006A4
:104CC000BBF1000F09D0BBF1010F0AD0BBF1020FFD
:104CD0000BD0BBF1030F0DD10BE006F1140086B22F
:104CE00000BF06F1140086B200BF06F10E0086B2C6
:104CF00005E004E000BF00BF0020BDE8F09F00BF5A
:104D0000B8F1000F73D0B8F1010F6DD0B8F1020FF8
:104D10006BD0B8F1030F69D10820FFF75AFE0446A3
:104D20000CB90020E9E784F80C804FF00000206007
:104D300006F11000204400F1030020F00300606041
:104D400000BF00BF278106F1030020F00300C0F57B
:104D50008C60B84201DD384605E006F1030020F022
:104D60000300C0F58C60608100BF00BF00BF00BFC2
:104D70004FF00100E081A2466089A7EB00092EE018
:104D80000820FFF726FE054625B92046FFF756FF07
:104D90000020B2E785F80C804FF0000068732860AF
:104DA000CAF8005000BF00BFA5F808901FFA89F0AC
:104DB000B0F58C6F02DA1FFA89F001E04FF48C60D5
:104DC000688105F11000686000BF00BF00BF00BF30
:104DD0004FF00100E8816889A9EB0009AA46B9F102
:104DE000000FCDDC39E002E022E022E031E006F104
:104DF000130121F00302F91C21F00301114488B2D0
:104E0000FFF723FD04460CB9002076E704F11000FB
:104E1000304400F1030020F00300606027816781C7
:104E20004FF00000206084F80C8000BF00BF14E049
:104E300000BF0720FFF7CDFD04460CB900205CE75A
:104E40004FF00000606027816781206084F80C804B
:104E500003E000BF00BF00204FE700BF4FF001009C
:104E6000E0814FF000006073204646E72DE9F041F5
:104E700006460F4600BF00BF00BF00BF3089B842E2
:104E800001DCBDE8F0813089A7EB00083D463446DF
:104E90000BE06089A5EB000085B200BF00BF208950
:104EA00040442081246800BF00BF6089A842F0DB35
:104EB000207B60B96089A84209D06068001B284443
:104EC00081B22046FFF72AFC044600BF00BF65817F
:104ED00060892081206810B12068FFF7AFFE4FF095
:104EE0000000206000BFCCE770B5024600BF00BFE5
:104EF00001B10AB9002070BD002909DAC1F1000032
:104F000084B200BF5089A04201DA0120F3E700E03B
:104F10008CB2137B55680BB1032B0BD15068A0EBFF
:104F20000100506002F110005668864216D25560AA
:104F30000120E0E7022B01D0012B0BD1002907DA79
:104F40005089A04204DB5068A0EB0100506005E0EE
:104F50000120D0E700BF00BF0120CCE75089084402
:104F600050811089084410814FF00000C3E70146CA
:104F70004FF0000003E000F10102D0B209680029FF
:104F8000F9D1704718B1C18901F10101C1817047A0
:104F900010B5024600BF02B101B910BD00BF1046F6
:104FA00004E003890C892344038100680368002B13
:104FB000F7D100BF00BF00BF00BF03890C892344A5
:104FC0000381016000BFE8E730B505460C46214685
:104FD0002846FFF7DDFF2046FFF7D4FF30BD70B550
:104FE00004464FF00106256885B100BF00BF208947
:104FF0006189A0EB010028814FF0000020606089EA
:1050000020812846FFF71AFE064600BF00BF00BFFA
:10501000002E01DD002070BD2846FCE72DE9F0419F
:1050200005460C464FF00006374600BF25B11CB1BF
:1050300028892189884203DA6FF00900BDE8F081F0
:1050400000BF00BF00BF00BF6889801B6189C91B0A
:10505000884205DB6089A0EB07001FFA80F804E0B6
:105060006889A0EB06001FFA80F86268D1196A68A7
:105070009019424608F0C0FB06EB080086B207EB29
:10508000080087B200BF00BF6889B04202D14FF06C
:1050900000062D6800BF00BF6089B84202DC4FF0F7
:1050A0000007246854B160892189884206D100BF75
:1050B000206810B16FF00800C0E700BF55B16889E3
:1050C0002989884206D100BF286810B16FF0080016
:1050D000B4E700BF002CB5D10020AFE72DE9F05FA9
:1050E0008046894616461D464FF0000B00BFB8F1BA
:1050F000000F02D10020BDE8F09F00BF00BFB9F152
:10510000000F01D10020F6E700BF4FF0000AB8F110
:10511000000F02D0B9F1000F01D10020EBE74446A7
:1051200024E03DB16089A84204DC6089A5EB000061
:1051300085B21AE06089A0EB050087B2B74200DDB6
:1051400037466268511909EB0A003A4608F054FBE9
:105150000BEB07001FFA80FB0AEB07001FFA80FA2F
:10516000A6EB070086B24FF0000524680EB1002CB4
:10517000D7D15846BFE72DE9F04704460E46914681
:10518000C8464FF0000A00BF14B90020BDE8F08700
:1051900000BF00BF0EB90020F8E700BF1CB116B178
:1051A0002089484502DA6FF00900EFE7254615E04F
:1051B00000BF00BF47466889B84200DA6F8906EB36
:1051C0000A013A46686808F017FBA8EB07001FFAC7
:1051D00080F80AEB07001FFA80FA2D68B8F1000F7B
:1051E000E6D100BF00BF0020D0E72DE9F041044622
:1051F0000E46206810B92046BDE8F08121890022C2
:105200003046FFF756FD05460DB92046F4E7214626
:105210002846FFF703FF074600BF00BF2046FFF701
:105220000DFD2846E8E700002DE9F04705468A46CF
:105230004FF000086F68388903F04EFC00F0FF095A
:105240004646644804681AE0207C484515D16069E8
:1052500098B107F10C032A462146D4E905C0E0477E
:1052600058B14FF000054FF0010836B1E068F0602A
:1052700058480068E060574804602646E468B8F182
:10528000000F01D1002CDFD14046BDE8F087024677
:1052900011B94FF0000000E008681060002070476E
:1052A000024611B94FF0000000E00868506000208D
:1052B00070474161826170472DE9FE4F04460E46FA
:1052C00091464FF014013046FFF70EFE78B10022F0
:1052D00011460120FFF7EDFC05461DB94FF0FF30E8
:1052E000BDE8FE8F31462846FFF76EFE0BE03546DF
:1052F0006FF013012846FFF7F7FD20B100BF00BF94
:105300004FF0FF30ECE7484603F0ACFC070007D154
:10531000B54202D02846FFF791FC6FF00300DFE7AB
:105320000CB1206810B907F1040800E0A046207C09
:10533000A17ACDE901070091E37A4A464146284621
:1053400003F079FD8246B54202D02846FFF776FC8D
:105350005046C5E770B504460D4604F104022946DF
:105360002046FFF7A9FF70BD70B5054619480068D3
:10537000A84205D117480068C068164908600CE0CB
:105380001448046807E0E06820B1E068A84201D151
:10539000E868E060E468002CF5D129460020FFF7BA
:1053A0002CFB70BD70B505464FF00000FFF711FBF8
:1053B000044664B11C21204608F0BFFA25744FF062
:1053C000FF00E07203480068E06002480460204685
:1053D00070BD00008402002070B504464FF0000547
:1053E0004CB1606818B16068FFF728FC054621469B
:1053F0000420FFF702FB284670BD70B504464FF04D
:10540000000506E026682046FFF7E6FF2844C5B2FF
:105410003446002CF6D1284670BD10B50446207CD9
:10542000B8B1207C0A2814D0207C012811D0E06F6C
:1054300028B1E06FFFF702FC4FF00000E067606FFB
:10544000FFF7DBFFA06FFFF7D8FF4FF000006067AA
:10545000A06710BD2DE9FC474FF0000AFE48006828
:1054600000F10100FC4908605646FC4804683BE135
:1054700000BF00BF00BF00BF00BF00BF4FF000056E
:10548000A846207C022807D194F84A00062803D1B8
:1054900005F10100C5B274E094F84A000C2803D16C
:1054A00005F10100C5B26CE094F89C00002820DDF5
:1054B00054F8980F00F10100206020792168A4F1D0
:1054C0009804A0F10100E64A105C814259D34FF0E4
:1054D0000000C4F8980094F89C00072805D294F8BE
:1054E0009C0000F1010084F89C00204602F064FC5E
:1054F00047E0B4F93600002804DBE08E00F101003B
:1055000000B2E086A06FE0B3B4F93600B4F94810F9
:10551000884236DB207C02280ED034F8460F34F95E
:10552000021C00EBE1002179CE4A515C00FA01F047
:1055300000B26080A4F146044FF00000E086B4F8A9
:105540005200B4F85C10884202DAB4F8520001E06C
:10555000B4F85C0081464FEA6900A4F85400B4F83E
:105560005400218F884206DA208F4FEA40404FEAEC
:105570001040A4F85400208FA4F85200204602F0F6
:1055800059FB207C062808D1B349206B0968081A0A
:10559000282802D905F10100C5B2208910F0080FB2
:1055A00037D0207C042802D0207C072831D1AE4996
:1055B000D4F8940008444FF4FA71B0FBF1F0A64A15
:1055C000216B1268511A884207D205F10100C5B259
:1055D00008F1010000F0FF081BE094F89D0042F282
:1055E0009F425043D4F8941001EBC0004FF4FA717D
:1055F000B0FBF1F0984A216B1268511A884208D228
:10560000204602F0AAFB94F89D0000F1010084F806
:105610009D00207C032808D18F49206B0968081A57
:10562000282802D905F10100C5B2207C092808D13B
:105630008949206B0968081AF02802D905F1010090
:10564000C5B265B32046FFF7E8FE26B100BF00BF34
:10565000E068F06004E000BF00BF8049E0680860D7
:1056600000BFD4F8900028B16FF00401D4F8902066
:105670006069904700BFB8F1000F09D0208C218BE2
:10568000CDE90010231D2246616AA06D02F075FA73
:10569000E76821460220FFF7B0F93C4624E014F801
:1056A000340F00F10100207020786178A4F13404F7
:1056B000884217DB4FF0000084F8340000BFD4F8B4
:1056C0008C0030B12146D4F88C2060699047824626
:1056D00001E04FF0000A00BFBAF1000F02D12046EE
:1056E00002F057F92646E468002C7FF4C1AE264646
:1056F0005E48046825E000BF00BF4FF00005564932
:10570000206B0968A1EB0000F02802D905F1010027
:10571000C5B2A5B12046FFF780FE26B100BF00BF8D
:10572000E068F06004E000BF00BF5049E068086036
:10573000E76821460220FFF760F93C4601E0264673
:10574000E468002CD7D1BDE8FC8770B505460C464F
:1057500000BF2868A04203D12868C068286017E00D
:105760004349286808600EE041480068C068A042CC
:1057700004D13F49E0680968C86008E03C48006817
:10578000C0683B4908603A4800680028ECD100BF77
:105790004FF00000E06000BF2046FFF73EFE207C97
:1057A0000A2810D0207C01280DD094F8220010F097
:1057B000010F08D094F8220040F0020084F8220083
:1057C000204602F0E6F8207C012803D000BF00BF8D
:1057D00000BF00BF4FF00000207400BF00BF70BDCD
:1057E00070B50546287C082875D2DFE800F004482B
:1057F00054606A7F7F754FF0000400BF1D48006849
:10580000A84205D11B480068C0681A49086018E022
:1058100018480068164908600EE015480068C0681E
:10582000A84204D11249E8680968C86008E0104835
:105830000068C0680E4908600D4800680028ECD177
:1058400000BF4FF00000E86000BF29464FF00200A3
:10585000FFF7D3F810E00000BC020020C8020020CF
:1058600025DE060818DE0608B84C0A00CC02002027
:10587000D0020020C00200204FF000053AE04FF0B7
:1058800000042946F948FFF760FF29460320FFF787
:10589000B4F825462EE04FF000042946F448FFF7FF
:1058A00054FF29460220FFF7A8F8254622E00121EF
:1058B000284601F0A1FF044614B94FF005002874F2
:1058C00018E00121284601F097FF044614B94FF073
:1058D000050028740EE009E00121284601F08CFF44
:1058E000044614B94FF00900287403E04FF0000497
:1058F000254600BF00BF1DB114B9284602F049F883
:10590000204670BD10B501460B8D486A00EB0302BE
:10591000088F40F2B454CB6AA04201DD204600E07B
:10592000088F1844101A04D4088D4885C86A101AC4
:1059300010BDCB6A486AC01A002803DD4FF0000092
:10594000488504E04B6AC86AA0EB03004885002044
:10595000EEE770B504460E4600BF00BF208D304410
:105960002085208D40F66831884201DD084620857B
:105970002046FFF7C7FF054640F2DA2085420ADBE2
:1059800000BF94F8220040F0020084F82200204674
:1059900001F0FFFF00BF70BD2DE9F04107460D4645
:1059A00014461E463CB121892846FFF7D2FF204607
:1059B000FFF744F905E026B92846FFF711FFBDE8D7
:1059C000F0810020FBE770B5A948046832E0E06F81
:1059D000C8B100BFD4F8840040B100232146D4F8F8
:1059E0008460E26F6069B047054606E00023214607
:1059F0001846E26FFFF7D0FF054600BF15B94FF01C
:105A00000000E06700BF94F8220010F0010F10D0F2
:105A100000BF94F8220040F0020084F822002046E3
:105A200001F0B7FF00BF94F8220020F0030084F8D3
:105A30002200E468002CCAD170BD10B5FFF7C3FF87
:105A40008C48007800F10100C0B28A49087010F05B
:105A5000010F01D0FFF7FEFC10BD2DE9FF5F0446EA
:105A60000E46207C0A2808D121468348FFF76DFEA8
:105A700021460220FEF7C1FF37E0A76DD4F824804D
:105A800014B94FF0000000E020680290201D00D102
:105A900000E060680390B4F818A0B4F82090D4F83F
:105AA0009050D4F814B021467148FFF74EFEA06F15
:105AB00010B1A06FFFF7A1FC606F10B1606FFFF72E
:105AC0009CFC21460220FEF798FF00BF1DB16FF03D
:105AD00004015846A84700BF3EB103AB02AA4146A5
