:020000040800F2
:10000000B85D0120616200086518000867180008E3
:100010006B1800086F180008731800080000000033
:1000200000000000000000000000000073620008F3
:1000300077180008000000007762000879180008AF
:100040007B6200087B6200087B6200087B6200081C
:100050007B6200087B6200087B6200087B6200080C
:100060007B6200087B6200087B6200087B620008FC
:100070007B620008811800087B620008891800086C
:100080007B6200087B6200087B6200087B620008DC
:100090007B6200087B6200087B6200087B620008CC
:1000A0007B6200087B6200087B6200087B620008BC
:1000B0007B6200087B6200087B6200087B620008AC
:1000C0007B6200087B6200087B6200087B6200089C
:1000D0007B6200087B6200087B6200087B6200088C
:1000E0007B6200087B6200087B6200087B6200087C
:1000F0007B6200087B6200087B6200087B6200086C
:100100007B6200087B6200087B6200087B6200085B
:100110007B6200087B6200087B6200087B6200084B
:100120007B6200087B6200087B6200087B6200083B
:100130007B6200087B6200087B6200087B6200082B
:100140007B6200087B6200087B6200087B6200081B
:100150007B6200087B6200087B6200087B6200080B
:100160007B6200087B6200087B6200087B620008FB
:100170007B6200087B6200087B6200087B620008EB
:100180007B620008DFF80CD00CF0ACFC00480047A4
:1001900099010008B85D012042F2107000F024FDC2
:1001A0004FF47A7000F020FD00F0B4F94FF47A704B
:1001B00000F01AFD00F0BCF94FF47A7000F014FD65
:1001C00000F0C0FB00F0C1FB00F079FC42F21070BF
:1001D00000F00AFD00F073FC42F2107000F004FD24
:1001E00001F056FB42F2107000F0FEFC00F0ABFB99
:1001F00000F0ACFB00F063FC42F2107000F0F4FC85
:1002000000F0A0FB00F0A1FB00F059FC42F21070DE
:1002100000F0EAFC00F080F803F0E6FE00F064FE77
:100220004FF47A7000F0E0FC04F0D4FA4FF47A70E6
:1002300000F0DAFC02F0E8FE00F041FC42F210703F
:1002400000F0D2FC42F2107000F0CEFC42F21070CE
:1002500000F0CAFC03F020FF00F031FC42F2107005
:1002600000F0C2FC48E000F0A1F801F088FD00F0C9
:10027000ABFE02F07AFF02F01BFB20480068012869
:1002800004DB00201D49086001F061FB1C48006888
:10029000022804DB02201A49086001F05CFB1948BF
:1002A0000068052804DB00201649086001F054FBB3
:1002B000154800680A2804DB00201349086001F093
:1002C00051FB12480068322804DB00200F49086007
:1002D00001F05AFB0E480068642804DB00200C493A
:1002E000086001F05FFB0B480068C82804DB0020B1
:1002F0000849086001F05AFBB5E70000F002002051
:10030000F4020020F8020020FC020020000300207C
:10031000040300200803002010B504206F49087072
:1003200007206F49087012206E4908706E490870E6
:1003300001206E49086008206D49087001206D4950
:1003400008706D49088000F032FB6C49087008465F
:1003500000786849087000206949086069490860A8
:1003600004F0A8F800F017FC10BD10B54FF47A7037
:1003700000F03AFC02F03FFD4FF47A7000F034FCDC
:1003800001F0F1FC4FF47A7000F02EFC01F0D7FA86
:100390004FF47A7000F028FC72B64FF47A7000F0D7
:1003A00023FC10BD10B503F00DFF10BD10B556486D
:1003B000006803280AD15248006820B9012050493A
:1003C000086000F003FE00204F4908604C480068B8
:1003D00018B900204D49086016E049480068012816
:1003E00003D10020494908600EE045480068022812
:1003F0000AD144480068002803DD00204349086012
:1004000002E001204149086010BD10B500F057FB23
:1004100036480068401C35490860084600681428C2
:1004200005D101203A490860FFF7BCFF08E02F48DA
:100430000068B0F57A7F03DD4FF47A702B490860CD
:100440002F48006830B900F068FB00F083FB00F033
:100450009CFB22E02A480068012806D100F049FBF5
:1004600000F078FB00F091FB17E0254800680228B7
:1004700013D100F04CFB23480068002809DD214817
:100480000068401E1F49086000F05DFB00F07DFB26
:1004900003E000F05FFB00F072FB10BD704710B589
:1004A0000446402C02DD4FF0FF3010BD11490C70A6
:1004B00003F09EFD03F04FFE0020F6E710B5044662
:1004C000B4F5803F02DD4FF0FF3010BD0A490C80CB
:1004D00003F08EFD03F02FFE0020F6E78D020020D2
:1004E0008E0200208F020020900200208402002053
:1004F0008002002081020020820200208C02002065
:1005000094020020A0020020080400209403002090
:100510008802002010B501217F2005F06DFB01212C
:10052000880305F0ADFB0121880505F098FB10BD9F
:100530001CB504220121FC4804F08FFF0422002195
:10054000F94804F08AFF022000908DF804008DF82D
:10055000050001208DF8060000208DF8070069468F
:10056000F14804F0EFFE012000906946EE4804F0E7
:10057000E9FE4FF40070009002208DF804008DF821
:10058000050000208DF806008DF807006946E74851
:1005900004F0D8FE05220921E44804F05EFF402063
:1005A000009002208DF804008DF8050000208DF8E1
:1005B00006008DF807006946DC4804F0C3FE0522FA
:1005C0000621DA4804F049FF4FF4805000900220E1
:1005D0008DF804008DF8050000208DF806008DF8D8
:1005E00007006946D24804F0ADFE05220C21D04830
:1005F00004F033FF4FF40050009002208DF8040007
:100600008DF8050000208DF806008DF8070069467A
:10061000C74804F097FE05220D21C54804F01DFFD0
:100620004FF40040009002208DF804008DF8050082
:1006300000208DF806008DF807006946BC4804F0DC
:1006400081FE05220F21BA4804F007FF80200090A8
:1006500002208DF804008DF8050000208DF80600BA
:100660008DF807006946B14804F06CFE06220721A8
:10067000AE4804F0F2FE1020009002208DF8040035
:100680008DF8050000208DF806008DF807006946FA
:10069000A84804F057FE06220421A64804F0DDFE17
:1006A0004FF48060009002208DF804008DF8050062
:1006B00000208DF806008DF8070069469B4804F07D
:1006C00041FE06220A21994804F0C7FE4FF48050EB
:1006D000009002208DF804008DF8050000208DF8B0
:1006E00006008DF807006946904804F02BFE0622AC
:1006F0000C218E4804F0B1FE4FF400500090012010
:100700008DF8040000208DF8060003208DF8050008
:1007100000208DF807006946874804F013FE4FF467
:100720008040009001208DF8040000208DF8060024
:1007300003208DF8050000208DF8070069467E48EB
:1007400004F000FE4FF40040009001208DF80400FA
:1007500000208DF8060003208DF8050000208DF89C
:1007600007006946744804F0EDFD01200090002068
:100770008DF8040003208DF8050001208DF8070096
:1007800069466E4804F0DEFD0220009000208DF8DE
:10079000040003208DF8050001208DF8070069464C
:1007A000664804F0CFFD0420009000208DF804007E
:1007B00003208DF8050001208DF8070069465F4889
:1007C00004F0C0FD0820009000208DF804000320F4
:1007D0008DF8050001208DF807006946574804F0A0
:1007E000B1FD1020009000208DF8040003208DF84A
:1007F000050001208DF807006946504804F0A2FD6D
:100800002020009000208DF8040003208DF80500C2
:1008100001208DF807006946484804F093FD402008
:10082000009000208DF8040003208DF805000120C1
:100830008DF807006946414804F084FD802000904F
:1008400000208DF8040003208DF8050001208DF8AC
:1008500007006946394804F075FD08200090002023
:100860008DF8040003208DF8050001208DF80700A5
:1008700069462D4804F066FD0420009001208DF8A3
:10088000040000208DF8060003208DF805000020EC
:100890008DF807006946284804F054FD08200090B0
:1008A00001208DF804008DF8060003208DF8050066
:1008B00000208DF8070069461F4804F043FD202002
:1008C000009001208DF804008DF8060003208DF8BB
:1008D000050000208DF807006946174804F032FD36
:1008E0004FF48070009001208DF804008DF8060010
:1008F00003208DF8050000208DF8070069460E489A
:1009000004F020FD0420009001208DF804008DF8F3
:10091000060003208DF8050000208DF807006946C9
:10092000014804F00FFD1CBD001402400008024005
:100930000004024000000240001002400018024083
:10094000704770477047704770477047704710B5E1
:100950000446002C05DD4FF400519F4804F06EFD65
:1009600004E04FF400519C4804F06AFD10BD10B53E
:100970000446002C05DD4FF48041974804F05EFDED
:1009800004E04FF48041944804F05AFD10BD10B5C6
:100990000446002C05DD4FF400418F4804F04EFD65
:1009A00004E04FF400418C4804F04AFD10BD2DE9ED
:1009B000F04100250024002600274021874804F04C
:1009C00023FD06468021854804F01EFD0746002EC3
:1009D00033DD002F31DD0121804804F015FD044690
:1009E0002819C5B202217D4804F00EFD044605EB2E
:1009F0004400C5B20421794804F006FD044605EB25
:100A00008400C5B20821754804F0FEFC044605EBDD
:100A1000C400C5B21021714804F0F6FC044605EB91
:100A20000410C5B220216D4804F0EEFC044605EB2D
:100A30004410C5B2681CC5B232E00121674804F019
:100A4000E3FC04462819C5B20221644804F0DCFC2A
:100A5000044605EB4400C5B20421604804F0D4FC10
:100A6000044605EB8400C5B208215C4804F0CCFCC8
:100A7000044605EBC400C5B21021584804F0C4FC7C
:100A8000044604EB840005EB4000C5B22021534826
:100A900004F0BAFC044604EB840005EB8000C5B208
:100AA0002846BDE8F08170B508214D4804F0ACFC43
:100AB00005460DB9002400E00124204670BD10B5A4
:100AC0000421454804F0ADFCC0F10100C4B2224647
:100AD0000421414804F0B6FC10BD10B508213E4881
:100AE00004F0ACFC10BD10B508213B4804F0A8FC94
:100AF00010BD10B52021384804F093FCC0F101006E
:100B0000C4B222462021344804F09CFC10BD10B52C
:100B10002021314804F094FC10BD10B520212E484E
:100B200004F08CFC10BD10B54FF480712A4804F01D
:100B300078FCC0F10100C4B222464FF4807126480F
:100B400004F080FC10BD10B54FF48071224804F011
:100B500077FC10BD10B54FF480711F4804F06EFC97
:100B600010BD10B504211E4804F05BFCC0F101006B
:100B7000C4B2224604211A4804F064FC10BD10B52A
:100B80000421174804F05CFC10BD10B50421144882
:100B900004F054FC10BD10B5FFF7BFFFFFF7DAFFFC
:100BA000FFF7F3FF0F4800F01FF8FFF7B0FF0D4805
:100BB00000F01AF8FFF7B1FFFFF7E1FF094800F076
:100BC00013F8FFF7E2FFFFF7BEFF064800F00CF84E
:100BD000FFF7C0FF10BD00000010024000180240E7
:100BE00000140240400D03000146002206E00020F0
:100BF00001E000BF401C1428FBDB521C8A42F6D3E4
:100C0000704710B5014601F0F00201F00F03121118
:100C100002EB820403EB4404E0B210BD30B50146A0
:100C20000A2491FBF4F4E2B20A2491FBF4F504FBEC
:100C30001514E3B203EB0214E0B230BD01460A2002
:100C400009B9012007E0012203E000EB800358000E
:100C5000521C8A42F9DB70470146102009B9012075
:100C600005E0012201E00001521C8A42FBDB7047D3
:100C700010B5002304E0401C884200DB00205B1C10
:100C80009342F8DB10BD401C884200DB0020704717
:100C90002DE9F04104460F461646069D002100202E
:100CA00025E014F801C0BCF1000F06D14FF0000898
:100CB00000FB05FC06F80C801DE0002207E014F89C
:100CC00001C000FB056808F802C0491C521C14F85A
:100CD00001C0BCF1200F01DDAA42F0DB32B14FF0C0
:100CE000000C00FB056808F802C0401C491C984233
:100CF00001DAB942D5DB00BFBDE8F08170B503462B
:100D00000C460021002500200EE05E5CA64204D0C7
:100D10001DB95E5C1654401C05E05E5CA64202D123
:100D2000002616546D1C491C5E5C16B1B1F5806F2F
:100D3000EBDB0026165470BD70B503460C4600214F
:100D4000002500200FE05E5CA64205D0012D03D1F6
:100D50005E5C1654401C05E05E5CA64202D1002693
:100D600016546D1C491C5E5C16B1B1F5806FEADB50
:100D70000026165470BD2DE9F04107464FF00008DB
:100D800038460BF04DFE0646022E34DD387830280A
:100D900031D17878782802D0787858282BD100255E
:100DA00025E0B81C445D302C09DB392C07DC303CD5
:100DB000F11E481BFFF750FF04FB008816E0412C92
:100DC00009DB462C07DC373CF11E481BFFF744FFCC
:100DD00004FB00880AE0612C08DB662C06DC573C2B
:100DE000F11E481BFFF738FF04FB00886D1CB01E86
:100DF000A842D6DC15E0002511E07C5D302C09DB33
:100E0000392C07DC303C711E481BFFF717FF04FB31
:100E1000008803E033480068324908606D1CB54221
:100E2000EBDB4046BDE8F0812DE9F04706468946F8
:100E300015469A46BAF1000F21D12846FFF7FEFE6B
:100E400099FBF0F100FB1197002413E0691E081BC9
:100E5000FFF7F4FE97FBF0F000F0FF08691E081B97
:100E6000FFF7ECFE97FBF0F100FB117708F1300083
:100E70003055641CAC42E9DB0020705522E086F856
:100E800000A0681EFFF7DAFE99FBF0F100FB119756
:100E9000012413E0691E081BFFF7D0FE97FBF0F05A
:100EA00000F0FF08691E081BFFF7C8FE97FBF0F172
:100EB00000FB117708F130003055641CAC42E9DBCF
:100EC000002070550020BDE8F08701460A78120620
:100ED0004B7842EA03428B7842EA0322CB7842EA1B
:100EE000030070477C02002010B52020FE490860F6
:100EF00042F21070FFF778FE5E20FC490870452032
:100F00004870A2208870A820C870652008716420ED
:100F10004871C020F6490870A82048706520887084
:100F20006420C870C020F3490870A820487065206C
:100F300088700120C870FF20EF49087048708870E1
:100F40000020C870FFF733FDEC49087008460078B0
:100F5000EB490870084600785D30E549C8700846DE
:100F60004078E249C870E24880780871E048C0786B
:100F70004871DF480078E3490870DD4840784870E0
:100F8000DB4880788870FF20C870DF48DF49086040
:100F90000120DF49086042F21070FFF725FE00F0E3
:100FA0004EFC42F21070FFF71FFE00BF01F057FC2D
:100FB00000F05AFE42F21070FFF716FE02F0FAF946
:100FC00002F032FF002010BD7047704710B5D149C4
:100FD000CE48006802F098FACE480168CB48006815
:100FE00000F070FF002010BD10B5FFF7EFFFBE4806
:100FF0000068401EBC49086008460068002807DCFD
:101000000020086003E04FF47A70FFF7EDFDFAE787
:1010100010BD0246080E1070080C5070080A90703F
:10102000D1700020704701460A7812064B7842EAD8
:1010300003428B7842EA0322CB7842EA03007047EE
:101040002DE9F04104460D4616461F46802C03DA72
:101050004FF0FF30BDE8F081F72C02DD4FF0FF309C
:10106000F8E7FF2D02DD4FF0FF30F3E7FF2E02DD42
:101070004FF0FF30EEE7FF2F02DD4FF0FF30E9E7E2
:101080009B48047045708670C7704FF47A70FFF704
:10109000ABFD02F0ADFF4FF47A70FFF7A5FD02F053
:1010A000ABFF4FF47A70FFF79FFD4FF47A70FFF7B4
:1010B0009BFD9948FFF798FD9748FFF795FD00BF06
:1010C0009648006800F4E06095490843001D934984
:1010D0000860BFF3408F00BF00BFFEE730B5014698
:1010E0000A0EC1F30743C1F30724CDB2802A02DA06
:1010F0004FF0FF3030BDF72A02DD4FF0FF30F9E747
:10110000FF2B02DD4FF0FF30F4E7FF2C02DD4FF044
:10111000FF30EFE7FF2D02DD4FF0FF30EAE77448C4
:10112000027043708470C5700020E3E72DE9F04140
:10113000A2B07C48076807F1090898F802007A49CC
:101140000978884204D04FF0FF3022B0BDE8F0812A
:101150007448006802F096F9044672480068B0F8D6
:101160001350E1780A06A17842EA0142617842EA26
:101170000121227841EA02000AF02CF821902E1F6A
:101180003246211D01A80BF027FC01A9219803F08C
:1011900067FB0020D9E770B56248066806F10905CB
:1011A000006802F06FF90446A878022826D15F484B
:1011B0000068012802D05D48006870B92078802856
:1011C0001CD1E078802819D1607A4D49097888428D
:1011D00014D102205549086010E0544800680228E4
:1011E0000CD12078802809D1E07820B1607A444978
:1011F0000978884202D000204C490860002070BD68
:1012000070B54848056805F10906006802F03AF92A
:101210000446B078012805D1607D02F05DF8A07D1C
:1012200001F0D8FE002070BD70B505460E463D4861
:1012300005603F48066008202B490860394800686F
:1012400002F0D6F810B14FF0FF3070BD354800689D
:1012500002F00EF90446012C09D0022C04D0A4F5AA
:101260000C50213809D105E0FFF7CAFF06E0FFF76F
:1012700092FF03E0FFF75AFF00E000BF00BF00202D
:10128000E3E72DE9F743C2B00D46144642F221369A
:101290000DF58479D9F80080414601A8FFF7B9FE21
:1012A0009DF804008DF808009DF805008DF80900F0
:1012B0009DF806008DF80A009DF807008DF80B00D8
:1012C000621C294603A80BF087FB671D02AB324660
:1012D00010490E480097006802F084FA0D48016832
:1012E0000A48006826E00000D8020020A40200207E
:1012F000AA020020AE020020B20200208C020020D0
:1013000081020020D402002030050020C402002009
:10131000CC020020C8020020A08601000CED00E0F5
:101320000000FA05BC020020800200209402002088
:10133000C002002000F0C6FD002045B0BDE8F083EB
:101340002DE9F04780460F46DB48C0F80080DB48B7
:1013500007600820DA490860B7F5806F03DA4FF0BC
:10136000FF30BDE8F087D448006802F041F810B1C2
:101370004FF0FF30F5E7D3480078082802D16FF02E
:101380000100EEE7CC48006802F072F88146CA48D6
:10139000006802F065F80646C748006802F064F885
:1013A0000546B9F1040F38D1C348006802F06AF865
:1013B0000446C548006801280BDA0A20C2490860C3
:1013C0000846067145712078C880601C01F03AFF1C
:1013D00023E02078BC49C98888420BDA0A20BA4940
:1013E00008600846067145712078C880601C01F0CD
:1013F00029FF12E02078B449C98888420DD1B2484B
:101400000079B04209D1B0484079A84205D10A20FC
:10141000AD490860601C01F015FF0020A1E7002025
:1014200070472DE9F04106460C46A3480660A348E4
:1014300004600820A2490860B4F5806F03DA4FF019
:10144000FF30BDE8F0819C48006801F0D1FF10B189
:101450004FF0FF30F5E79848006802F009F80546BC
:10146000062D18D19448006802F00CF807469748FA
:10147000006801280FD095480068022805D19449DA
:101480000860384601F0DEFE05E09048006810B9BB
:101490000A20904908600020D3E770B504460D4645
:1014A0002B4622468C498D48006802F0CDF88A48C8
:1014B00001688A48006800F04BFD002070BD70B5DF
:1014C00004460D462B46224683498448006802F0B4
:1014D00013F9814801688148006800F039FD002057
:1014E00070BD70B504460D462B4622467A497B48AE
:1014F000006802F02EF9784801687848006800F02A
:1015000027FD002070BD2DE9F04106460F466A48D0
:1015100006606A48076008206949086066480068F4
:1015200001F066FF18B14FF0FF30BDE8F08162486E
:10153000006801F09DFF0446032C13D15E4800684B
:1015400001F092FF05466648007885420ADA654850
:101550000068401C6349086008460068482801DDAF
:10156000482008600020E0E710B55F4800680128C7
:101570000FD15E48584902685848006802F02DF8BB
:10158000554801685548006800F005FD002056499F
:101590000860002010BD7CB5042542F23234544866
:1015A0000088000A8DF80400514800788DF8050085
:1015B00050480088000A8DF806004E4800788DF8E3
:1015C000070001AB2246444944480095006802F0F8
:1015D00009F9414801684148006800F0FFFC00201B
:1015E0007CBD2DE9F04106460F4614462046E11722
:1015F00004EB91718D10E11704EB91718910A4EB4C
:101600008101002900DD6D1C2A463946304602F072
:101610007CFCBDE8F0812DE9F04106460F462648E6
:101620000660264807602020254908602248006897
:1016300001F0DEFE18B14FF0FF30BDE8F0811E482A
:10164000006801F015FF80461B48006801F01AFF92
:101650000446A8F50C5031382BD1012026490860EA
:101660006178207801EB002021490860E178A078BA
:1016700001EB00201F4908600846006808B902F025
:1016800029FC1C48006885024FF48062211D284611
:10169000FFF7A7FFFFF77FFF1648006814490968A6
:1016A000884206D142F21070FFF79EFA281D02F020
:1016B00083FC0020C1E70000BC020020C002002023
:1016C000D802002080020020A00300209402002005
:1016D000A00200209C020020C8020020C4020020BA
:1016E00081020020CC030020C4030020C00300209E
:1016F000E0020020E4020020DC02002000B5AFB0D0
:1017000001214FF0606004F077FA04F0B9FE05F0B3
:1017100078FB00BF05F07CFB0128FBD0684604F095
:10172000BAFE01200090002007904FF400700A904C
:1017300000200B900E9011901390149015904FF480
:1017400080600990002020904FF0007021900011DF
:10175000239000202590269004202890C0052990F1
:1017600040122A9080012B9040122C9040002E9025
:101770000121684604F0E8FE364908602FB000BD3C
:101780001CB50121672004F037FA0121880304F019
:1017900077FA4FF48070009003208DF80500022046
:1017A0008DF8040000208DF806008DF807006946CA
:1017B000294803F0C7FD012004F03BFD862000907E
:1017C0006946254803F0BEFD0B220121224803F0A3
:1017D00044FE0B220221204803F03FFE0B2207218A
:1017E0001D4803F03AFE3220009069461B4803F082
:1017F000A9FD0B220121194803F02FFE0B22042121
:10180000164803F02AFE0B220521144803F025FE9A
:101810004FF4D04000906946114803F093FD0B222D
:1018200011460F4803F019FE0B220D210C4803F05E
:1018300014FE0B220E210A4803F00FFE1CBD10B54A
:10184000FFF79EFFFFF75AFF10BD10B504F018FE1A
:1018500010BD0000E8020020000002400008024025
:1018600000180240704700BFFEE700BFFEE700BF60
:10187000FEE700BFFEE7704710B500F037F810BD77
:1018800010B501F042FA10BD10B501F041F910BDDC
:101890007FB5042003F093F8684604F018F9642239
:1018A0000198B0FBF2F1B1F1807F00D31DE021F08F
:1018B0007F40401E4FF0E022506150170F22002859
:1018C00007DA13071D0E3A4B00F00F04241F1D55B5
:1018D00003E013071C0E374B1C5400BF00204FF0D1
:1018E000E02290610720106100BF7FBD3248006890
:1018F000401C3149086031480068401C2F4908608D
:101900002F480068401C2E4908602E480068401C83
:101910002C4908602C480068401C2B4908602B4863
:101920000068401C2949086029480068401C284973
:101930000860284800680A302649086070476FF040
:1019400007004FF0E021086170477047704710B5FD
:1019500002F0E0FD10BD704710B5FFF736FB00F058
:1019600024FA10BD10B5FEF750FD01F045FC1A48F1
:101970000068002803DDFEF7E4FFFEF7E5FF02F054
:101980003BFB02F021FE10BD10B513480068012892
:1019900003DAFEF7D6FFFEF7D7FFFFF725FB02F0CD
:1019A00025FC10BD10B5FEF779FD10BD7047000095
:1019B00018ED00E000E400E0F0020020F402002056
:1019C000F8020020FC020020000300200403002095
:1019D0000803002048030020A003002010B509F0F0
:1019E00007F9FE4908604DF61952FD49FB480068A9
:1019F00008F0E5FF10BD2DE9F04106460F461446FC
:101A00009846069D61896068FFF705FE204605F04F
:101A1000EBFEBDE8F08110B509F0EAF8F149086085
:101A20004DF61852EE49EF48006808F0C8FF002252
:101A3000AFF23D01EB48006809F0B9F810BD10B5F0
:101A400009F0D6F8E84908604CF69F72E449E64888
:101A5000006808F0B4FF10BD2DE9F04106460F46BE
:101A600014469846069D61896068FFF74CFD204644
:101A700005F0BAFEBDE8F08110B509F0B9F8DB4910
:101A800008604CF6A072D649D848006808F097FF65
:101A90000022AFF23B01D548006809F088F810BD7C
:101AA00010B509F0A5F8D24908604CF6B732CC4918
:101AB000CF48006808F083FF10BD2DE9F0410646CD
:101AC0000F4614469846069D61896068FFF7A9FC99
:101AD000204605F089FEBDE8F08110B509F088F8D0
:101AE000C44908604CF6B832BD49C248006808F0E5
:101AF00066FF0022AFF23D01BE48006809F057F8CA
:101B000010BD10B509F074F8BB4908604CF2CF72F3
:101B1000B349B948006808F052FF10BD2DE9F04103
:101B200006460F4614469846069D61896068FFF791
:101B300007FC204605F058FEBDE8F08110B509F01D
:101B400057F8AE4908604CF2D072A549AB4800681E
:101B500008F035FF0022AFF23B01A848006809F009
:101B600026F810BD10B509F043F8A54908604CF2FD
:101B7000E7329B49A248006808F021FF10BD2DE91B
:101B8000F04106460F4614469846069D61896068F6
:101B9000FFF74AFB204605F027FEBDE8F08110B5AF
:101BA00009F026F8974908604CF2E8328C499548CC
:101BB000006808F004FF0022AFF23D019148006880
:101BC00008F0F5FF10BD2DE9F04106460F4614461A
:101BD0009846069D6189606802F019FB204605F071
:101BE00003FEBDE8F08110B509F002F886490860EF
:101BF00043F660327A498448006808F0E0FE00222B
:101C0000AFF23D018048006808F0D1FF10BD2DE91A
:101C1000F04180460D4614461E46069F43F662324A
:101C20003146284608F086FF2146284608F078FF0E
:101C3000284608F0AEFF204605F0D6FDBDE8F0814D
:101C400010B508F0D5FF7149086043F66232644967
:101C50006E48006808F0B3FE0022AFF24D016B48F9
:101C6000006808F0A4FF10BD00B587B005F0FEFACB
:101C700005F064FC664909780A066549497842EA34
:101C800001426349897842EA0121614AD27841EAF6
:101C9000020009F09FFA06905E4909780A065D493C
:101CA000497842EA01425B49897842EA0121594A6E
:101CB000D27841EA020009F08DFA05905649097878
:101CC0000A065549497842EA01425349897842EA6D
:101CD0000121514AD27841EA020009F07BFA0490CE
:101CE0004FF0FF3009F076FA4C490860484909780E
:101CF0000A064749497842EA01424549897842EA59
:101D0000012141F0FF0009F065FA454908604548A6
:101D10004549002204ABCDE90021029005AA06A99D
:101D2000424805F0B6FC414805F0E4FC3F4805F0A8
:101D300029FDFFF785FFFFF756FFFFF730FFFFF79D
:101D400011FFFFF7FBFEFFF7DCFEFFF7C6FEFFF714
:101D5000A7FEFFF791FEFFF772FEFFF75CFEFFF7AD
:101D60003DFE07B000BD10B5304805F0C6FCFFF7DA
:101D70006CFD10BD10B52D480AF0F0FD10BD10B57A
:101D800004F010FF08B1FFF7F5FF10BD10B52848AB
:101D90000068401C2649086008460068642803DD86
:101DA000002008600AF08DF810BD10B5FFF7EEFFB7
:101DB00010BD1CB520208DF8000021208DF80100F9
:101DC00022208DF8020023208DF8030024208DF8B6
:101DD000040025208DF8050026202BE04403002078
:101DE000AADC0008400300203C0300203803002048
:101DF00034030020300300202C030020280300209F
:101E000024030020200300201C03002018030020CE
:101E1000AA020020B2020020AE020020100300201F
:101E20001403002087C7000889C90008300A002071
:101E30000C0300208DF8060027208DF8070043F6DC
:101E4000623278497848006808F074FE032208215D
:101E5000002005F000FD044684B1082269462046B2
:101E600005F038FF21467048006808F059FE6E48BA
:101E7000006808F08EFE204605F0B6FC1CBD70B56B
:101E800006460C4643F6613266496848006808F029
:101E900051FEA1B20322002005F0DDFC054685B10C
:101EA000A2B23146284605F015FF29465F48006872
:101EB00008F036FE5D48006808F06BFE284605F025
:101EC00093FC70BD70B506460C464CF2E83255499D
:101ED0005748006808F02EFEA1B20322002005F04A
:101EE000BAFC054685B1A2B23146284605F0F2FE9D
:101EF00029464F48006808F013FE4D48006808F076
:101F000048FE284605F070FC70BD70B506460C46CC
:101F10004CF2D07243494748006808F00BFEA1B26A
:101F20000322002005F097FC054685B1A2B2314698
:101F3000284605F0CFFE29463E48006808F0F0FD2F
:101F40003C48006808F025FE284605F04DFC70BDB1
:101F500070B506460C464CF6B83232493648006831
:101F600008F0E8FDA1B20322002005F074FC05464C
:101F700085B1A2B23146284605F0ACFE29462E486E
:101F8000006808F0CDFD2C48006808F002FE2846E5
:101F900005F02AFC70BD70B506460C464CF6A072E2
:101FA00020492648006808F0C5FDA1B203220020A0
:101FB00005F051FC054685B1A2B23146284605F030
:101FC00089FE29461D48006808F0AAFD1B480068E4
:101FD00008F0DFFD284605F007FC70BD70B5064629
:101FE0000C464DF618520F491548006808F0A2FD3E
:101FF000A1B20322002005F02EFC054685B1A2B255
:102000003146284605F066FE29460D48006808F06E
:1020100087FD0B48006808F0BCFD284605F0E4FB8E
:1020200070BD000014030020180300201C030020D2
:10203000240300202C030020340300203C03002054
:10204000440300201FB50020ADF804004BF6FF70DC
:10205000ADF80600A020ADF808004FF48060ADF8A0
:102060000A000001ADF80C00FB4800900121FB487C
:1020700003F0CDFA6946F94803F04DFA1FBD2DE98A
:10208000F04104460D46270AE6B200BF4FF4003186
:10209000F24803F0E2FB0028F8D10121EF4803F0F9
:1020A000C2FA00BFEE49ED4803F0B5FB0028F9D0B5
:1020B0000022A021E94803F0CEFA00BFE949E74831
:1020C00003F0A9FB0028F9D03946E44803F047FBA8
:1020D00000BFE549E14803F0C0FB0028F9D03146D4
:1020E000DE4803F03CFB00BFDF49DC4803F0B5FBF2
:1020F0000028F9D02946D94803F031FB00BFDA495E
:10210000D64803F0AAFB0028F9D000BFD549891EA4
:10211000D24803F080FB0028F8D00121CF4803F01B
:102120008EFABDE8F0812DE9F0410446260AE5B2B9
:1021300000BF4FF40031C94803F08FFB0028F8D1ED
:102140000121C64803F06FFA00BFC549C34803F038
:1021500062FB0028F9D00022A021C04803F07BFADE
:1021600000BFC049BD4803F056FB0028F9D03146F6
:10217000BA4803F0F4FA00BFBB49B84803F06DFB5E
:102180000028F9D02946B54803F0E9FA00BFB6495E
:10219000B24803F062FB0028F9D00121AF4803F0F8
:1021A00042FA00BFAE49AD4803F035FB0028F9D034
:1021B0000122A021A94803F04EFA00BFAA49891EB6
:1021C000A64803F04AFB0028F8D00021A34803F0FA
:1021D0004AFAA248183000880121A04803F02FFADB
:1021E00000BFA1493C319D4803F037FB0028F8D0DF
:1021F0009A4803F0B6FA074600BF9848008810F4E2
:10220000007FFAD10121954803F02DFA3846BDE848
:10221000F0812DE9F04706460F4615464FF6FF7050
:1022200000EA46184FEA182A08F0FF09202D00DDC1
:10223000202500BF4FF40031884803F00EFB002832
:10224000F8D10121854803F0EEF900BF84498348A5
:1022500003F0E1FA0028F9D00022A0217F4803F022
:10226000FAF900BF7F497D4803F0D5FA0028F9D07C
:1022700051467A4803F073FA00BF7B49774803F070
:10228000ECFA0028F9D04946744803F068FA00BF18
:102290007549724803F0E1FA0028F9D000240BE0F8
:1022A000395D6E4803F05BFA00BF6F496B4803F07D
:1022B000D4FA0028F9D0641CAC42F1DB00BF6949B4
:1022C000891E664803F0A7FA0028F8D00121634868
:1022D00003F0B5F9BDE8F0872DE9F04706460F4653
:1022E00015464FF6FF7000EA46184FEA182A08F024
:1022F000FF09202D00DD202500BF4FF40031574895
:1023000003F0ABFA0028F8D10121544803F08BF90F
:1023100000BF5349514803F07EFA0028F9D000224B
:10232000A0214E4803F097F900BF4E494B4803F0F7
:1023300072FA0028F9D05146484803F010FA00BF5D
:102340004949464803F089FA0028F9D049464348EC
:1023500003F005FA00BF4449404803F07EFA002824
:10236000F9D0002439E001213C4803F05CF900BFBA
:102370003B493A4803F04FFA0028F9D00122A02146
:10238000364803F068F900BF3749891E334803F027
:1023900064FA0028F8D00021304803F064F92F488F
:1023A0001830008801212D4803F049F900BF2E495B
:1023B0003C312A4803F051FA0028F8D0274803F0AE
:1023C000D0F9385500BF2548008810F4007FFAD1B5
:1023D0000121224803F047F9641CAC42C3DBBDE88D
:1023E000F0871FB50020ADF804004BF6FF70ADF884
:1023F00006008820ADF808004FF48060ADF80A00B0
:102400000001ADF80C00144800900121134803F0BE
:10241000FEF86946114803F07EF81FBD2DE9F0472C
:1024200081460C464F2C01DD4F2402E0002C00DADF
:1024300000240A2094FBF0F0C7B20A2094FBF0F1CC
:1024400000FB114000F0FF08B9F1010F0ED147F079
:10245000B00548F0A00615E0A08601000058004035
:10246000010003008200070004000010B9F1020F10
:1024700004D147F0300548F0200603E047F0E005BE
:1024800048F0D00600BF4FF40031204803F0E5F9D2
:102490000028F8D101211D4803F0C5F800BF1C49F0
:1024A0001A4803F0B8F90028F9D00022882117480B
:1024B00003F0D1F800BF1749144803F0ACF9002825
:1024C000F9D02946114803F04AF900BF12490F48D4
:1024D00003F0C3F90028F9D031460C4803F03FF966
:1024E00000BF0D49094803F0B8F90028F9D000BF32
:1024F0000849891E054803F08EF90028F8D001210B
:10250000024803F09CF8BDE8F08700000058004046
:1025100001000300820007000400001038B50446E3
:102520000020009000BF0121FE4803F07CF8142138
:10253000FC4803F05CF9009000222146F94803F0C2
:102540008AF81421F74803F052F910F0020FEAD08C
:10255000F549F44803F09EF938BD00B587B0012174
:10256000480503F07CFB04220821F04802F075FFC7
:1025700004220921ED4802F070FF4FF480700590AD
:1025800002208DF818008DF8190001208DF81A002E
:1025900000208DF81B0005A9E44802F0D3FE4FF49B
:1025A0000070059005A9E14802F0CCFEDD4802F07C
:1025B00089FF0020ADF808004BF6FF70ADF80A0067
:1025C000BE20ADF80C004FF48060ADF80E000001A5
:1025D000ADF81000D64801900121D24803F017F859
:1025E00001A9D04802F097FF0121CE4803F03BF843
:1025F00007B000BD2DE9F04105462E46002740F208
:10260000DC540121C74803F02EF804E0641E14B91D
:102610003846BDE8F0814FF40031C24803F01DF99F
:102620000028F3D10121BF4802F0FDFF03E0641E42
:102630000CB93846EDE7BF49BA4803F0ECF800287A
:10264000F5D00022BE21B74803F005F803E0641E70
:102650000CB93846DDE7B849B24803F0DCF8002889
:10266000F5D03146AF4803F07AF803E0641E0CB9A8
:102670003846CEE7B149AB4803F0EFF80028F5D073
:102680000121A84802F0CFFF03E0641E0CB93846D0
:10269000BFE7A849A34803F0BEF80028F5D00122FF
:1026A000BE21A04802F0D7FF03E0641E0CB93846F3
:1026B000AFE7A249891E9B4803F0CFF80028F4D069
:1026C0000021984802F0CFFF964818300088012179
:1026D000944802F0B4FF03E0641E0CB9384698E752
:1026E00096493C318F4803F0B8F80028F4D08D4863
:1026F00003F037F8074603E0641E0CB9384688E754
:102700008848008810F4007FF6D10121854802F046
:10271000AAFF38467DE770B505460E4640F2DC5408
:102720000121804802F09FFF02E0641E04B970BDE1
:102730004FF400317B4803F090F80028F5D10121D7
:10274000784802F070FF02E0641E04B9EFE77949AF
:10275000744803F060F80028F6D00022BE217148CA
:1027600002F079FF02E0641E04B9E0E772496D48A7
:1027700003F051F80028F6D029466A4802F0EFFF2E
:1027800002E0641E04B9D2E76C49664803F065F8BC
:102790000028F6D03146634802F0E1FF02E0641EF3
:1027A00004B9C4E765495F4803F057F80028F6D03C
:1027B00002E0641E04B9BAE75F49891E594803F074
:1027C0002AF80028F5D00121564802F038FF00BF52
:1027D000ADE770B54324102500BF4FF400315148D8
:1027E00003F03BF80028F8D101214E4802F01BFF0E
:1027F00000BF50494B4803F00EF80028F9D00022E2
:10280000BE21484802F027FF00BF4B49454803F06E
:1028100002F80028F9D02146424802F0A0FF00BF8C
:102820004649404803F019F80028F9D029463D48A8
:1028300002F095FF4FF47A70FEF7D6F900BF3E49DB
:10284000891E384802F0E7FF0028F8D001213548FA
:1028500002F0F5FE70BD10B5FFF7BBFF10BD10B55F
:10286000FFF77BFE4FF47A70FEF7BEF910BD02460B
:10287000E1B1334B10681B6898420CD91068C0F165
:10288000FF302F4B1B68184488420FD32C48006838
:102890001060012070472A4B10681B68181A884284
:1028A00004D32748006810600120F3E70020F1E717
:1028B00010B50024234801682348FFF7D8FFF8B17A
:1028C0004EF660201F4908601C20FFF793FE044667
:1028D000FF2C07D0FF211C20FFF71DFF41F288309D
:1028E000184908602C20FFF785FE0446FF2C07D00E
:1028F000FF212C20FFF70FFF41F2883011490860BB
:1029000010BD30B5C1B0002400254FF4807101A87E
:102910000AF07BF81C20FFF76DFE04462C20FFF721
:1029200069FE13E00054004000040010000402405F
:10293000A0860100010003008200070004000010CF
:1029400048030020500300204C03002005464FF4AC
:10295000807101A80AF059F82B46224604A101A86B
:102960000AF024F901A801F0DBFB41B030BD000002
:10297000706F7274313A203078253032782C2070A4
:102980006F7274323A3078253032780A00000000D5
:102990001FB50121880303F062F9F84803F06AFAD1
:1029A0004AF6444002900020ADF80200ADF8040061
:1029B000ADF80C004FF40070ADF800000020ADF849
:1029C00006006946ED4803F099FA0121EB4803F04F
:1029D00042FB1FBD00B591B00121480503F00CF981
:1029E0000021E74802F0E6F8E54802F007F8002287
:1029F000E449E34802F005F90121E14802F00DF94C
:102A000000200290DD480C300390DF480490402005
:102A1000059000010690002007904FF48060089018
:102A20004000099080000A9040110B9040020C90E9
:102A300004200D9003200E9000200F90109002A90A
:102A4000CF4802F07DF801221021CD4802F03EF976
:102A500001220821CA4802F039F90F208DF804003C
:102A600000208DF805008DF8060001208DF8070084
:102A700001A801F056FF0121C14802F09BF8012294
:102A80000221BE4803F052FB11B000BD70B5BC4836
:102A900002F0D3F808B9BB4D00E0BB4DBB4800685D
:102AA000BB49096801EB80260821B8480068FEF799
:102AB000EAF8B6490860002405E036F8140005EB92
:102AC00084014880641CB4F5007FF6DB70BD70B5EE
:102AD000AB4802F0B2F808B9AA4D00E0AA4DAD48E3
:102AE0000068AD49096801EB80260821A948006803
:102AF000FEF7C9F8A7490860002405E036F814007D
:102B0000610025F81100641CB4F5007FF6DB70BD90
:102B100010B5A2480068A1490860A149984802F090
:102B2000F2F8012810D19E49954802F015F99B480A
:102B300000689A490860FFF7CAFFFFF7A7FF012066
:102B40009849086000F0E4FB97498D4802F0DBF8F3
:102B5000012807D194498A4802F0FEF88F4800689E
:102B60008E49086010BD1FB50121C80303F077F836
:102B70008E4803F07FF94AF6444002900020ADF8F9
:102B80000200ADF80400ADF80C004FF48070ADF811
:102B900000000020ADF806006946844803F0AEF955
:102BA0000121824803F057FA1FBD00B591B0012101
:102BB000480503F021F800217148303801F0FAFF90
:102BC0006F48303801F01AFF002279496C483038DC
:102BD00002F017F801216A48303802F01EF8002090
:102BE000029072480C3003907248049000200590C7
:102BF0004FF480600690002007904FF480600890AA
:102C00004000099080000A9040110B9040020C9007
:102C100004200D9003200E9000200F90109002A928
:102C20005748303801F08CFF0122102154483038C9
:102C300002F04CF8012208215148303802F046F8E1
:102C40000D208DF8040001208DF8050000208DF87E
:102C5000060001208DF8070001A801F062FE0121A5
:102C60004748303801F0A6FF012211464F4803F0D3
:102C70005DFA11B000BD70B54148303801F0DDFF9C
:102C800008B94B4D00E04B4D4B4800684B49096873
:102C900001EB8026022148480068FDF7F4FF464911
:102CA0000860002405E005EB8400408826F8140045
:102CB000641CB4F5007FF6DB01204149086070BD5B
:102CC00070B52F48303801F0B8FF08B9384D00E032
:102CD000384D3C4800683C49096801EB80260221D8
:102CE00038480068FDF7CFFF36490860002405E04A
:102CF000600035F8100026F81400641CB4F5007F5D
:102D0000F6DB01203149086070BD10B5234800682A
:102D1000224908602E491A48303801F0F4FF012892
:102D20000CD12B491648303802F016F8FFF7C8FFCF
:102D3000FFF7A1FF194800681849086025491048A5
:102D4000303801F0E0FF012808D122490C48303822
:102D500002F002F8114800681049086010BD10B573
:102D60000021064803F077F90021054801F022FF11
:102D700000220221014803F0D9F910BD00380040BB
:102D80007060024064120020640A0020700300207A
:102D90006803002060030020580300207C0200200C
:102DA000208000205403002010400020003C004000
:102DB00064220020641A002088030020840300207D
:102DC000980300207C03002078030020900300205B
:102DD000008020100040101010B500217B4803F047
:102DE0003AF900217A4801F0E5FE002201217748F6
:102DF00003F09CF910BD10B5FFF7B1FFFFF7ECFF32
:102E000010BD002000E0401C0528FCDB704770B5B9
:102E100006460D462846FDF7BAFD0120FDF7A7FD41
:102E20000020FDF794FDFFF7ECFF00241DE046FABB
:102E300004F010F0010F06D10020FDF788FD0020FE
:102E4000FDF785FD05E00020FDF781FD0120FDF780
:102E50007EFD0020FDF78BFDFFF7D3FF0120FDF77E
:102E600086FDFFF7CEFF601CC4B2082CDFDBFFF746
:102E7000C8FF0120FDF78BFDFFF7C3FF70BD10B544
:102E800000211620FFF7C3FF01216020FFF7BFFFDD
:102E900001212020FFF7BBFF01218320FFF7B7FFAF
:102EA00010BD10B500211420FFF7B1FF01210F2044
:102EB000FFF7ADFF01218120FFF7A9FF0121C2200B
:102EC000FFF7A5FF0121E320FFF7A1FF0121C120AA
:102ED000FFF79DFF0121FF20FFF799FF0121C0208F
:102EE000FFF795FF0121F020FFF791FF10BD70471C
:102EF00010B5FFF7C4FFFFF7D4FF10BD10B50446AF
:102F00004CB900211420FFF782FF01210020FFF7B8
:102F10007EFF002010BD3D2C0ADA00211420FFF7AF
:102F200076FF611CC8B20121FFF771FF0020F1E7B5
:102F3000642C09DC00211420FFF769FF01216F20B8
:102F4000FFF765FF0020E5E74FF0FF30E2E770B5DF
:102F500004460D46102C00DD1024062D00DD06254C
:102F6000204604EBD071C1F34704284605EBD0712D
:102F7000C1F3470504F00F00402141EA800005F04D
:102F8000030140EA010600211420FFF740FF012160
:102F90003046FFF73CFF002070BD10B5044600210D
:102FA0001420FFF734FF2D2C00DD2D2460000321B9
:102FB00090FBF1F0C4B20121C020FFF728FF44F0DC
:102FC000E0000121FFF723FF002010BD003C00407E
:102FD0004060024010B50446D448046000680028F0
:102FE00003DA0020D149086006E0D04800682828AC
:102FF00002DD2820CD490860CC490878FFF77EFF24
:1030000000F0F6FF002010BD10B5002405E0002000
:10301000C7490855C7490855641CB4F5005FF6DB7D
:10302000C348C5490860C348C44908600020C44972
:1030300008600420C34908600020C34908600420D8
:10304000C2490860C248C34908600020C2490860FC
:103050000120C24908600020C14908600120C1491F
:103060000860C148C14908600020C14908600120CA
:10307000C04908600020C0490860C0490860C049D4
:1030800008600A20A9490860FFF732FF4FF47A7000
:10309000FDF7AAFD2020FFF780FF4FF47A70FDF7BF
:1030A000A3FDFFF775FCFFF795FC4FF47A70FDF771
:1030B0009BFDFFF758FDFFF778FD4FF47A70FDF7A1
:1030C00093FD42F21070FDF78FFD42F21070FDF794
:1030D0008BFD00F0E1FF42F21070FDF785FD42F23A
:1030E0001070FDF781FD91480068FFF773FF002025
:1030F000A4490860A449086010BD10B5994800684B
:10310000012816D196480068012812D10020944960
:103110000860022191480068FDF7B5FD8E490860FE
:1031200009688C4A126802EB81204FF48061FEF737
:10313000B4F992480068012816D18F480068012828
:1031400012D100208C49086002218A480068FDF7EE
:103150009AFD874908600968844A126802EB812059
:103160004FF48061FEF7BDF910BD10B587480068C7
:1031700000280CDD00208549086085480068401C57
:103180008349086083480068401C82490860804881
:10319000006808280CDD7E480068102808DA4FF423
:1031A00000516548006809F030FCFDF79CFC06E022
:1031B00077480068802802DD8020754908607548DE
:1031C000006808280ADD73480068102806DA4FF402
:1031D00000515A48006809F018FC06E06D48006884
:1031E000802802DD80206B4908606B480068012858
:1031F00001D1FFF782FF10BD61480068401E6049A1
:10320000086008460068002801DA0020086063486A
:103210000068001F6149086008460068002801DA5C
:10322000002008605E480078C0F140005B490968F2
:10323000884203DA00205B49086002E00120594916
:103240000860704710B504463E4800683C4909686C
:10325000884208D008213A480068FDF714FD394932
:103260000968884207D10522082135480068FDF722
:10327000FFFC34490860334909682F4A126802EBA1
:1032800081204FF48062214609F0A6FB08212D48D9
:103290000068FDF7F8FC2B49086000203C490860F5
:1032A000FDF71BFC002010BD10B504462749096836
:1032B000224A126802EB81204FF48062214609F015
:1032C0008BFB082121480068FDF7DDFC1F490860E1
:1032D00000203049086010BD10B504463248046033
:1032E0000068002803DA00202F49086006E02E4815
:1032F0000068282802DD28202B4908602A48006839
:103300001A30294908600878FFF747FE002010BDF1
:1033100026480068401C25490860224800680128AA
:1033200001D123490860002070470000A803002055
:10333000642A0020644A002058030020680300200B
:10334000600300205C030020700300206C03002059
:10335000646A002078030020800300207C030020A2
:103360009003002094030020647200208403002056
:103370008C03002088030020980300209C03002079
:10338000A0030020D8030020EC03002054030020F9
:10339000640300207403002088020020CC03002076
:1033A00081020020C8030020B4030020C0030020D5
:1033B000C403002010B5FD480078FD498870FD4821
:1033C0000078C870FC4800880880FC48FDF72BFE98
:1033D000F7494860FF20FA498870C8704FF6FF70BF
:1033E0000880F848FDF71FFEF5494860002010BD31
:1033F00070B505462C4620787E2802D04FF0FF306D
:1034000070BDE078E9490978884205D0E078FF2866
:1034100002D04FF0FF30F3E72079E649097888427F
:1034200005D02079FF2802D04FF0FF30E8E7E348CD
:10343000FDF7F9FDD4F8051088420FD0D4F8050047
:10344000401C0BD0DD48FDF7EEFD40F0FF01D4F845
:103450000500814202D04FF0FF30D1E70020CFE7D6
:1034600001460A46D07A704701460A46107B7047EB
:1034700001460A46B2F81100704701460A46B2F802
:103480001300704701460A4602F1150070472DE906
:10349000F04104468C46274607F115052E460B2AB7
:1034A00007D1581E06F1050818F800100846BDE8B7
:1034B000F081FF20FBE717B585B00446BB480078D4
:1034C000BB498870BB480078C870BB48008808803A
:1034D000BA48FDF7A8FDB64948607E208DF8000087
:1034E0000698CDF801000798CDF805000846016858
:1034F000CDF809104068CDF80D001122694620462C
:1035000009F06AFA08B010BDF0B587B005460F465D
:103510002E46AB480168009140680246019002A81F
:10352000FFF7C9FF112202A9304609F055FA012020
:10353000A6F811000820A6F8130006F11504A24809
:10354000006810B9002020700CE09F480068012836
:1035500002D14020207005E09B480068022801D17C
:10356000802020700020607098480078A0709848F3
:103570000078E07097480078207197480078607173
:1035800096480078A07196480078E071B6F813006C
:1035900015303860002007B0F0BD30B503460C464A
:1035A00019460420A1F8130001F115052A60B1F8AD
:1035B000130015302060002030BD30B503460C46A6
:1035C00019460120A1F8130001F115052A70B1F880
:1035D000130015302060002030BD2DE9F04188B087
:1035E00004460E4617462546754801680191406815
:1035F0000246029003A8FFF75EFF112203A92846A6
:1036000009F0EAF90320A5F811000420A5F8130039
:1036100005F11508C8F80070B5F8130015303060D2
:10362000002008B0BDE8F08130B503460C461946CD
:103630000220A1F8130001F115056A70B1F813001A
:1036400015302060002030BD2DE9F04387B00446DE
:103650000E4617469846254659480168009140682D
:103660000246019002A8FFF726FF112202A9284670
:1036700009F0B2F90620A5F811004FF48060A5F812
:10368000130005F1150942463946484609F0A4F9E8
:10369000B5F8130015303060002007B0BDE8F083A6
:1036A0002DE9F04387B004460E4617469846254656
:1036B00043480168009140680246019002A8FFF764
:1036C000FAFE112202A9284609F086F90520A5F87C
:1036D00011004FF48060A5F8130005F1150942466A
:1036E0003946484609F078F9B5F8130015303060CE
:1036F000002007B0BDE8F0832DE9F04387B0044611
:103700000E461746984625462D48016800914068A8
:103710000246019002A8FFF7CEFE112202A9284618
:1037200009F05AF942F20130A5F811004FF4806017
:10373000A5F8130005F1150942463946484609F037
:103740004BF9B5F8130015303060002007B0BDE824
:10375000F0832DE9F04387B004460E46174698469D
:10376000254617480168009140680246019002A86A
:10377000FFF7A1FE112202A9284609F02DF942F215
:103780000230A5F811004FF48060A5F8130005F190
:10379000150942463946484609F01EF9B5F81300A6
:1037A00015303060002007B0BDE8F08380020020B3
:1037B000F00300208102002082020020AA020020E3
:1037C000F8030020D402002094020020B40300205B
:1037D000A80300208D0200208E0200208F0200200E
:1037E000900200202DE9F04788B004460E461746A7
:1037F0009846DDF8409025461148016801914068DF
:103800000246029003A8FFF756FE112203A928469C
:1038100009F0E2F825F8117FA5F802906888A5F173
:10382000110500F11500306005F1150A4A464146C0
:10383000504609F0D1F8002008B0BDE8F08700003C
:10384000F803002010B50C2003F0EAFD04461CB17B
:10385000002020606060A060204610BD70B5044666
:103860000E46254615B1284603F028FD70BD70B5FB
:1038700005460C460021284605F020F9002128467F
:1038800005F021F90021284605F01AF90021284603
:1038900005F01CF9204603F011FD284604F031FD27
:1038A00070BD2DE9F04106460C46B6F86E00616821
:1038B000884202D2B6F86E5001E0A08885B200239B
:1038C0002A463046216806F0BCFC07462FB920681E
:1038D000284420606068401B6060BDE8F0812DE9ED
:1038E000F04104460E461746254615B90020BDE8AE
:1038F000F0810020287229463046FFF7D2FF0020D1
:10390000F5E770B504460D461CB9284604F0F9FCED
:1039100003E021462846FFF7C4FF002070BD70B5C4
:1039200005460C461646FE49FE4809F03FF9FD489B
:10393000206009F075F8606021462846FFF7B1FF66
:1039400070BD2DE9F05F81460C4616469A46DDF8BB
:1039500028B00025484609F063F80746A84633E03A
:10396000207899F8001088422CD13A4621464846E2
:1039700009F06BF830BB3C443D4420783D2821D110
:10398000641C6D1C0BE020783070761C641C6D1C70
:1039900008F1010808F10100584500DB0AE0207831
:1039A000262807D0207828B120780A2802D020784D
:1039B0000D28E8D100BF00203070CAF800802846EA
:1039C000BDE8F09F6D1C641C207828B120780A287F
:1039D00002D020780D28C3D14FF0FF30F0E770B54A
:1039E00005460C461646D049CE4809F0DFF8CD48CA
:1039F000206009F015F8606021462846FFF751FF66
:103A000070BD70B5ACB004460E461546002001905E
:103A100080200BAB0CAA29460090C4A0FFF791FFB1
:103A2000002806DC2A4631462046FFF7D8FF2CB096
:103A300070BD60680A90202001AB02AA2946009060
:103A4000BDA0FFF77EFF0322BDA102A808F0FDFF85
:103A500020B90CA9DDE90A02FDF713FC2A4631461C
:103A60002046FFF75CFF0CA90A9800F0F9FE00BFA2
:103A7000DDE770B505460C461646B249A94809F07F
:103A800095F8A848206008F0CBFF606021462846E2
:103A9000FFF707FF70BDF8B505460C461646AA4865
:103AA00000780090A9480378A9480278A9499D4860
:103AB00009F07CF89B48206008F0B2FF6060214666
:103AC0002846FFF7EEFEF8BD70B505460C461646D3
:103AD000A149944809F06AF89248206008F0A0FFD4
:103AE000606021462846FFF7DCFE70BD70B50546D4
:103AF0000C46164699498B4809F058F889482060C9
:103B000008F08EFF606021462846FFF7CAFE70BDB0
:103B100070B505460C4616469149824809F046F8AC
:103B20008048206008F07CFF606021462846FFF74F
:103B3000B8FE70BD70B505460C46164689497948F1
:103B400009F034F87748206008F06AFF6060214689
:103B50002846FFF7A6FE70BD70B594B005460E4628
:103B60001446202003AB0CAA214600907EA0FFF74C
:103B7000E8FE00281FDD202002AB04AA21460090A9
:103B80007CA0FFF7DEFE04227DA10CA808F05DFFFB
:103B900058B906227CA104A808F057FF28B922468C
:103BA00031462846FFF7C6FF0AE02246314628463E
:103BB000FFF7AEFF04E0224631462846FFF7A8FF94
:103BC00014B070BD2DE9F043A1B006460F4614466F
:103BD0009846B146B8F1000F00D17CB934B12189C3
:103BE000384604F03BFC204603F0FEFD49463846CB
:103BF000FFF73DFE002021B0BDE8F0832189384663
:103C000004F02CFC258900BF802201A8616808F01F
:103C1000E3FE204603F0E8FD002D02DC4FF0FF300C
:103C2000E9E75B4800685A490860062259A101A8E3
:103C300008F018FF28B901AA49463846FFF756FF91
:103C400046E0122255A101A808F00CFF28B901AAEC
:103C500049463846FFF780FF3AE0142254A101A8F4
:103C600008F000FF28B901AA49463846FFF73EFF91
:103C70002EE0142254A101A808F0F4FE28B901AAEC
:103C800049463846FFF720FF22E00F2254A101A841
:103C900008F0E8FE28B901AA49463846FFF7FBFEBE
:103CA00016E00F2252A101A808F0DCFE28B901AAF3
:103CB00049463846FFF7DDFE0AE00F2250A101A871
:103CC00008F0D0FE20B901AA49463846FFF799FE10
:103CD00049463846FFF7CBFD00208CE72DE9F0413F
:103CE00006460D461746FFF7ADFD04461CB94FF0DA
:103CF000FF30BDE8F081002020606060214628464A
:103D000004F0DCFE4249284604F0DAFE4149284628
:103D100004F0DCFE0A224049284604F0DCFE7DE087
:103D200013DB0008A47E002078DA000866696C6561
:103D30006E616D6500000000616C6C5F646576000B
:103D40006F6E000093D700088E0200208D020020C5
:103D50008102002008D6000813D500085CD00008B6
:103D6000DBD200086ED40008757365726E616D65F4
:103D70000000000070617373776F726400000000D0
:103D8000726F6F740000000062656968616900000D
:103D90007C020020474554202F2000004745542036
:103DA0002F6C6F67696E5F7375626D69743F000099
:103DB000474554202F6C6F675F6572725F73756241
:103DC0006D69743F00000000474554202F66726102
:103DD0006D655F696E6465782E68746D0000000023
:103DE000474554202F6672616D65312E68746D00F1
:103DF000474554202F6672616D65322E68746D00E0
:103E0000474554202F7570646174655F66773F0085
:103E1000C53B00085D3800080339000824492846DE
:103E200004F051FE002064E770B504F042FE054640
:103E300050222049284604F010FC044600BFFF2110
:103E4000284604F080FC05462946284604F036FE44
:103E50001949284604F03DFE70BDF8B505460C46EC
:103E600016461648007800901548037815480278E1
:103E70001549164808F09AFE1448206008F0D0FD55
:103E8000606021462846FFF70CFDF8BD70B5054679
:103E90000C4616460E490D4808F088FE0B48206077
:103EA00008F0BEFD606021462846FFF7FAFC70BDB1
:103EB000DF380008AADC0008DD3C00088E02002084
:103EC0008D020020810200202CD20008A47E002058
:103ED00010D7000810B500F0A1FFF32001F0BEF9E3
:103EE0000221282000F0E6FF082805D003E03C4826
:103EF00000683B490860FAE710BD10B500F08EFF7E
:103F000010BD10B500F097FF10BD2DE9F04104463B
:103F10000E46174600250FE056F82510314AA01826
:103F200001F072F8082805D003E02D4800682C49FC
:103F30000860FAE7241D6D1CBD42EDDBBDE8F08191
:103F40002DE9F04105460E46174600F067FFF320C5
:103F500001F084F90221282000F0ACFF082805D0E8
:103F600003E01F4800681E490860FAE700240EE0DD
:103F7000315D1C4A2A44101901F098F8082805D030
:103F800003E01748006816490860FAE7641CBC4261
:103F9000EEDB00F050FFBDE8F08110B503460020D5
:103FA00004E0104C1C44245C0C54401C9042F8DB90
:103FB00010BD01460868704710B50446FCF7D5F9F6
:103FC000FCF77DFD4FF47A70FCF70EFEFCF777FDF1
:103FD0004FF47A70FCF708FE204608F0E2FD10BDB1
:103FE000000400200000020810B5FEF72BF810BDF9
:103FF000012042490860704710B540480068012818
:1040000049D13F480068002845D13C490860232039
:104010003C4908703C48007848703B484178394832
:104020008170394881783748C1703748C178354840
:104030000171364800783349487134484178314835
:104040008171324881782F48C1713048C1782D483C
:1040500001722F4800782B4948722D484178294831
:1040600081722B4881782748C1722948C178254838
:104070000173284800782349487327480088C8817D
:1040800026480078087412220820FEF7C2F84FF480
:104090007A70FCF7A9FD10BD10B51222194908204D
:1040A000FEF71AF94FF47A70FCF79EFD1548007878
:1040B000232821D113484079144908701148807988
:1040C00048701048C07988700E48007AC8700D4852
:1040D000407A0F4908700B48807A48700948C07AC6
:1040E00088700848007BC8700648C0890A49088063
:1040F0000448007C0949086010BD00000404002049
:10410000E8030020A4820020AA020020AE020020C2
:10411000B20200208102002082020020A8030020B9
:1041200070B50446204608F07BFC0546294620462B
:10413000FDF7A5FE70BD10B54FF48071A24808F0E0
:1041400064FCA2480288A2A19F4808F02FFD9E4867
:10415000FFF7E6FF10BD10B54FF480719A4808F0E4
:1041600054FC9F4802789FA1974808F01FFD96488D
:10417000FFF7D6FF10BD10B54FF48071924808F0DC
:1041800044FC9D4802789DA18F4808F00FFD8E48A1
:10419000FFF7C6FF10BD1CB54FF480718A4808F0C8
:1041A00034FC9B48C0789A498978CDE9001098483A
:1041B0004378027897A1844808F0F8FC8248FFF71A
:1041C000AFFF1CBD00B599B064229949684608F05C
:1041D00003FC6846FFF7A4FFFFF7DDFFFFF7CBFF07
:1041E000FFF7B9FFFFF7A7FF19B000BD704710B583
:1041F0004FF48071744808F008FC8E4802788EA154
:10420000714808F0D3FC7048FFF78AFF10BDF0B585
:10421000C3B004460D464FF4807103A808F0F5FBC7
:104220001020034603AA294600902046FCF730FDE3
:1042300085A103A808F0FBFB002833D183A107A8C0
:1042400008F0F5FB70BB0BA8FCF795FDC0B28DF82C
:1042500008000FA8FCF78FFDC0B28DF8090013A865
:10426000FCF789FDC0B28DF80A0017A8FCF783FDA2
:10427000C0B28DF80B004FF48071534808F0C5FBB5
:1042800074A1514808F092FC4F48FFF749FF9DF890
:104290000B309DF80A209DF809109DF80800FCF7E6
:1042A000CFFE8FE070A103A808F0C1FB38B967A169
:1042B00007A808F0BCFB10B9FFF76DFF82E06AA108
:1042C00003A808F0B4FB38B969A107A808F0AFFB50
:1042D00010B9FFF750FF75E05BA103A808F0A7FB3A
:1042E00060B965A107A808F0A2FB38B90BA8FCF7D4
:1042F00042FD06463046FCF7D2F863E05AA103A817
:1043000008F095FB38B95CA107A808F090FB10B93C
:10431000FFF721FF56E04CA103A808F088FB60B925
:1043200057A107A808F083FB38B90BA8FCF723FDB9
:1043300006463046FCF7C2F844E04BA103A808F05B
:1043400076FB38B94EA107A808F071FB10B9FFF74A
:10435000F2FE37E03CA103A808F069FB60B94AA16E
:1043600007A808F064FB38B90BA8FCF704FD064663
:104370003046FEF72FFE25E03BA103A808F057FBCF
:1043800038B943A107A808F052FB10B9FFF72FFF77
:1043900018E035A103A808F04AFB38B93EA107A8E8
:1043A00008F045FB10B9FEF7ACFA0BE04FF4807152
:1043B000054808F02AFB3AA1034808F0F7FB024839
:1043C000FFF7AEFE43B0F0BDB682002082020020AF
:1043D000547261696E2049643A20256420200A00E5
:1043E000810200204465766963652049643A20258E
:1043F0006420200A000000008002002044657669E5
:10440000636520547970653A20256420200A0000F5
:10441000AA0200204C6F63616C2049503A20256449
:104420002E25642E25642E256420200A000000001D
:1044300010DC00088C020020416464726573733ADA
:1044400020256420200A0000736574006C6F63618E
:104450006C6970004F6B2C20706C65617365207700
:104460006169742E2E2E0A007265616400000000DE
:10447000646576747970650064657669640000002F
:10448000747261696E696400766F6C756D650000A9
:1044900061646472000000007377697463680000EF
:1044A000496E76616C696420436F6D6D616E642046
:1044B000210A000010B500205049086050490860EA
:1044C00050490860504908605049086050490860E8
:1044D00050490860504908605049086050490860D8
:1044E000504800684F490860084600680860084660
:1044F00000680860084600680860FCF7D4FA20B934
:10450000484800684749086003E046480068454954
:10451000086010BD10B5FCF7C6FA68BB3F480068DC
:1045200028B93E480068401C3C49086027E03B48E9
:104530000068022805DA39480068401C37490860DD
:104540001DE036480068022808D134480068401C45
:104550003249086001203049086010E02F480068A7
:10456000642805DA2D480068401C2C49086006E0E4
:1045700001202B49086002E00020284908602048FB
:104580000068002806DD00201D49086001201B4945
:10459000086018E01D480068002806DD00201B495F
:1045A00008600220154908600DE01B4800680028DB
:1045B00006DD00201849086003201049086002E069
:1045C00000200E49086010BD0F480068002806DD75
:1045D00000200D4908600120084908600DE00D48E1
:1045E0000068002806DD00200A490860022003490F
:1045F000086002E0002001490860704708040020BC
:104600000C040020100400201404002018040020D2
:104610001C04002020040020240400202804002082
:104620002C0400207C02002010B50446AE4800682F
:10463000FFF7C2FC10BD2DE9F04106460F461446B7
:104640002046E11704EB91718D10E11704EB917195
:104650008910A4EB8101002900DD6D1C2A46394632
:104660003046FFF752FCBDE8F08170B506460C46B7
:104670009E48008882B29E499E48006806F05AFA19
:10468000A1B20322002003F0E6F8054685B1A2B2EC
:104690003146284603F01EFB29469648006806F07E
:1046A0003FFA9448006806F074FA284603F09CF834
:1046B00070BD08B500208DF8000004208DF80100C1
:1046C0008D4800780002C0B28DF802008A48007858
:1046D0008DF8030004216846FFF7C7FF874800688C
:1046E000002805DD84480068401C8349086006E016
:1046F000002081490860824908607B49086008BD44
:1047000070B505460C467D48006800B970BDE87874
:10471000A97800EB01267848006886423CD1B4F5C0
:10472000017F13D1221F291D764808F055F9FFF7A4
:10473000C0FF221F73496C480068FFF77CFF201FF1
:104740006949096808446849086022E0B4F5017FB6
:104750001BDA221F291D6B4808F03EF9FFF7A9FF5D
:10476000221F684960480068FFF765FF201F5E4907
:10477000096808445C49086008460068001DFFF7A6
:1047800053FF00205D49086003E0B4F5017F00DDC0
:1047900000BF01205A49086000BFB7E72DE9F04784
:1047A0008046894614469A46089F504807606068CC
:1047B0004578032D04D161896068FFF7A1FF04E00B
:1047C000052D02D16068C67800BF204603F00CF8C2
:1047D000BDE8F08710B54C4806F0FCFC4449086081
:1047E00006F006FA434908600846006800B910BDA3
:1047F00045F2996245493F48006806F0E0F80446F2
:104800003CB90022AFF26B013A48006806F0CFF9DC
:1048100000E000BF00203949086037490860384986
:1048200008603149086045203049086000BFDEE774
:10483000704732480068002811DD31480068401C8C
:104840002F49086008460068C82808DD00202B4969
:104850000860294908602A490860234908607047B0
:104860002DE9F343C1B00E4629A7214841990160C3
:1048700001AD4FF48071284608F0C7F80020287079
:10488000012068700224304608F0CAF881462819D1
:104890004A46314608F0A0F8304608F0C1F8044412
:1048A000641C384608F0BCF8814628194A46394647
:1048B00008F092F8384608F0B3F8044404F101080F
:1048C00041462846FFF7D1FE01200C4908600A49FD
:1048D00008600B490860002003490860FFF7FAFAF6
:1048E00043B0BDE8F08300005004002040040020E5
:1048F0003C04002038040020480400204404002028
:104900004C040020B6830020BB65A8C0AADC0008C8
:104910006F6374657400000033490143334A1160CA
:10492000704770B5002100230F22C47824B32F4CA8
:10493000246804F4E064C4F5E064C4F30721C1F121
:104940000404E3B20A4144789C40E1B28478144004
:1049500021430C07210E264C05786155047804F09C
:104960001F050124AC4005786D114FF0E02606EBE1
:104970008505C5F8004109E0047804F01F0401250D
:10498000A5401C4C0678761144F8265070BD1A4A92
:104990000A400243154B1B1F1A60704739B1134A76
:1049A000121D12680243114B1B1D1A6006E00F4ACC
:1049B000121D126882430D4B1B1D1A60704704289C
:1049C00008D14FF0E021096941F004014FF0E022E5
:1049D000116107E04FF0E021096921F004014FF077
:1049E000E0221161704700000000FA050CED00E0C4
:1049F00000E400E080E100E080FFFF1F016821F09B
:104A0000010101600021016041608160C1600161BC
:104A100021214161DA49884204D13D21D84A103A26
:104A200091608CE0D6491831884205D14FF4746109
:104A3000D34A103A916082E0D1493031884205D1A1
:104A40004FF47411CE4A103A916078E0CC49483165
:104A5000884205D14FF07461C94A103A91606EE006
:104A6000C7496031884204D1C649C54A103AD1606D
:104A700065E0C3497831884204D1C349C04A103A3D
:104A8000D1605CE0BE499031884204D1BF49BC4A44
:104A9000103AD16053E0BA49A831884205D14FF0AD
:104AA0003D51B74A103AD16049E0B949884204D132
:104AB0003D21B74A083A116041E0B54918318842B2
:104AC00005D14FF47461B24A083A116037E0B04939
:104AD0003031884205D14FF47411AD4A083A116063
:104AE0002DE0AB494831884205D14FF07461A84AA6
:104AF000083A116023E0A6496031884204D1A149F7
:104B0000A34A121F11601AE0A1497831884204D1EA
:104B10009D499F4A121F116011E09D4990318842C2
:104B200004D19A499A4A121F116008E09849A831A5
:104B3000884204D14FF03D51954A121F11607047D1
:104B400010B500220268934B1A40CC680B682343CF
:104B50004C6923438C692343CC6923430C6A234368
:104B60004C6A23438C6A23434C6B23438C6B234353
:104B70001A430260426922F00702D1E90B34234351
:104B80001A4342610B6943604B6883608B68C36062
:104B900010BD0021016041608160C160016141611F
:104BA0008161C161016241628162C16201634163ED
:104BB0008163704721B1026842F00102026003E0A4
:104BC000026822F001020260704721B1026842F4DB
:104BD0000042026003E0026822F400420260704773
:104BE00021B1026842F02002026003E0026822F074
:104BF000200202607047416070470146486880B2F9
:104C0000704722B1036843F40023036003E00368A4
:104C100023F4002303600161704721B1026842F46C
:104C20008022026003E0026822F480220260704762
:104C30000AB1016100E0C1607047014600200A68C6
:104C400012F4002F01D0012000E00020704701463F
:104C500000200A6812F0010F01D0012000E00020BE
:104C60007047014600204A6902F03800704730B5AD
:104C700003460A4600200024454DAB4202D240497B
:104C8000103901E04249103912F0005F01D04C6840
:104C900000E00C68404D2C40144201D0012000E09F
:104CA000002030BD02463A4B9A4202D234481038B6
:104CB00001E03748103811F0005F03D0364B0B404D
:104CC000C36002E0344B0B408360704710B511F0B5
:104CD000800F09D022B1436943F08003436103E0B0
:104CE000436923F08003436180290BD02AB1036814
:104CF00001F01E042343036004E0036801F01E0476
:104D0000A343036010BD70B50246002000240025B7
:104D10001F4EB24202D21A4B103B01E01C4B103B1B
:104D20001E4E314206D01E2606EAD124166806EA37
:104D3000040502E0566906F0800511F0005F01D01D
:104D40005C6800E01C68144E34400C4202D00DB187
:104D5000012000E0002070BD02460D4B9A4202D2B5
:104D60000748103801E00A48103811F0005F03D0FE
:104D7000094B0B40C36002E0074B0B408360704758
:104D8000106002403D000020400F002000003D2048
:104D9000106402403F801CF07D0F7D0F3C0F3C0FE4
:104DA000FE4A1070704730B1FC49096841F48071C7
:104DB000FA4A116005E0F949096821F48071F74A5F
:104DC0001160704730B1F549096841F40071F34A48
:104DD000116005E0F149096821F40071EF4A1160A2
:104DE000704730B1ED49096841F48061EB4A1160C8
:104DF00005E0EA49096821F48061E84A11607047DA
:104E0000E648006840F40060E44908607047E34801
:104E1000006840F48050E14908607047DF48103076
:104E2000006810F0004F05D0DD48DC49091D08601E
:104E3000DC4808607047D9481030006840F00040F6
:104E4000D6491031086070470820D4490C310968F0
:104E500001F48031B1F5803F01D1012018E0CF4944
:104E60000C31096811F0100F01D0052010E0CB497A
:104E70000C31096811F0EF0F01D0062008E0C74996
:104E80000C31096811F0020F01D0072000E0082062
:104E9000704708B508200090FFF7D6FF009002E0A9
:104EA000FFF7D2FF00909DF800000128F8D09DF890
:104EB000000008BD70B504460A460026082502B960
:104EC00009E0012A01D1160205E0022A01D11602E9
:104ED00001E04FF44076FFF7DCFF0546082D2DD1A9
:104EE000AE481030006820F44070AC4910310860C2
:104EF00008460068304308600846006820F0F80063
:104F000008600846006844F002010843A3491031D4
:104F100008600846006840F480300860FFF7B9FF79
:104F200005469E481030006820F002009B49103171
:104F300008600846006820F0F8000860284670BD48
:104F400030B5024600250824FFF7A3FF044602B946
:104F500009E0012A01D1150205E0022A01D115025A
:104F600001E04FF44075082C20D18C4810300068C7
:104F700020F44070894910310860084600682843D1
:104F800008600846006840F00400086008460068B1
:104F900040F480300860FFF77CFF04467F48103003
:104FA000006820F004007D4910310860204630BDC3
:104FB00070B5064614461D464FF00802FFF769FF1C
:104FC0000246082A1ED175481030006820F440704F
:104FD0007249103108600846006840F4407008606B
:104FE0000846006840F00100086034607560FFF713
:104FF00050FF024669481030006820F00100674900
:1050000010310860104670BD30B502460C460825C8
:10501000FFF73FFF0546082D1DD16048103000689E
:1050200020F440705D49103108600846006840F483
:10503000007008600846006840F0010008601460D5
:10504000FFF727FF054655481030006820F00100A3
:10505000524910310860284630BD30B502460C4632
:105060000825FFF716FF0546082D1DD14B481030C7
:10507000006820F440704949103108600846006813
:1050800040F4807008600846006840F00100086045
:105090001480FFF7FEFE054640481030006820F0FF
:1050A00001003E4910310860284630BD30B5024647
:1050B0000C460825FFF7EDFE0546082D1BD13748A5
:1050C0001030006820F44070344910310860084600
:1050D000006808600846006840F00100086014702D
:1050E000FFF7D7FE05462D481030006820F001007C
:1050F0002A4910310860284630BD2848143000681D
:1051000010F0010F05D028482449083108602748CD
:105110000860704721481430006840F001001F49C2
:1051200014310860704730B502460C460825FFF779
:10513000B0FE0546082D10D13CB118481630008845
:10514000904316491631088007E01448163000884D
:1051500091B2084311491631088030BD10B502469E
:105160000824FFF796FE0446082C02D10B481530A0
:10517000027010BDF0B504460D46FF260827FFF764
:1051800088FE0746082F16D104481430007800F036
:105190000F0645EA06001043204309E0003C0240A8
:1051A00023016745AB89EFCD3B2A19087F6E5D4C23
:1051B0002C4914310870F0BD2A491431097821F0C6
:1051C0000C01284A143211701146097801431170FC
:1051D000704700B5082223481430007840F00200E0
:1051E000204914310870FFF754FE0246104600BDF6
:1051F0001C4814300068C0F3471070471948163037
:10520000008870470020174915310978AA2901D074
:10521000012000E00020704712481430007800F0B0
:105220000C00704739B10F4A1032126802430D4B1F
:1052300010331A6006E00B4A103212688243094BA1
:1052400010331A60704701460020064A0C3212687B
:105250000A4201D0012000E00020704701490C31D2
:1052600008607047003C024010B504468C488442F8
:1052700008D10121084600F014FD0021012000F0B2
:1052800010FD5EE08748844208D10121022000F031
:1052900008FD0021022000F004FD52E08248844213
:1052A00008D10121042000F0FCFC0021042000F0C2
:1052B000F8FC46E07D48844208D10121082000F036
:1052C000F0FC0021082000F0ECFC3AE07848844231
:1052D00008D10121102000F0E4FC0021102000F092
:1052E000E0FC2EE07348844208D10121202000F028
:1052F000D8FC0021202000F0D4FC22E06E4884423B
:1053000008D10121402000F0CCFC0021402000F019
:10531000C8FC16E06948844208D10121802000F0D1
:10532000C0FC0021802000F0BCFC0AE064488442FC
:1053300007D10121801500F0B4FC0021A01500F078
:10534000B0FC10BDF0B50A4600210023002400BFC8
:105350003DE0012505FA01F3156805EA03049C42C6
:1053600034D105684F000326BE40B543056015796A
:105370004E00B5400668354305601579012D02D011
:105380001579022D16D185684F000326BE40B5431E
:10539000856055794E00B54086683543856045681F
:1053A00001268E40B5434560456896798E40B6B279
:1053B00035434560C5684F000326BE40B543C56010
:1053C000D5794E00B540C6683543C560491C1029E3
:1053D000BFD3F0BD4FF6FF71016000210171417133
:1053E0008171C171704708B54FF480320092009A04
:1053F0000A430092009AC261C161009AC261C26907
:105400000092C269009208BD0246002013690B4257
:1054100001D0012000E0002070470146086980B2F9
:1054200070470246002053690B4201D0012000E082
:10543000002070470146486980B270470183704779
:10544000418370470AB1018300E0418370474161A5
:10545000704742694A4042617047F0B5002300241A
:105460004D07ED0E02FA05F3CE1000F1200555F8B8
:1054700026504E07F70E0F26BE40B543CF1000F161
:10548000200646F82750CE1000F1200555F826508A
:1054900045EA0304CE1000F1200545F82640F0BD92
:1054A000000002400004024000080240000C0240DC
:1054B000001002400014024000180240001C02408C
:1054C0000020024010B50446FE48844209D1012163
:1054D000480500F02CFC00214FF4001000F027FCE0
:1054E00018E0F948844209D10121880500F01FFC29
:1054F00000214FF4800000F01AFC0BE0F3488442D6
:1055000008D10121C80500F012FC00214FF4000071
:1055100000F00DFC10BD2DE9FF4704460D460026A6
:10552000B1460427DFF8A883A6884FF6C07006406E
:10553000684600F0CCFADDF80880E648B8FBF0F0E9
:105540001FFA80F946EA0906A68020884FF6FE7108
:10555000084020800026E049286888420CD8286846
:105560004000B8FBF0F087B2042F00DA04273E4376
:1055700009F10100208427E0E888A0F53F41FF39C8
:1055800006D1286800EB4000B8FBF0F087B209E0D4
:10559000286800EBC00101EB0010B8FBF0F087B207
:1055A00047F480473805000D01D147F0010747F463
:1055B000004006434FF4967009FB00F04FF47A71F7
:1055C00090FBF1F0401C2084A683208840F001006D
:1055D000208026884FF6F5300640A8886989084360
:1055E00006432680A889298908432081BDE8FF87D2
:1055F00041F288310160002181804BF6FF71C1804A
:105600000021018141814FF480418181704721B1A6
:10561000028842F00102028004E002884FF6FE7325
:105620001A400280704721B1028842F480720280E1
:1056300004E002884FF6FF631A400280704721B1F0
:10564000028842F40072028004E002884FF6FF53A1
:105650001A400280704712B141F0010101E001F0EF
:10566000FE010182704721B1028842F4806202800B
:1056700004E002884FF6FF331A40028070470A4662
:10568000002181894FF60173194002F0FE0319438E
:105690008181704721B1828942F00102828104E058
:1056A00082894FF6FE731A408281704721B10288C9
:1056B00042F04002028004E002884FF6BF731A40B5
:1056C0000280704721B1028842F40042028003E068
:1056D0000288C2F30E020280704721B9028842F0AC
:1056E0008002028004E002884FF67F731A40028035
:1056F0007047B1F5804F05D0828B4BF6FF731A408F
:10570000828303E0828B42F4804282837047B1F54A
:10571000006F04D1028842F40062028004E0028833
:105720004FF2FF731A4002807047B1F5005F04D159
:10573000028842F40052028004E002884DF6FF73B2
:105740001A400280704721B1028842F010020280A4
:1057500004E002884FF6EF731A400280704701821E
:1057600070470146088AC0B2704721B1028842F4EE
:105770008052028004E002884EF6FF731A400280D5
:105780007047B1F5006F04D1028842F400620280D4
:1057900004E002884FF2FF731A400280704721B183
:1057A000028842F02002028004E002884FF6DF7394
:1057B0001A40028070470146088B0012704721B1E1
:1057C000828842F40062828004E082884FF2FF7394
:1057D0001A408280704721B1828842F480528280D0
:1057E00004E082884EF6FF731A408280704708B545
:1057F0000246002000900092009808440090009813
:10580000008808BD1AB183880B43838002E0838837
:105810008B438380704770B5024600240025002327
:105820000020958A138B1B0445EA030626F07F446B
:1058300004EA01068E4201D1012000E0002070BD83
:1058400010B501460020002300228B8A0A8B120427
:1058500043EA020424F07F4010BD0CB5024600204C
:1058600000230193009300920B0F019321F07F41DD
:10587000019B1BB1009B1433009303E0090C009BB8
:1058800018330093009B1B680B4201D0012000E0FD
:1058900000200CBD002221F07F42D3438382704759
:1058A00030B5024600200023948801F0E06504EA48
:1058B000154321F07F41948A0C420FD073B101202F
:1058C0000DE000000054004000580040005C004023
:1058D00000127A0040420F00A0860100002030BD77
:1058E000002221F07F42D34383827047FA48006848
:1058F00040F00100F84908600020F74908310860CD
:10590000F5480068F5490840F3490860F448091D66
:105910000860081F006820F48020091F086000202C
:10592000ED490C31086070470021EB4A921C117060
:1059300011460870704710B5014600220023002070
:105940004A11012A02D1E44C236808E0022A03D15B
:10595000E14C7034236802E0DF4C7434236801F0BA
:105960001F02012494401C4201D0012000E00020CD
:1059700010BD38B5002000900024002500BF312064
:10598000FFF7D9FF05460098401C00900098B0F53D
:10599000A06F01D0002DF2D03120FFF7CCFF08B16D
:1059A000012400E00024204638BD01460020CA4AF8
:1059B000106820F0F80040EAC10010607047C94943
:1059C000086070470021C44A7032117011700128BC
:1059D00002D004280AD104E00121BF4A70321170BC
:1059E00005E00521BC4A7032117000E000BF00BF25
:1059F0007047BD490860704770B5049C41EA821544
:105A00000126C6EB530645EA0645054345EA04650B
:105A1000B14E361D356070BDB249086670478201CF
:105A200042EA0172AC4B84331A607047AD49886614
:105A30007047AC49C864704702460020A64B083343
:105A4000186820F0EC6042EA01031843A24B0833C7
:105A500018607047024600209F4B0833186820F0FA
:105A6000784042EA010318439B4B083318607047A3
:105A700001460020984A0832106820F003000843CD
:105A80001060704794480830006800F00C007047C0
:105A900001460020904A0832106820F0F0000843C8
:105AA00010607047014600208B4A0832106820F4CD
:105AB000E05008431060704701460020864A0832D3
:105AC000106820F4604040EAC10010607047F0B5F3
:105AD0000021002200240225002602237E4F0837E1
