:020000040800F2
:10000000F85D01201D640008991A00089B1A000879
:100010009F1A0008A31A0008A71A00080000000091
:100020000000000000000000000000002F64000835
:10003000AB1A00080000000033640008AD1A000885
:100040003764000837640008376400083764000824
:100050003764000837640008376400083764000814
:100060003764000837640008376400083764000804
:1000700037640008B51A000837640008BD1A000884
:1000800037640008376400083764000837640008E4
:1000900037640008376400083764000837640008D4
:1000A00037640008376400083764000837640008C4
:1000B00037640008376400083764000837640008B4
:1000C00037640008376400083764000837640008A4
:1000D0003764000837640008376400083764000894
:1000E0003764000837640008376400083764000884
:1000F0003764000837640008376400083764000874
:100100003764000837640008376400083764000863
:100110003764000837640008376400083764000853
:100120003764000837640008376400083764000843
:100130003764000837640008376400083764000833
:100140003764000837640008376400083764000823
:100150003764000837640008376400083764000813
:100160003764000837640008376400083764000803
:1001700037640008376400083764000837640008F3
:1001800037640008DFF80CD00CF0E4FF00480047AB
:1001900099010008F85D012042F2107000F0A8FDFE
:1001A0004FF47A7000F0A4FD00F0C8F94FF47A70B3
:1001B00000F09EFD00F0D0F94FF47A7000F098FD49
:1001C00000F033FC00F034FC00F0FEFC42F2107052
:1001D00000F08EFD00F0F8FC42F2107000F088FD97
:1001E00001F070FC42F2107000F082FD00F01EFC85
:1001F00000F01FFC00F0E8FC42F2107000F078FD07
:1002000000F013FC00F014FC00F0DEFC42F2107071
:1002100000F06EFD00F084F803F0A2FE00F02EFF67
:100220004FF47A7000F064FD04F0ADFA4FF47A7088
:1002300000F05EFD02F03FFE00F0C6FC42F21070DE
:1002400000F056FD42F2107000F052FD42F21070C4
:1002500000F04EFD03F0E0FE00F0B6FC42F210703C
:1002600000F046FD4DE000F0ACF801F0ACFE00F00F
:1002700087FF02F0E5FE23480068012805DB4FF008
:1002800000002049086001F089FC1F48006802282E
:1002900005DB4FF002001C49086001F083FC1B489D
:1002A0000068052805DB4FF000001849086001F0E0
:1002B0007AFC174800680A2805DB4FF00000144953
:1002C000086001F076FC13480068322805DB4FF027
:1002D00000001049086001F07EFC0F4800686428A7
:1002E00005DB4FF000000C49086001F082FC0B4870
:1002F0000068C82805DB4FF000000849086001F0DD
:100300007CFCB0E73C0300204003002044030020B5
:10031000480300204C030020500300205403002019
:1003200010B54FF00400774908704FF00600764989
:1003300008704FF0100075490870754908704FF04B
:100340000100744908604FF00800734908704FF0CD
:100350000100724908707249088000F09BFB7149E6
:100360000870084600786D4908704FF000006E492B
:1003700008606E49086004F04FF800F091FC10BD71
:1003800010B54FF47A7000F0B3FC02F071FC4FF43A
:100390007A7000F0ADFC01F00AFE4FF47A7000F0C4
:1003A000A7FC01F0F3FB4FF47A7000F0A1FC72B6E9
:1003B0004FF47A7000F09CFC10BD10B503F0C2FE43
:1003C00010BD10B55A48006803280CD15648006883
:1003D00028B94FF001005449086000F0D3FE4FF0F7
:1003E0000000534908605048006820B94FF00000F1
:1003F0005049086019E04C480068012804D14FF0CA
:1004000000004C49086010E04748006802280CD101
:1004100046480068002804DD4FF0000045490860A8
:1004200003E04FF001004349086010BD10B500F033
:10043000CBFB3848006800F10100364908600846E7
:100440000068142806D14FF001003B490860FFF70F
:10045000B4FF08E02F480068B0F57A7F03DD4FF461
:100460007A702C4908603048006830B900F0DAFB37
:1004700000F0F5FB00F00EFC23E02B48006801289B
:1004800006D100F0BBFB00F0EAFB00F003FC18E033
:1004900025480068022814D100F0BEFB23480068FC
:1004A00000280ADD21480068A0F101001F4908600A
:1004B00000F0CEFB00F0EEFB03E000F0D0FB00F01C
:1004C000E3FB10BD704710B50446402C02DD4FF031
:1004D000FF3010BD11490C7003F046FD03F0FBFD29
:1004E0000020F6E710B50446B4F5803F02DD4FF07A
:1004F000FF3010BD0A490C8003F036FD03F0DBFD30
:100500000020F6E7D9020020DA020020DB020020FA
:10051000DC020020D0020020CC020020CD0200200E
:10052000CE020020D8020020E0020020EC020020D1
:1005300048040020D4030020D402002010B501217B
:100540007F2005F0CDFB0121880305F005FC01218A
:10055000880505F0F2FB10BD1CB504220121FE4800
:1005600004F0A9FF04220021FB4804F0A4FF4FF08F
:10057000020000908DF804008DF805004FF0010096
:100580008DF806004FF000008DF807006946F2482C
:1005900004F0E8FE4FF0010000906946EE4804F0D8
:1005A000E1FE4FF4007000904FF002008DF804005F
:1005B0008DF805004FF000008DF806008DF807005B
:1005C0006946E64804F0CEFE05220921E34804F01E
:1005D00072FF4FF0400000904FF002008DF80400D1
:1005E0008DF805004FF000008DF806008DF807002B
:1005F0006946DA4804F0B6FE05220621D74804F021
:100600005AFF4FF4805000904FF002008DF8040024
:100610008DF805004FF000008DF806008DF80700FA
:100620006946CF4804F09EFE05220C21CC4804F018
:1006300042FF4FF4005000904FF002008DF804008C
:100640008DF805004FF000008DF806008DF80700CA
:100650006946C34804F086FE05220D21C04804F017
:100660002AFF4FF4004000904FF002008DF8040084
:100670008DF805004FF000008DF806008DF807009A
:100680006946B74804F06EFE05220F21B44804F015
:1006900012FF4FF0800000904FF002008DF8040030
:1006A0008DF805004FF000008DF806008DF807006A
:1006B0006946AA4804F056FE06220721A74804F01E
:1006C000FAFE4FF0100000904FF002008DF8040089
:1006D0008DF805004FF000008DF806008DF807003A
:1006E0006946A04804F03EFE062204219D4804F01D
:1006F000E2FE4FF4806000904FF002008DF804009D
:100700008DF805004FF000008DF806008DF8070009
:100710006946924804F026FE06220A218F4804F01A
:10072000CAFE4FF4805000904FF002008DF8040094
:100730008DF805004FF000008DF806008DF80700D9
:100740006946864804F00EFE06220C21834804F018
:10075000B2FE4FF4005000904FF001008DF80400FD
:100760004FF000008DF806004FF003008DF80500F3
:100770004FF000008DF8070069467B4804F0F2FD59
:100780004FF4804000904FF001008DF804004FF0CE
:1007900000008DF806004FF003008DF805004FF0C3
:1007A00000008DF8070069466F4804F0DBFD4FF448
:1007B000004000904FF001008DF804004FF0000061
:1007C0008DF806004FF003008DF805004FF0000093
:1007D0008DF807006946644804F0C4FD4FF001003D
:1007E00000904FF000008DF804004FF003008DF8EA
:1007F00005004FF001008DF8070069465B4804F0E2
:10080000B1FD4FF0020000904FF000008DF80400A1
:100810004FF003008DF805004FF001008DF8070040
:100820006946524804F09EFD4FF0040000904FF0DE
:1008300000008DF804004FF003008DF805004FF024
:1008400001008DF807006946484804F08BFD4FF021
:10085000080000904FF000008DF804004FF00300F6
:100860008DF805004FF001008DF8070069463F48FC
:1008700004F078FD4FF0100000904FF000008DF86C
:1008800004004FF003008DF805004FF001008DF8D3
:1008900007006946354804F065FD4FF020000090E0
:1008A0004FF000008DF804004FF003008DF80500B4
:1008B0004FF001008DF8070069462C4804F052FD06
:1008C0004FF0400000904FF000008DF804004FF012
:1008D00003008DF805004FF001008DF80700694610
:1008E000224804F03FFD4FF0800000904FF00000E0
:1008F0008DF804004FF003008DF805004FF0010063
:100900008DF807006946194804F02CFD4FF00800E7
:1009100000904FF000008DF804004FF003008DF8B8
:1009200005004FF001008DF8070069460A4804F001
:1009300019FD4FF0040000904FF001008DF8040005
:100940004FF000008DF806004FF003008DF8050011
:100950004FF000000CE000000014024000080240CC
:100960000004024000000240001002400018024053
:100970008DF807006946DA4804F0F4FC4FF00800EF
:1009800000904FF001008DF804008DF806004FF044
:1009900003008DF805004FF000008DF80700694650
:1009A000CF4804F0DFFC4FF0200000904FF0010032
:1009B0008DF804008DF806004FF003008DF8050057
:1009C0004FF000008DF807006946C54804F0CAFCE6
:1009D0004FF4807000904FF001008DF804008DF806
:1009E00006004FF003008DF805004FF000008DF871
:1009F00007006946BA4804F0B5FC4FF004000090C7
:100A00004FF001008DF804008DF806004FF0030050
:100A10008DF805004FF000008DF807006946B148D9
:100A200004F0A0FC1CBD70477047704770477047CA
:100A30007047704710B50446002C05DD4FF4005197
:100A4000A74804F028FD04E04FF40051A44804F046
:100A500024FD10BD10B50446002C05DD4FF4804187
:100A60009F4804F018FD04E04FF480419C4804F0D6
:100A700014FD10BD10B50446002C05DD4FF40041F7
:100A8000974804F008FD04E04FF40041944804F056
:100A900004FD10BD2DE9F0414FF000052C4626461F
:100AA00027464FF04001904804F0D5FC06464FF031
:100AB00080018D4804F0CFFC0746002E3ADD002F60
:100AC00038DD0121884804F0C6FC044605EB04002B
:100AD000C5B24FF00201844804F0BDFC044605EBAA
:100AE0004400C5B24FF004017F4804F0B4FC044652
:100AF00005EB8400C5B24FF008017B4804F0ABFC65
:100B0000044605EBC400C5B24FF01001764804F06E
:100B1000A2FC044605EB0410C5B24FF02001724858
:100B200004F099FC044605EB4410C5B205F1010040
:100B3000C5B238E001216C4804F08DFC044605EB99
:100B40000400C5B24FF00201674804F084FC04467B
:100B500005EB4400C5B24FF00401634804F07BFC90
:100B6000044605EB8400C5B24FF008015E4804F06E
:100B700072FC044605EBC400C5B24FF010015A48A0
:100B800004F069FC044604EB840005EB4000C5B2A8
:100B90004FF02001544804F05EFC044604EB84004E
:100BA00005EB8000C5B22846BDE8F08170B508218C
:100BB0004C4804F050FC054615B94FF0000401E024
:100BC0004FF00104204670BD10B50421444804F0E4
:100BD00052FCC0F10100C4B222460421404804F096
:100BE0005EFC10BD10B508213D4804F054FC10BD5A
:100BF00010B508213A4804F050FC10BD10B5202172
:100C0000374804F038FCC0F10100C4B2224620216C
:100C1000334804F044FC10BD10B52021304804F0E6
:100C20003CFC10BD10B520212D4804F034FC10BD53
:100C300010B54FF480712A4804F01DFCC0F101008A
:100C4000C4B222464FF48071254804F028FC10BD40
:100C500010B54FF48071224804F01FFC10BD10B590
:100C60004FF480711E4804F016FC10BD10B504212D
:100C70001C4804F000FCC0F10100C4B2224604216B
:100C8000184804F00CFC10BD10B50421154804F000
:100C900004FC10BD10B50421124804F0FCFB10BD8B
:100CA00010B5FFF7BFFFFFF7DAFFFFF7F3FF0F48BD
:100CB00000F01EF8FFF7B0FF0C4800F019F8FFF73E
:100CC000B1FFFFF7E1FF094800F012F8FFF7E2FF7C
:100CD000FFF7BEFF054800F00BF8FFF7C0FF10BD9F
:100CE000001002400014024000180240400D0300B2
:100CF00001464FF0000209E04FF0000002E000BFA3
:100D000000F101001428FADB02F101028A42F3D358
:100D1000704710B5014601F0F00201F00F034FEAF1
:100D2000221202EB820403EB4404E0B210BD30B5A2
:100D300001464FF00A0491FBF4F4E2B24FF00A04CA
:100D400091FBF4F504FB1514E3B203EB0214E0B2DB
:100D500030BD01464FF00A0011B94FF001000AE022
:100D60004FF0010205E000EB80034FEA430002F17F
:100D700001028A42F7DB704701464FF0100011B9BB
:100D80004FF0010008E04FF0010203E04FEA0010CD
:100D900002F101028A42F9DB704710B54FF00003FF
:100DA00007E000F10100884201DB4FF0000003F191
:100DB00001039342F5DB10BD00F10100884201DB25
:100DC0004FF0000070472DE9F04104460F461646EB
:100DD000069D4FF0000108462AE014F801C0BCF15E
:100DE000000F06D14FF0000800FB05FC06F80C8050
:100DF00022E04FF0000209E014F801C000FB056892
:100E000008F802C001F1010102F1010214F801C069
:100E1000BCF1200F01DDAA42EEDB3AB14FF0000C2D
:100E200000FB056808F802C000F1010001F10101B2
:100E3000984201DAB942D0DB00BFBDE8F08170B55D
:100E400003460C464FF000010D46084612E05E5C7A
:100E5000A64205D025B95E5C165400F1010007E0FA
:100E60005E5CA64204D14FF00006165405F1010560
:100E700001F101015E5C16B1B1F5806FE7DB4FF067
:100E80000006165470BD70B503460C464FF00001C5
:100E90000D46084613E05E5CA64206D0012D04D143
:100EA0005E5C165400F1010007E05E5CA64204D1CE
:100EB0004FF00006165405F1010501F101015E5CD9
:100EC00016B1B1F5806FE6DB4FF00006165470BD29
:100ED0002DE9F04107464FF0000838460CF0F1F8D4
:100EE0000646022E40DD387830283DD178787828C3
:100EF00002D07878582837D14FF0000530E007F15C
:100F00000200445D302C0CDB392C0ADCA4F13004E7
:100F1000A6F10301A1EB0500FFF72EFF04FB0088FB
:100F20001CE0412C0CDB462C0ADCA4F13704A6F1B2
:100F30000301A1EB0500FFF71FFF04FB00880DE094
:100F4000612C0BDB662C09DCA4F15704A6F103012C
:100F5000A1EB0500FFF710FF04FB008805F1010578
:100F6000B01EA842CBDC1AE04FF0000515E07C5D16
:100F7000302C0CDB392C0ADCA4F13004A6F1010181
:100F8000A1EB0500FFF7E5FE04FB008803E03A480B
:100F900000683949086005F10105B542E7DB4046C4
:100FA000BDE8F0812DE9F0470646894615469A4688
:100FB000BAF1000F26D12846FFF7CBFE99FBF0F1DE
:100FC00000FB11974FF0000416E0691E081BFFF7A5
:100FD000C0FE97FBF0F000F0FF08A5F10101A1EBC6
:100FE0000400FFF7B6FE97FBF0F100FB117708F164
:100FF0003000305504F10104AC42E6DB4FF0000054
:10100000705527E086F800A0681EFFF7A2FE99FB46
:10101000F0F100FB11974FF0010416E0691E081B68
:10102000FFF797FE97FBF0F000F0FF08A5F1010134
:10103000A1EB0400FFF78DFE97FBF0F100FB1177A9
:1010400008F13000305504F10104AC42E6DB4FF00A
:10105000000070550020BDE8F08701460A784FEA8D
:1010600002624B7842EA03428B7842EA0322CB7851
:1010700042EA030070470000C802002010B54FF09C
:101080002000FE49086042F21070FFF731FE4FF079
:101090005E00FB4908704FF0450048704FF0A20019
:1010A00088704FF0A800C8704FF0650008714FF0CD
:1010B000640048714FF0C000F24908704FF0A8007A
:1010C00048704FF0650088704FF06400C8704FF0B2
:1010D000C000ED4908704FF0A80048704FF065005F
:1010E00088704FF00100C8704FF0FF00E7490870AA
:1010F000487088704FF00000C870FFF7CBFCE449DF
:10110000087008460078E34908700846007800F146
:101110005D00DC49C87008464078D949C870D94894
:1011200080780871D748C0784871D6480078DA4985
:101130000870D44840784870D248807888704FF062
:10114000FF00C870D548D64908604FF00100D54966
:10115000086042F21070FFF7CBFD00F08AFC42F20B
:101160001070FFF7C5FD00BF00F0A2FE42F2107044
:10117000FFF7BEFD02F09CF802F002FE002010BD59
:101180007047704710B5C849C548006802F03EF97D
:10119000C5480168C248006800F0C3FF002010BDC8
:1011A00010B5FFF7EFFFB5480068A0F10100B349A3
:1011B000086008460068002808DC4FF0000008605E
:1011C00003E04FF47A70FFF793FDFAE710BD024693
:1011D0004FEA116010704FEA114050704FEA112031
:1011E0009070D1704FF00000704701460A784FEAC6
:1011F00002624B7842EA03428B7842EA0322CB78C0
:1012000042EA030070472DE9F04104460D461646B8
:101210001F46802C03DA4FF0FF30BDE8F081F72C39
:1012200002DD4FF0FF30F8E7FF2D02DD4FF0FF3019
:10123000F3E7FF2E02DD4FF0FF30EEE7FF2F02DD78
:101240004FF0FF30E9E78F48047045708670C77033
:101250004FF47A70FFF74CFD02F086FE4FF47A707F
:10126000FFF746FD02F085FE4FF47A70FFF740FD70
:101270004FF47A70FFF73CFD8C48FFF739FD8B483F
:10128000FFF736FD00BF8A48006800F4E060894936
:1012900040EA010000F1040085490860BFF3408F77
:1012A00000BF00BFFEE730B501464FEA1162C1F34F
:1012B0000743C1F30724CDB2802A02DA4FF0FF3092
:1012C00030BDF72A02DD4FF0FF30F9E7FF2B02DDDA
:1012D0004FF0FF30F4E7FF2C02DD4FF0FF30EFE777
:1012E000FF2D02DD4FF0FF30EAE7664802704370E1
:1012F0008470C5700020E3E72DE9F041A2B06E488C
:10130000076807F1090898F802006C4909788842D3
:1013100004D04FF0FF3022B0BDE8F081664800688D
:1013200002F02FF8044664480068B0F81350E178E2
:101330004FEA0162A17842EA0142617842EA012162
:10134000227841EA02000AF00BFA2190A5F1040686
:10135000324604F1040101A80BF08EFE01A9219888
:1013600003F05BFA0020D6E770B55348066806F133
:101370000905006802F005F80446A878022828D17B
:101380004F480068012802D04D48006878B920789D
:1013900080281ED1E07880281BD1607A3D490978E9
:1013A000884216D14FF002004549086011E04448D8
:1013B000006802280DD1207880280AD1E07820B179
:1013C000607A34490978884203D04FF000003C49E4
:1013D0000860002070BD70B53748056805F1090642
:1013E000006801F0CEFF0446B078012805D1607D89
:1013F00001F0EAFEA07D01F041FD002070BD70B556
:1014000005460E462C4805602E4806604FF0080041
:101410001A4908602848006801F069FF10B14FF0D0
:10142000FF3070BD2448006801F0A1FF0446012C84
:1014300009D0022C04D0A4F50C50213809D105E0C4
:10144000FFF7C9FF06E0FFF78FFF03E0FFF754FF48
:1014500000E000BF00BF0020E3E72DE9F743C2B082
:101460000D46144642F221360DF58479D9F80080F4
:10147000414601A8FFF7ABFE26E000002403002050
:10148000F0020020F6020020FA020020FE020020F6
:10149000D8020020CD02002020030020700500208B
:1014A000100300201803002014030020A086010070
:1014B0000CED00E00000FA0508030020CC0200203B
:1014C000E00200200C0300209DF804008DF80800C5
:1014D0009DF805008DF809009DF806008DF80A00BA
:1014E0009DF807008DF80B00621C294603A80BF03D
:1014F000C3FD04F1050702AB3246F349F3480097F8
:10150000006802F010F9F0480168F048006800F047
:1015100008FE002045B0BDE8F0832DE9F047804685
:101520000F46EB48C0F80080EA4807604FF008001B
:10153000E9490860B7F5806F03DA4FF0FF30BDE886
:10154000F087E348006801F0D2FE10B14FF0FF30A1
:10155000F5E7E2480078082802D16FF00100EEE7D5
:10156000DB48006801F003FF8146D948006801F0BC
:10157000F6FE0646D648006801F0F5FE0546B9F1CC
:10158000040F3ED1D248006801F0FBFE0446D44867
:10159000006801280DDA4FF00A00D14908600846BA
:1015A000067145712078C88004F1010001F0C0FD8A
:1015B00027E02078CA49C98888420DDA4FF00A002E
:1015C000C74908600846067145712078C88004F153
:1015D000010001F0ADFD14E02078C149C9888842BE
:1015E0000FD1BF480079B0420BD1BD484079A84225
:1015F00007D14FF00A00BA49086004F1010001F078
:1016000097FD00209BE7002070472DE9F04106463A
:101610000C46AF480660AF4804604FF00800AE4982
:101620000860B4F5806F03DA4FF0FF30BDE8F08159
:10163000A748006801F05BFE10B14FF0FF30F5E7FE
:10164000A348006801F093FE0546062D19D1A04875
:10165000006801F096FE0746A2480068012810D0F5
:10166000A0480068022805D19F490860384601F06B
:101670005FFD06E09B48006818B94FF00A009B49DF
:1016800008600020D2E770B504460D462B4622467E
:101690008D498E48006801F06EFF8B4801688B48C9
:1016A000006800F084FD002070BD70B504460D4652
:1016B0002B46224684498548006801F0BAFF8248DB
:1016C00001688248006800F072FD002070BD70B5AE
:1016D00004460D462B4622467B497C48006801F0B3
:1016E000F3FF794801687948006800F060FD002048
:1016F00070BD2DE9F04106460F46754806607548F5
:1017000007604FF00800744908607148006801F0F4
:10171000EEFD18B14FF0FF30BDE8F0816C48006875
:1017200001F025FE0446032C15D16948006801F03C
:101730001AFE05466E48007885420CDA6D4800684E
:1017400000F101006B49086008460068482802DD86
:101750004FF0480008600020DEE710B566480068DA
:10176000012810D16548584902685848006801F0BE
:10177000C4FE554801685548006800F03BFD4FF035
:1017800000005D490860002010BD7CB54FF00405E5
:1017900042F232345A4800684FEA10208DF80400B3
:1017A00057480068C0B28DF80500564800684FEAF7
:1017B00010208DF8060053480068C0B28DF807006D
:1017C00001AB2246404941480095006801F0ABFF5B
:1017D0003D4801683D48006800F02FFD00207CBDB9
:1017E0002DE9F04106460F46144620464FEAE471C3
:1017F00004EB91714FEAA1054FEAE47104EB91719A
:101800004FEAA101A4EB8101002901DD05F10105E9
:101810002A463946304602F02CFBBDE8F0812DE91E
:10182000F04106460F462A4806602A4807604FF0F6
:101830002000294908602648006801F058FD18B1C9
:101840004FF0FF30BDE8F0812148006801F08FFDC6
:1018500080461F48006801F094FD0446A8F50C502E
:1018600031382ED14FF00100274908606178207887
:1018700001EB002022490860E178A07801EB00200C
:10188000204908600846006808B902F0D7FA1D48E8
:1018900000684FEA80254FF4806204F10401284675
:1018A000FFF79EFFFFF771FF1648006814490968AB
:1018B000884206D142F21070FFF71AFA281D02F092
:1018C00036FB0020BEE700001403002010030020B8
:1018D000080300200C03002024030020CC02002079
:1018E000E0030020E0020020EC020020E8020020DB
:1018F000CD0200200C04002004040020000400207D
:101900002C030020300300202803002000B5AFB0D6
:1019100001214FF0606004F0E3F904F086FE05F069
:10192000B5FB00BF05F0B9FB0128FBD0684604F009
:1019300087FE4FF0010000904FF0000007904FF439
:1019400000700A904FF000000B900E9011901390D1
:10195000149015904FF4806009904FF00000209093
:101960004FF0007021904FF4001023904FF00000D2
:10197000259026904FF0040028904FF00070299099
:101980004FF480302A904FF480002B904FF4005099
:101990002C904FF480402E904FF00101684604F0E7
:1019A000B8FE394908602FB000BD1CB50121672081
:1019B00004F096F90121880304F0CEF94FF4807009
:1019C00000904FF003008DF805004FF002008DF8F5
:1019D00004004FF000008DF806008DF807006946FE
:1019E0002A4803F0BFFC012004F0FAFC4FF0860007
:1019F00000906946254803F0B5FC0B2201212348DD
:101A000003F059FD0B220221204803F054FD0B2264
:101A100007211E4803F04FFD4FF032000090694649
:101A20001B4803F09FFC0B220121194803F043FDE2
:101A30000B220421164803F03EFD0B220521144819
:101A400003F039FD4FF4D04000906946114803F08F
:101A500089FC0B2211460F4803F02DFD0B220D21AE
:101A60000C4803F028FD0B220E210A4803F023FD49
:101A70001CBD10B5FFF799FFFFF748FF10BD10B56B
:101A800004F0D3FD10BD000034030020000002402C
:101A90000008024000180240704700BFFEE700BF88
:101AA000FEE700BFFEE700BFFEE7704710B500F09D
:101AB00042F810BD10B501F061F810BD10B500F08E
:101AC0004DFF10BD7FB5042002F069FF684604F0A9
:101AD00074F84FF064020198B0FBF2F1B1F1807F2D
:101AE00000D327E021F07F40A0F101004FF0E02279
:101AF00050614FF0FF304FF00F0200280ADA4FEA32
:101B000002734FEA13653D4B00F00F04A4F1040487
:101B10001D5505E04FEA02734FEA1364384B1C541D
:101B200000BF4FF000004FF0E02290614FF007003F
:101B3000106100BF7FBD3348006800F101003149EA
:101B400008603148006800F101002F4908602F4803
:101B5000006800F101002D4908602D48006800F17F
:101B600001002B4908602B48006800F10100294959
:101B700008602948006800F10100274908602748EB
:101B8000006800F101002549086070476FF0070008
:101B90004FF0E021086170477047704710B502F0C0
:101BA0006CFC10BD704710B5FFF7EBFA00F023FA9C
:101BB00010BD10B5FEF73AFC01F08EFA1848006827
:101BC000002803DDFEF730FFFEF731FF02F0D1F908
:101BD00002F0BCFC10BD10B511480068012803DA02
:101BE000FEF722FFFEF723FFFFF7DAFA02F0BFFA53
:101BF00010BD10B5FEF766FC10BD704718ED00E093
:101C000000E400E03C0300204003002044030020E7
:101C1000480300204C030020500300205403002000
:101C2000E003002010B509F068FAFE4908604DF69F
:101C30001952FD49FB48006809F03CF910BD2DE937
:101C4000F04106460F4614469846069D6189606835
:101C5000FFF7E5FD204605F04DFFBDE8F08110B52A
:101C600009F04BFAF14908604DF61852EE49EF4879
:101C7000006809F01FF90022AFF23D01EB4800684F
:101C800009F01AFA10BD10B509F037FAE8490860F2
:101C90004CF69F72E449E648006809F00BF910BD64
:101CA0002DE9F04106460F4614469846069D618987
:101CB0006068FFF71EFD204605F01CFFBDE8F081BF
:101CC00010B509F01AFADB4908604CF6A072D64943
:101CD000D848006809F0EEF80022AFF23B01D54881
:101CE000006809F0E9F910BD10B509F006FAD2490B
:101CF00008604CF6B732CC49CF48006809F0DAF8F2
:101D000010BD2DE9F04106460F4614469846069D43
:101D100061896068FFF779FC204605F0EBFEBDE8BD
:101D2000F08110B509F0E9F9C44908604CF6B83201
:101D3000BD49C248006809F0BDF80022AFF23D017C
:101D4000BE48006809F0B8F910BD10B509F0D5F922
:101D5000BB4908604CF2CF72B349B948006809F03A
:101D6000A9F810BD2DE9F04106460F4614469846E5
:101D7000069D61896068FFF7D0FB204605F0BAFE3A
:101D8000BDE8F08110B509F0B8F9AE4908604CF231
:101D9000D072A549AB48006809F08CF80022AFF278
:101DA0003B01A848006809F087F910BD10B509F09B
:101DB000A4F9A54908604CF2E7329B49A2480068A3
:101DC00009F078F810BD2DE9F04106460F4614469B
:101DD0009846069D61896068FFF711FB204605F073
:101DE00089FEBDE8F08110B509F087F997490860D0
:101DF0004CF2E8328C499548006809F05BF8002203
:101E0000AFF23D019148006809F056F910BD2DE987
:101E1000F04106460F4614469846069D6189606863
:101E200002F0B6F9204605F065FEBDE8F08110B578
:101E300009F063F98649086043F660327A498448BC
:101E4000006809F037F80022AFF23D0180480068D1
:101E500009F032F910BD2DE9F04180460D461446D7
:101E60001E46069F43F662323146284609F0E4F8E2
:101E70002146284609F0D5F8284609F00DF92046F4
:101E800005F038FEBDE8F08110B509F036F971496A
:101E9000086043F6623264496E48006809F00AF847
:101EA0000022AFF24D016B48006809F005F910BD42
:101EB00000B587B005F040FB05F0B8FC664909782D
:101EC0000A066549497842EA01426349897842EA4B
:101ED0000121614AD27841EA020009F041FC0690F2
:101EE0005E4909780A065D49497842EA01425B4940
:101EF000897842EA0121594AD27841EA020009F080
:101F00002FFC0590564909780A065549497842EA56
:101F100001425349897842EA0121514AD27841EA83
:101F2000020009F01DFC04904FF0FF3009F018FC8E
:101F30004C490860484909780A064749497842EA05
:101F400001424549897842EA012141F0FF0009F048
:101F500007FC4549086045484549002204ABCDE9E6
:101F60000021029005AA06A9424805F014FD414847
:101F700005F044FD3F4805F08AFDFFF785FFFFF7B8
:101F800056FFFFF730FFFFF711FFFFF7FBFEFFF7EC
:101F9000DCFEFFF7C6FEFFF7A7FEFFF791FEFFF797
:101FA00072FEFFF75CFEFFF73DFE07B000BD10B507
:101FB000304805F026FDFFF762FD10BD10B52D4835
:101FC0000BF019F810BD10B504F018FF08B1FFF7B9
:101FD000F5FF10BD10B52848006800F10100264942
:101FE000086008460068642804DD4FF000000860BF
:101FF0000AF071FA10BD10B5FFF7ECFF10BD1CB56B
:102000004FF020008DF800004FF021008DF8010006
:102010004FF022008DF802004FF023008DF80300EE
:102020002CE0000090030020CEDF00088C0300208D
:102030008803002084030020800300207C0300200C
:102040007803002074030020700300206C0300203C
:102050006803002064030020F6020020FE02002036
:10206000FA0200205C03002060030020FDCD000880
:1020700025D00008700A0020580300204FF02400EB
:102080008DF804004FF025008DF805004FF0260074
:102090008DF806004FF027008DF8070043F66232F6
:1020A00077497848006808F0C7FF0322082100201C
:1020B00005F05BFD044684B108226946204605F020
:1020C000B6FF21466F48006808F0ABFF6D48006816
:1020D00008F0E2FF204605F00DFD1CBD70B5064678
:1020E0000C4643F6613266496748006808F0A4FF71
:1020F0000322A1B2002005F038FD054685B1A2B249
:102100003146284605F093FF29465F48006808F0ED
:1021100088FF5D48006808F0BFFF284605F0EAFC2C
:1021200070BD70B506460C464CF2E832544957482B
:10213000006808F081FF0322A1B2002005F015FD20
:10214000054685B1A2B23146284605F070FF294602
:102150004E48006808F065FF4C48006808F09CFF96
:10216000284605F0C7FC70BD70B506460C464CF21B
:10217000D07243494648006808F05EFF0322A1B2CE
:10218000002005F0F2FC054685B1A2B23146284692
:1021900005F04DFF29463E48006808F042FF3C48E4
:1021A000006808F079FF284605F0A4FC70BD70B502
:1021B00006460C464CF6B83231493648006808F0FD
:1021C0003BFF0322A1B2002005F0CFFC054685B1FC
:1021D000A2B23146284605F02AFF29462D4800685C
:1021E00008F01FFF2B48006808F056FF284605F04E
:1021F00081FC70BD70B506460C464CF6A0722049B5
:102200002548006808F018FF0322A1B2002005F05D
:10221000ACFC054685B1A2B23146284605F007FF61
:1022200029461D48006808F0FCFE1B48006808F0BD
:1022300033FF284605F05EFC70BD70B506460C46BF
:102240004DF618520E491548006808F0F5FE0322B5
:10225000A1B2002005F089FC054685B1A2B2314645
:10226000284605F0E4FE29460C48006808F0D9FE2F
:102270000A48006808F010FF284605F03BFC70BDD6
:102280006003002064030020680300207003002026
:1022900078030020800300208803002090030020A2
:1022A0001FB54FF00000ADF804004BF6FF70ADF81D
:1022B00006004FF0A000ADF808004FF48060ADF8C4
:1022C0000A004FF48040ADF80C00F84800904FF041
:1022D0000101F74803F0E5F96946F54803F055F9BF
:1022E0001FBD2DE9F04104460D464FEA1427E6B222
:1022F00000BF4FF40031EE4803F022FB0028F8D174
:102300000121EB4803F0DAF900BFEA49E84803F09D
:10231000E2FA0028F9D00022A021E54803F0E8F90C
:1023200000BFE549E24803F0D6FA0028F9D0394663
:10233000DF4803F06CFA00BFE049DD4803F000FB22
:102340000028F9D03146DA4803F061FA00BFDB49D2
:10235000D74803F0F5FA0028F9D02946D44803F00D
:1023600056FA00BFD549D24803F0EAFA0028F9D05E
:1023700000BFD149891ECE4803F0ADFA0028F8D03D
:102380000121CB4803F0A7F9BDE8F0812DE9F04128
:1023900004464FEA1426E5B200BF4FF40031C448AA
:1023A00003F0CEFA0028F8D10121C14803F086F9E4
:1023B00000BFC049BE4803F08EFA0028F9D00022C1
:1023C000A021BB4803F094F900BFBB49B84803F013
:1023D00082FA0028F9D03146B54803F018FA00BF58
:1023E000B649B34803F0ACFA0028F9D02946B04802
:1023F00003F00DFA00BFB149AD4803F0A1FA00287F
:10240000F9D00121AA4803F059F900BFA949A84809
:1024100003F061FA0028F9D00122A021A44803F0BA
:1024200067F900BFA549891EA14803F089FA002871
:10243000F8D000219E4803F063F9A14800884FF0CE
:1024400001019B4803F047F900BF9C493C31984883
:1024500003F076FA0028F8D0954803F0DAF9074639
:1024600000BF9348008810F4007FFAD10121904802
:1024700003F046F93846BDE8F0812DE9F0470546FE
:102480000F4616464FEA45504FEA10484FEA182AC1
:1024900008F0FF09202E01DD4FF0200600BF4FF4A9
:1024A0000031834803F04CFA0028F8D1012180481C
:1024B00003F004F900BF7F497D4803F00CFA0028BF
:1024C000F9D00022A0217A4803F012F900BF7A491E
:1024D000774803F000FA0028F9D05146744803F019
:1024E00096F900BF7549724803F02AFA0028F9D01E
:1024F00049466F4803F08BF900BF70496C4803F000
:102500001FFA0028F9D04FF000040CE0395D68484C
:1025100003F07DF900BF6949654803F011FA00280E
:10252000F9D004F10104B442F0DB00BF6249891E16
:102530005F4803F0D0F90028F8D001215C4803F08F
:10254000CAF8BDE8F0872DE9F04705460F46164664
:102550004FEA45504FEA10484FEA182A08F0FF09A1
:10256000202E01DD4FF0200600BF4FF4003150480F
:1025700003F0E6F90028F8D101214D4803F09EF858
:1025800000BF4C494A4803F0A6F90028F9D00022C0
:10259000A021474803F0ACF800BF4749444803F086
:1025A0009AF90028F9D05146414803F030F900BFAC
:1025B00042493F4803F0C4F90028F9D049463C4855
:1025C00003F025F900BF3D49394803F0B9F9002867
:1025D000F9D04FF000043AE00121354803F06EF8DD
:1025E00000BF3449324803F076F90028F9D00122BF
:1025F000A0212F4803F07CF800BF3049891E2C48E9
:1026000003F09EF90028F8D00021294803F078F85B
:102610002B4800884FF00101254803F05CF800BF0B
:1026200026493C31224803F08BF90028F8D0204895
:1026300003F0EFF8385500BF1D48008810F4007F04
:10264000FAD101211A4803F05BF804F10104B44205
:10265000C2DBBDE8F0871FB54FF00000ADF8040005
:102660004BF6FF70ADF806004FF08800ADF808009B
:102670004FF48060ADF80A004FF48040ADF80C00D4
:102680000A4800904FF00101094803F00AF8694632
:10269000074802F07AFF1FBD2DE9F04781460C463E
:1026A0004F2C0FDD4FF04F0410E00000A08601001A
:1026B00000580040010003008200070004000010E1
:1026C00018580040002C01DA4FF000044FF00A00C7
:1026D00094FBF0F0C7B24FF00A0094FBF0F100FB5E
:1026E000114000F0FF08B9F1010F04D147F0B00527
:1026F00048F0A0060BE0B9F1020F04D147F0300515
:1027000048F0200603E047F0E00548F0D00600BF9F
:102710004FF40031224803F013F90028F8D10121C9
:102720001F4802F0CBFF00BF1E491D4803F0D3F83D
:102730000028F9D000228821194802F0D9FF00BFF3
:102740001949174803F0C7F80028F9D0294614485A
:1027500003F05DF800BF1549114803F0F1F80028B7
:10276000F9D031460E4803F052F800BF0F490C482B
:1027700003F0E6F80028F9D000BF0B49891E08488D
:1027800003F0A9F80028F8D00121054802F0A3FFC2
:10279000BDE8F087704701464FF000007047704772
:1027A00000580040010003008200070004000010F0
:1027B0001FB50121880303F0C0FAFE4803F0EAFBCD
:1027C0004AF6444002904FF00000ADF80200ADF828
:1027D0000400ADF80C004FF40070ADF800004FF0AD
:1027E0000000ADF806006946F24803F021FC012123
:1027F000F04803F0D7FC1FBD00B591B0012148059A
:1028000003F06EFA0021EC4802F0CBF9EA4802F03E
:10281000E9F80022E949E84802F0EAF90121E6482E
:1028200002F0F2F94FF000000290E5480390E5480D
:1028300004904FF0400005904FF4806006904FF0F8
:10284000000007904FF4806008904FF400600990FA
:102850004FF400500A904FF480700B904FF400300A
:102860000C904FF004000D904FF003000E904FF0CD
:1028700000000F90109002A9CF4802F049F9012200
:102880001021CD4802F022FA01220821CA4802F0A4
:102890001DFA4FF00F008DF804004FF000008DF886
:1028A00005008DF806004FF001008DF8070001A823
:1028B00002F01AF80121C04802F073F90122022146
:1028C000BC4803F0E3FC11B000BD70B5BA4802F09B
:1028D000ABF908B9B94D00E0BA4DBB480068BB4937
:1028E000096801EB80264FF00801B7480068FEF741
:1028F00063FAB54908604FF0000406E036F81400AA
:1029000005EB8401488004F10104B4F5007FF5DB98
:1029100070BD70B5A84802F087F908B9A74D00E06E
:10292000A84DAB480068AB49096801EB80264FF021
:102930000801A7480068FEF73FFAA54908604FF074
:10294000000407E036F814004FEA440125F81100AE
:1029500004F10104B4F5007FF4DB70BD10B59E48AE
:1029600000689D4908609D49934802F0CEF901280E
:1029700011D19A49904802F0F4F9974800689649B5
:102980000860FFF7C6FFFFF7A0FF4FF00100944972
:10299000086000F03AFC9349874802F0B6F9012834
:1029A00007D19049844802F0DCF98B4800688A49D5
:1029B000086010BD1FB50121C80303F0BEF98A48A5
:1029C00003F0E8FA4AF6444002904FF00000ADF8F8
:1029D0000200ADF80400ADF80C004FF48070ADF8C3
:1029E00000004FF00000ADF8060069467E4803F095
:1029F0001FFB01217C4803F0D5FB1FBD00B591B042
:102A00000121480503F06CF900216B48303802F0D1
:102A1000C8F86948303801F0E5FF0022734966487C
:102A2000303802F0E5F801216348303802F0ECF864
:102A30004FF0000002906E4803906E4804904FF0F3
:102A4000000005904FF4806006904FF00000079062
:102A50004FF4806008904FF4006009904FF40050EC
:102A60000A904FF480700B904FF400300C904FF0B0
:102A700004000D904FF003000E904FF000000F90F7
:102A8000109002A95C4802F043F8012210215A4834
:102A900002F01CF901220821574802F017F94FF003
:102AA0000D008DF804004FF001008DF805004FF087
:102AB00000008DF806004FF001008DF8070001A816
:102AC00001F012FF01214C4802F06BF8012211467F
:102AD000454803F0DBFB11B000BD70B5464802F07D
:102AE000A3F808B9414D00E0424D4448006844490C
:102AF000096801EB80264FF0020140480068FEF7AC
:102B00005BF93E4908604FF0000406E005EB8400E5
:102B1000408826F8140004F10104B4F5007FF5DBC9
:102B20004FF001003749086070BD70B5324802F0BF
:102B30007BF808B92D4D00E02E4D3348006833492D
:102B4000096801EB80264FF002012F480068FEF76C
:102B500033F92D4908604FF0000407E04FEA4400C4
:102B600035F8100026F8140004F10104B4F5007FD4
:102B7000F4DB4FF001002649086070BD10B516481F
:102B800000681549086023491B4802F0BEF8012877
:102B90000BD12049184802F0E4F8FFF7C6FFFFF711
:102BA0009CFF0D4800680C4908601B49124802F060
:102BB000ACF833E00038004070600240A4120020FE
:102BC0000C380040A40A0020B0030020A803002015
:102BD000A003002098030020C802002020800020CD
:102BE0009403002010400020003C0040A42200205C
:102BF0000C3C0040A41A002040600240C8030020A2
:102C0000C4030020D8030020BC030020B803002028
:102C1000D00300200080201000401010012807D1B0
:102C20009149924802F09DF89148006890490860E7
:102C300010BD10B500218F4803F0B4FA00218B4875
:102C4000303001F0AEFF002202218A4803F01EFB63
:102C500010BD10B50021884803F0A4FA0021834874
:102C600001F09FFF00220121834803F00FFB10BDFC
:102C700010B5FFF7DEFFFFF7ECFF10BD4FF00000CF
:102C800001E000F101000528FBDB704770B5064646
:102C90000D462846FDF7EEFE0120FDF7DBFE002085
:102CA000FDF7C8FEFFF7EAFF4FF000041EE046FA0A
:102CB00004F010F0010F06D10020FDF7BBFE00204C
:102CC000FDF7B8FE05E00020FDF7B4FE0120FDF79A
:102CD000B1FE0020FDF7BEFEFFF7D0FF0120FDF79B
:102CE000B9FEFFF7CBFF04F10100C4B2082CDEDB14
:102CF000FFF7C4FF0120FDF7BDFEFFF7BFFF70BD6A
:102D000010B500211620FFF7C1FF01216020FFF759
:102D1000BDFF01212020FFF7B9FF01218320FFF72C
:102D2000B5FF10BD10B500211420FFF7AFFF012142
:102D30000F20FFF7ABFF01218120FFF7A7FF012143
:102D4000C220FFF7A3FF0121E320FFF79FFF01212E
:102D5000C120FFF79BFF0121FF20FFF797FF012113
:102D6000C020FFF793FF0121F020FFF78FFF10BD78
:102D7000704710B5FFF7C4FFFFF7D4FF10BD10B5C3
:102D800004464CB900211420FFF780FF01210020E8
:102D9000FFF77CFF002010BD3D2C0ADA0021142033
:102DA000FFF774FF0121601CC0B2FFF76FFF002026
:102DB000F1E7642C09DC00211420FFF767FF0121F3
:102DC0006F20FFF763FF0020E5E74FF0FF30E2E7F9
:102DD00070B504460D46102C01DD4FF01004062D91
:102DE00001DD4FF00605204604EBD0714FEA610487
:102DF000284605EBD0714FEA610504F00F004FF053
:102E0000400141EA800005F0030140EA01064FF06D
:102E100000014FF01400FFF739FF01213046FFF7A2
:102E200035FF002070BD10B504464FF000014FF093
:102E30001400FFF72BFF2D2C01DD4FF02D044FEA7E
:102E400044004FF0030190FBF1F0C4B24FF00101D8
:102E50004FF0C000FFF71AFF44F0E0000121FFF738
:102E600015FF002010BD000000401010406002401F
:102E7000C802002000380040003C004010B5044665
:102E8000E94804600068002804DA4FF00000E649D1
:102E9000086007E0E4480068282803DD4FF02800B8
:102EA000E1490860E0480068C0B2FFF768FF01F040
:102EB0005BF8002010BD10B54FF0000407E04FF0A4
:102EC0000000DA490855DA49085504F10104B4F55F
:102ED000005FF4DBD548D7490860D548D64908607B
:102EE0004FF00000D54908604FF00400D449086055
:102EF0004FF00000D34908604FF00400D249086049
:102F0000D248D34908604FF00000D24908604FF022
:102F10000100D14908604FF00000D04908604FF02F
:102F20000100CF490860CF48CF4908604FF000004A
:102F3000CE4908604FF00100CD4908604FF0000015
:102F4000CC490860CC490860CC4908604FF00A00C1
:102F5000B5490860FFF70DFF4FF47A70FDF7C8FE22
:102F60002020FFF760FF4FF47A70FDF7C1FEFFF7F6
:102F70001FFCFFF741FC4FF47A70FDF7B9FEFFF735
:102F800019FDFFF73BFD4FF47A70FDF7B1FE42F2F9
:102F90001070FDF7ADFE42F21070FDF7A9FE01F0D2
:102FA0003BF842F21070FDF7A3FE42F21070FDF7FD
:102FB0009FFE9D480068FFF761FF4FF00000B04999
:102FC0000860B049086010BD10B5A5480068012828
:102FD00018D1A2480068012814D14FF000009F4981
:102FE00008604FF002019C480068FDF7E5FE994932
:102FF00008600968964A126802EB81204FF48061EC
:10300000FEF741FB9C480068012818D199480068E8
:10301000012814D14FF00000964908604FF00201DA
:1030200093480068FDF7C8FE9049086009688E4A19
:10303000126802EB81204FF48061FEF748FB10BD5F
:1030400010B59148006800280FDD4FF000008E4950
:1030500008608E48006800F101008C4908608C48C7
:10306000006800F101008A49086088480068082863
:103070000CDD86480068102808DA4FF400516D48CE
:1030800000680AF012F8FDF7B3FD07E07F4800681A
:10309000802803DD4FF080007C4908607C48006890
:1030A00008280ADD7A480068102806DA4FF4005133
:1030B0006148006809F0F9FF07E07548006880285A
:1030C00003DD4FF0800072490860724800680128F3
:1030D00001D1FFF779FF10BD68480068A0F1010039
:1030E0006649086008460068002802DA4FF00000D0
:1030F000086069480068A0F1040067490860084654
:103100000068002802DA4FF0000008606348007889
:10311000C0F1400060490968884204DA4FF00000BD
:103120005F49086003E04FF001005D4908607047A7
:1031300010B504464248006840490968884208D0F2
:1031400008213E480068FDF737FE3D49096888427E
:1031500007D10522082139480068FDF71EFE3849CD
:10316000086037490968334A126802EB81204FF43E
:103170008062214609F080FF082131480068FDF790
:103180001BFE2F4908604FF0000040490860FDF722
:1031900029FD002010BD10B504462B490968264AB8
:1031A000126802EB81204FF48062214609F064FF2F
:1031B000082125480068FDF7FFFD234908604FF00E
:1031C00000003349086010BD10B50446354804605E
:1031D0000068002804DA4FF000003249086007E078
:1031E00030480068282803DD4FF028002D4908608A
:1031F0002C48006800F11A002A4908600846006857
:10320000C0B2FFF710FE002010BD2748006800F193
:1032100001002549086022480068012801D123499E
:103220000860002070470000E8030020A42A002066
:10323000A44A002098030020A8030020A003002037
:103240009C030020B0030020AC030020A46A0020EF
:10325000B8030020C0030020BC030020D0030020DE
:10326000D4030020A4720020C4030020CC0300205B
:10327000C8030020D8030020DC030020E003002066
:10328000180400202C04002094030020A403002034
:10329000B4030020D40200200C040020CD02002042
:1032A00008040020F403002000040020040400208F
:1032B00010B5F7480078F7498870F7480078C8706B
:1032C000F64800880880F648FDF78FFFF14948600E
:1032D0004FF0FF00F3498870C8704FF6FF70088008
:1032E000F148FDF782FFEF494860002010BD70B53E
:1032F00005462C4620787E2802D04FF0FF3070BD66
:10330000E078E3490978884205D0E078FF2802D0C8
:103310004FF0FF30F3E72079DF490978884205D084
:103320002079FF2802D04FF0FF30E8E7DC48FDF7B6
:103330005CFFD4F8051088420FD0D4F80500401C7B
:103340000BD0D748FDF751FF40F0FF01D4F805003E
:10335000814202D04FF0FF30D1E70020CFE7014695
:103360000A46D07A704701460A46107B70470146EC
:103370000A46B2F81100704701460A46B2F8130037
:10338000704701460A4602F1150070472DE9F041E9
:1033900004468C46274607F115052E460B2A08D110
:1033A000A3F1010006F1050818F800100846BDE871
:1033B000F081FF20FBE717B585B00446B4480078DC
:1033C000B4498870B4480078C870B4480088088050
:1033D000B348FDF70AFFAF4948604FF07E008DF813
:1033E00000000698CDF801000798CDF805000846C2
:1033F0000168CDF809104068CDF80D004FF01102BA
:103400006946204609F038FE08B010BDF0B587B017
:1034100005460F462E46A3480168009140680246C3
:10342000019002A8FFF7C7FF112202A9304609F058
:1034300023FE4FF00100A6F811004FF00800A6F897
:10344000130006F115049948006818B94FF0000000
:1034500020700EE095480068012803D14FF040002D
:10346000207006E091480068022802D14FF08000E9
:1034700020704FF0000060708D480068A0708D488B
:103480000068E0708C48007820718C48007860718A
:103490008B480078A0718B480078E071B6F8130073
:1034A00000F1150038604FF0000007B0F0BD30B5F6
:1034B00003460C4619464FF00400A1F8130001F131
:1034C00015052A60B1F8130000F1150020604FF0D7
:1034D000000030BD30B503460C4619464FF00100E0
:1034E000A1F8130001F115052A70B1F8130000F1DD
:1034F000150020604FF0000030BD2DE9F04188B08C
:1035000004460E4617462546664801680191406804
:103510000246029003A8FFF74EFF112203A9284696
:1035200009F0AAFD4FF00300A5F811004FF00400C8
:10353000A5F8130005F11508C8F80070B5F81300D8
:1035400000F1150030604FF0000008B0BDE8F081D8
:1035500030B503460C4619464FF00200A1F813009F
:1035600001F115056A70B1F8130000F11500206033
:103570004FF0000030BD2DE9F04387B004460E4601
:10358000174698462546474801680091406802461C
:10359000019002A8FFF70FFF112202A9284609F0A7
:1035A0006BFD4FF00600A5F811004FF48060A5F800
:1035B000130005F1150942463946484609F05CFDFD
:1035C000B5F8130000F1150030604FF0000007B0AF
:1035D000BDE8F0832DE9F04387B004460E46174658
:1035E000984625462F4801680091406802460190A0
:1035F00002A8FFF7E0FE112202A9284609F03CFDCF
:103600004FF00500A5F811004FF48060A5F81300F5
:1036100005F1150942463946484609F02DFDB5F831
:10362000130000F1150030604FF0000007B0BDE856
:10363000F0832DE9F04387B004460E4617469846BE
:10364000254618480168009140680246019002A88A
:10365000FFF7B1FE112202A9284609F00DFD42F242
:103660000130A5F811004FF48060A5F8130005F1B2
:10367000150942463946484609F0FEFCB5F81300E4
:1036800000F1150030604FF0000007B0BDE8F08396
:10369000CC02002030040020CD020020CE02002009
:1036A000F60200203804002020030020E002002061
:1036B000F4030020E8030020D9020020DA020020F1
:1036C000DB020020DC0200202DE9F04387B0044635
:1036D0000E461746984625462948016800914068DD
:1036E0000246019002A8FFF766FE112202A92846B1
:1036F00009F0C2FC42F20230A5F811004FF48060DC
:10370000A5F8130005F1150942463946484609F067
:10371000B3FCB5F8130000F1150030604FF0000065
:1037200007B0BDE8F0832DE9F04788B004460E46A7
:1037300017469846DDF840902546114801680191EA
:1037400040680246029003A8FFF735FE112203A944
:10375000284609F091FCA5F81170A5F81390B5F86A
:10376000130000F11500306005F1150A4A46414684
:10377000504609F081FC002008B0BDE8F087000049
:103780003804002010B50C2003F0BBFF044624B120
:103790004FF0000020606060A060204610BD70B552
:1037A00004460E46254615B1284603F0F0FE70BDCE
:1037B00070B505460C464FF00001284605F06CFB3D
:1037C0000021284605F06DFB0021284605F066FB28
:1037D0000021284605F068FB204603F0D8FE284665
:1037E00004F05AFF70BD2DE9F04106460C46B6F8CC
:1037F0006E006168884202D2B6F86E5001E06068DF
:1038000085B200232A463046216806F061FF07464C
:1038100037B92068284420606068A0EB050060602C
:10382000BDE8F0812DE9F04104460E4617462546D5
:1038300015B90020BDE8F0814FF00000287229463C
:103840003046FFF7D0FF0020F4E770B504460D4680
:103850001CB9284604F020FF03E021462846FFF764
:10386000C2FF002070BD70B505460C461646FA49E9
:10387000FA4809F0B5FCF948206009F022FC6060C4
:1038800021462846FFF7AFFF70BD2DE9F05F814666
:103890000C4616469A46DDF828B04FF0000548461B
:1038A00009F00FFC0746A8463BE0207899F8001085
:1038B000884232D13A462146484609F018FC60BB9E
:1038C0003C443D4420783D2827D104F1010405F112
:1038D00001050EE02078307006F1010604F10104C4
:1038E00005F1010508F1010808F10100584500DB68
:1038F0000AE02078262807D0207828B120780A28E6
:1039000002D020780D28E5D100BF4FF000003070C4
:10391000CAF800802846BDE8F09F05F1010504F1D2
:103920000104207828B120780A2802D020780D28B8
:10393000BBD14FF0FF30EEE770B505460C4616469A
:10394000C749C64809F04CFCC448206009F0B9FBDF
:10395000606021462846FFF746FF70BD70B5ACB0E9
:1039600004460E4615464FF0000001904FF08000CF
:103970000BAB0CAA29460090BAA0FFF786FF0028DF
:1039800006DC2A4631462046FFF7D6FF2CB070BD34
:1039900060680A90202001AB02AA29460090B4A0DA
:1039A000FFF773FF0322B4A102A809F0A0FB20B91E
:1039B0000CA9DDE90A02FDF750FD2A4631462046F2
:1039C000FFF751FF0CA90A9800F027FF00BFDDE7C1
:1039D00070B505460C461646A849A04809F000FCFB
:1039E0009E48206009F06DFB606021462846FFF785
:1039F000FAFE70BDF8B505460C461646A04800789C
:103A00000090A0480378A0480278A049934809F0A4
:103A1000E7FB9248206009F054FB6060214628468D
:103A2000FFF7E1FEF8BD70B505460C46164698490D
:103A30008A4809F0D5FB8948206009F042FB6060A4
:103A400021462846FFF7CFFE70BD70B505460C46EF
:103A500016469049814809F0C3FB8048206009F070
:103A600030FB606021462846FFF7BDFE70BD70B593
:103A700005460C4616468849784809F0B1FB774858
:103A8000206009F01EFB606021462846FFF7ABFE70
:103A900070BD70B505460C46164680496F4809F062
:103AA0009FFB6E48206009F00CFB606021462846B1
:103AB000FFF799FE70BD70B594B005460E461446EA
:103AC0004FF0200003AB0CAA2146009074A0FFF732
:103AD000DCFE00281FDD202002AB04AA2146009056
:103AE00072A0FFF7D2FE042273A10CA809F0FFFA1E
:103AF00058B9062272A104A809F0F9FA28B9224699
:103B000031462846FFF7C5FF0AE0224631462846DF
:103B1000FFF7ADFF04E0224631462846FFF7A7FF36
:103B200014B070BD2DE9F043A1B006460F4614460F
:103B30009846B146B8F1000F00D17CB934B1218963
:103B4000384604F062FE204603F0D4FF494638466A
:103B5000FFF72EFE002021B0BDE8F0832189384612
:103B600004F053FE258900BF802201A8616809F096
:103B700083FA204603F0BEFF002D02DC4FF0FF3039
:103B8000E9E7514800685049086006224FA101A8A2
:103B900009F0BAFA28B901AA49463846FFF755FF95
:103BA00046E012224BA101A809F0AEFA28B901AAF9
:103BB00049463846FFF77FFF3AE014224AA101A8A0
:103BC00009F0A2FA28B901AA49463846FFF73DFF95
:103BD0002EE014224AA101A809F096FA28B901AAF8
:103BE00049463846FFF71FFF22E00F224AA101A8ED
:103BF00009F08AFA28B901AA49463846FFF7FAFEC1
:103C000016E00F2248A101A809F07EFA28B901AAFE
:103C100049463846FFF7DCFE0AE00F2246A101A81C
:103C200009F072FA20B901AA49463846FFF796FE14
:103C300049463846FFF7BCFD00208CE72DE9F041EE
:103C400006460D461746FFF79DFD04461CB94FF08A
:103C5000FF30BDE8F08177E039DE0008E47E002027
:103C60009EDD000866696C656E616D650000000090
:103C7000616C6C5F646576006F6E0000B9DA0008F5
:103C8000DA020020D9020020CD0200202ED900083F
:103C900039D8000882D3000801D6000894D700085C
:103CA000757365726E616D650000000070617373FD
:103CB000776F726400000000726F6F740000000084
:103CC0006265696861690000C802002047455420A8
:103CD0002F200000474554202F6C6F67696E5F737B
:103CE00075626D69743F0000474554202F6C6F6703
:103CF0005F6572725F7375626D69743F00000000EA
:103D0000474554202F6672616D655F696E64657802
:103D10002E68746D00000000474554202F667261C4
:103D20006D65312E68746D00474554202F667261B1
:103D30006D65322E68746D00474554202F75706490
:103D40006174655F66773F004FF00000206060603F
:103D50002146284605F0A0F82C49284605F09EF893
:103D60002B49284605F0A0F80A222A49284605F0E2
:103D7000A0F82949284605F094F80020BDE8F08114
:103D800070B505F084F805464FF0500223492846E7
:103D900004F03DFE044600BF4FF0FF01284604F04A
:103DA000ACFE05462946284605F076F81C4928460B
:103DB00005F07DF870BDF8B505460C461646194865
:103DC0000078009018480378184802781849194874
:103DD00009F006FA1748206009F073F9606021467F
:103DE0002846FFF700FDF8BD70B505460C4616469F
:103DF0001149104809F0F4F90E48206009F061F902
:103E0000606021462846FFF7EEFC70BD253B0008A8
:103E10009F3700084B38000825380008CEDF00081F
:103E20003D3C0008DA020020D9020020CD0200202B
:103E300052D50008E47E002036DA000810B500F004
:103E4000FBFFF32001F014FA0221282001F03CF8D6
:103E5000082805D003E0404800683F490860FAE7B9
:103E600010BD10B500F0E8FF10BD10B500F0F0FF78
:103E700010BD2DE9F04104460E4617464FF00005EF
:103E800011E056F82510354AA01801F0C5F80828A9
:103E900005D003E0304800682F490860FAE704F1D4
:103EA000040405F10105BD42EBDBBDE8F0812DE91D
:103EB000F04105460E46174600F0BEFFF32001F024
:103EC000D7F90221282000F0FFFF082805D003E0E1
:103ED0002148006820490860FAE74FF000040FE02D
:103EE000315D1E4A2A44101901F0E2F8082805D075
:103EF00003E01948006818490860FAE704F1010472
:103F0000BC42EDDB00F0A4FFBDE8F08110B5034634
:103F10004FF0000005E0114C1C44245C0C5400F1EF
:103F200001009042F7DB10BD01460868704710B5EC
:103F30000446FCF725FAFCF747FE4FF47A70FCF7CD
:103F4000D7FEFCF741FE4FF47A70FCF7D1FE204615
:103F500009F040F910BD00004004002000000208F4
:103F600010B5FEF79DF910BD4FF001004349086000
:103F7000704710B54148006801284CD1404800689E
:103F8000002848D13D4908604FF023003D490870A2
:103F90003D48007848703C4841783A4881703A483A
:103FA00081783848C1703848C1783648017137483F
:103FB0000078344948713548417832488171334836
:103FC00081783048C1713148C1782E48017230483B
:103FD00000782C4948722E4841782A4881722C4832
:103FE00081782848C1722A48C17826480173294837
:103FF00000782449487328480088C8812748006809
:1040000008744FF012024FF00800FEF736FA4FF432
:104010007A70FCF76DFE10BD10B512221949082008
:10402000FEF791FA4FF47A70FCF762FE15480078BB
:10403000232821D113484079144908701148807908
:1040400048701048C07988700E48007AC8700D48D2
:10405000407A0F4908700B48807A48700948C07A46
:1040600088700848007BC8700648C0890A490880E3
:104070000448007C0949086010BD00004404002089
:1040800028040020E4820020F6020020FA0200202A
:10409000FE020020CD020020CE020020E803002016
:1040A00070B50446204609F00CF80546294620461E
:1040B000FEF714F870BD10B54FF480719D4808F0FC
:1040C000F4FF9D4802889DA19A4809F089F8994813
:1040D000FFF7E6FF10BD10B54FF48071954808F06A
:1040E000E4FF9A4802789AA1924809F079F8914839
:1040F000FFF7D6FF10BD10B54FF480718D4808F062
:10410000D4FF9848027898A18A4809F069F889484C
:10411000FFF7C6FF10BD1CB54FF48071854808F04D
:10412000C4FF9648C07895498978CDE90010934836
:104130004378027892A17F4809F052F87D48FFF752
:10414000AFFF1CBD00B599B04FF0640293496846BB
:1041500008F092FF6846FFF7A3FFFFF7DCFFFFF7C9
:10416000CAFFFFF7B8FFFFF7A6FF19B000BD704701
:1041700010B54FF480716F4808F097FF88480278B7
:1041800088A16C4809F02CF86A48FFF789FF10BD38
:10419000F0B5C3B004460D464FF4807103A808F093
:1041A00084FF1020034603AA294600902046FCF70E
:1041B0000AFE80A103A808F08CFF002834D17EA15C
:1041C00007A808F086FF70BB0BA8FCF781FEC0B201
:1041D0008DF808000FA8FCF77BFEC0B28DF809002F
:1041E00013A8FCF775FEC0B28DF80A0017A8FCF7FB
:1041F0006FFEC0B28DF80B004FF480714D4808F08F
:1042000054FF6FA14B4808F0EBFF4A48FFF748FF07
:104210009DF80B309DF80A209DF809109DF80800C4
:10422000FCF7F1FF83E0FFE76AA103A808F051FF64
:1042300038B961A107A808F04CFF10B9FFF76BFF70
:1042400075E064A103A808F044FF38B963A107A88A
:1042500008F03FFF10B9FFF74EFF68E055A103A833
:1042600008F037FF60B95FA107A808F032FF38B93E
:104270000BA8FCF72DFE06463046FCF724F956E065
:1042800054A103A808F025FF38B956A107A808F0E3
:1042900020FF10B9FFF71FFF49E046A103A808F06F
:1042A00018FF60B951A107A808F013FF38B90BA88F
:1042B000FCF70EFE06463046FCF714F937E045A140
:1042C00003A808F006FF38B948A107A808F001FFC5
:1042D00010B9FFF7F0FE2AE036A103A808F0F9FEB6
:1042E00060B944A107A808F0F4FE38B90BA8FCF7A0
:1042F000EFFD06463046FEF7C1FD18E035A103A8E4
:1043000008F0E7FE38B93DA107A808F0E2FE10B9B1
:10431000FFF72EFF0BE04FF48071064808F0C5FE52
:1043200038A1044808F05CFF0248FFF7B9FE43B02B
:10433000F0BD0000F6820020CE02002054726169B8
:104340006E2049643A20256420200A00CD02002016
:104350004465766963652049643A20256420200A13
:1043600000000000CC02002044657669636520549B
:104370007970653A20256420200A0000F6020020AA
:104380004C6F63616C2049503A2025642E25642EC1
:1043900025642E256420200A0000000034DF000878
:1043A000D8020020416464726573733A202564204A
:1043B000200A0000736574006C6F63616C697000A3
:1043C0004F6B2C20706C6561736520776169742E6A
:1043D0002E2E0A0072656164000000006465767428
:1043E00079706500646576696400000074726169C3
:1043F0006E696400766F6C756D650000616464724F
:1044000000000000496E76616C696420436F6D6D39
:10441000616E6420210A000010B54FF000005B4976
:1044200008605B4908605B4908605B4908605B495C
:1044300008605B4908605B4908605B4908605B494C
:1044400008605B4908605B4800685A490860084694
:104450000068086008460068086008460068086050
:10446000FCF7A4FB20B9534800685249086003E0F8
:10447000504800684F49086010BD10B5FCF796FB26
:1044800098BB4A48006830B94848006800F101000C
:10449000464908602EE045480068022806DA43488D
:1044A000006800F101004149086023E03F480068CE
:1044B00002280AD13D48006800F101003B4908602C
:1044C0004FF001003849086014E03848006864285B
:1044D00006DA3648006800F101003449086009E056
:1044E0004FF001003249086004E0FFE74FF00000A0
:1044F0002E49086026480068002808DD4FF00000BB
:10450000234908604FF00100204908601DE023485E
:104510000068002808DD4FF00000204908604FF0D7
:1045200002001A49086010E01F480068002808DDF2
:104530004FF000001C4908604FF003001349086069
:1045400003E04FF000001149086010BD12480068F8
:10455000002808DD4FF000000F4908604FF001000F
:104560000A49086010E00F480068002808DD4FF095
:1045700000000C4908604FF002000449086003E0A5
:104580004FF0000001490860704700004804002017
:104590004C04002050040020540400205804002043
:1045A0005C040020600400206404002068040020F3
:1045B0006C040020C802002010B50446BB48006807
:1045C000FFF7B5FC10BD2DE9F04106460F46144635
:1045D00020464FEAE47104EB91714FEAA1054FEADE
:1045E000E47104EB91714FEAA101A4EB8101002970
:1045F00001DD05F101052A4639463046FFF739FC51
:10460000BDE8F08170B506460C46A948006882B244
:10461000A849A948006806F00FFD0322A1B20020B6
:1046200003F0A3FA054685B1A2B23146284603F04D
:10463000FEFC2946A048006806F0F3FC9E4800688E
:1046400006F02AFD284603F055FA70BD08B54FF074
:1046500000008DF800004FF004008DF8010097482D
:1046600000684FEA0020C0B28DF80200934800684D
:10467000C0B28DF803004FF004016846FFF7C2FF97
:104680008F480068002806DD8C48006800F10100B2
:104690008A49086007E04FF00000884908608949AE
:1046A00008608249086008BD70B505460C4684481C
:1046B000006800B970BDE878A97800EB01267F4852
:1046C0000068864241D1B4F5017F14D1221F291D13
:1046D0007D4808F0D1FCFFF7B9FF221F7A497348E3
:1046E0000068FFF770FFA4F10400704909680844EE
:1046F0006E49086025E0B4F5017F1EDA221F291DEE
:10470000714808F0B9FCFFF7A1FF221F6E49674806
:104710000068FFF758FFA4F10400644909680844E1
:10472000624908600846006800F10400FFF744FF92
:104730004FF000006249086003E0B4F5017F00DD3E
:1047400000BF4FF001005F49086000BFB2E72DE9EC
:10475000F0478046894614469A46089F54480760A9
:1047600060684578032D04D161896068FFF79CFF7C
:1047700004E0052D02D16068C67800BF204603F032
:10478000B9F9BDE8F08710B5504806F0E9FF49498E
:10479000086006F0B2FC484908600846006800B9A5
:1047A00010BD45F299624A494348006806F082FB11
:1047B00004463CB90022AFF269013F48006806F0A8
:1047C0007BFC00E000BF4FF000003D4908603B4922
:1047D00008603C490860354908604FF0450034499D
:1047E000086000BFDCE7704735480068002813DD2B
:1047F0003448006800F1010032490860084600684A
:10480000C82809DD4FF000002D4908602B490860D9
:104810002C4908602549086070472DE9F343C1B071
:104820000E462CA723484199016001AD4FF48071D9
:10483000284608F03AFC4FF0000028704FF00100C5
:1048400068704FF00204304608F03BFC814628199E
:104850004A46314608F010FC304608F032FC044469
:1048600004F10104384608F02CFC814628194A4618
:10487000394608F001FC384608F023FC044404F1F2
:10488000010841462846FFF7BDFE4FF001000C49E4
:1048900008600A4908600B4908604FF000000349AE
:1048A0000860FFF7CBFA43B0BDE8F0839004002026
:1048B000800400207C04002078040020880400206C
:1048C000840400208C040020F6830020BB65A8C06F
:1048D000CEDF00086F637465740000003A4940EA57
:1048E00001013A4A1160704770B54FF000010B4664
:1048F0004FF00F02C4786CB3344C246804F4E064C5
:10490000C4F5E064C4F30721C1F10404E3B242FA40
:1049100001F2447804FA03F4E1B2847804EA020470
:1049200044EA01014FEA01744FEA1461284C05780A
:104930006155047804F01F054FF0010404FA05F4F2
:1049400005784FEA65154FF0E02606EB8505C5F8BA
:1049500000410CE0047804F01F054FF0010404FA54
:1049600005F41C4D06784FEA661645F8264070BDE2
:10497000194A01EA020242EA0002184B1A60704723
:1049800031B1174A126842EA0002154B1A6005E07D
:10499000134A126822EA0002114B1A607047042879
:1049A00008D14FF0E021096941F004014FF0E02205
:1049B000116107E04FF0E021096921F004014FF097
:1049C000E0221161704700000000FA050CED00E0E4
:1049D00000E400E080E100E080FFFF1F08ED00E060
:1049E00010ED00E0016821F0010101604FF00001CD
:1049F000016041608160C16001614FF0210141614E
:104A0000E249884204D14FF03D01E14A91607EE0E5
:104A1000DE491831884204D14FF47461DC4A916058
:104A200075E0DA493031884204D14FF47411D84A24
:104A300091606CE0D5494831884204D14FF07461EF
:104A4000D34A916063E0D1496031884203D1D149B2
:104A5000CF4AD1605BE0CD497831884203D1CE495D
:104A6000CB4AD16053E0C9499031884203D1CB4948
:104A7000C74AD1604BE0C549A831884204D14FF004
:104A80003D51C34AD16042E0C549884204D14FF04C
:104A90003D01C44A11603AE0C1491831884204D14D
:104AA0004FF47461BF4A116031E0BD493031884232
:104AB00004D14FF47411BB4A116028E0B849483161
:104AC000884204D14FF07461B64A11601FE0B449C6
:104AD0006031884203D1AF49B34A116017E0B04951
:104AE0007831884203D1AC49AF4A11600FE0AC493C
:104AF0009031884203D1A949AB4A116007E0A84927
:104B0000A831884203D14FF03D51A74A1160704748
:104B100010B54FF000020268A44B02EA0302CC6811
:104B20000B6843EA04034C6943EA04038C6943EAD3
:104B30000403CC6943EA04030C6A43EA04034C6AA5
:104B400043EA04038C6A43EA04034C6B43EA04031C
:104B50008C6B43EA040343EA02020260426922F0DA
:104B60000702D1E90B3443EA040343EA020242613B
:104B70000B6943604B6883608B68C36010BD4FF066
:104B80000001016041608160C1600161416181613A
:104B9000C161016241628162C162016341638163FB
:104BA000704721B1026842F00102026003E002682E
:104BB00022F001020260704721B1026842F4004213
:104BC000026003E0026822F400420260704721B1F3
:104BD000026842F02002026003E0026822F0200234
:104BE00002607047416070470146486880B2704774
:104BF00022B1036843F40023036003E0036823F455
:104C0000002303600161704721B1026842F48022F1
:104C1000026003E0026822F48022026070470AB159
:104C2000016100E0C160704701464FF000000A6872
:104C300012F4002F02D04FF0010001E04FF000000D
:104C4000704701464FF000000A6812F0010F02D0D1
:104C50004FF0010001E04FF00000704701464FF0B7
:104C600000004A6902F03800704730B503460A4632
:104C70004FF0000004464A4DAB4201D2444900E0E7
:104C80004B4912F0005F01D04C6800E00C68494DC0
:104C900004EA0504144202D04FF0010001E04FF095
:104CA000000030BD02463E4B9A4201D2384800E037
:104CB0003F4811F0005F04D03E4B01EA0303C3609C
:104CC00003E03C4B01EA03038360704710B511F029
:104CD000800F09D022B1436943F08003436103E0B0
:104CE000436923F08003436180290DD032B103680A
:104CF00001F01E0443EA0403036005E0036801F0C9
:104D00001E0423EA0403036010BD70B502464FF091
:104D1000000004460546224EB24201D21C4B00E080
:104D2000234B254E314207D04FF01E0606EAD12410
:104D3000166806EA040502E0566906F0800511F0DF
:104D4000005F01D05C6800E01C681A4E04EA0604AB
:104D50000C4203D015B14FF0010001E04FF000000C
:104D600070BD02460E4B9A4201D2094800E010483D
:104D700011F0005F04D00F4B01EA0303C36003E0AE
:104D80000C4B01EA0303836070470000106002408F
:104D9000006002403D000020400F002000003D2048
:104DA00010640240086402400C6402403F801CF022
:104DB000006402407D0F7D0F3C0F3C0FF84A1070DD
:104DC000704730B1F649096841F48071F44A1160C6
:104DD00005E0F349096821F48071F14A11607047D8
:104DE00030B1EF49096841F40071ED4A116005E006
:104DF000EB49096821F40071E94A1160704730B14C
:104E0000E749096841F48061E54A116005E0E44939
:104E1000096821F48061E24A11607047E048006847
:104E200040F40060DE4908607047DD48006840F4E7
:104E30008050DB4908607047D9481030006810F096
:104E4000004F04D0D748D8490860D8480860704758
:104E5000D748006840F00040D549086070474FF0DF
:104E60000800D449096801F48031B1F5803F02D1CE
:104E70004FF0010019E0CF49096811F0100F02D07E
:104E80004FF0050011E0CB49096811F0EF0F02D097
:104E90004FF0060009E0C749096811F0020F02D07F
:104EA0004FF0070001E04FF00800704700B54FF0E9
:104EB0000802FFF7D4FF024602E0FFF7D0FF0246E8
:104EC000012AFAD0104600BD70B504460B464FF0DB
:104ED00000064FF0080503B90BE0012B02D14FF497
:104EE000807606E0022B02D14FF4007601E04FF409
:104EF0004076FFF7DBFF0546082D2AD1AC48006855
:104F000020F44070AA4908600846006840EA06009C
:104F100008600846006820F0F8000860084600684D
:104F200044F0020140EA0100A14908600846006817
:104F300040F480300860FFF7B9FF05469C480068E0
:104F400020F002009A4908600846006820F0F80046
:104F50000860284670BD30B503464FF000054FF09D
:104F60000804FFF7A3FF044603B90BE0012B02D1AD
:104F70004FF4807506E0022B02D14FF4007501E07A
:104F80004FF44075082C1DD18948006820F440700A
:104F9000874908600846006840EA0500086008463E
:104FA000006840F0040008600846006840F4803063
:104FB0000860FFF77BFF04467D48006820F004008E
:104FC0007B490860204630BD70B5064614461D4634
:104FD0004FF00803FFF76AFF0346082B1AD1744805
:104FE000006820F44070724908600846006840F488
:104FF000407008600846006840F0010008603460B6
:105000007560FFF753FF03466948006820F0010010
:1050100067490860184670BD30B503460C464FF02E
:105020000805FFF743FF0546082D19D160480068C1
:1050300020F440705E4908600846006840F4007043
:1050400008600846006840F0010008601C60FFF737
:105050002DFF05465648006820F0010054490860BD
:10506000284630BD30B503460C464FF00805FFF723
:105070001DFF0546082D19D14D48006820F44070E9
:105080004B4908600846006840F480700860084694
:10509000006840F0010008601C80FFF707FF05462C
:1050A0004348006820F0010041490860284630BDAF
:1050B00030B503460C464FF00805FFF7F7FE0546EE
:1050C000082D17D13A48006820F44070384908602C
:1050D0000846006808600846006840F00100086063
:1050E0001C70FFF7E3FE05463148006820F0010020
:1050F0002F490860284630BD2D48001D006810F07B
:10510000010F04D02C482D4908602D4808607047D5
:105110002C48006840F001002A490860704730B50B
:1051200003460C464FF00805FFF7C0FE0546082D64
:105130000ED134B12448008820EA030022490880B7
:1051400006E02148008899B240EA01001E49088023
:1051500030BD10B503464FF00804FFF7A7FE044624
:10516000082C01D11948037010BDF0B503460C4658
:1051700015464FF0FF064FF00807FFF797FE07466A
:10518000082F0BD10F48007800F00F0644EA060004
:1051900040EA050040EA03000A490870F0BD00003B
:1051A000003C024023016745043C0240AB89EFCD3F
:1051B000103C02400C3C02403B2A1908083C0240CB
:1051C0007F6E5D4C143C0240163C0240153C024090
:1051D0002949097821F00C01274A117011460978F4
:1051E00041EA00011170704700B54FF008032248F2
:1051F000007840F0020020490870FFF757FE034690
:10520000184600BD1C480068C0F3471070471A4894
:10521000801C008870474FF0000018490978AA29BF
:1052200002D04FF0010001E04FF00000704712483B
:10523000007800F00C00704731B1114A126842EA60
:1052400000020F4B1A6005E00D4A126822EA0002C4
:105250000B4B1A60704701464FF00000094A126874
:105260000A4202D04FF0010001E04FF00000704709
:105270000449086070470000143C0240153C02409D
:10528000103C02400C3C024010B50446A148844248
:1052900008D10121084600F06EFD0021012000F038
:1052A0006AFD5EE09C48844208D10121022000F0A2
:1052B00062FD0021022000F05EFD52E0974884422A
:1052C00008D10121042000F056FD0021042000F047
:1052D00052FD46E09248844208D10121082000F0A6
:1052E0004AFD0021082000F046FD3AE08D48844246
:1052F00008D10121102000F03EFD0021102000F017
:105300003AFD2EE08848844208D10121202000F097
:1053100032FD0021202000F02EFD22E0834884424F
:1053200008D10121402000F026FD0021402000F09E
:1053300022FD16E07E48844208D10121802000F041
:105340001AFD0021802000F016FD0AE07948844211
:1053500007D10121801500F00EFD0021A01500F0FD
:105360000AFD10BDF0B50A464FF000010B460C4691
:1053700000BF59E04FF0010505FA01F3156805EA91
:1053800003049C424ED105684FEA41074FF00306E3
:1053900006FA07F625EA0605056015794FEA410683
:1053A00005FA06F5066845EA060505601579012D3A
:1053B00002D01579022D22D185684FEA41074FF0BE
:1053C000030606FA07F625EA0605856055794FEAD1
:1053D000410605FA06F5866845EA060585604568D2
:1053E0004FF0010606FA01F625EA06054560456814
:1053F000967906FA01F6B6B245EA06054560C56833
:105400004FEA41074FF0030606FA07F625EA0605BC
:10541000C560D5794FEA410605FA06F5C66845EA42
:105420000605C56001F101011029A3D3F0BD4FF6B7
:10543000FF7101604FF00001017141718171C17113
:1054400070474FF4803242EA0102C261C161C26119
:10545000C269C269704702464FF0000013690B42EF
:1054600002D04FF0010001E04FF00000704701460C
:10547000086980B2704702464FF0000053690B4242
:1054800002D04FF0010001E04FF0000070470146EC
:10549000486980B2704701837047418370470AB101
:1054A000018300E04183704741617047426982EAAD
:1054B000010242617047F0B54FF000031C464FEA0D
:1054C00041754FEAD56502FA05F34FEAE10600F1AE
:1054D000200555F826504FEA41764FEAD6674FF03F
:1054E0000F0606FA07F625EA06054FEAE10700F17E
:1054F000200646F827504FEAE10600F1200555F84E
:10550000265045EA03044FEAE10600F1200545F87C
:105510002640F0BD000002400004024000080240A6
:10552000000C02400010024000140240001802402B
:10553000001C02400020024010B50446FA48844294
:1055400009D10121480500F078FC00214FF400103A
:1055500000F073FC18E0F548844209D10121880568
:1055600000F06BFC00214FF4800000F066FC0BE0C3
:10557000EF48844208D10121C80500F05EFC0021FB
:105580004FF4000000F059FC10BD2DE9FF47044620
:105590000D464FF00006B1464FF00407DFF8948344
:1055A000A6884FF6C07006EA0006684600F005FBC4
:1055B000DDF80880E048B8FBF0F01FFA80F946EA11
:1055C0000906A68020884FF6FE7100EA01002080BF
:1055D0004FF00006D949286888420FD828684FEA5A
:1055E0004000B8FBF0F087B2042F01DA4FF0040757
:1055F00046EA070609F10100208429E0E888A0F5C1
:105600003F41FF3906D1286800EB4000B8FBF0F0BD
:1056100087B209E0286800EBC00101EB0010B8FB7D
:10562000F0F087B247F480473805000D01D147F00C
:10563000010747F4004040EA06064FF4967009FB64
:1056400000F04FF47A7190FBF1F000F1010020843A
:10565000A683208840F00100208026884FF6F53090
:1056600006EA0006A888698940EA010040EA0606C1
:105670002680A889298940EA01002081BDE8FF87AA
:1056800041F2883101604FF0000181804BF6FF71DB
:10569000C1804FF00001018141814FF4804181813F
:1056A000704721B1028842F00102028005E00288C1
:1056B0004FF6FE7302EA03020280704721B10288AE
:1056C00042F48072028005E002884FF6FF6302EA2E
:1056D00003020280704721B1028842F40072028006
:1056E00005E002884FF6FF5302EA0302028070478A
:1056F00012B141F0010101E001F0FE0101827047A9
:1057000021B1028842F48062028005E002884FF6EF
:10571000FF3302EA0302028070470A464FF000019D
:1057200081894FF6017301EA030102F0FE0343EAA7
:1057300001018181704721B1828942F00102828199
:1057400005E082894FF6FE7302EA03028281704708
:1057500021B1028842F04002028005E002884FF643
:10576000BF7302EA03020280704721B1028842F44B
:105770000042028003E00288C2F30E0202807047FA
:1057800021B9028842F08002028005E002884FF6CB
:105790007F7302EA030202807047B1F5804F06D0A2
:1057A000828B4BF6FF7302EA0302828303E0828B53
:1057B00042F4804282837047B1F5006F04D10288C1
:1057C00042F40062028005E002884FF2FF7302EAB1
:1057D000030202807047B1F5005F04D1028842F4F1
:1057E0000052028005E002884DF6FF7302EA0302D0
:1057F0000280704721B1028842F01002028005E069
:1058000002884FF6EF7302EA0302028070470182BA
:1058100070470146088AC0B2704721B1028842F43D
:105820008052028005E002884EF6FF7302EA03020E
:1058300002807047B1F5006F04D1028842F4006223
:10584000028005E002884FF2FF7302EA0302028041
:10585000704721B1028842F02002028005E00288F0
:105860004FF6DF7302EA0302028070470146088B9D
:105870004FEA2020704721B1828842F40062828082
:1058800005E082884FF2FF7302EA030282807047CC
:1058900021B1828842F48052828005E082884EF6EF
:1058A000FF7302EA03028280704702464FF0000352
:1058B00013460B441888704710B522B1838843EA19
:1058C0000103838006E083886FEA0104A4B203EA3F
:1058D0000403838010BD70B502464FF000042546D6
:1058E00023461846958A138B4FEA034345EA03067D
:1058F00026F07F4404EA01068E4202D14FF00100F7
:1059000001E04FF0000070BD10B501464FF00000FF
:10591000034602468B8A0A8B4FEA024243EA02049C
:1059200024F07F4010BD00000054004000580040AB
:10593000005C004000127A0040420F00A086010087
:1059400030B503464FF00000044602461A464FEABF
:10595000117421F07F4114B102F1140203E04FEA07
:10596000114102F1180215680D4202D04FF00100FA
:1059700001E04FF0000030BD4FF0000221F07F4207
:105980006FEA02038382704730B502464FF0000091
:105990000346948801F0E06504EA154321F07F4155
:1059A000948A0C4203D013B14FF0010001E04FF094
:1059B000000030BD4FF0000221F07F426FEA020389
:1059C00083827047F748006840F00100F54908609D
:1059D0004FF00000F4490860F2480068F34900EA1B
:1059E0000100F0490860F24801F104010860ED4847
:1059F000006820F48020EB4908604FF00000ED497A
:105A0000086070474FF00001EB4A117011460870B2
:105A1000704710B501464FF00002134610464FEA9A
:105A20006112012A02D1DF4C236806E0022A02D16A
:105A3000E24C236801E0E24C236801F01F024FF0C2
:105A4000010404FA02F41C4202D04FF0010001E00C
:105A50004FF0000010BD70B54FF0000425462646FB
:105A600000BF3120FFF7D5FF064604F10104B4F56D
:105A7000A06F01D0002EF4D03120FFF7CAFF10B183
:105A80004FF0010501E04FF00005284670BD0146CA
:105A90004FF00000C34A106820F0F80040EAC1004F
:105AA00010607047C749086070474FF00001C34A53
:105AB00011701170012802D004280AD104E04FF0BF
:105AC0000101BE4A117005E04FF00501BB4A11709B
:105AD00000E000BF00BF7047BB490860704770B569
